:020000040800F2
:1000000038A30020A90100083D1B0008891600083C
:10001000391B000895040008CD7500080000000099
:100020000000000000000000000000003D43000848
:10003000F513000800000000AD230008654F00081C
:10004000C3010008C3010008C3010008C301000880
:10005000C3010008C3010008C3010008C301000870
:10006000C3010008C3010008C3010008C301000860
:10007000C3010008C3010008C3010008C301000850
:10008000C3010008C3010008C3010008000000000C
:10009000000000000000000000000000C301000894
:1000A000C3010008C3010008C3010008C301000820
:1000B000C3010008C3010008C3010008C301000810
:1000C000C3010008C3010008C3010008C301000800
:1000D000C30100089D540008C3010008000000008F
:1000E000C3010008C3010008C301000800000000AC
:1000F000000000000000000000000000C301000834
:1001000000000000BD30000859500008C30100087D
:1001100000000000000000000000000000000000DF
:10012000C3010008C3010008C3010008A1110008B1
:10013000C3010008000000000000000000000000F3
:10014000000000000000000000000000692100081D
:10015000C3010008C3010008C3010008AD54000832
:10016000C3010008C30100080000000000000000F7
:10017000000000000000000000000000000000007F
:1001800000000000C30100080000000000000000A3
:10019000C3010008DFF80CD000F096F800480047D3
:1001A000819A000838A30020064880470648004787
:1001B000FEE7FEE7FEE7FEE7FEE7FEE7FEE7FEE717
:1001C000FEE7FEE7F14F0008950100082DE9F05F1A
:1001D0000546002092469B468846064681464024B6
:1001E0001BE0284641464746224600F05CF853464D
:1001F0005A46C01A914110D311461846224600F0C3
:1002000043F82D1A67EB01084F46224601200021D2
:1002100000F03AF817EB00094E41201EA4F101044A
:10022000DFDC484631462A464346BDE8F09F40EAB7
:1002300001039B0703D009E008C9121F08C0042A64
:10024000FAD203E011F8013B00F8013B521EF9D24B
:100250007047D2B201E000F8012B491EFBD2704773
:100260000022F6E710B513460A4604461946FFF782
:10027000F0FF204610BD034611F8012B00F8012BBA
:10028000002AF9D118467047202A04DB203A00FAE8
:1002900002F1002070479140C2F1200320FA03F3DD
:1002A000194390407047202A04DB203A21FA02F0DB
:1002B0000021704721FA02F3D040C2F120029140A0
:1002C0000843194670470000064C074D06E0E068F9
:1002D00040F0010394E8070098471034AC42F6D38D
:1002E000FFF75CFF6CCA00088CCA000870B58C1858
:1002F00010F8015B15F0070301D110F8013B2A113A
:1003000006D110F8012B03E010F8016B01F8016B26
:100310005B1EF9D12B0705D40023521E0DD401F822
:10032000013BFAE710F8013BCB1A921C03E013F8EB
:10033000015B01F8015B521EF9D5A142D8D3002020
:1003400070BD10B501220221082000F065F810BD33
:100350001CB52F48007810B12D48808800B91CBD0D
:100360002B484078E8B92A48808800284DDD284885
:100370000089401C80B2264908814988884244DBB4
:1003800000204FF4FA6104238A06CDE90010082109
:10039000204807F0DBFF00201D490881012048703C
:1003A00033E01B48407801282FD119480089401CB0
:1003B00080B2174908818988884226DB1448C088A2
:1003C000002812DD12484089401C80B21049488143
:1003D000C988884202DB00200D4908700C4800786B
:1003E00018B900200A498880B9E700200849088127
:1003F000487041F658304FF4FA6104238A06CDE97B
:1004000000100821034807F0A1FF00BFA7E7000084
:1004100078230020000002407CB504460D461646B5
:1004200004B97CBD0C4844808580C68000200A4900
:100430000881488148700120087041F658304FF417
:10044000FA6104238A06CDE900100821034807F069
:100450007DFF00BFE5E70000782300200000024098
:100460001CB50020094908700846808810B108466C
:10047000C08850B900204FF4FA6104238A06CDE900
:1004800000100821024807F061FF1CBD78230020FE
:100490000000024000BFFEE710B5044632201649B6
:1004A0000880164809F0C0FA30B1002014490870DD
:1004B00014A007F025F910BD2146104809F0A2FB51
:1004C0000F480078401C0E4908700846007840F23A
:1004D000122188420EDD0020094908700E48B0F94B
:1004E0000200401C052190FBF1F201FB120000B25A
:1004F0000949488000BFDEE76C0000200010014081
:100500003A000020434F4D312044617461206F76E2
:1005100065720D0A000000003C00002000B5ADF53A
:100520000B7D01A808F040FE0021084608F04CFEB3
:100530000DF50B7D00BD70B500254FF4803400E053
:10054000641E24B1802002F08DFD0028F8D014B97B
:100550000325284670BD40F2FF5002F03FFD2846BB
:10056000F8E700002DE9F0410646002748480568F5
:1005700001E04748056805F045000028F9D005F07E
:10058000040030B10327042002F028FD3846BDE8FE
:10059000F08105F0010028B10127012002F01EFDC5
:1005A0003846F4E702F058FDB04202D01027384632
:1005B000EDE740F2FF5002F011FD002002F072FD65
:1005C00004463448204008B93846E0E704F00040CB
:1005D00008B11C20DBE704F0804008B10920D6E711
:1005E00004F0005008B10A20D1E704F0805008B1AF
:1005F0000B20CCE704F0006008B10C20C7E704F042
:10060000806008B10D20C2E704F0807008B10E20B0
:10061000BDE704F4000008B10F20B8E704F480003F
:1006200008B11020B3E704F4001008B11120AEE7C0
:1006300004F4801008B11220A9E704F4002008B1E6
:100640001320A4E704F4802008B114209FE704F4E9
:10065000003008B115209AE704F4803008B1162064
:1006600095E704F4004008B1172090E704F48040B7
:1006700008B118208BE704F4005008B1192086E770
:1006800004F0080008B11A2081E738467FE700002F
:10069000342C014008E0FFFD70B5002510480468C7
:1006A00001E00F48046804F045000028F9D004F088
:1006B000040028B10325042002F090FC284670BDF8
:1006C00004F0010028B10125012002F087FC284632
:1006D000F5E740F2FF5002F081FC2846EFE700000A
:1006E000342C014070B500250B48046801E00A482D
:1006F000046804F045000028F9D004F0040028B193
:100700000325042002F06AFC284670BD40F2FF5029
:1007100002F064FC2846F8E7342C01402DE9F04152
:1007200006460F464FF000082248056801E02148C0
:10073000056805F045000028F9D005F0040038B13F
:100740004FF00308042002F049FC4046BDE8F08168
:1007500005F0010030B14FF00108012002F03EFC2D
:100760004046F3E702F078FCB04203D04FF01008A7
:100770004046EBE740F2FF5002F030FC002002F070
:1007800091FC044604F4604018B9200C38804046BF
:10079000DCE704F4005008B11320D7E704F48040EC
:1007A00008B11020D2E704F4004008B10F20CDE7D3
:1007B0004046CBE7342C014070B500264FF480351D
:1007C0000F48046802E06D1E0D48046804F04500FF
:1007D00008B9002DF7D115B104F0040028B10326A3
:1007E000042002F0FBFB304670BD04F0400028B14D
:1007F0000026402002F0F2FB3046F5E73046F3E7F2
:10080000342C014008B525208DF8000000208DF81B
:10081000020001208DF80300684601F091F947209D
:100820008DF8000005208DF8020001208DF80300EE
:10083000684601F085F908BD70B506460C4604F01F
:100840008000802808D104F07F0000EB800106F5CD
:100850008E7000EBC10507E004F07F0000EB800123
:1008600006F55D7000EBC10504F07F00287004F010
:100870008000C00968702946304606F0B1FA0020B1
:1008800070BD70B506460C4604F08000802808D183
:1008900004F07F0000EB800106F58E7000EBC105CF
:1008A00005E004EB840106F55D7000EBC105002056
:1008B000A87004F07F002870C4F3C0106870294647
:1008C000304606F065FA002070BD70B505460C464E
:1008D00004F08000802805D104F07F01284606F04E
:1008E00079FC02E0284606F04FFC002070BD2DE99F
:1008F000F04106460D4690461F4605F080008028D0
:1009000008D105F07F0000EB800106F58E7000EB4A
:10091000C10407E005F07F0000EB800106F55D7083
:1009200000EBC10405F07F00207005F08000C009D5
:100930006070C4F80880E770607808B12078E080C3
:10094000022F01D1002020712146304606F0D4F953
:100950000020BDE8F0812DE9F04105460E4617461E
:10096000984606F07F0000EB800105F55D7000EB16
:10097000C104E760C4F814800020A061607006F034
:100980007F002070E878012800D12761207820B905
:100990002146284606F0D4F803E02146284606F012
:1009A00080FA0020BDE8F08108B500220092009A8C
:1009B00061F30A12009202691268009B1A430369EC
:1009C0001A6008BD70B506460C4604F08000802809
:1009D00008D104F07F0000EB800106F58E7000EB7B
:1009E000C10505E004EB840106F55D7000EBC1056F
:1009F0000120A87004F07F002870C4F3C010687054
:100A00002946304606F01BFA002070BD2DE9F04162
:100A100007460D461646984605F07F0000EB80011C
:100A200007F58E7000EBC1040120607005F07F00B7
:100A30002070E66026610020A061C4F81480207850
:100A400020B92146384606F07BF803E021463846B7
:100A500006F027FA0020BDE8F0811CB504462046C8
:100A600006F039F8E068C0680090204606F0DCFB2C
:100A700003280BD10020A0704FF40070A0800098D4
:100A800020F4705000F51050009009E00120A07093
:100A90004020A080009820F4705000F5A0500090F5
:100AA0000098E168C86000200190019820F400508F
:100AB00000F5005001900198E168486101201CBDDB
:100AC000F8B50546002400200090284606F0EBFB10
:100AD000064690E006F0010000287DD0E1B22846ED
:100AE00000F002FB0090009800F0010030B30120FC
:100AF00000FA04F72869406BB8432969486300206D
:100B00000090009820F00100401C009005F11800B2
:100B100050F8240000998160E1B2394800684268C9
:100B200028469047E878012808D13CB940F21110D6
:100B3000405D042802D1284606F0ADF80098C0F3C5
:100B4000C00060B100200090009820F0080008303C
:100B5000009005F1180050F8240000998160009879
:100B6000C0F3001060B100200090009820F0100049
:100B70001030009005F1180050F8240000998160B1
:100B80000098C0F3801060B100200090009820F021
:100B900040004030009005F1180050F82400009902
:100BA00081600098C0F3400060B100200090009880
:100BB00020F00200801C009005F1180050F824007D
:100BC000009981600098C0F3C01028B121462846E2
:100BD00000F09EFA002000E00BE00090009820F06A
:100BE00080008030009005F1180050F82400009932
:100BF0008160641C7608002E7FF46CAF0120F8BD84
:100C0000680100207CB504460025002001902046A4
:100C100006F051FB06466FE006F00100002869D09F
:100C2000E9B2204606F04FFB0190019800F0010068
:100C3000C8B300200190019820F00100401C0190F1
:100C400004F1540050F8250001998160E0780128F2
:100C500017D104F1540050F825000069009005EB0D
:100C6000850104F55D7000EBC10080680099C1F357
:100C70001201411A05EB850204F55D7000EBC2001C
:100C80008161E9B21E480068026820469047E0781A
:100C9000012808D13DB940F21110005D052802D1AC
:100CA000204605F0F8FF0198C0F3400060B1002035
:100CB0000190019820F00200801C019004F1540082
:100CC00050F82500019981600198C0F3C00088B1F7
:100CD0000B480068816820468847002001900198F1
:100CE00020F008000830019004F1540050F825006D
:100CF000019981606D1C7608002E8DD101207CBD8C
:100D0000680100203EB50446A07A70B1D4F80C0109
:100D10000090009820F002000090009820F0010060
:100D200000900099D4F80C01016000200190019816
:100D300020F00100401C019020694068019988431F
:100D4000216948600848006881692046884700207A
:100D50000290029820F0004000F1004002900298BA
:100D6000E168486101203EBD680100207CB5044671
:100D700000200190019820F0100010300190E068F0
:100D8000806901998843E1688861E068006A0090A1
:100D9000009800F00F0000EB800104F55D7000EB9F
:100DA000C1050098C0F3434007282DD2DFE800F0CA
:100DB0002C04051D1E2C1F0027E00098C0F30A100C
:100DC00090B10098C0F30A122046E96806F085FA4F
:100DD000E8680099C1F30A110844E860A86900991D
:100DE000C1F30A110844A8610FE00EE00DE00822EB
:100DF00004F2CC51204606F070FAA8690099C1F3BC
:100E00000A110844A86100E000BF00BFE0688069E3
:100E100001990843E168886101207CBD38B504462A
:100E200008480068C1682046884700200090009864
:100E300020F00800083000900098E1684861012027
:100E400038BD0000680100201FB504460020009056
:100E50004FF48970005D0090234800684169204686
:100E6000884720698068019000200390039820F44F
:100E7000006000F5006003900398E1684861A07A83
:100E800070B3019800F0010050B340F21510005DFE
:100E9000012825D19DF80000032821D100200290CF
:100EA000029820F00100401C0290D4F80C01006868
:100EB00002990843D4F80C110860029820F002004F
:100EC000801C0290D4F80C01006802990843D4F801
:100ED0000C1108600548006840F0060003490860EE
:100EE000012004B010BD00006801002010ED00E0FA
:100EF00030B587B00446002002900690059004901B
:100F000003900190029820F00100401C029020699B
:100F1000406802998843216948600021204606F014
:100F200059F900250BE0FF2104F1180050F82500C5
:100F3000816004F1540050F8250081606D1C6078D8
:100F4000A842F0D84FF0FF312069816106986FF315
:100F50000F00401C0690069880B200F58030069085
:100F600006992069C161059820F0080008300590B5
:100F7000059820F00100401C0590059820F0020023
:100F8000801C0590059920694161049820F00100BA
:100F9000401C0490049820F0080008300490049845
:100FA00020F00200801C04900499206901612069EE
:100FB00000680390039820F4FE6003900399206971
:100FC0000160204605F067FE00200190019820F4A2
:100FD000805000F5805001900198E1684861044814
:100FE0000068016920468847012007B030BD000035
:100FF000680100202DE9F04106460F46394630468B
:1010000006F080F901214FF4897081550021801C80
:101010008155002511E005EB850106F58E7000EB8A
:10102000C104012060702570E5800020E070402040
:10103000A0600020E06060616D1C7078A842EAD872
:10104000002510E005EB850106F55D7000EBC1049D
:10105000002060702570E580E0704020A0600020D6
:10106000E06060616D1C7078A842EBD8304605F0F6
:1010700021FD304605F04EFB0021304606F0AAF96E
:10108000304605F0DAFB304606F06DF8BDE8F08139
:1010900038B504460020009007480068C169204622
:1010A0008847009820F4801000F580100090009888
:1010B000E1684861012038BD6801002038B5044668
:1010C0000020009007480068016A20468847009881
:1010D00020F4001000F5001000900098E1684861CD
:1010E000012038BD6801002030B5024615692B6922
:1010F00015696C6B24FA01F505F0010543EAC51387
:1011000002F1180555F82150AD6805EA030030BD1D
:101110002DE9F84307460E4600250020009006EB17
:10112000860107F58E7000EBC104D4E90501451A6C
:10113000A068A84200D2A568E81C4FEA900807F111
:10114000180050F82600806900901BE0D4E90501E2
:10115000451AA068A84200D2A568E81C4FEA90088A
:10116000ABB2F2B23846E16806F05BF9E0682844B9
:10117000E060A0692844A06107F1180050F826003B
:1011800080690090009880B2404506D9D4E90510E6
:10119000884202D260690028D8D10120BDE8F883D6
:1011A00010B502F08FFC10BD0246094B9A4201D2E5
:1011B000084801E00648103801F000531BB1064B07
:1011C0000B40C36002E0044B0B408360704700009B
:1011D00010640240006002407D0F7D0F21B1026863
:1011E00042F00102026003E0026822F001020260A4
:1011F00070470000016821F00101016000210160D9
:1012000041608160C1600161212141614A49884298
:1012100004D13D21484A103A91608CE0464918318A
:10122000884205D14FF47461434A103A916082E0DC
:1012300041493031884205D14FF474113E4A103A89
:10124000916078E03C494831884205D14FF07461A3
:10125000394A103A91606EE037496031884204D1D2
:101260003649354A103AD16065E0334978318842D1
:1012700004D13349304A103AD1605CE02E499031B4
:10128000884204D12F492C4A103AD16053E02A49B0
:10129000A831884205D14FF03D51274A103AD1601C
:1012A00049E02949884204D13D21274A083A116082
:1012B00041E025491831884205D14FF47461224A32
:1012C000083A116037E020493031884205D14FF4A7
:1012D00074111D4A083A11602DE01B4948318842BB
:1012E00005D14FF07461184A083A116023E016499D
:1012F0006031884204D11149134A121F11601AE06B
:1013000011497831884204D10D490F4A121F1160EA
:1013100011E00D499031884204D10A490A4A121F4E
:10132000116008E00849A831884204D14FF03D51CE
:10133000054A121F11607047106002403D000020F6
:10134000400F002000003D201064024021B10268DF
:1013500042F02002026003E0026822F020020260F4
:10136000704710B501F080034BB122B1436943F0DF
:101370008003436103E0436923F0800343618029D4
:101380000BD02AB1036801F01E042343036004E07C
:10139000036801F01E04A343036010BD10B50022D2
:1013A0000268134B1A40CC680B6823434C692343F3
:1013B0008C692343CC6923430C6A23434C6A23433F
:1013C0008C6A23434C6B23438C6B23431A43026088
:1013D000426922F00702D1E90B3423431A434261E8
:1013E0000B6943604B6883608B68C36010BD00006D
:1013F0003F801CF0704700002DE9FC4107460D4678
:101400000026002400200090019008205B4908601D
:1014100010204860402088600020C8604FF4806041
:101420000861084601F09AFE1020FFF79BF8044679
:1014300014B12046BDE8FC815148008800044F49A2
:10144000086037204860402088600020C8604FF462
:1014500080600861084601F081FE3720FFF782F8BE
:1014600004460CB12046E5E74FF0FF3045490860DF
:1014700008204860302088600220C8600020086191
:1014800001204861084601F0C1FD00203B49086089
:1014900033204860402088600020C8604FF480609E
:1014A0000861084601F05AFE3320FFF75BF8044656
:1014B0000CB12046BEE709E04FF4001001F0D2FD68
:1014C00020B101F045FE4DF82600761C2E4800683C
:1014D00040F22A6108400028EED0082001F0C2FD49
:1014E00028B1082001F07AFD04242046A2E702205A
:1014F00001F0B8FD28B1022001F070FD0224204661
:1015000098E7202001F0AEFD28B1202001F066FD13
:10151000062420468EE74FF4007001F0A3FD30B1A1
:101520004FF4007001F05AFD0724204682E740F294
:10153000FF5001F053FD00980006009901F47F412F
:1015400040EA0120009901F47F0140EA112000994E
:1015500040EA1160686001980006019901F47F413A
:1015600040EA0120019901F47F0140EA112001992C
:1015700040EA1160286020465CE70000300F002040
:1015800024000020440F0020342C0140F0B50A460E
:1015900000210023002400BF3DE0012505FA01F3EE
:1015A000156805EA03049C4234D105684F00032600
:1015B000BE40B543056015794E00B5400668354319
:1015C00005601579012D02D01579022D16D1856897
:1015D0004F000326BE40B543856055794E00B540A7
:1015E000866835438560456801268E40B543456071
:1015F000456896798E40B6B235434560C5684F0060
:101600000326BE40B543C560D5794E00B540C668D7
:101610003543C560491C1029BFD3F0BDF0B5002388
:1016200000244D07ED0E02FA05F3CE1000F120055F
:1016300055F826504E07F70E0F26BE40B543CF1083
:1016400000F1200646F82750CE1000F1200555F88D
:10165000265045EA0304CE1000F1200545F8264047
:10166000F0BD0246002013690B400BB1012000E0E1
:101670000020704741837047018370470AB101839E
:1016800000E041837047000009A100200CE00A5CE3
:10169000124B1A8000BF114A121F128802F040023A
:1016A000002AF8D0421CD0B22A28F0D300BFFEE7AF
:1016B0000D0A456E74657220486172644661756CEE
:1016C000745F48616E646C65722C20537973746525
:1016D0006D2048616C742E0D0A0000000414014056
:1016E00000B587B00121022000F028FF0121102061
:1016F00000F054FF072206214A48FFF78FFF072218
:1017000011464848FFF78AFF00208DF81A00012093
:101710008DF81B0002208DF8180040200590022053
:101720008DF8190005A93F48FFF730FF02208DF81A
:1017300018008020059005A93A48FFF727FF4FF4CD
:10174000E13001900020ADF80800ADF80A00ADF8D6
:101750000C00ADF810000C20ADF80E0001A93248C5
:1017600003F01EFF012240F225512F4803F0F2FE44
:1017700001212D4803F0ABFE40212B4803F09EFED3
:101780000121042000F0DAFE0121202000F006FFF4
:10179000082206212548FFF741FF08220721234898
:1017A000FFF73CFF00208DF81A0001208DF81B0088
:1017B00002208DF818004020059002208DF81900B5
:1017C00005A91A48FFF7E2FE02208DF818008020D4
:1017D000059005A91548FFF7D9FE4FF4E1300190B7
:1017E0000020ADF80800ADF80A00ADF80C004FF489
:1017F0004070ADF810000C20ADF80E0001A90C48A7
:1018000003F0CEFE012240F22551094803F0A2FE6A
:101810000121074803F05BFE4021054803F04EFE1E
:1018200007B000BD00040240001001400008024063
:10183000001401400448006800F4005008B9012079
:1018400070470020FCE700001008024010B5044675
:101850000D48007B48B90C48806830B10B480078CF
:1018600018B901212046FFF7ADF881212046FFF786
:10187000A9F806480078022805D11F23024A012151
:101880002046FFF768F810BDE46200207D010020CB
:1018900010B504462B4840682B49486029488068A9
:1018A00088600121204604F000F91F2810D1254846
:1018B0000068264988420BD12248407B012807DC7A
:1018C0002048807B012803DB1E48807B10280CDD2C
:1018D0001C49487B2022052101F0E2F902201C4925
:1018E00008702046FFF7B2FF2AE01648417B00F15E
:1018F0000F02204600F058FF002803DA2046FFF7C9
:10190000A5FF1DE013480078022819D0114800787F
:10191000012815D00F480078032811D00E48008800
:10192000002806DD0C4802880C49204600F0E0F84B
:1019300006E00948008818B90021204600F0B8F8F0
:1019400010BD0000E46200200463002055534243B0
:101950007D0100207C0100207A010020E45200205B
:1019600070B505460C460C480078022807D1812145
:101970002846FFF727F80020074908700BE004F01D
:101980008000802807D104480078012803D0012175
:10199000284600F08DF870BD7D01002070B504462A
:1019A0000D4610480078022804D0032811D00428DE
:1019B00014D10DE00C48417B00F10F02204600F0ED
:1019C000F3FE002803DA0121204600F071F806E05A
:1019D00000BF0021204600F06BF800E000BF00BF10
:1019E00070BD00007C010020E462002070B5044658
:1019F0000D460D48007810B1012812D103E02046B1
:101A0000FFF746FF0EE00948417B00F10F02204638
:101A100000F0CAFE002803DA0121204600F048F851
:101A200000E000BF00BF70BD7C010020E462002028
:101A30000021014A117070477C01002010B5044656
:101A400000200C4908700C4908700C4800680168B7
:101A50000020884701212046FEF737FF81212046DC
:101A6000FEF733FF1F23064A01212046FEF773FFCE
:101A700010BD00007C0100207D010020100100202D
:101A8000E462002010B504460020064908700120D9
:101A9000054908701F23054A01212046FEF75BFF18
:101AA00010BD00007C0100207D010020E4620020C8
:101AB00070B505460C460A480A4908600846047392
:101AC0000020094908700D23064A81212846FEF7A7
:101AD0009DFF1F23054A01212846FEF73CFF70BDEC
:101AE00055534253046300207C010020E46200202F
:101AF00070B506460D4614460C488068A04202D2D6
:101B00000A48806800E0204684B209488068001BCB
:101B1000074988600020087304200649087023469E
:101B20002A4681213046FEF771FF70BDE462002035
:101B3000046300207C01002000BFFEE77047000026
:101B400070B5002100230F22C4781CB3174C246801
:101B500004F4E064C4F5E064C4F30721C1F10404B3
:101B6000E3B20A4144789C40E1B2847814402143B6
:101B70000C07210E0E4C05786155047804F01F0502
:101B80000124AC4005786D11AD0005F1E025C5F8E4
:101B9000004109E0047804F01F050124AC40054D24
:101BA0000678761145F8264070BD00000CED00E087
:101BB00000E400E080E100E002490143024A1160D4
:101BC000704700000000FA050CED00E070B500243D
:101BD00018E004F1B001C8B200F07AFA002000F079
:101BE00077FA102000F074FA002507E0074901EBAE
:101BF000C411485D00F092FA681CC5B2802DF5DB77
:101C0000601CC4B2082CE4DB70BD00005C0F002037
:101C100070B5064600240BE0002505E0074800EB00
:101C2000C4104655681CC5B2802DF7DB601CC4B2D9
:101C3000082CF1DBFFF7CAFF70BD00005C0F00202D
:101C40001CB50121022000F079FC01208DF8040070
:101C500000208DF806008DF8070002208DF80500A1
:101C60000120009069461148FFF790FC4FF40050A6
:101C7000009069460D48FFF789FC4FF40040009042
:101C800069460A48FFF782FC04200090694607482D
:101C9000FFF77CFC0220009069460448FFF776FCC1
:101CA000012002491A3108801CBD000000040240D6
:101CB00010B58D2000F00CFA142000F009FAA420D1
:101CC00000F006FAA62000F003FAAF2000F000FAB8
:101CD00010BD00002DE9FF4FADB01F4600240020CD
:101CE000049087480390388801280DD14FF00C0AE2
:101CF000D1461825022005904FF0010B00200490DA
:101D0000804E7F4803902DE0388868B94FF0100A64
:101D1000D1462025022005904FF0010B00200490B1
:101D2000794E7A4803901DE0388802280DD14FF093
:101D3000180AD1464825032005904FF0020B0120D8
:101D40000490734E734803900CE04FF0200AD14684
:101D50008025042005904FF0020B012004906E4E68
:101D60006E480390C3E02F9800782B902B98802822
:101D700040DA0498012826D14FF0000821E00BFB3F
:101D80000AF0401C00FB08F408F101001FFA80F87B
:101D9000315D2B98814207D1641C0BFB0AF231198B
:101DA0000AA8FEF744FA0DE0305DFF2809D1601C57
:101DB000305CFF2805D1FF2229460AA8FEF749FA20
:101DC00000E0DCE70DE0029505EBD57043100195CE
:101DD0002B9800FB036105EBD57042100AA8FEF7B3
:101DE00026FA484609EBD071C1F347010991CDF8B5
:101DF00018B039E02F98401C2F9000782A902A982C
:101E000000B979E04FF0000828E0A81C08FB00F4B6
:101E100008F101001FFA80F80398015D2B988142B8
:101E20000DD1611C0398415C2A98814207D1A41C02
:101E3000039801192A460AA8FEF7F9F90FE003985A
:101E4000005DFF280AD1611C0398405CFF2805D182
:101E5000FF2229460AA8FEF7FCF900E0D5E700BFFB
:101E6000CDF82490059806902E9807904FF0000822
:101E700031E02D98089000202C9020E0069808FB77
:101E800000F02C9900EBD1000AA9085C2C9901F014
:101E9000070280211141084028B1BA78DDE9071016
:101EA00000F0A8F804E03A79DDE9071000F0A2F8A4
:101EB0000898401C80B208902C98401C2C900999DE
:101EC0002C988842DAD30798401C80B2079008F11A
:101ED00001001FFA80F8D045CBDBF988099801444E
:101EE0002D98084480B22D902F98401C2F902F9849
:101EF000007800287FF437AF00BF31B0BDE8F08F25
:101F0000D4C2000868A800085CAE0008D4C8000865
:101F10005CBE00085EC9000848C00008AAC90008E5
:101F200010B5FFF78DFE322005F0FCFE4FF4005097
:101F30002F4908800420891C0880322005F0F2FE19
:101F400004202B490880AE2000F0C2F8002000F0E9
:101F5000BFF8102000F0BCF8402000F0B9F8812054
:101F600000F0B6F8CF2000F0B3F8A02000F0B0F8F1
:101F7000C02000F0ADF8A12000F0AAF8C82000F0C1
:101F8000A7F8A62000F0A4F8A82000F0A1F83F20B0
:101F900000F09EF8D32000F09BF8002000F098F8A5
:101FA000D52000F095F8802000F092F8D92000F0BC
:101FB0008FF8F12000F08CF8DA2000F089F8122078
:101FC00000F086F8DB2000F083F8402000F080F875
:101FD000202000F07DF8022000F07AF8FFF768FE7C
:101FE0000020FFF715FE0021084600F05BF810BD49
:101FF000180402402DE9FF4780460C46914623A174
:1020000003C9CDE9020123A103C9CDE9000120469E
:10201000E11704EB5171C1F3C70708F0FF061F4831
:1020200000EBC710855DB9F1000F0AD12046E1171A
:1020300004EB5171C910A4EBC1011DF801100D4052
:1020400009E02046E11704EB5171C910A4EBC1016E
:1020500002AA515C0D43114800EBC710855510488A
:102060000078012810D107F1B001C8B200F030F8B3
:1020700006F00F0000F02CF8102101EB161000F014
:1020800027F8284600F04AF8BDE8FF870102040857
:1020900010204080FEFDFBF7EFDFBF7F5C0F0020CC
:1020A0003800002070B504460D46B02101EBE50173
:1020B000C8B200F00DF8102141EA141000F008F841
:1020C00004F00F0141F0010000F002F870BD0000C3
:1020D00008210222104B1A808A021A8015E000F0B3
:1020E00080022AB14FF400420B4B9B1E1A8003E082
:1020F0004FF40042084B1A804FF40052064B9B1ECF
:102100001A809B1C1A804206100E0A1EA1F10103C0
:10211000D9B2E4D1704700001A040240082102221B
:10212000104B1A808A029B1C1A8014E000F0800277
:1021300022B14FF400420B4B1A8004E04FF40042EE
:10214000084B9B1C1A804FF40052064B1A809B1CB4
:102150001A804206100E0A1EA1F10103D9B2E5D180
:10216000704700001804024010B5024803F0FEFD5D
:1021700010BD0000B04C00201CB55249002007F0F3
:1021800023F8514908700846007820B108460178C4
:102190004EA005F0B5FA53A1534807F0FBF84A49A1
:1021A00008700846007828B1084601784FA005F06D
:1021B000A7FA1CBD534954A007F035FA42490870EC
:1021C0000846007818B153A005F09AFA69E000209B
:1021D000FFF71EFD564B4B4A093202210846FFF716
:1021E00079FD4848016853A005F08AFA504B58A27F
:1021F00014210220FFF76EFD4248006842F2107180
:10220000B0FBF1F03030C0B28DF800003D480068FE
:102210004FF47A71B0FBF1F00A21B0FBF1F201FB4F
:10222000120030308DF80100364800686421B0FBA0
:10223000F1F00A21B0FBF1F201FB120030308DF811
:10224000020030480068B0FBF1F0B0FBF1F201FB96
:10225000120030308DF803002A480068B0FBF1F21C
:1022600001FB120030308DF8040000208DF80500CD
:102270002F4B6A4615213720FFF72CFD2148818816
:1022800038A005F03DFA1F48C1883AA005F038FA99
:102290001C480068400A3B4908604FF4FA6005F0AA
:1022A00041FD012218A1384806F0A8FF0649087030
:1022B0000846007818B135A005F022FA79E700BF8A
:1022C00077E70000FC43002078000020B9D2D4D882
:1022D000CEC4BCFECFB5CDB3CAA7B0DC28256429D7
:1022E0000D0A00002F00000058480020B4F2BFAAD9
:1022F000B8F9C4BFC2BCCAA7B0DC282564290D0A3E
:1023000000000000744800204C4544302E62696E85
:1023100000000000526561642066696C65206D6193
:10232000737361676520657272200D0A00000000FA
:10233000400000206E65776E616D652E74787420A4
:1023400073697A65203A20256C750D0A000000003B
:10235000CEC4BCFEB4F3D0A120202020202042799E
:10236000746500006664617465203A2025640D0A76
:10237000000000006674696D65203A2025640D0A2E
:10238000000000007400002030460020446F6E27DB
:10239000742046696E642046696C65203A204C457D
:1023A00044302E62696E0D0A000000007047000084
:1023B00070B515480468001D0568001D06682346B1
:1023C0002A46314611A005F09BF91EA005F098F9A8
:1023D0001DA005F095F92CA12FA005F091F933A1CE
:1023E00033A005F08DF900230822012135A005F066
:1023F00087F942A005F084F942A005F081F912A006
:1024000005F07EF970BD0000107AFF1F0D0A4350E1
:1024100055203A2053544D333246343031524354D0
:10242000362C204C51465036342C20554944203D02
:102430002025303858202530385820253038580D80
:102440000A0000000A0D00002A2A2A2A2A2A2A2A1B
:102450002A2A2A2A2A2A2A2A2A2A2A2A2A2A2A2ADC
:102460002A2A2A2A2A2A2A2A2A2A2A2A2A2A2A2ACC
:102470002A2A2A2A2A2A2A2A2A2A2A2A2A2A2A2ABC
:102480002A2A2A2A2A0D0A0053574420446F776EBD
:102490004C6F6164657200002A20C0FDB3CCC3FBA1
:1024A000B3C62020203A2025730D0A00312E3000BB
:1024B0002A20C0FDB3CCB0E6B1BE2020203A2025B2
:1024C000730D0A002A20B9CCBCFEBFE2B0E6B1BE53
:1024D000203A205625642E25642E25642028535446
:1024E0004D3332463478785F537464506572697046
:1024F000685F447269766572290D0A002A200D0A08
:10250000000000002A20436F7079726967687420A8
:1025100009C4CFBEA9D0C5CFA2B9A4B3CCB4F3D15E
:10252000A7CEDECEFDD1D0BEBFC9FAD4BA20436F4C
:1025300064652046616E0D0A0000000029B1064A5C
:1025400012680243044B1A6004E0034A1268824393
:10255000014B1A60704700003038024029B1064A2A
:1025600012680243044B1A6004E0034A1268824373
:10257000014B1A60704700003438024029B1064A06
:1025800012680243044B1A6004E0034A1268824353
:10259000014B1A60704700004038024029B1064ADA
:1025A00012680243044B1A6004E0034A1268824333
:1025B000014B1A60704700004438024029B1064AB6
:1025C00012680243044B1A6004E0034A1268824313
:1025D000014B1A607047000024380240F0B500211A
:1025E00000220024022500260223324F3F6807F014
:1025F0000C0121B1042905D0082937D105E02E4F5F
:10260000076036E02D4F076033E02A4F3F1F3F68D9
:10261000C7F38056274F3F1F3F6807F03F036EB157
:10262000264FB7FBF3F7DFF88CC0ACF1040CDCF8F5
:1026300000C0CCF3881C07FB0CF40CE01E4FB7FB6A
:10264000F3F7DFF870C0ACF1040CDCF800C0CCF399
:10265000881C07FB0CF4174F3F1F3F68C7F3014767
:102660007F1C7D00B4FBF5F7076002E0124F0760A6
:1026700000BF00BF0F4F3F6807F0F0010909104F7E
:102680007A5C0768D74047600A4F3F6807F4E0511B
:10269000890A0B4F7A5C4768D7408760054F3F68CF
:1026A00007F46041490B064F7A5C4768D740C76022
:1026B000F0BD0000083802400024F40040787D019D
:1026C0008800002070B506460C461546601907497B
:1026D0000968884207D921220521304600F0E0FA36
:1026E0004FF0FF3070BD0020FCE70000D801002053
:1026F00030B504460A46507800F0010010B10E4B88
:1027000007210CE00D480068C06904EBC40500EB2C
:1027100085031879411D1079884200DC1179084839
:10272000018004E0481E81B2585C064D68540029BF
:10273000F8D1002030BD000052CA0008100100206E
:102740007A010020E452002010B502460B46082111
:102750000648018005E0481E81B20548405C054CF2
:1027600060540029F7D1002010BD00007A0100203C
:1027700061CA0008E452002010B502460B46082149
:102780000648018005E0481E81B20548405C054CC2
:1027900060540029F7D1002010BD00007A0100200C
:1027A00059CA0008E452002070B505460E4614468A
:1027B00032480560207823283ED00DDC1A2831D01D
:1027C00005DCB0B1032819D012284ED11BE01B281C
:1027D0001ED01E2849D120E02A283CD004DC252820
:1027E0002FD0282841D131E02F2839D05A283CD188
:1027F0001DE02146304600F079FA70BD2146304692
:1028000000F002FAF9E721463046FFF771FFF4E7DE
:102810002146304600F062FAEFE72146304600F0EC
:102820005DFAEAE721463046FFF7A6FFE5E72146D5
:102830003046FFF789FFE0E72146304600F0A0F977
:10284000DBE72146304600F055F9D6E72146304611
:1028500000F0D8F8D1E72146304600F097FACCE7EF
:102860002146304600F06AFAC7E7202205213046AB
:1028700000F016FA4FF0FF30BFE70000E40100203F
:102880002DE9F041054624480068B0F5805F02D28A
:102890002148006801E04FF4805004461F4800685A
:1028A000B4FBF0F086B21E4800681C490968B0FB12
:1028B000F1F71C48006833463A461B49D0F810C06F
:1028C0002846E047002808DA11220421284600F0B3
:1028D000E7F94FF0FF30BDE8F0812346124A81212D
:1028E00012480068FEF792F80D48006820440C4931
:1028F000086009480068001B074908600C488068A8
:10290000001B0B4988600448006810B9032009497E
:1029100008700020DFE70000E0010020D401002063
:10292000DC01002010010020E4520020E40100201E
:10293000046300207C0100202DE9F04105462A486F
:102940000068B0F5805F02D22748006801E04FF4CC
:102950008050044625480068B4FBF0F086B2244855
:10296000006822490968B0FBF1F722480068334645
:102970003A462149D0F814C02846E047002808DA32
:1029800003220421284600F08BF94FF0FF30BDE808
:10299000F081174800682044154908601248006813
:1029A000001B1149086015488068001B13498860A6
:1029B0000D48006828B9002111480068FFF778F831
:1029C00010E009480068B0F5805F02D20648006850
:1029D00001E04FF4805083B2074A012108480068A3
:1029E000FDF7B9FF0020D2E7E0010020D40100206C
:1029F000DC01002010010020E452002004630020CC
:102A0000E401002070B505460C46334800780028E4
:102A10005AD13248007B00F08000802808D02F492E
:102A2000487B2022052100F03BF94FF0FF3070BDBC
:102A30002B48006881682846884738B13A2202212D
:102A4000284600F02DF94FF0FF30F0E7A07800069F
:102A5000E17840EA0140217940EA012061790843A8
:102A600020490860207AE17940EA01201E49086087
:102A70000846008882B21B4801682846FFF722FEFC
:102A8000002802DA4FF0FF30D1E702201249087027
:102A900014480068154909684843124908601248FB
:102AA00000681249096848430F4908600B4880686C
:102AB0000968884208D00949487B2022052100F096
:102AC000EFF84FF0FF30B2E74FF48050084908802C
:102AD0002846FFF7D5FEAAE77C010020E46200202B
:102AE00010010020DC010020E0010020D4010020C2
:102AF0007A01002070B504460D461C4800681C4A47
:102B00001C4943682046984738B13A2202212046A2
:102B100000F0C6F84FF0FF3070BD16480068401E48
:102B2000000E1549087013480068401E000C4870DC
:102B300010480088401E000A88700E480078401E29
:102B4000C8700B480068000E087109480068000C46
:102B5000487107480088000A887105480078C871E4
:102B60000820064908800020D6E700001001002058
:102B7000D4010020D8010020E45200207A01002076
:102B80007CB505460E46002404E000201B4908558C
:102B9000601C84B20C2CF8DB1948006801AA694655
:102BA00043682846984738B13A220221284600F067
:102BB00077F84FF0FF307CBD08201049C8700098AE
:102BC000401E000E08710098401E000C48710098CD
:102BD000401E000A88710098401EC87102200872C9
:102BE0000198000C48720198000A88720198C87216
:102BF0000C20044908800020DDE70000E45200209A
:102C0000100100207A01002010B50346002204E0E4
:102C100000201E4CA054501CC2B2122AF8DB7020B7
:102C20001A4C20700C20E07119480078194C247857
:102C3000A04221D01848164C247810F83400134CC8
:102C4000A0701548124C247800EBC40040790F4C5A
:102C5000207311480E4C247800EBC40000790B4C13
:102C600060730B480078401C094C207020460078A7
:102C7000042801D1002020701220084C20800879FF
:102C8000122801DC08792080002010BDE4520020C9
:102C9000D0010020D1010020146300207A0100201F
:102CA00030B50C4B0C4C247803F834101302094C4B
:102CB000094D2D7804EBC5046360074B1B785B1C42
:102CC000054C237023461B78042B01D1002323706D
:102CD00030BD000014630020D10100200246002016
:102CE000014B1880704700007A01002070B504463F
:102CF0000D460F48806840B10D49487B20220521D0
:102D0000FFF7CEFF4FF0FF3070BD0A4800688168C2
:102D10002046884738B13A2202212046FFF7C0FFFB
:102D20004FF0FF30F0E700200349088000BFEBE7D9
:102D3000E4620020100100207A01002070B50546F1
:102D40000C46607800F00200022807D124220521F9
:102D50002846FFF7A5FF4FF0FF3070BD08480088F8
:102D600082B2084801682846FFF7ACFC002802DA66
:102D70004FF0FF30F1E700200349088000BFECE787
:102D8000E0010020DC0100207A01002070B505463A
:102D90000C464348007800287BD14248007B00F075
:102DA0008000802808D13F49487B20220521FFF779
:102DB00077FF4FF0FF3070BD3B48006881682846C0
:102DC000884738B13A2202212846FFF769FF4FF0C1
:102DD000FF30F0E734480068C1682846884738B1BA
:102DE000272202212846FFF75BFF4FF0FF30E2E782
:102DF000A0780006E17840EA0140217940EA01200C
:102E00006179084329490860207AE17940EA012084
:102E1000274908600846008882B22448016828468D
:102E2000FFF750FC002802DA4FF0FF30C3E71F48DD
:102E300000682049096848431C4908601C4800682C
:102E40001C49096848431A4908601648806809689F
:102E5000884208D01349487B20220521FFF720FF34
:102E60004FF0FF30A7E701200D49087010480068B7
:102E7000B0F5805F03D20E48006802E009E04FF42D
:102E8000805083B20C4A01210C480068FDF763FDB5
:102E900003E02846FFF750FD8DE700208BE7000098
:102EA0007C010020E462002010010020DC010020F1
:102EB000E0010020D4010020E4520020E4010020C1
:102EC0007CB50546002400200090019000F0EAF84F
:102ED00000F0007010B10E2420467CBD3D490988E9
:102EE00088B26946FEF788FA04460CB12046F4E73A
:102EF000012D36D1019800F4802000282ED03548CD
:102F00000088000434490860372048604020886009
:102F10000020C860A8020861084600F01FF93720A9
:102F2000FDF720FB04460CB12046D6E702202A49D3
:102F3000086006204860402088600020C8604FF488
:102F400080600861084600F009F90620FDF70AFBD9
:102F500004460CB12046C0E72046BEE725242046A3
:102F6000BBE7019800F4803078B31A480088000469
:102F70001949086037204860402088600020C860F8
:102F80004FF480600861084600F0E8F83720FDF74C
:102F9000E9FA04460CB120469FE700200E4908607C
:102FA00006204860402088600020C8604FF48060A0
:102FB0000861084600F0D2F80620FDF7D3FA04466F
:102FC0000CB1204689E7204687E7FFE72524204605
:102FD00083E7000024000020300F00200149086032
:102FE00070470000382C014001490860704700001C
:102FF000382C01400149086070470000A08025423C
:1030000001490860704700008C85254200210B4B68
:1030100002681A601B1D42681A601A1D116821F0AF
:10302000F701D0E902231A4303691A4343691A439B
:103030001143024A0832116070470000242C0140FD
:1030400010B50121C802FFF7B9FA00214FF4006062
:10305000FFF7B4FA10BD000001480068C0B2704725
:10306000102C014001460020034A12680A400AB1B0
:10307000012000E000207047342C01400146002070
:10308000034A12680A400AB1012000E0002070479C
:10309000342C01400248006800F003007047000033
:1030A000002C014008B50146002000900248084469
:1030B00000900098006808BD142C014010B500F085
:1030C00015FD10BD29B1064A12680243044B1A606F
:1030D00004E0034A12688243014B1A607047000003
:1030E0003C2C014000210A4A116847F6FF629143D7
:1030F000027D83681A4343681A43C3681A4303680E
:103100001A4303691A431143014A116070470000D2
:10311000042C014008B54FF4C060FEF74DFD31208E
:103120008DF8000000208DF801008DF802000120CC
:103130008DF803006846FEF703FD3B208DF8000084
:1031400001208DF801006846FEF7FAFC08BD00007A
:103150000148006870470000802C01400021094BA5
:1031600002681A601A1D11686FF30A01D0E9012381
:103170001A43C3681A4303691A431143014A121DD3
:1031800011607047082C0140014908607047000039
:10319000002C014008B5012000909DF8000008BDFA
:1031A00070B50446002520480068032802D1272571
:1031B000284670BD1C48006838B11B4800680128CB
:1031C00003D01948006802282CD1B4F5805F02D1E1
:1031D00027252846EDE7B4F5006F13D10120FFF74E
:1031E0006FFE0546F5B90020104908750860486073
:1031F00088604FF40060C860002008610846FFF74F
:1032000071FF0FE00020FFF75BFE054655B9002077
:1032100006490875086048608860C860086108460B
:10322000FFF760FF2846C4E720000020180F0020A9
:10323000F0B5014600200022BC4B1B7881F85630C7
:10324000BB4B1B88A1F85430BA4B1B681A0E93096C
:103250000B70C2F383034B7002F003038B70B54B0A
:103260001B68C3F30742CA70B24B1B88C3F3072223
:103270000A71B04B1A784A715B681A0E1301CB8041
:10328000AC4B5B68C3F30742CB8843EA1213CB8095
:1032900002F00F030B72A74B9B88C3F30722D309DD
:1032A0004B72C2F380138B72C2F34013CB72C2F322
:1032B00000130B7300234B739C4B1B681BB19B4B80
:1032C0001B68012B4FD193071B0D0B61994B1A798A
:1032D0000B6943EA82030B61964B9B681A0E0B69DC
:1032E00043EA92130B61C2F3C2030B7502F00703AA
:1032F0004B75904B9B68C3F3074253098B75C2F320
:103300008203CB7593075B0F0B768A4B1B89C3F344
:1033100007220B7E43EAD2130B760B695B1C002459
:10332000C1E912340B7ED1E912649B1C012505FA18
:1033300003F3DF17A6FB035C04FB03C306FB0733A1
:10334000C1E912530C7A0123A3400B650027D1E990
:1033500012560B6DA5FB034C06FB03C305FB07339D
:10336000C1E912432DE0714B1B68022B29D1714B2F
:103370001A7993069B0A0B616E4B9B681A0E0B69B8
:1033800043EA02230B616B4B9B68C3F307420B6953
:1033900013430B61674B1B89C3F307220B695B1C4B
:1033A0004FF40074A3FB04344FF480660025A3FBA4
:1033B000067C04FB06C403FB0543C1E912737310CA
:1033C0000B65C2F3801301F8193F93065B0E4B7037
:1033D000584B1A7A4B7843EAD2134B7002F07F03B2
:1033E0008B70544BDB681A0ED309CB70C2F34113B8
:1033F0000B71C2F382034B7193071B0F8B714D4B03
:10340000DB68C3F307428B7943EA92138B71C2F3F3
:103410004013CB7100230B7202F001034B72454B3A
:103420009B89C3F30722D3098B72C2F38013CB723B
:10343000C2F340130B73C2F300134B73C2F3810347
:103440008B7302F00303CB733A4B1A7B53080B7454
:1034500001234B74384B1B681A0ECA741939364B4A
:103460001B68C3F307421402CC85334B1B88C3F39C
:103470000722CB8D1343CB852F4B1A7814060C6390
:103480005B681A0E0B6B43EA02440C632A4B5B68C1
:10349000C3F307420B6B43EA02240C63264B9B8861
:1034A000C3F307220B6B13430B63234B1A793423AB
:1034B0005A54214B9B681A0E35235A541E4B9B6855
:1034C000C3F3074214068C631B4B1B89C3F307220B
:1034D0008B6B43EA02448C63174B1A7A8B6B43EA7B
:1034E00002248C63144BDB681A0E8B6B13438B63C3
:1034F000114BDB68C3F307423C235B5C43EA1214C5
:103500003C235C5413071C0DCC870B4B9B89C3F3E6
:103510000722CB8F1343CB87074B1A7B54084023DA
:103520005C54012441235C54F0BD000020000020C5
:1035300024000020900E0020A00E002008B50020DE
:103540000090FFF727FE012809D1684600F022FC11
:1035500008B1FF2008BD0098C0F34320FAE7FF2020
:10356000F8E710B50424FFF7E9FF0446042C01D165
:10357000002010BDFF2C01D10220FAE70120F8E75E
:1035800008B500200090FFF7C5FD00F069F9FFF7CE
:1035900057FD00F0C7F900909DF8000010B19DF8AC
:1035A000000008BD00F030F800909DF8000010B158
:1035B0009DF80000F5E70020114908750860486093
:1035C0008860C86008610846FFF78CFD0D48FFF76A
:1035D0002FFE00909DF8000030B90A49B1F8541050
:1035E000080400F0BDFB00909DF8000020B94FF4E6
:1035F0000060FFF7D5FD00909DF80000D1E70000C6
:10360000180F0020C00E002038B5002401200090C3
:10361000FFF740FD10B92524204638BD4448006816
:10362000042828D000204349086002204860C020B8
:1036300088600020C8604FF4806008610846FFF78A
:103640008DFDFDF729F804460CB12046E5E7002082
:10365000FFF728FD384908600420FFF723FD3649AD
:1036600048600820FFF71EFD334988600C20FFF7F3
:1036700019FD3149C8602E48006858B12C480068CF
:10368000012807D02A480068062803D02848006887
:10369000022816D1002027490860032048604020F6
:1036A00088600020C8604FF4806008610846FFF71A
:1036B00055FD69460320FDF731F804460CB120465C
:1036C000ABE71B48006804282ED0BDF800001B495A
:1036D0000860BDF800000004164908600920486031
:1036E000C02088600020C8604FF4806008610846F0
:1036F000FFF734FDFCF7D0FF04460CB120468CE701
:103700000020FFF7CFFC0E4908600420FFF7CAFC39
:103710000B4948600820FFF7C5FC094988600C2068
:10372000FFF7C0FC0649C8600024204675E700008A
:1037300020000020300F0020A00E002024000020D8
:10374000900E002030B58FB004460D464FF0FA5170
:103750001D48FDF729FD00211B48FDF73FFD1A48D4
:10376000FDF748FD4FF0006000901848019002946A
:1037700000200390049005904FF480600690800034
:10378000079080000890002009904FF440300A9084
:1037900004200B9003200C904FF400000D9080103B
:1037A0000E9069460848FDF7F9FD012210210648F0
:1037B000FDF7D7FD20210448FDF7C8FD012102488F
:1037C000FDF70CFD0FB030BD58640240802C014065
:1037D00030B58FB004460D464FF0FA511E48FDF744
:1037E000E3FC00211C48FDF7F9FC1B48FDF702FD36
:1037F0004FF000600090194801900294402003901F
:103800000020049005904FF480600690800007909F
:1038100080000890002009904FF440300A90042066
:103820000B9003200C904FF400000D9080100E9030
:1038300069460948FDF7B2FD012210210648FDF74F
:1038400090FD20210448FDF781FD01210248FDF78C
:10385000C5FC0FB030BD000058640240802C014010
:103860001CB501211C20FEF769FE0C2208212A4804
:10387000FDF7D4FE0C2209212748FDF7CFFE0C22CC
:103880000A212548FDF7CAFE0C220B212248FDF72C
:10389000C5FE0C2211462048FDF7C0FE0C22022175
:1038A0001E48FDF7BBFE4FF47060009001208DF8BC
:1038B000050002208DF8040000208DF8060001208C
:1038C0008DF8070069461448FDF760FE042000905B
:1038D00069461248FDF75AFE4FF4805000900020D0
:1038E0008DF8070069460C48FDF750FE0420009053
:1038F00000208DF8040001208DF807006946084873
:10390000FDF744FE0121C802FEF748FE01218805AB
:10391000FEF714FE1CBD000000080240000C02402F
:1039200000100240F8B50020009000250024002679
:10393000002776205F49087500200860486088608D
:10394000C86008610846FFF7CDFB0320FFF71CFCA9
:103950000120FFF74FFB002057490860486088604E
:10396000C8604FF4806008610846FFF7F7FBFCF77A
:10397000E2FD00909DF8000010B19DF80000F8BD38
:103980004FF4D5704C49086008204860402088609A
:103990000020C8604FF4806008610846FFF7DEFB36
:1039A000FCF70AFF00909DF8000020B90120434970
:1039B0000860870712E000203F4908603720486010
:1039C000402088600020C8604FF48060086108468D
:1039D000FFF7C4FB3720FCF7C5FD009000203649F7
:1039E000086037204860402088600020C8604FF49D
:1039F000806008610846FFF7B1FB3720FCF7B2FD95
:103A000000909DF80000002851D13BE000202A4999
:103A1000086037204860402088600020C8604FF46C
:103A2000806008610846FFF799FB3720FCF79AFD94
:103A300000909DF8000010B19DF800009FE720481D
:103A400038431D49086029204860402088600020D4
:103A5000C8604FF4806008610846FFF77FFBFCF701
:103A600041FE00909DF8000010B19DF8000086E72F
:103A70000020FFF717FB0546012080EAD57080F093
:103A80000106641C1EB94FF6FF708442BED34FF688
:103A9000FF70844204D31B2000909DF800006EE765
:103AA00005F08040051E02D00220044908609DF800
:103AB000000064E7180F0020300F002020000020D5
:103AC0000000108010B50748006800F0C05040B1F9
:103AD0000120054908604FF0C25102485830FDF7F7
:103AE00063FB10BD006402403400002010B54FF4A9
:103AF0008070FFF7C3FA50B10020254908704FF4D9
:103B00008070FFF771FA01202249086037E0022037
:103B1000FFF7B4FA30B10220FFF766FA02201C4921
:103B200008702CE00820FFF7A9FA30B10820FFF751
:103B30005BFA04201649087021E02020FFF79EFA66
:103B400030B12020FFF750FA06201149087016E026
:103B50001020FFF793FA30B11020FFF745FA052047
:103B60000B4908700BE04FF40070FFF787FA30B193
:103B70004FF40070FFF738FA07200549087000215C
:103B80004CF23A30FFF79EFA0148007810BD000071
:103B90002C000020300000202DE9F04107460D46A2
:103BA0001446002600202D4908702D4908602D4933
:103BB00008602D4908602D480068022801D10402E0
:103BC0006D0A2B4804601020294948604020886015
:103BD0000020C8604FF4806008610846FFF7BEFA15
:103BE0001020FCF7BFFC064616B13046BDE8F08158
:103BF0004FF0FF301F4908600846446090208860FD
:103C00000220C86000200861012048610846FFF7D3
:103C1000FDF917480560112015494860402088606B
:103C20000020C8604FF4806008610846FFF796FAEC
:103C30001120FCF797FC06460EB13046D6E701216D
:103C400040F22A30FFF73EFA0120FFF7D9F921466A
:103C50003846FFF777FD3046C8E700002C0000200B
:103C600030000020280000202C2C014020000020E3
:103C7000300F0020440F00202DE9F04180460D4612
:103C800014461E46002700202E4908702E49086061
:103C900001202E49086000202D4908602D48006849
:103CA000022801D104026D0A2B48046010202A4921
:103CB0004860402088600020C8604FF48060086140
:103CC0000846FFF74BFA1020FCF74CFC074617B1EB
:103CD0003846BDE8F0814FF0FF302049086006FB10
:103CE00004F04860902088600220C86000200861CD
:103CF000012048610846FFF789F91748056012203E
:103D000015494860402088600020C8604FF48060FA
:103D100008610846FFF722FA1220FCF723FC074649
:103D20000FB13846D5E7012140F22A30FFF7CAF932
:103D30000120FFF765F906FB04F14046FFF702FD9D
:103D40003846C6E72C000020300000202800002064
:103D50002C2C014020000020300F0020440F0020B8
:103D600070B5044600250A480460072008494860E9
:103D7000402088600020C8604FF4806008610846D9
:103D8000FFF7ECF90720FCF7EDFB0546284670BD70
:103D9000300F002070B50446002514B926252846AA
:103DA00070BD0F48008800040E4908600D2048606F
:103DB000402088600020C8604FF480600861084699
:103DC000FFF7CCF90D20FCF7CDFB05460DB12846D9
:103DD000E6E70020FFF766F920602846E0E70000EC
:103DE00024000020300F002010B5002400200A49D4
:103DF00008600C204860402088600020C8604FF4B4
:103E0000806008610846FFF7A9F90C20FCF7AAFBBF
:103E10000446204610BD0000300F002070B500257C
:103E20006C1E00E0641E1848006838B91748006826
:103E300020B91748007808B9002CF3D100201249A6
:103E40000860441E00E0641E1248006800F4005040
:103E500008B1002CF7D110480068012805D1FFF700
:103E6000C3FF054600200C4908600CB905B90425BC
:103E700040F2FF50FFF7B2F80548007810B104484F
:103E8000007870BD2846FCE7340000203000002098
:103E90002C000020342C01402800002070B50025A3
:103EA0006C1E00E0641E1848006838B917480068A6
:103EB00020B91748007808B9002CF3D10020124926
:103EC0000860441E00E0641E1248006800F4805040
:103ED00008B1002CF7D110480068012805D1FFF780
:103EE00083FF054600200C4908600CB905B904257C
:103EF00040F2FF50FFF772F80548007810B104480F
:103F0000007870BD2846FCE7340000203000002017
:103F10002C000020342C0140280000202DE9F04125
:103F200007460D461446002600202C4908702C49EF
:103F300008602C4908602C4908602C480068022859
:103F400001D104026D0A2A48046010202849486003
:103F5000402088600020C8604FF4806008610846F7
:103F6000FFF7FCF81020FCF7FDFA064616B13046C4
:103F7000BDE8F0811E48056018201D4948604020BA
:103F800088600020C8604FF4806008610846FFF731
:103F9000E5F81820FCF7E6FA06460EB13046E7E7EA
:103FA0004FF0FF3013490860084644609020886055
:103FB0000020C8600861012048610846FFF726F824
:103FC000012140F22A30FFF77DF821463846FFF7FD
:103FD000FFFB0120FFF714F83046C9E72C00002052
:103FE00030000020280000202C2C01402000002060
:103FF000300F0020440F00202DE9F04180460F468D
:1040000015461E46002400204549087045490860B1
:104010000120454908600020444908604448006880
:10402000022801D105027F0A42480560102041495B
:104030004860402088600020C8604FF480600861BC
:104040000846FFF78BF81020FCF78CFA044614B1F1
:104050002046BDE8F08138480088000435490860F2
:1040600037204860402088600020C8604FF480609E
:1040700008610846FFF772F83720FCF773FA044628
:104080000CB12046E5E72B48066017202949486017
:10409000402088600020C8604FF4806008610846B6
:1040A000FFF75CF81720FCF75DFA04460CB12046D8
:1040B000CFE72048076019201E49486040208860EB
:1040C0000020C8604FF4806008610846FFF746F89A
:1040D0001920FCF747FA04460CB12046B9E74FF027
:1040E000FF301649086006FB05F0486090208860A4
:1040F0000020C8600861012048610846FEF786FF7D
:10410000012140F22A30FEF7DDFF0120FEF778FFA3
:1041100006FB05F14046FFF75BFB204699E70000F0
:104120002C00002030000020280000202C2C014012
:1041300020000020300F002024000020440F002029
:1041400010B5FFF71DFA04460CB9002010BD02207F
:10415000FCE721B1028842F04002028004E00288BC
:104160004FF6BF731A400280704702460020138941
:104170000B400BB1012000E0002070470146888908
:1041800070478181704710B50022028802F44152C5
:104190000B884C8823438C882343CC8823430C8989
:1041A00023434C8923438C892343CC8923431A43DB
:1041B0000280838B4FF2FF74234083830B8A038238
:1041C00010BD00002DE9F04180460C4615460CA0BC
:1041D00003F096FAFFF7C5F918B14FF0FF30BDE8CC
:1041E000F0814FF4007028600C484FF400720023F7
:1041F000D0E912613046FBF7E9FF20600020EEE7CE
:104200003E2053442053544F524147455F47657405
:1042100043617061636974790D0A0000C00E00206B
:104220000020704710B50446FFF7AAF910B14FF00F
:10423000FF3010BD02A003F063FA0020F9E7000090
:104240003E2053442053544F524147455F496E69C5
:1042500074204F6B0D0A000010B504460A4890F90F
:104260000000002804DAFFF78BF9002006490870E7
:10427000FFF777F928B1FF20034908704FF0FF30AE
:1042800010BD0020FCE700001801002010B5044616
:1042900002A003F035FA002010BD00003E20535468
:1042A0004F524147455F4973577269746550726F49
:1042B0007465637465640D0A000000002DE9F04127
:1042C00007460C4615461E46690233464FF40072F7
:1042D0002046FFF7D1FC18B14FF0FF30BDE8F08168
:1042E000FFF79CFD00BFFFF73CF90028FBD102A0BF
:1042F00003F006FA0020F1E7720000002DE9F0411A
:1043000007460C4615461E46690233464FF40072B6
:104310002046FFF771FE18B14FF0FF30BDE8F08185
:10432000FFF7BCFD00BFFFF71CF90028FBD102A07E
:1043300003F0E6F90020F1E77700000070472DE96F
:10434000F04106460F4600250BE03946304600F0A6
:104350000DF80446022C02D02046BDE8F081681C0E
:10436000C5B2012DF1DB2046F7E700002DE9F0474B
:1043700080468A464FF000090025012000F072FDBA
:1043800008F00106304600F06DFD3544C8F34006E4
:10439000304600F067FD3544C8F38006304600F033
:1043A00061FD3544C8F3C006304600F05BFD35447E
:1043B00005F00105284600F055FD002000F052FDF3
:1043C000012000F04FFD7348006820F440607149FF
:1043D0000860084600680860012402E000F00AFD59
:1043E000641E002CFAD100BF07E000F029FD06464C
:1043F00006FA04F040EA0909641C032CF5D3B9F16C
:10440000010F06D0B9F1020F7CD0B9F1040F6ED1C3
:1044100079E008F00200002831D000270025202490
:1044200009E000F00DFD064606F0010005447F0896
:1044300047EAC677641E002CF3D100F001FD064662
:1044400085EA060000F0010008B14FF00809BAF152
:10445000000F01D0CAF80070012402E000F0CAFC8D
:10446000641E002CFAD14B48006820F44060494992
:1044700008600846006840F48060086025E0012478
:1044800002E000F0B7FC641E002CFAD1414800683D
:1044900020F440603F4908600846006840F48060AE
:1044A0000860DAF800700025202408E007F0010019
:1044B00000F0D8FC07F0010005447F08641E002CC2
:1044C000F4D105F0010000F0CDFC3248006820F482
:1044D0004060304908600846006840F48060086029
:1044E00020212C48FDF7C8F8002405E00AE02DE063
:1044F000002000F0B7FC641C082CF9D309F0FF0081
:10450000BDE8F08700BF00BF012402E000F072FCAC
:10451000641E002CFAD11F48006820F440601D4939
:1045200008600846006840F48060086000BF2021F1
:104530001848FDF7A1F800BF03E0002000F092FC4E
:10454000641C082CF9D309F0FF00D9E700BF00BFB5
:10455000222402E000F04EFC641E002CFAD10D482B
:10456000006820F440600B4908600846006840F489
:104570008060086020210748FDF77EF800BF03E057
:10458000002000F06FFC641C082CF9D309F0FF0038
:10459000B6E700000004024070B50020FDF738FBCC
:1045A0004F4B50A202210846FDF794FB00F0E2F8C1
:1045B0005048006805F074FF494B4FA212210220B9
:1045C000FDF788FB05F03CFF454B4EA2222102205F
:1045D000FDF780FB002415E020464FF480624E4931
:1045E00000F0D9F9002505E04B48415D4BA003F0F0
:1045F00087F86D1CB5F5806FF6D34AA003F080F8FC
:1046000004F5806449480068A042E5D800242FE002
:10461000FF224FF480614648FBF71BFE304B45A25A
:1046200030210220FDF756FB464B4FF48062404993
:10463000454804F0E7FE002505E03D48415D37A010
:1046400003F05EF86D1CB5F5806FF6D335A003F06E
:1046500057F821463DA003F053F832A003F050F87C
:1046600020464FF48062324905F08EFF04F58064E5
:104670002E480068A042CBD8002415E020464FF415
:104680008062254900F087F9002505E02248415D58
:1046900022A003F035F86D1CB5F5806FF6D321A08C
:1046A00003F02EF804F5806420480068A042E5D8A5
:1046B000062000F0C1F90020FDF7AAFA084B26A257
:1046C00002210846FDF706FB054B26A21221022017
:1046D000FDF700FB002026490870FBF71FFF70BDA7
:1046E00040000020BDF8C8EBC9FDBCB6C4A3CABDDC
:1046F0000000000084000020BFAACABCC9FDBCB6EF
:1047000000000000CBF9D3D0C9C8C7F8B2C1B3FDCF
:10471000B3C9B9A6000000008C48002025303258EB
:10472000200000000D0A0D0A0D0A00007448002048
:10473000FC3F0020BFAACABCD0B4C8EB466C617372
:10474000680000007C000020304600206164647234
:104750003A25640D0A000000C9FDBCB6B3C9B9A66C
:1047600000000000CCF8D7AAD3C3BBA7C7F800004D
:104770006A0000201CB50020019003F0B1FD00F09C
:104780003DF86946002000F0D3F808B101201CBDB7
:1047900014A0009902F0B4FF1E21002000F0CCFA12
:1047A0000021082000F0C8FA0021082000F0C4FA17
:1047B0004FF0A041042000F0BFFA00BF01A904207F
:1047C00000F0B6F808B90020E1E7019800F02040B9
:1047D000B0F1204FF2D10849042000F0ADFA0020DA
:1047E000D5E7000044505F4944434F44453A307890
:1047F00025580D0A00000000000F005010B52021C0
:104800001048FCF739FF002402E000F0F3FA641CC2
:10481000382CFAD34EF29E7000F0EEF8002402E03D
:1048200000F0E8FA641C382CFAD320210548FCF784
:1048300021FF002402E000F0DDFA641C102CFAD302
:10484000002010BD000402402DE9F05F804689463B
:10485000154615B90020BDE8F09F00244FEA950BDE
:104860001A49002000F0E2F92044C4B24146042075
:1048700000F0DCF92044C4B20CB12046EBE74FF065
:104880000F0A49465046FFF75AFD012801D0012082
:10489000E1E700260AE049465046FFF750FD0128AF
:1048A00001D00120D7E709F10409761C5E45F2D357
:1048B0004FF00E0A00215046FFF741FD0746012F39
:1048C00001D1002400E001242046C4E75200002367
:1048D0002DE9F04106460F4600254FF4FA7831469F
:1048E000124800F061FA10B10120BDE8F081002506
:1048F0000DE039460D48001F00F058F808B10120BE
:10490000F3E7386800F4803000B102E06D1C4545E3
:10491000EFDB00BF454501D10120E6E739460348FA
:10492000001D00F043F804462046DEE7F4ED00E009
:104930002DE9F04105460E4605F00C0040F0020757
:1049400031463846FFF7FBFC8046B8F1010F01D134
:10495000002400E001242046BDE8F0812DE9F0416B
:1049600005460E462946042000F060F90F2731461F
:104970003846FFF7E4FC80460E2731463846FFF7FD
:10498000DEFC8046B8F1010F01D1002400E00124D3
:104990002046BDE8F08170B504460D461646324605
:1049A0002946204605F0FAFB70BD000070B50446AC
:1049B0000D460549002000F039F929462046FFF749
:1049C000CDFF0646304670BD52000023F8B50446C0
:1049D0000D460849002000F029F969462046FFF7F6
:1049E000BDFF0646A007C10E0098C840287030469B
:1049F000F8BD00005000002370B50446002506E015
:104A000004F0010000F02EFA6410681CC5B2102DED
:104A1000F6DB70BD10B504464CB90548006800F4DB
:104A2000E060044A1043011D014800F0BDF910BDCB
:104A30000CED00E00000FA0538B504460225062C0E
:104A400001D003F04DFC072C6FD2DFE804F004170F
:104A500008656F92AD000120FFF7DCFFB0E0012098
:104A6000FFF7D8FF142003F05DF90020FFF7D2FF15
:104A7000142003F057F900F0C9F9A1E0FFF77AFE1E
:104A800008B1012038BD50A002F03AFE11E0681EC6
:104A900040B2051E01DC0120F4E70120FFF7BAFF58
:104AA000142003F03FF90020FFF7B4FF142003F0B7
:104AB00039F94949494800F077F90028E7D101213F
:104AC00046480C3000F070F908B10120DAE744A044
:104AD00002F016FE0120FFF79DFF142003F022F9DB
:104AE0000020FFF797FF142003F01CF900BF694670
:104AF0003A48FFF75BFF08B10120C3E7009800F4D4
:104B000000300028F3D0002134480C3000F04CF97C
:104B100008B90020B6E753E02F49491E2F4800F09E
:104B200043F908B10120ADE74AE048E0FFF766FE2F
:104B300008B10120A6E71E21002000F0FDF808B111
:104B400001209FE70021082000F0F6F808B10120BD
:104B500098E74FF0A041042000F0EEF808B10120E2
:104B600090E71D491D4800F01FF908B1012089E7B1
:104B700026E0FFF7FFFD08B1012083E71649891CF5
:104B8000164800F011F908B101207BE700BF694623
:104B90001248FFF70BFF08B1012073E7009800F4FB
:104BA00000300028F3D00BE00B49491E0B4800F001
:104BB000FBF808B1002065E700F028F900E000BF2D
:104BC00000BF00205EE7000053574A5F496E6974DA
:104BD00044656275670D0A0001005FA0F0ED00E01A
:104BE000456E61626C652068616C74206F6E207226
:104BF000657365740D0A000038B50A4D00240DE098
:104C000069460948FFF7D2FE08B1012038BD009877
:104C100000F4003008B10020F8E7641CAC42EFD388
:104C20000820F3E740420F00F0ED00E02DE9F347E4
:104C3000044604F07F4804F0F00948EA090108201E
:104C400000F07AF810B10120BDE8FC8704F00C00F8
:104C500040F0010601A93046FFF771FB07460E261A
:104C600000213046FFF76BFB0746012F01D10025DD
:104C700000E001252846E7E72DE9F05F80468946F8
:104C8000154615B90020BDE8F09F00244FEA950BAA
:104C900016490020FFF7CAFF2044C4B24146042051
:104CA000FFF7C4FF2044C4B20CB12046EBE74FF03D
:104CB0000D0A00260AE049465046FFF740FB01284E
:104CC00001D00120DFE709F10409761C5E45F2D32B
:104CD0004FF00E0A00215046FFF731FB0746012F27
:104CE00001D1002400E001240020CCE75200002381
:104CF00073B5044600254FF4FA760E48019900F08A
:104D000053F844F480310B48001F00F04DF800BF09
:104D10000BE001A907480838FFF748FE019800F4A6
:104D2000803008B100207CBD6D1CB542F1DB012054
:104D3000F9E70000F8ED00E02DE9F341054605F044
:104D40000C0601A93046FFF7FAFA0746012F01D1F8
:104D5000002400E001242046BDE8FC812DE9F34158
:104D6000054629460420FFF761FF0D2601A93046BC
:104D7000FFF7E5FA07460E2600213046FFF7DFFA77
:104D80000746012F01D1002400E001242046BDE8A0
:104D9000FC8170B504460D4616463246294620462B
:104DA00005F07AFA70BD000070B504460D4605495D
:104DB0000020FFF73BFF29462046FFF7CFFF0646BE
:104DC000304670BD520000232DE9F04104460D46E7
:104DD00007490020FFF72AFFA007C00E05FA00F6DA
:104DE00031462046FFF7BAFF07463846BDE8F08156
:104DF0005000002310B510210348FCF73BFC1021A4
:104E00000148FCF739FC10BD000402401CB501212B
:104E10000820FDF793FB3020009000208DF804005F
:104E20008DF8060003208DF8050000208DF807009E
:104E300069460248FCF7AAFB1CBD000000040240C2
:104E400010B510210648FCF715FC20210448FCF79A
:104E500008FC044610210248FCF70EFC204610BD59
:104E60000004024010B50446E2B220210248FCF7DB
:104E700005FCFFF7BFFF10BD000402400CB5002089
:104E8000019000903348006840F480303149086058
:104E900000BF3048006800F4003000900198401CCA
:104EA0000190009818B90198B0F5A04FF1D12948A8
:104EB000006800F4003010B10120009001E00020F3
:104EC00000900098012844D122484030006840F00A
:104ED00080502049403108601F48006840F440403D
:104EE0001D4908601B48083000681A4908310860ED
:104EF0000846006808600846006840F48050086072
:104F00001648091F0860081F006840F08070091FDC
:104F1000086000BF0F48006800F000700028F9D05A
:104F200040F202700E4908600A480830006820F01C
:104F300003000849083108600846006840F0020094
:104F4000086000BF03480830006800F00C00082823
:104F5000F8D10CBD003802400070004019544107E0
:104F6000003C024010B500F001F810BD10B51B4820
:104F7000006840B119480068401E1849086010B91F
:104F8000012017490870002408E004EB4401154A89
:104F900002EB810003F0ACFA601CC4B2042CF4DB19
:104FA00011480068401C10490860084600686FF00E
:104FB0000041884202D100200B49086003F06EF9DD
:104FC0000A480078401CC0B2084908700A2803DB70
:104FD0000020087003F05AF910BD00000000002006
:104FE00004000020600E0020080000201C000020AB
:104FF00010B51548006840F4700013490860134864
:10500000006840F001001149086000200F49083194
:1050100008600E4800680E4908400C4908600D48B9
:10502000091D0860081F006820F48020091F08601F
:10503000002006490C310860FFF720FF4FF00060A8
:1050400001498039086010BD88ED00E00038024059
:10505000FFFFF6FE1030002410B50221214800F0B9
:1050600075F858B102211F4800F052F800220221C1
:105070001C4800F07CF81C4800688047042119484F
:1050800000F064F858B10421164800F041F80022FD
:105090000421144800F06BF8144800688047082188
:1050A000104800F053F858B108210E4800F030F8CD
:1050B000002208210B4800F05AF80D48006880478C
:1050C0001021084800F042F858B11021054800F0BE
:1050D0001FF800221021034800F049F80548006835
:1050E000804710BD000C00400C0000201000002084
:1050F000140000201800002021B1028842F0800234
:10510000028004E002884FF67F731A4002807047E5
:10511000CA430282704721B1028842F00102028034
:1051200004E002884FF6FE731A400280704731B1E6
:10513000B0F8442042F40042A0F8442005E0B0F862
:105140004420C2F30E02A0F84420704730B5024656
:10515000002000230024158A05EA0103958905EA49
:10516000010413B10CB1012000E0002030BD1AB1E0
:1051700083890B43838102E083898B43838170475A
:1051800070B5002400220023058C4FF6FE763540D2
:105190000584028C8388048B4FF68F752C40B51ED6
:1051A0002C400D882C43751E2A408D892A434D883A
:1051B0002A43104DA84202D00F4DA84213D14FF6FA
:1051C000F7752A40CD892A434FF6FB752A408D8812
:1051D0002A434FF6FF652B404FF6FF552B400D8AB3
:1051E0002B434D8A2B43838004838D68456302845F
:1051F00070BD000000000140000401400A4600218B
:10520000018B4FF6F773194011430183704700007B
:1052100070B5002400220023058C4FF6EF76354050
:105220000584028C8388048B48F6FF752C404FF66A
:10523000FF452C400D884FF6FF7606EA05252C43E6
:105240004FF6DF752A408D8906EA05152A434D88F9
:1052500006EA05152A43154DA84202D0144DA8426E
:105260001DD14FF67F752A40CD894FF6FF7606EAAD
:1052700005152A434FF6BF752A408D8806EA0515A5
:105280002A434FF6FF352B404FF2FF752B400D8A16
:1052900006EA85052B434D8A06EA85052B43838064
:1052A00004838D688563028470BD000000000140A6
:1052B000000401400A460021018B4FF2FF731940A0
:1052C0004FF6FF7303EA022319430183704700007E
:1052D00070B5002400220023058C4FF6FF66354090
:1052E0000584028C8388848B4FF68F752C404FF693
:1052F000FC752C400D882C434FF6FF552A408D89B4
:105300004FF6FF7606EA05252A434D8806EA05256D
:105310002A43154DA84202D0144DA8421DD14FF288
:10532000FF752A40CD894FF6FF7606EA05252A4308
:105330004FF6FF352A408D8806EA05252A434EF6AA
:10534000FF752B404DF6FF752B400D8A06EA0515BB
:105350002B434D8A06EA05152B43838084838D6891
:10536000C563028470BD00000000014000040140DC
:105370000A460021818B4FF6F77319401143818350
:105380007047000070B5002200230024058C4EF603
:10539000FF7635400584038C8488828B48F6FF7540
:1053A0002A404FF6FF452A400D884FF6FF7606EA61
:1053B00005252A434DF6FF752B408D8906EA0535F4
:1053C0002B434D8806EA05352B430A4DA84202D0EF
:1053D000094DA84208D14BF6FF752C400D8A4FF6B7
:1053E000FF7606EA85152C43848082838D680564E8
:1053F000038470BD00000140000401400A46002102
:10540000818B4FF2FF7319404FF6FF7303EA0223BB
:10541000194381837047000000220288184B98428C
:105420000ED0184B98420BD0B0F1804F08D0164BDD
:10543000984205D0154B984202D0154B984204D1A2
:105440004FF68F731A404B881A43124B984207D07D
:10545000114B984204D04FF6FF431A400B891A4370
:1054600002804B68C3620B880385054B984202D0CB
:10547000044B984201D18B7A0386012383827047C3
:10548000000001400004014000040040000800400A
:10549000000C0040001000400014004010B502480D
:1054A00001F0E0FF10BD0000EC01002010B5024843
:1054B00001F0D8FF10BD00003806002001F4007292
:1054C000B2F5007F00D100BFCA430280704721B10E
:1054D000828942F40052828104E082894DF6FF7392
:1054E0001A408281704702460020B1F5007F00D14A
:1054F00000BF13880B400BB1012000E00020704773
:1055000070B50246002400230025002040F66A16EC
:10551000B14200D100BFC1F3421501F01F030126C3
:1055200006FA03F3012D02D19689334006E0022DDD
:1055300002D1168A334001E0968A33400C120126CC
:1055400006FA04F41688344013B10CB1012000E0CF
:10555000002070BDF0B50346002400260025002081
:1055600040F66A17B94200D100BF1846C1F3421491
:1055700001F01F06012707FA06F5012C01D10C30B6
:1055800004E0022C01D1103000E014301AB1076899
:105590002F43076002E00768AF430760F0BD0000DB
:1055A0002DE9FF4705460E460024A14600BFA04650
:1055B000B08900B100BF2C8A24F44054F088044321
:1055C0002C82AC8941F20C608443B0883189084355
:1055D000718908430443AC81AC8A24F44074B089D7
:1055E0000443AC826846FCF7F9FF2048854202D0AC
:1055F0001F48854202D1DDF80C9001E0DDF80890EB
:10560000A88900F4004040B109EBC90000EB091083
:1056100031684900B0FBF1F707E009EBC90000EB86
:10562000091031688900B0FBF1F76420B7FBF0F096
:1056300004012009642101FB1078A88900F40040CE
:1056400040B1322000EBC800B0FBF1F000F00700E1
:10565000044308E0322000EB08106421B0FBF1F0B5
:1056600000F00F0004432C81BDE8FF8700100140CB
:105670000014014001468888C0F308007047C1F358
:1056800008028280704770B504460D46D4F8E405E0
:105690002946426820469047002070BD70B50446F8
:1056A0000D464FF48970005D022802D0032812D104
:1056B00000E000BF688801280CD100214FF48C70F5
:1056C0000151D4F8E40529468268204690472046D7
:1056D00000F05EF804E02946204600F021F800BF03
:1056E00000BF70BD2DE9F04106460C461546002767
:1056F0002B46224600213046FBF72DF93846BDE8FF
:10570000F0812DE9F04106460C46154600272B4650
:10571000224600213046FBF779F93846BDE8F08192
:1057200070B504460D4680212046FBF74BF9002159
:105730002046FBF747F9204601F0ADFA70BD70B581
:1057400004460025052140F21110015500231A4698
:1057500019462046FBF7FFF8204601F09CFA284640
:1057600070BD2DE9F04104460E4615460027C4F8E9
:105770003C51C4F83851022140F2111001552B461A
:10578000324600212046FBF741F93846BDE8F0815A
:1057900070B504460025042140F211100155002384
:1057A0001A4619462046FBF731F9204601F073FAF4
:1057B000284670BD70B505460E46002E51D105F540
:1057C0008E7440F21110405D02283DD1A168E0695D
:1057D000884211D9A168E069401AE061E87801289F
:1057E00003D1D4E902100844E060A08B82B22846BD
:1057F000E168FFF786FF27E0A168206AB0FBF1F2BD
:1058000001FB120078B9A168206A88420BD3D4E961
:105810000801884207D2002211462846FFF771FF8F
:105820000020606210E0D5F8E405C06848B14FF48C
:105830008970405D032804D1D5F8E405C168284685
:1058400088472846FFF77BFF4FF48B70405D0128A7
:1058500016D1284600F046FB00214FF48B704155CD
:105860000EE0D5F8E405406950B14FF48970405D11
:10587000032805D1D5F8E40531464269284690470A
:10588000002070BD70B505460E46A6BB05F55D74DB
:1058900040F21110405D03283DD1A168E0698842C3
:1058A00017D9A168E069401AE061E878012803D1BE
:1058B000D4E902100844E060A368E069984201D28C
:1058C000E06900E0A06882B22846E168FFF70AFFBD
:1058D00021E0D5F8E405006948B14FF48970405DD6
:1058E000032804D1D5F8E4050169284688472846ED
:1058F000FFF74EFF0FE0FFE7D5F8E405806950B1F0
:105900004FF48970405D032805D1D5F8E405314690
:10591000826928469047002070BD014600207047EC
:1059200070B504460D46E888012804D02946204673
:10593000FFF7F6FE1AE04FF48970005D022802D0EE
:1059400003280DD105E0012209492046FFF709FF90
:105950000BE0012204F588712046FFF702FF04E006
:1059600029462046FFF7DCFE00BF00BF70BD0000E7
:1059700070010020F8B504460E4670880012082811
:105980006CD2DFE800F06B0416226B6B6166A078C6
:10599000D4F8EC150A68694690470546F088402817
:1059A00004D04FF48970005D012801D108200090D7
:1059B00059E0A078D4F8E4158A6A6946904705460C
:1059C00002216970C4F8F0554DE0B078062834D251
:1059D000DFE800F0030B131B232BA078D4F8EC15A1
:1059E0004A686946904705462CE0A078D4F8EC1543
:1059F0008A6869469047054624E0A078D4F8EC15FB
:105A0000CA686946904705461CE0A078D4F8EC15B2
:105A10000A6969469047054614E0A078D4F8EC1569
:105A20004A696946904705460CE0A078D4F8EC1521
:105A30008A6969469047054604E031462046FFF7EB
:105A40006FFEF8BD00BF0EE031462046FFF768FE4E
:105A5000F7E731462046FFF763FEF2E7314620467E
:105A6000FFF75EFEEDE700BFBDF8000088B1F088EB
:105A700078B1F088BDF80010884202DDBDF8000062
:105A800000E0F0880090BDF8002029462046FFF78E
:105A900068FE00BFD5E70146002002E0421CD0B2FC
:105AA000491C0A78002AF9D17047024601EB8103AC
:105AB00002F55D7000EBC300008B80B27047000000
:105AC00070B504460D464FF48970005D022802D07F
:105AD000032813D100E000BF01200C4908604FF4F7
:105AE0008C70005920B10846006840F00200086040
:105AF000022206492046FFF734FE04E029462046EC
:105B0000FFF70EFE00BF00BF70BD00007401002053
:105B10002DE9F04104460D4617460026FCB120460B
:105B2000FFF7B9FF022101EB400038803A78304698
:105B3000711CCEB22A5403223046711CCEB22A54B4
:105B40000AE014F8012B3046711CCEB22A54002210
:105B50003046711CCEB22A5420780028F1D1BDE81D
:105B6000F0812DE9F04104460F4615461E46DDF84A
:105B70001880204600F08CFD2046FFF7CEFEC4F8CA
:105B8000E465C4F8E885C4F8EC5539462046FBF7CF
:105B900031FAD4F8E81508688047204600F062FD25
:105BA000BDE8F08110B50446D4F8E405016A20464A
:105BB0008847002010BD10B50446D4F8E405416ABA
:105BC00020468847002010BD70B504460D46294682
:105BD0002046FBF7E3FE002070BD70B504460D467D
:105BE00029462046FBF702FF002070BD70B5044631
:105BF0000D4681212046FAF71FFE01212046FAF7C3
:105C00001BFE2046FBF714FF002070BD024620203B
:105C10000880014870470000AC01002070B50446C0
:105C20000D4629462046FFF7E1FF0223402281214D
:105C30002046FAF75CFE0223402201212046FAF7B3
:105C400056FE2046FBF7FAFE002070BD70B50546F3
:105C50000C46207800F06000002849D020287BD135
:105C60006078FE2802D0FF283AD125E06088E0B9AC
:105C7000E088012819D1207800F08000802814D114
:105C800037490968886980473649087008460078AE
:105C9000002804DD01222846FFF763FD0BE02146C2
:105CA0002846FFF73DFD022070BD21462846FFF73C
:105CB00037FD0220F8E719E0608850B9E08840B964
:105CC000207800F08000802803D02846FBF7DAFE19
:105CD00005E021462846FFF723FD0220E4E705E022
:105CE00021462846FFF71CFD0220DDE700BF34E017
:105CF000607801280ED00A2802D00B2829D105E0AF
:105D0000012219492846FFF72CFD22E0A078164908
:105D100008701EE021792846FAF7D7FD2179284638
:105D2000FAF78AFD207900F08000802806D12179D9
:105D3000022340222846FAF7DAFD05E02179022302
:105D400040222846FAF7D3FD21792846FBF708FEC2
:105D500000BF00BF01E0FFE700BF00BF0020A3E7D6
:105D600010010020CC010020CD0100207CB50546AB
:105D70000024284601F084FA002865D0284601F066
:105D80008AFA0190019808B900207CBD0198C0F3FF
:105D9000C04018B12846FAF735FF04430198C0F314
:105DA000804018B12846FAF78BFE04430198C0F3EF
:105DB000400050B100200090009820F00200801CAC
:105DC00000900098E968486100BF0198C00F18B1C1
:105DD0002846FAF797FF04430198C0F3C02018B192
:105DE0002846FBF731F804430198C0F3C00018B10E
:105DF0002846FBF713F804430198C0F3001018B1CC
:105E00002846FAF7B3FF04430198C0F3003018B1F5
:105E10002846FBF76DF804430198C0F3403018B1F1
:105E20002846FAF71AFE04430198C0F3005018B14F
:105E30002846FBF72DF904430198C0F3405018B1F0
:105E40002846FBF73BF9044320469EE790F8CC2513
:105E50000A7090F8CD254A7090F8CE3590F8CF258D
:105E600003EB02224A8090F8D03590F8D12503EB5D
:105E700002228A8090F8D23590F8D32503EB0222D3
:105E8000CA80CB884FF4A0721350012340F2111244
:105E90001354704710B5044600234022194620468B
:105EA000FAF725FD0023402280212046FAF71FFD46
:105EB00001214FF489700155A078D4F8E825516884
:105EC0008847002010BD10B50446D4F8E8150869CD
:105ED000804740F21310015D401E0155032101551A
:105EE000002010BD01460348026808694260002096
:105EF000704700003801002010B50446D4F8E405CE
:105F0000C06920B1D4F8E405C16920468847002063
:105F100010BD70B504460D46A88818BBE88808BBBC
:105F2000A87800F07F064FF48970005D032804D143
:105F300029462046FFF7F4FB18E04FF48A70065517
:105F400031462046FAF730FD2046FFF721FC26B106
:105F500002214FF48970015508E001214FF4897046
:105F6000015503E029462046FFF7DAFB70BD70B506
:105F700004460D46D4F8E4052946026820469047B9
:105F8000D4F8E81588688047002070BD70B50446D5
:105F90000D46A8783049087008460078012804DDCD
:105FA00029462046FFF7BCFB55E04FF48970005DA1
:105FB000022802D0032848D117E02748007880B192
:105FC0002548007884F8100103214FF489700155A9
:105FD000214801782046FFF7CAFF2046FFF7D8FB8B
:105FE00002E02046FFF7D4FB34E01B48007880B97C
:105FF00002214FF4897001551748007884F8100188
:10600000154801782046FFF73EFB2046FFF7C0FB0E
:106010001AE094F8100110490978884211D094F8D8
:1060200010112046FFF72FFB0B48007884F8100171
:10603000094801782046FFF79AFF2046FFF7A8FBA2
:1060400002E02046FFF7A4FB04E029462046FFF7C4
:1060500067FB00BF00BF70BD78010020F8B50446A3
:106060000D460026688801280DD101214FF48C705F
:106070000151D4F8E405294682682046904720461D
:10608000FFF786FB39E06888022836D12879A0BB63
:10609000206940680090A8880612062E22D2DFE808
:1060A00006F02103090F151B009820F07000103036
:1060B000009017E0009820F070002030009011E070
:1060C000009820F07000303000900BE0009820F035
:1060D00070004030009005E0009820F070005030D3
:1060E000009000BF00BF05480099016001214FF4F6
:1060F0008B7001552046FFF74BFBF8BD380100209F
:106100001CB5044669462046FFF7A0FE9DF8000036
:1061100000F01F0020B1012807D002280FD109E0AC
:106120006946204600F016F811E06946204600F066
:10613000F9F80CE06946204600F046F807E09DF8C3
:10614000000000F080012046FAF73CFC00BF00BFD1
:1061500000201CBD70B505460C46002660780A2854
:1061600029D2DFE800F01923281E280A0528140F79
:1061700021462846FFF7FEFB22E021462846FFF78E
:10618000C8FE1DE021462846FFF700FF18E0214623
:106190002846FFF7C5FB13E021462846FFF790FC91
:1061A0000EE021462846FFF759FF09E02146284620
:1061B000FFF774FA04E021462846FFF7B1FA00BF62
:1061C00000BF304670BD00002DE9F04105460E4687
:1061D000002734797078002857D001282BD0032865
:1061E00075D14FF48970405D022802D003281BD17D
:1061F00007E02CB1802C03D021462846FAF7E2FBB9
:1062000017E0708830B92CB1802C03D02146284685
:10621000FAF7D8FBD5F8E40531468268284690475E
:106220002846FFF7B5FA04E031462846FFF778FA2A
:1062300000BF00BF70E04FF48970405D022802D0BB
:1062400003281BD107E02CB1802C03D0214628461F
:10625000FAF7B8FB17E0708878B95CB1802C09D0E8
:1062600021462846FAF70DFBD5F8E4053146826849
:10627000284690472846FFF78BFA04E03146284627
:10628000FFF74EFA00BF00BF46E04FF48970405D53
:10629000022802D0032837D107E02CB1802C03D08C
:1062A00021462846FAF78EFB33E004F08000802870
:1062B00012D104F07F0000EB800105F58E7000EB39
:1062C000C100807820B101201549086016E022E065
:1062D00000201349086011E004F0800070B904EB5D
:1062E000840105F55D7000EBC100807818B10120D4
:1062F0000B49086002E000200949086002220849B1
:106300002846FFF72EFA04E031462846FFF708FA40
:1063100000BF00BF00E000BF00BF3846BDE8F0810D
:106320006C01002070B504460D4600264FF48970BC
:10633000005D032814D1287901280CDCD4F8E40589
:106340002946826820469047E88840B93EB92046F1
:10635000FFF71EFA03E029462046FFF7E1F904E0C3
:1063600029462046FFF7DCF900BF00BF304670BD6C
:1063700010B504464FF48970015D401C015504219D
:10638000401E0155D4F8E815C8688047002010BDAC
:1063900070B505460C462DB92246064906A0FFF702
:1063A000B7FB04E02246034903A0FFF7B1FB014815
:1063B00070BD0000A45200204D534320436F6E6611
:1063C0006967000010B502A001F09AF910BD000045
:1063D0003E204D534320496E7465726661636520AB
:1063E000737461727465642E0D0A000010B502A00A
:1063F00001F086F910BD00003E205553422044654F
:106400007669636520436F6E6E65637465642E0DF7
:106410000A00000002461220088001487047000070
:10642000D000002010B502A001F06AF910BD0000F4
:106430003E20555342204465766963652044697364
:10644000636F6E6E65637465642E0D0A0000000054
:1064500010B5044614B1012C08D103E006A001F0E8
:106460004FF907E00DA001F04BF903E014A001F093
:1064700047F900BF00BF10BD202020202055534207
:10648000445F5553525F4465766963655265736531
:106490007420205B48535D0D0A000000202020205E
:1064A00020555342445F5553525F44657669636596
:1064B0005265736574205B46535D0D0A0000000051
:1064C00020202020205553422044657669636520B2
:1064D0004C6962726172792076312E312E30202023
:1064E0005B3F3F5D0D0A000010B502A001F008F906
:1064F00010BD00003E2044657669636520526573D7
:10650000756D65642E0D0A0010B502A001F0F8F853
:1065100010BD00003E2044657669636520496E2009
:1065200073757370656E64206D6F64652E0D0A005F
:1065300010B502A001F0E4F810BD00003E20555354
:1065400042445F5553525F496E6974200D0A000042
:1065500070B505460C462DB92246064906A0FFF740
:10656000D7FA04E02246034903A0FFF7D1FA014815
:1065700070BD0000A45200204D534320496E746545
:1065800072666163650000000246042008800148CD
:1065900070470000EC00002070B505460C4622460E
:1065A000024903A0FFF7B4FA004870BDA4520020CE
:1065B00053544D6963726F656C656374726F6E6975
:1065C0006373000070B505460C462DB92246064996
:1065D00006A0FFF79DFA04E02246034909A0FFF751
:1065E00097FA014870BD0000A45200204D617373FA
:1065F0002053746F7261676520696E204853204D87
:106600006F6465004D6173732053746F72616765C9
:1066100020696E204653204D6F64650070B50546B5
:106620000C462DB92246064906A0FFF771FA04E090
:106630002246034907A0FFF76BFA014870BD00002E
:10664000A4520020303030303030303030303141E2
:1066500000000000303030303030303030303142E7
:106660000000000038B504464FF4C060FBF7A4FA00
:1066700043208DF8000001208DF8010003208DF8E3
:10668000020001208DF803006846FBF759FA38BD77
:106690001CB5044601210846FBF750FF4FF4C050DB
:1066A000009003208DF8050002208DF804000020E2
:1066B0008DF806008DF8070069460B48FAF766FF6B
:1066C0000A220B210848FAF7A9FF0A220C210648E2
:1066D000FAF7A4FF01218803FBF760FF0121802066
:1066E000FBF73CFF1CBD00000000024010B5044653
:1066F0004FF47A7104FB01F000F001F810BD0022A4
:10670000C0EB0013D90000BF531C1A468B4200D9BE
:106710007047F9E73EB5044600250020029001903D
:106720000090207A01283DD1E068806B01900198AB
:1067300020F480300190607A28B1019820F4801014
:1067400000F5801001900198E168886300200290B4
:10675000E068C0680290029820F040000290029821
:1067600020F480000290029820F4003002900298F9
:1067700020F4002002900298E168C860204600F0F2
:1067800061F9E078012843D1009820F01E000A301A
:106790000090009820F02000203000900098E168E0
:1067A000886035E0E068C0680290029820F0400000
:1067B000403002900298E168C860204600F042F93B
:1067C00000200190019820F4803000F58030019085
:1067D000019820F4802000F580200190019820F499
:1067E000002000F500200190019820F4001000F531
:1067F00000100190607A28B1019820F4801000F513
:10680000801001900198E16888631420FFF76EFF03
:10681000E07801280FD1E06880680090009820F0AF
:106820001E000A300090009820F0200020300090D8
:106830000098E168886028463EBD70B588B004467F
:1068400000260020079006900590049003900021F8
:10685000D4F80C010160206900680690069820F4C5
:10686000C0500690069920690160E07A01283DD168
:106870000321204600F0F8FC8020E168486205987A
:1068800080B200F58000059005986FF30F0080300E
:1068900005900598E1688862059800EB104104981E
:1068A00061F30F000490049880B200F5000004909A
:1068B0000498E168C1F80401049800EB104161F309
:1068C0000F000490049880B204900499E068C0F826
:1068D0000811049800EB104161F30F000490049834
:1068E00080B204900499E068C0F80C111021204691
:1068F00000F070FC204600F047FC00212069016197
:1069000020694161491E2069816100212069C161BE
:1069100000252CE004F1180050F8250000680790CD
:106920000798C00F70B100200790079820F08040B2
:1069300000F180400790079820F0006000F10060AF
:10694000079001E00020079004F1180050F825009E
:1069500007990160002104F1180050F82500016139
:10696000FF2104F1180050F8250081606D1C60784B
:10697000A842CFD800252CE004F1540050F825009F
:10698000006801900198C00F70B10020019001983B
:1069900020F0804000F180400190019820F00060DC
:1069A00000F10060019001E00020019004F154002A
:1069B00050F8250001990160002104F1540050F8BD
:1069C00025000161FF2104F1540050F82500816089
:1069D0006D1C6078A842CFD800200390039820F463
:1069E000807000F5807003902069006903998843E6
:1069F000084321690861E07801281DD10020029038
:106A0000029820F00100401C0290029820F0020041
:106A1000801C02904021029861F38A000290029843
:106A200020F4803000F580300290029861F35940E4
:106A30000290029920690163204600F047FB30462E
:106A400008B070BDF8B5044600260025002000906F
:106A500000BF0320FFF753FEE06800690090681C48
:106A600005461349884201D90020F8BD0098C00F9F
:106A70000028EED00025009820F00100401C009076
:106A80000098E168086100BFE06800690090681C38
:106A900005460749884200D904E0009800F001004B
:106AA0000028F1D100BF0320FFF729FE3046DCE7C4
:106AB000400D030008B50146002000220092009A14
:106AC00022F00102521C0092CA689268009B9A430D
:106AD000CB689A6008BD0EB50146002000220092E6
:106AE0000A69926802928A6912680192029AC2F354
:106AF000410232B1012A05D0022A09D0032A0DD160
:106B000001E000BF00BF019A6FF30A02019205E0A5
:106B1000019A6FF30A02D21C019200BF00BF019BD1
:106B20008A691360009A22F4807202F580720092E2
:106B30000A695268009B9A431A430B695A600EBD5A
:106B4000FEB50246002000240025029500954D78F0
:106B5000012D52D193691D6802951D6900954D69FB
:106B600055B9009D25F07F050095009D25F4C015C1
:106B700005F50025009516E08E684D69B54207D9E8
:106B80008D684D610E7A009D66F30605009504E060
:106B90000E7D009D66F306050095009D25F4C01549
:106BA00005F500250095009D1D61D578012D06D1C4
:106BB0000F7802F1180555F827500E696E61029D95
:106BC00025F0806505F180650295029D25F0004560
:106BD00005F100450295029D1D60D578002D59D123
:106BE0004D69002D56D00E780125B5402C4315690E
:106BF0006D6B2543166975634CE00E7802F1540500
:106C000055F826502D6802950E7802F1540555F876
:106C100026502D6900954D695DB90E7A009D66F389
:106C200006050095009D25F4C01505F50025009585
:106C30000CE08D684D610E7A009D66F306050095A7
:106C4000009D25F4C01505F5002500950F7802F18B
:106C5000540555F82750009E2E61D578012D06D198
:106C60000F7802F1540555F827500E696E61029DA8
:106C700025F0806505F180650295029D25F00045AF
:106C800005F1004502950F7802F1540555F827509B
:106C9000029E2E60FEBD0EB500210191019921F0EA
:106CA0004041A1F180410191019921F4C01101F508
:106CB00000210191019921F07F0118310191019A80
:106CC000416D0A61C178012915D10021009100F2BE
:106CD000CC51426D5161416D09680091009921F0DC
:106CE000004101F1004100914FF080210091009A94
:106CF000416D0A6000BF0EBD3CB502460020002475
:106D0000019400944C78012C0CD10D7802F11804F8
:106D100054F825300D780124AC40009D64F30F0534
:106D200000950BE00D7802F1540454F825300D78ED
:106D30000124AC40009D64F31F4500951C6801943C
:106D4000019CC4F3C034E4B90D89019C65F30A04C5
:106D50000194CD78019C65F3934401948D79019C55
:106D600065F399540194019C24F0805404F18054FB
:106D70000194019C24F4004404F500440194019C16
:106D80001C601469E469009D2C431569EC613CBDED
:106D900038B503460020002400944C78012C05D11E
:106DA0000D7803F1180454F8252004E00D7803F160
:106DB000540454F8252014680094009C24F4001412
:106DC0000094CC78032C02D0CC78022C05D1009C06
:106DD00024F0805404F180540094009C146038BD69
:106DE0003CB5024600200024019400944C78012C0C
:106DF0000CD10D7802F1180454F825300D780124D7
:106E0000AC40009D64F30F0500950BE00D7802F196
:106E1000540454F825300D780124AC40009D64F3EF
:106E20001F450095019C24F400440194019C1C60C2
:106E30001469E469009DAC431569EC613CBD38B54B
:106E400003460A460020002400945478012C18D1EF
:106E5000157803F1180454F825100C680094009C70
:106E6000E40F2CB1009C24F0804404F18044009491
:106E7000009C24F4001404F500140094009C0C60A1
:106E80000EE0157803F1540454F825100C680094B2
:106E9000009C24F4001404F500140094009C0C6081
:106EA00038BDFEB505460C4600260027002002909E
:106EB0000190607801287ED1217805F1180050F802
:106EC000210000680290217805F1180050F8210097
:106ED00000690190606948B901986FF31200019050
:106EE0000121019861F3DC40019017E0616901988C
:106EF00061F3120001906069401EA1680844B0FB74
:106F0000F1F1019861F3DC400190E078012805D1AE
:106F1000019820F0C04000F100500190227805F166
:106F2000180050F8220001990161E878012807D182
:106F3000227805F1180050F82200216941610DE026
:106F4000E07801280AD0606940B12178012000FA78
:106F500001F72869406B384329694863E0780128C4
:106F600013D12869806800900098C0F3002030B9E0
:106F7000029820F0005000F10050029005E00298C5
:106F800020F0805000F180500290029820F0806044
:106F900000F180600290029820F0004000F1004073
:106FA0000290227805F1180050F822000299016041
:106FB000E078012800E008E06CD1A08A83B2227852
:106FC0002846E16800F02DFA64E0217805F15400CC
:106FD00050F8210000680290217805F1540050F823
:106FE000210000690190606950B9A168019861F3BE
:106FF000120001900121019861F3DC40019013E03F
:10700000A068401E61690844A168B0FBF1F10198D5
:1070100061F3DC4001900198C0F3C940A168484386
:10702000019960F312010191227805F1540050F8A2
:10703000220001990161E878012806D1227805F142
:10704000540050F8220021694161E07801280ED1F6
:10705000607930B1029820F0005000F100500290A9
:1070600005E0029820F0805000F1805002900298D4
:1070700020F0806000F180600290029820F00040D3
:1070800000F100400290227805F1540050F82200EF
:10709000029901603046FEBD08B500210091491EED
:1070A000C26851606FF08041C2685161009921F05F
:1070B000004101F100410091009921F4006101F5C6
:1070C000006100910099C268916108BD38B504461D
:1070D000002500200090E16888616FF08040E16841
:1070E00048612046FFF7D8FFE07820B9009820F0EB
:1070F000100010300090009820F4006000F500604F
:107100000090009820F4805000F580500090009886
:1071100020F4005000F500500090009820F48020EA
:1071200000F580200090009820F4002000F5002059
:107130000090009820F0080008300090009820F49B
:10714000801000F580100090009820F4001000F5E9
:1071500000100090E0688069009988430843E16866
:107160008861284638BD08B50146002000220092FB
:10717000009A22F00102521C0092CA689268009B99
:107180001A43CB689A6008BDF8B50446002500266E
:1071900000200090009820F010001030009000981F
:1071A000E168086100BFE06800690090701C064655
:1071B0000749884200D904E00098C0F30010002875
:1071C000F1D100BF0320FFF79AFA2846F8BD00006E
:1071D000400D0300F8B504460D46002600270020A8
:1071E0000090009820F0200020300090009865F377
:1071F0008A1000900098E168086100BFE0680069AB
:107200000090781C07460749884200D904E000989E
:10721000C0F340100028F1D100BF0320FFF76FFA40
:107220003046F8BD400D030008B5014600200A694C
:1072300092680092009AC2F3410232B1012A06D04C
:10724000022A07D0032A07D102E0032004E000BF8E
:10725000022001E0012000BF00BF08BD0146C86850
:10726000406900F00100704708B502691268009299
:10727000009A61F301020092009B0269136008BD4D
:1072800000B502461046FFF7E9FF012801D00120B2
:1072900000BD0020FCE701460020CA685069CA68AA
:1072A0009269104070470146086982690869C0699F
:1072B000024090B270470146086982690869C06956
:1072C0000240100C7047024602F1540353F821307B
:1072D000986813695B6918407047F0B5034600244D
:1072E000D01CC71700EB9777BD10D3F8D06000BF54
:1072F00003E030680860641C091DAC42F9D30846FD
:10730000F0BD000070B502460C46002300200025A9
:10731000D5700125957040259580012C0CD14FF03A
:10732000A0430125D57208251570042555709D15BB
:10733000D580022515720AE04CB9254B0025D5727F
:107340000C251570062555704FF4A065D580D360C7
:1073500003F500651561002110E003F5106505EBEC
:10736000411602F1180545F8216003F5306505EB7B
:10737000411602F1540545F82160491C55788D42AB
:10738000EBD803F5806555614035C2F8CC5000213B
:1073900008E003F5A06505EB411602F1900545F8FC
:1073A0002160491C15788D42F3D8002108E003F5CF
:1073B000805505EB013602F1D00545F82160491CE6
:1073C00015788D42F3D803F56065C2F80C5170BD95
:1073D00000000440F8B504460D460026E068C06889
:1073E0000090009820F000500090009820F080401D
:1073F0000090012D06D1009820F0005000F10050BF
:10740000009006E02DB9009820F0804000F1804007
:1074100000900098E168C8603220FFF767F93046B5
:10742000F8BD2DE9F04104460026E078B0B9002708
:107430000020DD1C4FEAE57805EB98784FEAA807B5
:1074400004F1D00555F822C000BF04E00D68CCF867
:107450000050401C091DB842F8D300BF3046BDE8BB
:10746000F081000070B5044640F225512068FEF717
:1074700047F8F8B12068FEF7FDF8C5B23449206836
:10748000884203D12846F9F707F812E0E18AA0689C
:107490004554E08A401C80B2E082E189884201DBE9
:1074A0000020E082608BE189884202DA608B401C18
:1074B000608300BF40F227712068FEF721F808B30F
:1074C000A08A60B9002240F227712068FEF742F8D6
:1074D000012240F226612068FEF73CF837E0638A1B
:1074E0006268D15C2068FEF7CAF8608A401C80B2EE
:1074F0006082A189884201DB00206082A08A401E50
:10750000A08224E040F226612068FDF7F9FFF0B187
:10751000A08A50B9002240F226612068FEF71AF8CE
:10752000206AA0B1206A804711E0638A6268D15C5A
:107530002068FEF7A4F8608A401C80B26082A189AE
:10754000884201DB00206082A08A401EA08270BDBC
:107550000010014015481649086016484860164852
:10756000886040F212208881C88100200882488209
:10757000C882088348838882C861086248620F48CD
:107580000F4908600F4848600F4888604FF48060DA
:107590008881C881002008824882C8820883488385
:1075A0008882C8610862486270470000001001408C
:1075B000EC010020140200202604002000140140E9
:1075C0003806002060060020600A002000BFFEE7A9
:1075D00070B5ADF51A7D002500260DA9002001F03B
:1075E000F3FD04461CB1214623A000F089F828A130
:1075F00006A801F0CFFE044634B1214625A000F0D4
:107600007FF80DF51A7D70BD28A000F079F80025EF
:1076100000BF694606A801F0DAFF044614B99DF8D8
:10762000090000B920E09DF809002E2800D119E0DA
:107630009DF8080000F0100028B19DF8081024A063
:1076400000F05EF804E09DF8081025A000F058F85E
:1076500027A0009900F054F80DF1090126A000F0D0
:107660004FF800BF6D1CD4E700BF0021084601F0B1
:10767000ABFD00BFC5E70000B9D2D4D8CEC4BCFE74
:10768000CFB5CDB3CAA7B0DC20282564290D0A00E8
:107690002F000000B4F2BFAAB8F9C4BFC2BCCAA789
:1076A000B0DC20282564290D0A000000CAF4D0D4DB
:1076B00020202020202020207C2020CEC4BCFEB40E
:1076C000F3D0A1207C20CEC4BCFEC3FB200D0A0059
:1076D0002830782530326429C4BFC2BC2020000085
:1076E0002830782530326429CEC4BCFE202000002A
:1076F000202531306400000020202573207C00000C
:107700000FB4054B10B503A9044A029800F01AF80B
:1077100010BC5DF814FB0000A5970008E8010020EC
:1077200002E008C8121F08C1002AFAD1704770474A
:10773000002001E001C1121F002AFBD1704780F335
:10774000108870472DE9FF4F8DB00F460546002683
:1077500006E025280BD0DDE90F1290476D1C761C42
:1077600028780028F5D111B03046BDE8F08F00240C
:10777000A246A1460122EC4900E0044315F8013F6E
:10778000203B02FA03F00842F7D128782A2810D0CB
:107790006FF02F022878A0F13001092914D80AEBE4
:1077A0008A0102EB410144F0020400EB010A6D1C66
:1077B000F0E701CF5FEA000A03D544F40054CAF1B0
:1077C000000A44F002046D1C28782E2817D115F801
:1077D000010F44F004042A280ED06FF02F022878FD
:1077E000A0F1300109290AD809EB890102EB410116
:1077F00000EB01096D1CF2E757F8049B6D1C28781B
:107800006C280FD006DC4C2817D068280DD06A28C9
:1078100014D104E0742810D07A280FD10DE044F47C
:1078200000140AE044F4801401E044F44014697840
:10783000814202D104F580146D1C6D1C2A786E2AD9
:107840001FD00CDC632A31D004DC002A8BD0582AEC
:1078500011D1A3E0642A68D0692A0CD165E0732AAB
:107860002ED004DC6F2A73D0702A04D19BE0752AD5
:107870006FD0782A6ED01046DDE90F129047761C43
:1078800050E1C4F30250022806D0032809D004288E
:1078900001CF09D0066045E101CFF117C0E90061D1
:1078A00040E101CF06803DE106703BE117F8040B93
:1078B0008DF8000000208DF80100EB46012003E068
:1078C00057F804BB4FF0FF3061074FF0000102D4BE
:1078D0000DE008F10101884649450FDA8045F8DBE3
:1078E0001BF808100029F4D108E008F101018846CE
:1078F0008142FADB1BF808100029F6D1DDE90F23DD
:10790000AAEB08008146214600F036F9304400EB2E
:10791000080604E0DDE90F121BF8010B9047B8F1EF
:107920000108F7D221464846F7E00A21C4F3025382
:107930004FF0000B0891022B04D001CFC117032B8D
:1079400009D00AE0FF1D27F00707F7E8020108E069
:1079500032E01FE020E000B2C117042B01D140B299
:10796000C117031E71F1000307DA4FF0000CD0EBD2
:107970000C006CEB01012D2302E0230504D52B2321
:107980008DF82430012303E0E30701D02023F7E73B
:10799000984658E00A2110E010210EE010204FF028
:1079A000000B08900CE010214FF0000B44F0040491
:1079B0004FF00809089103E008214FF0000B0891EF
:1079C000C4F30253022B04D001CF0021032B06D0B5
:1079D00006E0FF1D27F00707F7E8020103E080B289
:1079E000042B00D1C0B24FF0000823072BD5702A1A
:1079F00007D0DDF820C08CF0100C5CEA0B0C05D031
:107A00000EE040238DF82430012308E050EA010302
:107A100006D030238DF824308DF825200223984697
:107A2000DDF820C08CF0080C5CEA0B0C0BD150EA9E
:107A3000010301D1630706D530238DF824304FF0C0
:107A40000108A9F10109582A04D038A20B9208AA0A
:107A50000A920BE03AA2F9E75B46089AF8F7B6FB00
:107A60000B9B9B5C0A9A521E0A92137050EA010209
:107A7000F2D10A98ADEB000000F1200B600702D5AF
:107A800024F4803401E04FF00109D94502DDA9EB6F
:107A90000B0000E0002000EB0B0141440890AAEB32
:107AA000010AE00306D4DDE90F232146504600F029
:107AB00063F806444FF0000908E009A911F809002D
:107AC000DDE90F12904709F10109761CC145F4DB8D
:107AD000E0030CD5DDE90F232146504600F04CF8B9
:107AE000064404E0DDE90F1230209047761C089927
:107AF000481E08900029F5DC08E00A980A990078E9
:107B0000491C0A91DDE90F129047761CBBF1000178
:107B1000ABF1010BF1DC21465046DDE90F2300F00B
:107B200019F806446D1C1BE6092801003031323378
:107B300034353637383961626364656600000000A9
:107B40003031323334353637383941424344454693
:107B5000000000002DE9F041044600251E461746AE
:107B6000880404D405E039462020B0476D1C641E0B
:107B7000F9D52846BDE8F0812DE9F04104460025FD
:107B80001E469046C80301D5302700E02027880410
:107B900004D505E041463846B0476D1C641EF9D552
:107BA0002846BDE8F081000000B585B0012108033A
:107BB000FAF7F4FC0020ADF800004FF48270ADF845
:107BC00002000020ADF804000220ADF806000120FC
:107BD000ADF808004002ADF80A000820ADF80C002E
:107BE0000020ADF80E000720ADF8100069460648E9
:107BF000FCF7C9FA00210448FCF7ABFA012102485E
:107C0000FCF7A7FA05B000BD003001400146042989
:107C100001DB0020704701EB4100084A02EB8000C5
:107C20004078012808D1002001EB4102034B03EB0F
:107C3000820250700120EDE70020EBE7600E00208B
:107C40007CB505460C46284600F036F9064601216B
:107C5000FAF774FC009401208DF8040002208DF8DE
:107C6000050000208DF806008DF8070069462846BB
:107C7000F9F78CFC7CBD00002DE9FC4706460D465B
:107C800014469946304600F017F907460121FAF7E5
:107C900055FC1F4884420BD01E48844208D01E4821
:107CA000844205D01D48844202D01D48844207D139
:107CB000204600F043F907460121FAF76FFC06E081
:107CC000204600F03BF907460121FAF757FC0095E2
:107CD00002208DF8040003208DF8050000208DF8A7
:107CE000060001208DF8070069463046F9F74EFC82
:107CF000204600F039F80746284600F093F8804601
:107D00003A4641463046F9F789FCBDE8FC87000059
:107D100000000140000401400040014000440140D7
:107D20000048014010B5044604B910BD012C00D133
:107D300002240120FFF703FD0948046000200949DF
:107D40000870FFF7FCFC06E000F05EF905480078DB
:107D5000012800D100E0F7E700BF00BFE5E7000021
:107D6000000000200400002001460020224A914229
:107D700001D101203FE0214A914201D103203AE0A4
:107D80001F4A914201D1032035E01E4A914201D1A0
:107D9000032030E01C4A914201D103202BE0B1F1D5
:107DA000804F01D1012026E0184A914201D10220E2
:107DB00021E0174A914201D102201CE0154A91426C
:107DC00001D1022017E00D4A914201D1032012E0B7
:107DD0000B4A914201D103200DE00F4A914201D19B
:107DE000092008E00D4A914201D1092003E00C4A24
:107DF000914200D109207047000001400004014079
:107E0000004001400044014000480140000400409F
:107E100000080040000C004000180040001C00401A
:107E20000020004001460020012900D142E0022943
:107E300001D101203EE0042901D102203AE00829C5
:107E400001D1032036E0102901D1042032E020299D
:107E500001D105202EE0402901D106202AE0802909
:107E600001D1072026E0B1F5807F01D1082021E073
:107E7000B1F5007F01D109201CE0B1F5806F01D17F
:107E80000A2017E0B1F5006F01D10B2012E0B1F527
:107E9000805F01D10C200DE0B1F5005F01D10D2014
:107EA00008E0B1F5804F01D10E2003E0B1F5004F9D
:107EB00000D10F207047000001460020164A914271
:107EC00001D1012026E0154A914201D1022021E092
:107ED000134A914201D104201CE0124A914201D17F
:107EE000082017E0104A914201D1102012E00F4AF9
:107EF000914201D120200DE00D4A914201D1402054
:107F000008E00C4A914201D1802003E00A4A9142E4
:107F100000D18815704700000000024000040240B4
:107F200000080240000C0240001002400014024011
:107F300000180240001C02400020024001460020C0
:107F4000244A914201D1012042E0234A914201D1C9
:107F500002203DE0214A914202D14FF4803037E0C7
:107F60001F4A914202D14FF4003031E01D4A914244
:107F700002D14FF480202BE0B1F1804F01D10120DC
:107F800026E0194A914201D1022021E0174A91428C
:107F900001D104201CE0164A914201D1082017E0CB
:107FA000144A914201D1102012E0134A914201D1AA
:107FB00020200DE0114A914201D1402008E0104AF2
:107FC000914201D1802003E00E4A914200D18815F0
:107FD00070470000000001400004014000400140E3
:107FE00000440140004801400004004000080040F7
:107FF000000C004000100040001400400018004039
:10800000001C004000200040704710B500F026F929
:1080100000F0D6F800F05CF8F9F782FF00F080F885
:1080200000F03AF84FF47A71002000F06FFA10BDBA
:108030007FB501210820FAF7A1FA14480068460824
:108040001348B6FBF0F085B24FF6FF740294ADF81A
:1080500004500020ADF80C00ADF8060001A90D4851
:10806000FDF7DAF901210B48FDF755F832208DF8BC
:10807000000004208DF8010000208DF8020001208E
:108080008DF803006846F9F75BFD7FBD980000207E
:1080900040420F00000C004010B500F001F810BD88
:1080A0001CB501210420FAF749FA00208DF80400DC
:1080B0008DF806008DF8070002208DF805000003FA
:1080C000009069460148F9F761FA1CBD00080240BA
:1080D0001CB501210320FAF731FA01208DF80400C4
:1080E00000208DF806008DF8070003208DF80500AC
:1080F0000820009069460848F9F748FA4FF4004014
:10810000009069460548F9F741FA012000F0AEF801
:10811000022000F0ABF81CBD000402400000024049
:108120001CB501210846FAF709FA05221146234831
:10813000F9F774FA052206212048F9F76FFA0522AB
:1081400007211E48F9F76AFA02208DF804008DF81D
:10815000050000208DF8060002208DF80700E020C1
:10816000009069461548F9F711FA10201349088361
:1081700001208DF8040000208DF8060002208DF803
:10818000050000208DF807001020009069460B487C
:10819000F9F7FCF9FFF708FD01F050FE1020074940
:1081A0004883042001F0DCFE10200449088301F01C
:1081B000F3FE002001F006FF1CBD0000000002409D
:1081C00070B5002416E0002004EB44011F4A02EBC6
:1081D0008101486004EB440102EB8101886004EBFB
:1081E000440102EB8101487004EB440102F82100D4
:1081F000601CC4B2042CE6DB154800684FF47A72A8
:10820000B0FBF2F1481EB0F1807F00D31BE0481EA6
:108210004FF0E022506150170F22002807DA1307B1
:108220001E0E0C4B00F00F052D1F5E5503E01307CB
:108230001D0E094B1D5400BF00204FF0E02290613D
:108240000720106100BFFFF7F3FE70BD600E002035
:108250009800002018ED00E000E400E010B5FFF702
:1082600079F9F9F73DFAF8F7CDFA10BD012803D1F5
:108270000821044A118004E0022802D18103024A45
:1082800011837047180402400000024010B5F8F74F
:108290005FF80020FFF7BAFC10BD00000D48008811
:1082A000B0B10C480088401E0A4908800846008882
:1082B00070B90948B0F90200401C052190FBF1F2A9
:1082C00001FB120000B204494880002003490870F5
:1082D000704700006C0000203C0000203A000020A5
:1082E00010B51848006820F4406016490860084638
:1082F000006840F4806008600846006820F4407020
:1083000008600846006840F4807008600E48006805
:1083100020F440700C4908600846006840F4807002
:10832000086010210848F9F7A5F920210548F9F758
:10833000A3F910210348F9F79DF910210248F9F734
:108340009BF910BD00040240000002402DE9FF4FE0
:1083500089B0834614461D46DDE9166ABAF1000F5E
:108360000FD100212046FCF7D6FE58460A99FFF7A8
:1083700067FC002258460A99F9F780F90DB0BDE86C
:10838000F08F42F2107082450DD100212046FCF79B
:10839000C2FE58460A99FFF753FC012258460A9933
:1083A000F9F76CF9EAE72B46224658460A99FFF797
:1083B00063FC494884420BD04848844208D048486E
:1083C000844205D04748844202D04748844203D1C2
:1083D0004648D0F8008003E0444800684FEA50085F
:1083E000642E0AD242F20F7942F21070B8FBF0F01C
:1083F000B0FBF6F0401E87B213E040F6B83086427C
:1084000009D24FF063096420B8FBF0F0B0FBF6F03E
:10841000401E87B205E04FF00009B8FBF6F0401EA1
:1084200087B20797ADF818900020ADF82000ADF89E
:108430001A0006A92046FCF7EFFF6020ADF8040003
:108440000120ADF806000AFB07F042F21071B0FB04
:10845000F1F003900020ADF81000012D08D101A922
:108460002046FCF78DFE08212046FCF7C7FE1FE0E2
:10847000022D08D101A92046FCF7CAFE082120469A
:10848000FCF718FF14E0032D08D101A92046FCF7E2
:108490001FFF08212046FCF76BFF09E0042D07D1E0
:1084A00001A92046FCF76EFF08212046FCF7A6FF35
:1084B00001212046FCF720FE01212046FCF72BFE7F
:1084C0000548844202D00548844203D10121024874
:1084D000FCF72DFE00BF51E7000001400004014001
:1084E0000040014000440140004801409800002045
:1084F000416851B14168491E416031B90121417063
:108500000178012901D181684160704770B5044646
:108510000D46042C06DB124A12A119A0FFF7F0F851
:1085200000BFFEE70120FFF70AF904EB44001C49F5
:1085300001EB8000456004EB440001EB80008560A6
:10854000002004EB4401164A02EB8101487001202F
:1085500004EB440102F821000020FFF7F0F870BDA1
:10856000C5A600082E2E5C2E2E5C4273705C7372C2
:10857000635C6273705F74696D65722E63000000E6
:108580004572726F723A2066696C652025732C20E3
:1085900066756E6374696F6E20257328290D0A0055
:1085A000600E002070B504460D46607801232A460F
:1085B00004F1340100F060FD08B1032070BD94F8AF
:1085C000321294F8330241EA00204AF655218842DB
:1085D00001D00220F2E794F86D00010694F86C00D7
:1085E00041EA004194F86B0041EA002094F86A10D7
:1085F000084320F07F400E49884201D10020DDE78A
:1086000094F88900010694F8880041EA004194F842
:10861000870041EA002094F88610084320F07F404C
:108620000349884201D10020C8E70120C6E70000C5
:1086300046415400024600E0521C107810B11078F8
:108640008842F9D11078704730B502460B460020B9
:108650000446014621E001EB41001D4D55F8200084
:10866000C8B101EB410055F820001568A84213D1AC
:1086700001EB4100164D05EB800040689568A8426B
:108680000AD101EB4100124D05EB80000089D5882D
:10869000A84201D103E0641C491C0329DBD300BFBD
:1086A000032906D10CB9022B01D1002030BD1220C4
:1086B000FCE743B901EB4100054D05EB8000408923
:1086C000B0F5807F01D11020F0E70020EEE7000038
:1086D0008C4C00202DE9F74F88B008980068019075
:1086E0000198007830380790079809280AD801982F
:1086F00040783A2806D10198801C01900899019889
:10870000086001E0002007900021099801600798A7
:1087100018B10B200BB0BDE8F08FD349079851F882
:1087200020400CB90C20F5E709980460207878B156
:10873000607800F0D8FC804608F0010040B90A9843
:1087400020B108F0040008B10A20E3E70020E1E7C7
:108750000020207007986070607800F06EFC804602
:1087600008F0010008B10320D4E70A9820B108F00E
:10877000040008B10A20CDE74FF000094946204621
:10878000FFF710FF054600BF012D21D14FF0000B70
:10879000BBF1000F03D0ABF1010000F0FF0B4FF471
:1087A000DF7000EB0B1104F134000F18387978B149
:1087B000F87A0106B87A41EA0041787A41EA002065
:1087C000397A40EA010949462046FFF7EBFE0546A3
:1087D000032D01D101209DE70DB10D209AE73F2027
:1087E000015D94F8400041EA0020B0F5007F01D01F
:1087F0000D208FE74A20015D94F84B0041EA002AE2
:10880000BAF1000F0ED194F85B00010694F85A00FB
:1088100041EA004194F8590041EA002094F85810C8
:1088200040EA010AC4F81CA04420065DE670012E4F
:1088300003D0022E01D00D206CE70AFB06FA41207E
:10884000005D0646A07016B1701E304008B10D20C4
:1088500060E74520015D94F8460041EA0020208150
:10886000207A00F00F0008B10D2053E74720015D8A
:1088700094F8480041EA00200690069870B994F8F0
:108880005700010694F8560041EA004194F855005B
:1088900041EA002094F85410084306904220015DFC
:1088A00094F8430041EA00200290029808B90D2094
:1088B00030E702985044218900EB11100590DDE962
:1088C0000501814201D20D2024E7DDE90510401A9F
:1088D000A178B0FBF1F00490049808B90D2019E7D5
:1088E000012540F6F6710498884200D302254FF620
:1088F000F6710498884200D303250498801CA06177
:10890000C4F8209002984844606205984844E062A8
:10891000032D16D1208908B10D20FBE694F86300E1
:10892000010694F8620041EA004194F8610041EACE
:10893000002094F860100843A062A06980000390B2
:1089400014E0208908B90D20E4E6606A5044A06272
:10895000022D02D1A069400007E0207E00F0010056
:10896000A16901EB410100EB51000390E16903981B
:1089700000F2FF10B1EB502F01D20D20CAE64FF0EC
:10898000FF3020610020E060032D5CD1607194F81D
:10899000641094F8650041EA002048446061607802
:1089A000012304F13401626900F066FBF0BB94F826
:1089B000321294F8330241EA00204AF655218842E7
:1089C00041D13720005D01063620005D41EA0041BB
:1089D0003520005D41EA002094F834100843234913
:1089E000884230D194F81B02010694F81A0241EA39
:1089F000004194F8190241EA002094F81812084343
:108A00001B4988421FD194F82302010694F82202E0
:108A100041EA004194F8210241EA002094F8201232
:108A20000843E06094F81F02010600E00BE094F8B0
:108A30001E0241EA004194F81D0241EA002094F828
:108A40001C120843206125700A480088401C80B22F
:108A500008490880E080002020632071204600F053
:108A60000BF8002056E60000AC0000205252614195
:108A700072724161B000002010B5014600200DE087
:108A800000EB4002074B53F822208A4205D1002216
:108A900000EB4003034C44F82320401C0328EFD391
:108AA00010BD00008C4C00200246891E9069801E7B
:108AB000884201D8002070479378D06A01FB0300F8
:108AC000F9E72DE9F04704468946B9F1000F06D1D0
:108AD000E76817B1A069B84211D801270FE04946ED
:108AE000204600F071FE0646022E02D20120BDE8AB
:108AF000F087A069B04201D93046F8E74F463D46BD
:108B000000BF6D1CA069A84204D80225BD4201D94E
:108B10000020ECE72946204600F056FE064606B93E
:108B200009E0701C08B1012E01D13046DFE7BD42DB
:108B3000E7D10020DBE700BF6FF0704229462046F6
:108B400001F08AF88046B8F1000F08D1B9F1000FA2
:108B500005D02A464946204601F07EF88046B8F105
:108B6000000F09D1E5602069401C68B12069401EF2
:108B700020610120607107E0B8F1010F02D14FF0D0
:108B8000FF3000E0012005462846B0E72DE9F35FFD
:108B90000198D0F8009001E009F1010999F800006E
:108BA0002F28F9D099F800005C28F5D00098866944
:108BB0000B222021304601F001F800252F46AB465C
:108BC0004FF0080A00BF58460BF1010B19F800409E
:108BD000202C03DD2F2C01D05C2C00D153E02E2C57
:108BE00001D057450DD3BAF1080F01D12E2C02D078
:108BF0000620BDE8FC9F08274FF00B0AA806050ECB
:108C0000E1E7802C01DB45F00305812C20DBFE2C05
:108C10001EDC58460BF1010B19F80080B8F1400F2B
:108C200002DBB8F17E0F05DDB8F1800F06DBB8F18D
:108C3000FE0F03DCAAF10100B84201D80620D8E7F4
:108C400038467F1C345438467F1C06F8008019E0F3
:108C5000214620A0FFF7EEFC08B10620C9E7412C11
:108C600004DB5A2C02DC45F0020508E0612C06DB2F
:108C70007A2C04DC45F00105A4F12000C4B238468A
:108C80007F1C34549FE700BF09EB0B010198016082
:108C9000202C01DC042000E0002004460FB906204F
:108CA000A7E73078E52801D105203070BAF1080F28
:108CB00001D1A806050E05F00300012801D144F0FA
:108CC000100405F00C00042801D144F00804F472EB
:108CD00000208EE7222A2B2C3A3B3C3D3E3F5B5D39
:108CE0007C7F000030B50246531E1A46032B1BD270
:108CF00002EB42030D4C04EB83035989B1F5807FED
:108D000000D1002109B14B1E99B202EB4203074C7E
:108D100004EB8303598129B9002302EB4204034D7C
:108D200045F82430002000E0022030BD8C4C0020AB
:108D30002DE9F04104460E460021204600F02FF9AF
:108D40000546EDB9002700BF2169206800F040FF0B
:108D5000054605B113E060690078E52802D0606936
:108D6000007820B9781C0746B04201D107E00027FF
:108D70000121204600F035F80546002DE4D000BF63
:108D80002846BDE8F0812DE9F04104460021204647
:108D900000F005F9054615B12846BDE8F08100BF91
:108DA0002169206800F014FF054605B116E06669E8
:108DB00037780FB9042511E0F07A00F0080030B9D7
:108DC0000B223046A16900F0D9FE00B906E000216F
:108DD000204600F006F80546002DE1D000BF2846E9
:108DE000DBE72DE9F0410446884600BFE088401CDF
:108DF00086B20EB1206910B90420BDE8F08106F0FA
:108E00000F0000286DD12069401C2061E06828B95E
:108E100020680089B04264DC0420EEE72068807896
:108E2000401E00EA161000285BD1E168206800F0BF
:108E3000CBFC0546012D01D80220DEE7681C08B9ED
:108E40000120DAE720688069A84244D8B8F1000F11
:108E500001D10420D1E7E1682068FFF732FE054622
:108E60000DB90720C9E7012D01D10220C5E7681C13
:108E700008B90120C1E7206801F0B8FA08B1012063
:108E8000BBE7216801F134004FF40072002100F0CB
:108E900095FE29462068FFF707FE21680863002732
:108EA0000FE0012021680871206801F09FFA08B1E5
:108EB0000120A2E72068006B401C21680863781C31
:108EC000C7B220688078B842EBDC2068006BC01B1A
:108ED0002168086300BFE56029462068FFF7E4FDCC
:108EE0002061E6802068343006F00F0100EB41106D
:108EF0006061002081E72DE9F0470446894604259A
:108F000026E02169206800F063FE054605B122E0F5
:108F1000D4F8148098F800600EB904251BE098F886
:108F20000B0000F03F07E52E0BD02E2E09D00F2F9F
:108F300007D0082F01D1012000E00020484500D1D2
:108F400009E000212046FFF74CFF054605B102E08D
:108F500020690028D5D100BF0DB10020206128462E
:108F6000BDE8F08770B5044601212046FFF7E0FE1A
:108F7000054695B92169206800F02AFE054665B9C5
:108F800020220021606900F019FE0B22D4E90501BE
:108F900000F007FE012021680871284670BD2DE908
:108FA000F04104460E46E680A568012D03D02068F6
:108FB0008069A84202D80220BDE8F0812DB920685E
:108FC0000078032801D12068856A65B9E5602068CA
:108FD0000089B04201DC0220EEE72068806A00EBE5
:108FE0001610206120E020688078070112E02946F1
:108FF000206800F0E9FB0546681C08B90120DBE7A2
:10900000022D03D320688069A84201D80220D3E74B
:10901000F01B86B2BE42EADAE56029462068FFF717
:1090200043FD00EB161020612068343006F00F017C
:1090300000EB411060610020BEE770B5054615B138
:10904000012D08D104E0FBF77BF80446204670BDF3
:1090500001242046FBE70120F9E710B503460C4642
:1090600013B1012B06D102E00021084610BD0021FA
:109070000846FBE70420F9E72DE9F04705460E46D0
:1090800014461F4615B1012D2BD126E04FF00009E3
:10909000012F06D161027A023046FAF77DFD814642
:1090A00007E061023B464FF400723046FAF7E4FDF8
:1090B0008146B9F1000F02D00120BDE8F087FAF730
:1090C000ADFE8146B9F1000F01D00120F5E700BFE8
:1090D000FAF747FA0028FBD1EFE74FF000084046C7
:1090E000EBE70420E9E7014611B1012905D102E0CF
:1090F0000022104670471046FCE70120FAE72DE9F0
:10910000F0470746884615461E4617B1012F34D151
:109110002FE00024012E15D1690272024046FAF7B1
:10912000FDFE044614B10120BDE8F087FAF776FE93
:1091300004460CB10120F7E700BFFAF712FA002845
:10914000FBD1F1E76902731C4FF400724046FAF755
:1091500053FF04460CB10120E6E7FAF75FFE044630
:109160000CB10120E0E700BFFAF7FBF90028FBD1C2
:10917000DAE74FF000094846D6E70420D4E70000BC
:10918000002100E0491C032906D201EB4100054AF9
:1091900052F820000028F5D1032901D001207047A2
:1091A0000020FCE78C4C002070B50446204600F0FF
:1091B00057FA05461DB9606AFFF794FD05460DB9DB
:1091C00000202060284670BD70B504460D46012C75
:1091D00001DB0B2070BD084850F8246026B13046F2
:1091E000FFF74AFC002030700DB1002028700248C3
:1091F00040F824500020EDE7AC0000202DE9F743B3
:109200008AB0054616461DB909200DB0BDE8F083A9
:109210000020286006F01F0626F0010203A90BA813
:10922000FFF758FA0746002F70D1CDF824D003A8D5
:109230000B9900F06DFA0746089C6FB90CB9062728
:109240000AE026F0010008B1012000E000200146FC
:1092500003A8FFF7F9F9074606F01C00002856D0CE
:1092600077B1042F08D1FFF78BFF18B103A8FFF7E0
:1092700079FE00E01220074646F00806089C09E047
:10928000E07A00F0110008B1072703E006F00400BF
:1092900000B10827002F38D106F00800A8B300F06D
:1092A00005FB804684F80E804FEA1821E1734FEAEF
:1092B000184121744FEA186161740020E072207730
:1092C00000216177A177E1772146039800F0C8FB80
:1092D00081460021204600F0A3FE01200399087179
:1092E000B9F1000F11D00398D0F8308049460398A7
:1092F00000F04DFD074647B9A9F101000399C86088
:109300004146039800F064FC07460FE040E06FB967
:10931000E07A00F0100008B1042707E006F0020030
:1093200020B1E07A00F0010000B10727B7B906F0DC
:10933000080008B146F020060398006BE8612C6233
:1093400026F0010008B1012000E00020014603A83A
:1093500000F0FCFA6862686A00B90227C7B9AE710A
:109360002146039800F07CFB2861E07F0106A07F86
:1093700041EA0041607F41EA0020217F0843E86024
:109380000020A860A861039828600398C088A8807E
:1093900038463AE773B584B0044614B9092006B0DC
:1093A00070BD0022214605A8FFF794F905462668FE
:1093B00025BB01A8A0612046059900F0A9F9054642
:1093C000ADB9606958B16069C07A00F0100028B189
:1093D0003046616900F044FBA06000E0052535B926
:1093E000F088A08000212046FFF7D9FD0546042D16
:1093F00000D1052525B10020206001E0002020607B
:109400002846CCE72DE9FF4F83B0044615469A461F
:10941000DDF810B00020CAF80000204601F030F955
:109420000290029818B1029807B0BDE8F08FA079B9
:1094300000F0800008B10220F6E7A07900F00100FA
:1094400008B90720F0E7D4E90210401A009000980C
:10945000854200D9009DB5E02089C0F308000028AE
:109460007ED120688078401EA16800EA512000F07B
:10947000FF09B9F1000F1DD1A06810B92069019052
:1094800004E06169206800F09FF9019001980228CA
:1094900005D2A07940F08000A0710220C4E70198B5
:1094A000401C28B9A07940F08000A0710120BBE7E2
:1094B0000198606161692068FFF7F6FA06462EB9E7
:1094C000A07940F08000A0710220ADE74E444FEA41
:1094D0005528B8F1000F2DD009EB080021688978D4
:1094E000884203D920688078A0EB090808F0FF03C0
:1094F0002168487832465946FFF7BEFD28B1A07969
:1095000040F08000A07101208EE7A07900F04000BB
:1095100068B1A069801B404509D2A169891B0BEB8A
:1095200041204FF4007204F1280100F03AFB4FEAA9
:1095300048273DE0A069B04226D0A07900F0400065
:1095400098B121684878012304F12801A269FFF746
:10955000D6FD30B1A07940F08000A071012063E712
:1095600013E0A07920F04000A07121684878012321
:10957000324604F12801FFF77FFD28B1A07940F0C1
:109580008000A07101204FE7A6612089C0F3080088
:10959000C0F50077AF4200D92F462089C0F30802FA
:1095A00004F1280011183A46584600F0FAFA00BFB4
:1095B000BB44A0683844A060DAF800003844CAF818
:1095C0000000ED1B002D7FF447AF00202CE7FEB517
:1095D00005460E46284601F053F804460CBB2EB94A
:1095E00000212846FFF7DBFC04461AE0C5F818D036
:1095F00000212846FFF77FFC0446042C02D10020FE
:10960000286100246CB93146284600F053F9002146
:109610002846FFF7E6FB0446042C02D1002028610F
:1096200000242046FEBD33B58BB00D46002204A9B0
:109630000BA8FFF74FF804467CB901A80A9004A8CC
:109640000B9900F065F804463CB9099820B1294609
:1096500004A800F02FF900E0062420460DB030BD2C
:109660002DE9F0410446204601F00AF80746002F94
:109670004CD1A07900F02000002847D0A07900F05C
:10968000400078B121684878012304F12801A269DB
:10969000FFF735FD10B10120BDE8F081A07920F081
:1096A0004000A071E169206800F092FA0746002F9F
:1096B0002CD1256AE87A40F02000E872207B2877D8
:1096C000A089010A6977E068010CA977E068010EBA
:1096D000E9772846216900F0A3FC00F0E7F8064688
:1096E000AE75310AE975310C2976310E69760020A4
:1096F000A8740021E974A07920F02000A071012055
:1097000021680871206800F00DFE07463846C3E75F
:109710002DE9F3410446019800782F2803D00198E1
:1097200000785C2802D10198401C01900020A060C4
:1097300001980078202807D200212046FFF72FFC4F
:1097400005460020606129E000BF01A92046FFF71F
:109750001DFA054605B120E02046FFF714FB05463B
:10976000A069C67A45B1042D00D016E000BF06F00E
:10977000040000B9052510E006F0040000B10CE07B
:109780006769F87A00F0100008B9052505E0394648
:10979000206800F065F9A060D7E700BF2846BDE863
:1097A000FC81000070B504460D46E1B20548FBF7A8
:1097B00066FF00BF40210348FBF795FE0028F9D063
:1097C000204670BD001401402DE9F04105460C46CD
:1097D000022C02D3A869A04202D80120BDE8F08182
:1097E0002878012804D002282CD003285AD13DE043
:1097F000274607EB5707686A00EB5721284600F019
:10980000E7F900B14EE0C7F3080105F1340010F8A4
:1098100001807F1C686A00EB5721284600F0D8F9C8
:1098200000B13FE0C7F3080105F13400405C48EAAD
:10983000002804F0010010B14FEA1810CEE7C8F379
:109840000B00CBE7686A00EB1421284600F0C0F952
:1098500000B127E040F2FF1000EA440105F13400B6
:109860000E183078717840EA0120B7E7686A00EB9B
:10987000D411284600F0ACF900B113E040F2FF101B
:1098800000EA840105F134000E18F0780006B17882
:1098900040EA0140717840EA01203178084320F025
:1098A00070409BE700BF4FF0FF3097E700487047DC
:1098B00000002142F0B505460B4603F109022F696D
:1098C000002F40D06869067B00210AE0445C202C10
:1098D00000D108E0052C00D1E52400BF02F8014BBF
:1098E000491C0829F2D300BF077A202F0FD02E275A
:1098F00002F8017B082107E0445C202C00D105E040
:1099000000BF02F8014B491C0B29F5D300BFC77AF1
:109910001F72C77F4FEA076C877F4CEA074C477F6F
:109920004CEA072790F81CC047EA0C071F6090F824
:1099300018C0477E4CEA07279F8090F816C0C77D65
:109940004CEA0727DF8000271770F0BD30B50246CC
:109950000B4600211BE001EB4100324C54F8200083
:109960001468A04212D101EB41002E4C04EB8000A0
:1099700040689468A04209D101EB4100294C04EBF6
:1099800080000089D488A04200D102E0491C03294C
:10999000E1D300BF032927D1002100E0491C03299E
:1099A00006D201EB41001F4C54F820000028F5D1ED
:1099B000032901D1002030BD01EB4104194D10688D
:1099C00045F8240001EB410405EB840490686060D5
:1099D000D08801EB410405EB84042081002001EBD9
:1099E000410405EB8404608143B101EB41000D4C5F
:1099F00004EB8000408908B10020DCE713B14FF48C
:109A0000807006E001EB4100064C04EB80004089C9
:109A1000401C01EB4104034D05EB84046081481CAC
:109A2000C9E700008C4C002030B501460A4881424D
:109A300010D10A48B0F90230B0F90020581C0524B2
:109A400090FBF4F504FB1500904201D1012030BDDC
:109A50000020FCE70120FAE7001001403C00002054
:109A600010B502468C7ECB7E44EA03201378032B8C
:109A700005D10C7D4B7D44EA032340EA034010BD31
:109A80000020324908800120488000208880C8805A
:109A900001202F4908804880002088800120C8804C
:109AA00002202C4908800120488000208880012065
:109AB000C880032028490880012048800020888031
:109AC0000120C880FEF7A1FAF8F772FC0020F8F731
:109AD0009FF81F4B21A200211E20F8F7FBF84FF43E
:109AE0009660FEF71FF9F6F7BBFCFDF771FD00F07D
:109AF000B5FD1CA0FDF704FE27E0FEF785FA1E4821
:109B0000007830B1012813D0022815D003281AD1CB
:109B100018E0F7F78FFE012809D16420FEF702F95B
:109B2000F6F70FFCF8F728FB0220134908700BE04A
:109B300002201149087007E06420FEF7F3F8FAF7F5
:109B40002BFD01E000E000BF00BFD6E74800002089
:109B5000400000205000002058000020535744B916
:109B6000A4BEDF00A1BE32202D20CAB9C4DC55C579
:109B7000CCA1BF0D0A0000006A000020F0B503462A
:109B80001C460D46002000BF161EA2F1010207D0A0
:109B900014F8017B15F801CBA7EB0C06301EF3D0AF
:109BA000F0BD70B503460C4603E014F8015B03F802
:109BB000015B151EA2F10102F7D170BD30B503465D
:109BC00001E003F8011B141EA2F10102F9D130BD1E
:109BD00070B504460D46206BA84210D0204600F018
:109BE00005FC08B1012070BD607801232A4604F10C
:109BF0003401FFF741FA08B10120F4E725630020A2
:109C0000F1E7000010B5104A90421BD10F4AB2F99B
:109C1000022002EB820303EBC2120D4B03EB820224
:109C20000C4B1B78D1540B4A1278521C074BB3F9DA
:109C3000023003EB830404EBC313054C04EB8303F2
:109C4000A3F8122210BD0000001001403C000020CB
:109C5000842300203A0000202DE9F04705460E46F7
:109C60001746022E02D3A869B04202D84FF002086C
:109C70008AE02878012804D0022841D003287DD129
:109C800054E0B14609EB5909686A00EB59212846AE
:109C9000FFF79EFF8046B8F1000F00D071E0C9F3D6
:109CA000080105F134000C1806F0010020B1F9B2EA
:109CB000207861F31F1000E03846207009F1010997
:109CC00001202871686A00EB59212846FFF780FFC0
:109CD0008046B8F1000F00D053E0C9F3080105F148
:109CE00034000C1806F0010010B1C7F3071005E0AE
:109CF000207800F0F000C7F303210843207040E013
:109D0000686A00EB16212846FFF762FF8046B8F12B
:109D1000000F00D035E040F2FF1000EA460105F1E7
:109D200034000C182770380A60702AE0686A00EB6B
:109D3000D6112846FFF74CFF8046B8F1000F00D03F
:109D40001FE040F2FF1000EA860105F134000C1814
:109D5000E0780006A17840EA0140617840EA0120FD
:109D60002178084300F0704007432770380A60707C
:109D7000380CA070380EE07003E0FFE74FF00208E7
:109D800000BF00BF012028714046BDE8F0872DE9E3
:109D9000F04104460E46022E02D3A069B04201D81B
:109DA000022725E000271FE031462046FFF70CFD83
:109DB000054605B91BE0012D01D1022717E0681CFB
:109DC00008B9012713E0002231462046FFF744FF7F
:109DD000074607B10BE02069401C20B12069401CF8
:109DE0002061012060712E46A069B042DCD800BF1E
:109DF0003846BDE8F08100002DE9F04110200E4901
:109E000048839F2000F0ACF8A52000F0A9F8054693
:109E1000A52000F0A5F80646A52000F0A1F8074609
:109E2000102005490883280440EA062040EA070478
:109E30002046BDE8F08100000000024010B5FFF7A9
:109E4000DBFF30490860084600682F4A811A9042BB
:109E50003DD007DC2D49084448B12D49084400286D
:109E600041D110E0012926D002293CD117E029A1D7
:109E70002448001DF6F7FFF94FF40010214948610E
:109E8000401208833BE026A11E48001DF6F7F3F9B7
:109E90004FF400101B494861401208832FE023A1B2
:109EA0001848001DF6F7E7F94FF40000154948611E
:109EB000C012088323E020A11248001DF6F7DBF949
:109EC0004FF480000F4948618012088317E01DA1FC
:109ED0000C48001DF6F7CFF94FF40010094948610E
:109EE000401208830BE01AA10648001DF6F7C3F9DB
:109EF0004FF40010034948614012088300BF00BFBF
:109F000010BD00005C1300201540EF00BFDA40FFD9
:109F10002C05FDFF5353543235564630313642003E
:109F20004D5832354C3136303645000057323551B8
:109F30003634425600000000573235513332425613
:109F40000000000057323551313642560000000003
:109F5000556E6B6E6F7720466C6173680000000071
:109F600010B5044600BF02210A48FAF7FEF800289F
:109F7000F9D021460748FAF704F900BF0121054846
:109F8000FAF7F3F80028F9D00248FAF7F7F8C0B268
:109F900010BD00000030014010B510200849488372
:109FA0000520FFF7DDFF00BFA520FFF7D9FF00F078
:109FB00001000028F8D110200149088310BD0000DD
:109FC0000000024010B50446124800681249884259
:109FD00013D11020114948835020FFF7C1FF1020F2
:109FE0000E49088348830120FFF7BAFF2046FFF798
:109FF000B7FF1020094908830BE010200749488368
:10A000000120FFF7ADFF2046FFF7AAFF102003490C
:10A01000088310BD5C1300204125BF0000000240F2
:10A0200081760B0AC3760A0C02750B0E43757047D6
:10A030002DE9F04391B004460D4616461F46DDE972
:10A0400018894FF08070109000960197CDF8088025
:10A05000CDF80C9060680990A0680D9020680E9073
:10A060000F95684600F0D0F830B117A0FDF748FB17
:10A07000012011B0BDE8F0831BA0FDF741FBFAF70A
:10A08000BBFD20B11FA0FDF73BFB0120F1E725A0A0
:10A09000FDF736FB69460020FAF71AFC20B128A02C
:10A0A000FDF72EFB0120E4E72CA0FDF729FB00982B
:10A0B00028B130A00099FDF723FB0120D9E733A098
:10A0C000FDF71EFB0020D4E77377645F7772697435
:10A0D000655F64656275675F73746174757320662C
:10A0E00061696C65640D0A007377645F77726974E7
:10A0F000655F64656275675F737461747573206F03
:10A100006B0D0A0053574A5F57616974556E746945
:10A110006C48616C746564206661696C65640D0AE5
:10A120000000000053574A5F57616974556E7469A7
:10A130006C48616C746564206F6B0D0A0000000050
:10A1400053574A5F52656164436F72655265672079
:10A150006661696C65640D0A0000000053574A5F30
:10A1600052656164436F7265526567206F6B0D0ABB
:10A170000000000072657375746C74206661696C10
:10A1800065643A307825580D0A00000072657375D1
:10A19000746C74206F6B0D0A000000002DE9F04113
:10A1A00005460F46144606E039462846FAF70EFCE7
:10A1B0006D1C7F1C641E1CB105F003000028F3D148
:10A1C00013E0C5F30900C0F58066B44201D224F063
:10A1D0000306324639462846FAF736FB10B101200D
:10A1E000BDE8F08135443744A41B032CE9D806E0D0
:10A1F00039462846FAF7EAFB6D1C7F1C641E002CCA
:10A20000F6D10020ECE7000038B505460021082013
:10A21000FAF792FD002405E055F824102046FAF7DD
:10A2200067FD641C042CF7D30920696AFAF760FD06
:10A230000D2405E055F824102046FAF759FD641C5A
:10A24000102CF7D31020296CFAF752FD09490A485F
:10A25000FAF7AAFD69460420FAF76AFB009800F0B5
:10A26000A00020B105A0FDF74BFA012038BD002069
:10A27000FCE7000001005FA0F0ED00E07772697478
:10A280006520646562756720737461746573206608
:10A2900061696C65640D0A002DE9F04105460E46C2
:10A2A000144606E031782846FAF78EFD6D1C761CC0
:10A2B000641E1CB105F003000028F3D116E0C5F3BD
:10A2C0000900C0F58067BC4201D224F003073A467A
:10A2D00031462846FAF7D0FC28B10BA0FDF710FA5A
:10A2E0000120BDE8F0813D443E44E41B032CE6D848
:10A2F00006E031782846FAF767FD6D1C761C641E6F
:10A30000002CF6D10020ECE753574A20777269748D
:10A310006520626C6F636B206661696C65640D0A11
:10A320000000000070B50446204600F05FF80546C6
:10A33000002D59D1207803284FD1607900284CD0C6
:10A34000002020634FF40072002104F13400FFF775
:10A3500035FC552184F83212AA2184F83312522098
:10A3600084F83400522135200155612136200155F1
:10A37000412137200155722184F8181284F81912EE
:10A38000412184F81A12612184F81B12217C84F87F
:10A390001C12208A010A84F81D122069010C84F81D
:10A3A0001E122069010E84F81F12217B84F82012EE
:10A3B000A089010A84F82112E068010C84F82212B5
:10A3C000E068010E84F823126078012304F134015F
:10A3D0006269FEF794FE00206071607800221146E9
:10A3E000FEF73BFE00B10125284670BD70B504465E
:10A3F000207910B3256B607801232A4604F13401DB
:10A40000FEF77DFE08B1012070BD00202071606A5A
:10A41000A84212D8E169606A0844A8420DD9E678DA
:10A4200009E0E0690544607801232A4604F134011B
:10A43000FEF765FE761E022EF3D20020E4E7000050
:10A440001CB50024002000900190094800231A4602
:10A4500081681430FFF7ECFD20B106A0FDF750F93C
:10A460000A201CBD08A0FDF74BF92046F9E70000C3
:10A4700034A800082A4552524F525F455241534575
:10A480005F414C4C200D0A002A535543434553531A
:10A490003B5F45524153455F414C4C200D0A000043
:10A4A0001CB504460120FAF7C7FA20B115A0FDF744
:10A4B00027F903201CBD1AA0FDF722F91D4B9A6A4B
:10A4C000D96A586AFAF765FC20B11BA0FDF718F9A4
:10A4D0000420EFE71DA0FDF713F900200090019084
:10A4E00014480023224601681430FFF7A1FD20B173
:10A4F0001BA0FDF705F90620DCE71DA0FDF700F91C
:10A500000020D7E72A52455345545F50524F4752D7
:10A51000414D5F53554343455353200D0A000000FE
:10A520002A52455345545F53554343455353200DD9
:10A530000A00000034A800082A4552524F525F41D9
:10A540004C474F5F444C200D0A0000002A414C4705
:10A550004F5F444C5F53554343455353200D0A000E
:10A560002A4552524F525F494E4954200D0A00006D
:10A570002A666C6173685F696E69745F5355434303
:10A58000455353200D0A00002DE9FC4106460F46B5
:10A59000144631E01A48006BA04202D21848006B02
:10A5A00000E02046054616492A46086A3946FAF769
:10A5B000F0FB28B113A0FDF7A3F80520BDE8FC814E
:10A5C00016A0FDF79DF800210D48006ACDE90001B5
:10A5D0000B48036B324601691430FFF729FD20B1A7
:10A5E00015A0FDF78DF80B20E8E717A0FDF788F818
:10A5F0002E442F44641B00BF002CCBD10020DDE78C
:10A6000034A800082A4552524F525F414C474F5FD1
:10A61000444154415F534551200D0A002A5355438C
:10A62000434553535F414C474F5F444154415F534F
:10A630004551200D0A0000002A4552524F525F57E3
:10A6400052495445200D0A002A535543434553535C
:10A650005F5752495445200D0A00000008B50448D0
:10A66000044B054A012100900448FBF77AFA08BD23
:10A670001C01002080010020B4000020B04C00200C
:10A6800070B505462C464CB1206838B1206800787A
:10A6900020B12068C088A188884201D0092070BDFF
:10A6A00021684878FEF71FFD00F0010008B1032083
:10A6B000F5E70020F3E76273705F537461727454BE
:10A6C000696D6572006273705F5374617274417575
:10A6D000746F54696D6572006273705F53746F704C
:10A6E00054696D657200000000BE0AE00D782D0609
:10A6F00068400824400000D35840641EFAD1491C29
:10A70000521E002AF2D1704710B503460020444C77
:10A71000206044486060444860602046C06910F092
:10A72000040F08D145F25550404C2060062060606F
:10A7300040F6FF70A060002010BD01463848006957
:10A7400040F08000364A10610020704734480069AC
:10A7500040F00400324908610846006940F04000BA
:10A76000086103E04AF6AA20304908602C48C06816
:10A7700010F0010FF6D12A48006920F004002849A2
:10A7800008610020704701462548006940F002003A
:10A79000234A106110464161006940F04000106199
:10A7A00003E04AF6AA20214A10601D48C06810F054
:10A7B000010FF6D11A48006920F00200184A106112
:10A7C0000020704710B50346481C20F0010122E02C
:10A7D0001348006940F00100114C20611088188076
:10A7E00000BF0F48C06810F0010FFAD10C48006993
:10A7F00020F001000A4C20612046C06810F0140FC0
:10A8000006D02046C06840F01400E060012010BD72
:10A810009B1C921C891E0029DAD10020F7E700005A
:10A820000020024023016745AB89EFCD0030004096
:10A8300000000000210000205300002065000020DF
:10A840009F000020DD00002001000020000C0020FF
:10A850000010002000040020000000204C01000037
:10A86000E8A600080004000000000000000000004E
:10A8700000000000000000000000000000000000D8
:10A8800000000000000000000000000000000000C8
:10A8900000000000000000000000000000000000B8
:10A8A00000000000000000000000000000000000A8
:10A8B0000000000000000000000000000000000098
:10A8C0000000000000000000000000000000000088
:10A8D0000000000000000000000000000000000078
:10A8E0000000000000000000000000000000000068
:10A8F0000000000000000000000000000000000058
:10A900000000000000000000000000000000000047
:10A910000000000000000000000000000000000037
:10A920000000000000000000000000000000000027
:10A930000000000000000000000000000000000017
:10A940000000000000000000000000000000000007
:10A9500000000000000000000000000000000000F7
:10A9600000000000000000000000000000000000E7
:10A9700000000000000000000000000000000000D7
:10A9800000000000000000000000000000000000C7
:10A9900000000000000000000000000000000000B7
:10A9A00000000000000000000000000000000000A7
:10A9B0000000000000000000000000000000000097
:10A9C0000000000000000000000000000000000087
:10A9D0000000000000000000000000000000000077
:10A9E0000000000000000000000000000000000067
:10A9F00000000000001010101010000010000000F7
:10AA0000006C4848000000000000000000141428FA
:10AA10007C287C2850500000001038404038487096
:10AA200010100000002050200C70081408000000D6
:10AA300000000018202054483400000000101010BE
:10AA40001000000000000000000808101010101096
:10AA500010080800002020101010101010202000F6
:10AA600000107C10282800000000000000001010DA
:10AA700010FC101010000000000000000000001882
:10AA80001030200000000000007C000000000000EA
:10AA90000000000000000030300000000004040846
:10AAA000081010202040000000384444444444442E
:10AAB0003800000000301010101010107C00000052
:10AAC00000384404081020447C000000003844048E
:10AAD0001804044438000000000C141424447C04BE
:10AAE0000C000000003C2020380404443800000022
:10AAF000001C20407844444438000000007C44049A
:10AB00000808081010000000003844443844444449
:10AB10003800000000384444443C04087000000041
:10AB2000000000303000003030000000000000184D
:10AB3000180000183020000000000C106080601029
:10AB40000C000000000000007C007C000000000001
:10AB50000000C02018041820C000000000001824C5
:10AB600004081000300000003844444C54544C4059
:10AB7000443800000030102828287C44EC000000F5
:10AB800000F8444478444444F8000000003C444049
:10AB9000404040443800000000F0484444444448E9
:10ABA000F000000000FC445070504044FC000000E5
:10ABB000007C20283828202070000000003C444001
:10ABC000404C44443800000000EC44447C4444447D
:10ABD000EC000000007C1010101010107C00000031
:10ABE000003C0808084848483000000000EC444891
:10ABF00050704844E40000000070202020202424ED
:10AC00007C00000000EC6C6C54544444EC000000E8
:10AC100000EC64645454544CEC000000003844448C
:10AC20004444444438000000007824242438202080
:10AC3000700000000038444444444444381C000080
:10AC400000F8444444784844E000000000344C409C
:10AC5000380404645800000000FC9010101010101C
:10AC60003800000000EC44444444444438000000F0
:10AC700000EC4444282828101000000000EC444454
:10AC8000545454542800000000C444281010284490
:10AC9000C400000000EC4428281010103800000008
:10ACA000007C4408101020447C0000000038202064
:10ACB00020202020202038000040202020101008D4
:10ACC00008080000003808080808080808083800C4
:10ACD00000101028440000000000000000000000E8
:10ACE00000000000000000FC001008000000000050
:10ACF0000000000000000038443C44443C000000D8
:10AD000000C0405864444444F80000000000003C87
:10AD10004440404438000000000C04344C44444497
:10AD20003C00000000000038447C40403C00000033
:10AD3000001C207C202020207C000000000000342B
:10AD40004C4444443C04380000C0405864444444EB
:10AD5000EC00000000100070101010107C000000CB
:10AD600000100078080808080808700000C0405C5F
:10AD700048705048DC000000003010101010101017
:10AD80007C000000000000E854545454FC00000013
:10AD9000000000D864444444EC0000000000003887
:10ADA0004444444438000000000000D86444444453
:10ADB0007840E000000000344C4444443C040C0063
:10ADC0000000006C302020207C0000000000003CCF
:10ADD00044380444780000000000207C202020201B
:10ADE0001C000000000000CC4444444C340000002F
:10ADF000000000EC4444282810000000000000EC93
:10AE00004454545428000000000000CC483030481E
:10AE1000CC000000000000EC44242818101078003A
:10AE20000000007C481020447C0000000008101046
:10AE3000101020101010080000101010101010102A
:10AE4000101000000020101010100810101020002A
:10AE50000000000000245800000000000000000076
:10AE600000000000000000000000000000007E81E3
:10AE7000A58181BD9981817E0000000000007EFFD8
:10AE8000DBFFFFC3E7FFFF7E0000000000000000C3
:10AE90006CFEFEFEFE7C381000000000000000008A
:10AEA00010387CFE7C381000000000000000001804
:10AEB0003C3CE7E7E718183C0000000000000018E1
:10AEC0003C7EFFFF7E18183C0000000000000000E0
:10AED0000000183C3C18000000000000FFFFFFFFCE
:10AEE000FFFFE7C3C3E7FFFFFFFFFFFF0000000016
:10AEF000003C664242663C0000000000FFFFFFFF8E
:10AF0000FFC399BDBD99C3FFFFFFFFFF00001E0EE9
:10AF10001A3278CCCCCCCC780000000000003C6623
:10AF20006666663C187E18180000000000003F337B
:10AF30003F3030303070F0E00000000000007F63F0
:10AF40007F6363636367E7E6C000000000000018EA
:10AF500018DB3CE73CDB1818000000000080C0E074
:10AF6000F0F8FEF8F0E0C080000000000002060EDD
:10AF70001E3EFE3E1E0E0602000000000000183CB1
:10AF80007E1818187E3C180000000000000066665D
:10AF900066666666660066660000000000007FDB8D
:10AFA000DBDB7B1B1B1B1B1B00000000007CC66047
:10AFB000386CC6C66C380CC67C000000000000006F
:10AFC00000000000FEFEFEFE000000000000183C35
:10AFD0007E1818187E3C187E000000000000183C07
:10AFE0007E1818181818181800000000000018180B
:10AFF00018181818187E3C18000000000000000007
:10B0000000180CFE0C1800000000000000000000FA
:10B01000003060FE60300000000000000000000012
:10B020000000C0C0C0FE00000000000000000000E2
:10B0300000286CFE6C2800000000000000000000EA
:10B040001038387C7CFEFE0000000000000000008C
:10B05000FEFE7C7C3838100000000000000000007C
:10B060000000000000000000000000000000183C8C
:10B070003C3C1818180018180000000000666666AE
:10B080002400000000000000000000000000006C30
:10B090006CFE6C6C6CFE6C6C0000000018187CC6BA
:10B0A000C2C07C060686C67C18180000000000009E
:10B0B000C2C60C183060C686000000000000386C64
:10B0C0006C3876DCCCCCCC76000000000030303020
:10B0D00060000000000000000000000000000C18EC
:10B0E000303030303030180C0000000000003018D4
:10B0F0000C0C0C0C0C0C18300000000000000000C0
:10B1000000663CFF3C6600000000000000000000FC
:10B110000018187E18180000000000000000000051
:10B1200000000000001818183000000000000000A7
:10B13000000000FE00000000000000000000000011
:10B1400000000000000018180000000000000000CF
:10B1500002060C183060C080000000000000386C4F
:10B16000C6C6D6D6C6C66C38000000000000183827
:10B17000781818181818187E0000000000007CC607
:10B18000060C183060C0C6FE0000000000007CC63F
:10B1900006063C060606C67C0000000000000C1CEB
:10B1A0003C6CCCFE0C0C0C1E000000000000FEC02D
:10B1B000C0C0FC060606C67C000000000000386027
:10B1C000C0C0FCC6C6C6C67C000000000000FEC6AB
:10B1D00006060C18303030300000000000007CC63D
:10B1E000C6C67CC6C6C6C67C0000000000007CC681
:10B1F000C6C67E0606060C780000000000000000AF
:10B2000018180000001818000000000000000000DE
:10B210001818000000181830000000000000000698
:10B220000C18306030180C06000000000000000010
:10B23000007E00007E0000000000000000000060B2
:10B2400030180C060C1830600000000000007CC6AE
:10B25000C60C181818001818000000000000007C28
:10B26000C6C6DEDEDEDCC07C000000000000103858
:10B270006CC6C6FEC6C6C6C6000000000000FC665E
:10B2800066667C66666666FC0000000000003C6640
:10B29000C2C0C0C0C0C2663C000000000000F86C24
:10B2A0006666666666666CF8000000000000FE6672
:10B2B00062687868606266FE000000000000FE665A
:10B2C00062687868606060F00000000000003C6622
:10B2D000C2C0C0DEC6C6663A000000000000C6C696
:10B2E000C6C6FEC6C6C6C6C60000000000003C18A2
:10B2F000181818181818183C0000000000001E0C40
:10B300000C0C0C0CCCCCCC78000000000000E666E5
:10B31000666C78786C6666E6000000000000F060FD
:10B3200060606060606266FE000000000000C6EEC3
:10B33000FEFED6C6C6C6C6C6000000000000C6E6B1
:10B34000F6FEDECEC6C6C6C60000000000007CC603
:10B35000C6C6C6C6C6C6C67C000000000000FC66A5
:10B3600066667C60606060F00000000000007CC6E3
:10B37000C6C6C6C6C6D6DE7C0C0E00000000FC6643
:10B3800066667C6C666666E60000000000007CC6AF
:10B39000C660380C06C6C67C0000000000007E7E39
:10B3A0005A1818181818183C000000000000C6C6EB
:10B3B000C6C6C6C6C6C6C67C000000000000C6C61B
:10B3C000C6C6C6C6C66C3810000000000000C6C65F
:10B3D000C6C6D6D6D6FEEE6C000000000000C6C67B
:10B3E0006C7C38387C6CC6C60000000000006666C5
:10B3F00066663C181818183C000000000000FEC6E5
:10B40000860C183060C2C6FE0000000000003C3010
:10B41000303030303030303C000000000000008020
:10B42000C0E070381C0E06020000000000003C0C5A
:10B430000C0C0C0C0C0C0C3C0000000010386CC602
:10B4400000000000000000000000000000000000FC
:10B45000000000000000000000FF00003030180075
:10B4600000000000000000000000000000000000DC
:10B4700000780C7CCCCCCC76000000000000E060B2
:10B4800060786C666666667C000000000000000064
:10B49000007CC6C0C0C0C67C0000000000001C0CC0
:10B4A0000C3C6CCCCCCCCC76000000000000000042
:10B4B000007CC6FEC0C0C67C000000000000386CE6
:10B4C0006460F060606060F0000000000000000058
:10B4D0000076CCCCCCCCCC7C0CCC78000000E060EE
:10B4E000606C7666666666E600000000000018186C
:10B4F000003818181818183C000000000000060654
:10B50000000E06060606060666663C000000E060C1
:10B5100060666C78786C66E6000000000000381801
:10B52000181818181818183C000000000000000037
:10B5300000ECFED6D6D6D6C6000000000000000003
:10B5400000DC6666666666660000000000000000BB
:10B55000007CC6C6C6C6C67C000000000000000015
:10B5600000DC66666666667C6060F00000000000D5
:10B570000076CCCCCCCCCC7C0C0C1E0000000000A7
:10B5800000DC7666606060F00000000000000000F3
:10B59000007CC660380CC67C000000000000103043
:10B5A00030FC30303030361C00000000000000005D
:10B5B00000CCCCCCCCCCCC7600000000000000004D
:10B5C0000066666666663C18000000000000000029
:10B5D00000C6C6D6D6D6FE6C0000000000000000F3
:10B5E00000C66C3838386CC600000000000000004F
:10B5F00000C6C6C6C6C6C67E060CF800000000001F
:10B6000000FECC183060C6FE0000000000000E18DE
:10B61000181870181818180E0000000000001818EC
:10B6200018180018181818180000000000007018EA
:10B6300018180E181818187000000000000076DCAA
:10B6400000000000000000000000000000000000FA
:10B6500010386CC6C6C6FE000000000000003C6644
:10B66000C2C0C0C0C2663C0C067C00000000CC001A
:10B6700000CCCCCCCCCCCC7600000000000C183038
:10B68000007CC6FEC0C0C67C000000000010386C04
:10B6900000780C7CCCCCCC76000000000000CC0004
:10B6A00000780C7CCCCCCC76000000000060301818
:10B6B00000780C7CCCCCCC760000000000386C38D4
:10B6C00000780C7CCCCCCC760000000000000000A0
:10B6D0003C666060663C0C063C0000000010386C64
:10B6E000007CC6FEC0C0C67C000000000000C60092
:10B6F000007CC6FEC0C0C67C0000000000603018A0
:10B70000007CC6FEC0C0C67C0000000000006600D1
:10B71000003818181818183C0000000000183C6683
:10B72000003818181818183C000000000060301885
:10B73000003818181818183C0000000000C6001047
:10B74000386CC6C6FEC6C6C600000000386C38009D
:10B75000386CC6C6FEC6C6C60000000018306000C1
:10B76000FE66607C606066FE000000000000000075
:10B7700000CC76367ED8D86E0000000000003E6C0B
:10B78000CCCCFECCCCCCCCCE000000000010386C71
:10B79000007CC6C6C6C6C67C000000000000C6000D
:10B7A000007CC6C6C6C6C67C00000000006030181B
:10B7B000007CC6C6C6C6C67C00000000003078CC3F
:10B7C00000CCCCCCCCCCCC76000000000060301893
:10B7D00000CCCCCCCCCCCC76000000000000C60065
:10B7E00000C6C6C6C6C6C67E060C780000C6007C6B
:10B7F000C6C6C6C6C6C6C67C0000000000C600C6D7
:10B80000C6C6C6C6C6C6C67C000000000018183CE6
:10B8100066606060663C18180000000000386C64C8
:10B8200060F060606060E6FC00000000000066669A
:10B830003C187E187E1818180000000000F8CCCCC8
:10B84000F8C4CCDECCCCCCC600000000000E1B1827
:10B8500018187E1818181818D870000000183060D2
:10B8600000780C7CCCCCCC7600000000000C1830AA
:10B87000003818181818183C000000000018306034
:10B88000007CC6C6C6C6C67C00000000001830603A
:10B8900000CCCCCCCCCCCC7600000000000076DC18
:10B8A00000DC6666666666660000000076DC00C640
:10B8B000E6F6FEDECEC6C6C600000000003C6C6C9C
:10B8C0003E007E00000000000000000000386C6CAC
:10B8D00038007C0000000000000000000000303054
:10B8E00000303060C0C6C67C0000000000000000D0
:10B8F0000000FEC0C0C0C00000000000000000004A
:10B900000000FE06060606000000000000C0C0C2DF
:10B91000C6CC183060DC860C183E000000C0C0C2E7
:10B92000C6CC183066CE9E3E0606000000001818F1
:10B93000001818183C3C3C180000000000000000F3
:10B9400000366CD86C3600000000000000000000DB
:10B9500000D86C366CD8000000000000114411447F
:10B9600011441144114411441144114455AA55AADB
:10B9700055AA55AA55AA55AA55AA55AADD77DD7725
:10B98000DD77DD77DD77DD77DD77DD77181818185F
:10B990001818181818181818181818181818181827
:10B9A000181818F818181818181818181818181837
:10B9B00018F818F8181818181818181836363636CF
:10B9C000363636F63636363636363636000000002F
:10B9D000000000FE363636363636363600000000B9
:10B9E00000F818F8181818181818181836363636B7
:10B9F00036F606F636363636363636363636363697
:10BA000036363636363636363636363600000000AE
:10BA100000FE06F6363636363636363636363636A4
:10BA200036F606FE0000000000000000363636360E
:10BA3000363636FE00000000000000001818181806
:10BA400018F818F8000000000000000000000000D6
:10BA5000000000F8181818181818181818181818CE
:10BA60001818181F0000000000000000181818180F
:10BA7000181818FF0000000000000000000000007F
:10BA8000000000FF18181818181818181818181897
:10BA90001818181F1818181818181818000000007F
:10BAA000000000FF00000000000000001818181837
:10BAB000181818FF1818181818181818181818181F
:10BAC000181F181F18181818181818183636363670
:10BAD0003636363736363636363636363636363605
:10BAE0003637303F0000000000000000000000007A
:10BAF000003F303736363636363636363636363618
:10BB000036F700FF00000000000000000000000009
:10BB100000FF00F7363636363636363636363636A7
:10BB20003637303736363636363636360000000091
:10BB300000FF00FF0000000000000000363636362F
:10BB400036F700F7363636363636363618181818C1
:10BB500018FF00FF000000000000000036363636F7
:10BB6000363636FF00000000000000000000000034
:10BB700000FF00FF18181818181818180000000007
:10BB8000000000FF3636363636363636363636362E
:10BB90003636363F00000000000000001818181864
:10BBA000181F181F00000000000000000000000027
:10BBB000001F181F1818181818181818000000006F
:10BBC0000000003F363636363636363636363636AE
:10BBD000363636FF363636363636363618181818B4
:10BBE00018FF18FF18181818181818181818181807
:10BBF000181818F800000000000000000000000005
:10BC00000000001F1818181818181818FFFFFFFF59
:10BC1000FFFFFFFFFFFFFFFFFFFFFFFF0000000030
:10BC2000000000FFFFFFFFFFFFFFFFFFF0F0F0F05D
:10BC3000F0F0F0F0F0F0F0F0F0F0F0F00F0F0F0F88
:10BC40000F0F0F0F0F0F0F0F0F0F0F0FFFFFFFFF44
:10BC5000FFFFFF00000000000000000000000000E7
:10BC60000076DCD8D8D8DC7600000000000078CC64
:10BC7000CCCCD8CCC6C6C6CC000000000000FEC6A6
:10BC8000C6C0C0C0C0C0C0C00000000000000000AE
:10BC9000FE6C6C6C6C6C6C6C00000000000000FEB4
:10BCA000C66030183060C6FE0000000000000000D2
:10BCB000007ED8D8D8D8D87000000000000000005E
:10BCC00066666666667C6060C0000000000000007A
:10BCD00076DC181818181818000000000000007E04
:10BCE000183C6666663C187E0000000000000038C4
:10BCF0006CC6C6FEC6C66C38000000000000386C7A
:10BD0000C6C6C66C6C6C6CEE0000000000001E30F5
:10BD1000180C3E666666663C0000000000000000ED
:10BD2000007EDBDBDB7E0000000000000000000383
:10BD3000067EDBDBF37E60C00000000000001C30EC
:10BD400060607C606060301C000000000000007CCF
:10BD5000C6C6C6C6C6C6C6C60000000000000000B3
:10BD6000FE0000FE0000FE000000000000000000D9
:10BD700018187E18180000FF0000000000000030B6
:10BD8000180C060C1830007E000000000000000CAB
:10BD900018306030180C007E0000000000000E1B00
:10BDA0001B18181818181818181818181818181810
:10BDB00018181818D8D8D87000000000000000002B
:10BDC0001818007E00181800000000000000000095
:10BDD0000076DC0076DC00000000000000386C6CAF
:10BDE000380000000000000000000000000000001B
:10BDF0000000001818000000000000000000000013
:10BE0000000000001800000000000000000F0C0CF3
:10BE10000C0C0CEC6C6C3C1C0000000000D86C6C32
:10BE20006C6C6C0000000000000000000070D83056
:10BE300060C8F800000000000000000000000000E2
:10BE40007C7C7C7C7C7C7C0000000000000000008E
:10BE500000000000000000000000000030000000B2
:10BE60000000000F00108030C030C030C030C03043
:10BE7000C030C030C030C030C030C030C030C03042
:10BE8000C030C010800F0000000000000031000032
:10BE900000000000020006000E001E002600060042
:10BEA0000600060006000600060006000600060062
:10BEB0000600060006000600000000000000320038
:10BEC00000000000000F001F8030C020C000C00034
:10BED000C0018001800300030006000C000C000C70
:10BEE000001800180018001FC000000000000033F8
:10BEF0000000000000003F800180030002000600F7
:10BF00000C00080018000600030001800180018079
:10BF10000180018041803F001E0000000000000001
:10BF20003400000000000001800100030002000650
:10BF30000004000C0009801980118031802180618B
:10BF4000807FE0018001800180018000000000000E
:10BF5000003500000000000000003F80300030008D
:10BF60003000300030003C0003000180018001807F
:10BF700001800180018041803F001E000000000020
:10BF8000000036000000000000010002000400086C
:10BF90000018001000300036003900318031803147
:10BFA00080318031803180318011000E000000002E
:10BFB000000000370000000000003F80008001808A
:10BFC00001800100030003000300060006000600D4
:10BFD0000600060006000600060006000600000037
:10BFE00000000000380000000000000E00110031C9
:10BFF00080318031803180318011000E001100319C
:10C00000803180318031803180318011000E00001C
:10C010000000000000390000000000000E001100C8
:10C0200031803180318031803180318031801380A6
:10C030000D80018001800300030006000C00100049
:10C04000000000000000FFFF300000000003E00ED1
:10C05000380C181C1C180C380E380E380E380E38D8
:10C060000E380E380E380E380E380E380E380E38A0
:10C070000E380E180C1C1C0C180E3803E0000000C3
:10C08000000000000000000000310000000000C0BF
:10C0900000C001C003C00FC001C001C001C001C089
:10C0A00001C001C001C001C001C001C001C001C088
:10C0B00001C001C001C001C001C003E00FF80000D1
:10C0C000000000000000000000003200000000033B
:10C0D000F007380E1C1C0E380E380E380E300E00CD
:10C0E0000E001C001C00380070006000C0018003BE
:10C0F0000006000C0018003802300230063FFE0037
:10C1000000000000000000000000003300000000FC
:10C1100003F00E381C1C1C1C381C381C181C001C7E
:10C1200000380038007001F00038001C000E000ECE
:10C13000000E200E700E700E300E381C0E3807F0F8
:10C1400000000000000000000000000034000000BB
:10C15000000038007800B800B8013801380338030F
:10C16000380638063806380C380C380C38183818A9
:10C1700038303830387FFF003800380038007C0114
:10C18000FF0000000000000000000000003500007B
:10C1900000001FFC1C0C1C041C041C001C001C00C8
:10C1A0001C001DE01F381C1C001C001C001C001C77
:10C1B000001C001C001C301C701C701C38381C78C3
:10C1C0000FE000000000000000000000000036004A
:10C1D0000000000060018007000E000C001C001829
:10C1E000003800380039F83B3C3C1C380E380E381B
:10C1F0000E380E380E380E380E380E380E1C1C0E47
:10C200003C07F000000000000000000000000037C4
:10C21000000000003FFE380C300C200C20180018E5
:10C22000001800300030003000600060006000E066
:10C2300000E000E000E001C001C001C001C00380D7
:10C2400003800380000000000000000000000000E8
:10C25000380000000003E006300C181C1C180C18F5
:10C260000C180C180C180C0C18063007F00E381CA3
:10C270001C180C380E380E380E380E380E380E18C2
:10C280000C0C1807F0000000000000000000000087
:10C2900000390000000003E00E381C1C180C380E9A
:10C2A000380E380E380E380E380E380E180E1C1E8A
:10C2B0000E6E07CE000E000E000C001C0018003899
:10C2C000007000C00300000000000000000000003B
:10C2D0000000FFFFBCB620402FE05240F28022E079
:10C2E0004640F54005403480C94012202C10C9FD5D
:10C2F00000800E807880088008A0FFF00880088009
:10C30000088010802080C080D4DA04000420FFF070
:10C310000800110021006FE0A100210021202FF072
:10C320002000D5FD00207FF002000200224023E023
:10C3300022002200220022002220FFF0B4F3040099
:10C3400004000420FFF00400040004000A000900B7
:10C3500010802070C020BCFE10801480248027F044
:10C360006880A0803FF02080208020802080208076
:10C37000CEC404000220FFF000801080108009006D
:10C380000900060009803040C030D0A10200020040
:10C39000020012801240122022204210821002005D
:10C3A0000A000600B8C401000900FD200BF00A4095
:10C3B0007D40494041404880708043401C30C6DA8F
:10C3C000481049F0FD10491079F04910791049F0F2
:10C3D000FD10291042508420C8D500401FE01040B5
:10C3E000104010401FC01040104010401FC01040AF
:10C3F0000000D0DE220023E042205540D080536070
:10C40000549053405480532040C04700BFAA00407E
:10C410007FE00880088008A0FFF008800880108076
:10C4200010802080C080CABC210021002240FA2058
:10C430002FF028104BE05220522032204BE0822077
:10C44000BDF8024042402FF002400240E2402FF08F
:10C4500022402440284050008FF0C8EB0400040024
:10C460000200020002000500050008801080204044
:10C47000C0300000B2C121002FF0FA1027E0388050
:10C480002A4067E0A81037E02540A9205310C7F8DC
:10C4900000407FE0400058804500420042004500D7
:10C4A000588040207FF04000C9C804003FE02020B1
:10C4B0003FE020003DE0242034A02C6055A08420E3
:10C4C0000C60CBF91860638042007A204BF04A4040
:10C4D0007A4042404240444088409040D3D00400DB
:10C4E0000420FFF008001FC030405FC090401FC014
:10C4F000104011401080B8F6040004000A001180BA
:10C500002470C4200400040004000400040004009B
:10C51000D2BB00000000000000000020FFF000007F
:10C5200000000000000000000000B6C1414027E00C
:10C5300021000FF0C4104280488044A04FF0510009
:10C5400062404C20B3CC1BE0E2202220FBE0200024
:10C5500067F07080A880A3E0208020A02FF0D0A3F7
:10C560002100208027F0F80022407420A840A280FB
:10C570002280210022C02C30D0F202207FF0400027
:10C580005FE0428041005FF04120410041004500F2
:10C590008200D1E90100F10012805440583053C0AC
:10C5A00078000AA0EAA00A20484037F0BBA70400A0
:10C5B00002203FF0202020203FE02000200020002B
:10C5C000200040008000C7F800407FE04000588015
:10C5D0004500420042004500588040207FF0400066
:10C5E000CCF80280F28092909AA0F6C02280B6C069
:10C5F000AAA0A280B290C4901870D3C300203FF0CC
:10C60000222022203FE0222022203FE02220422040
:10C6100042A08260D7AA20802080F7E0410057F036
:10C62000F90013E018207040D38010C01040B0DC37
:10C6300001007D2045F0452056205540554055408D
:10C64000108028C041208610B3C9028002403FF00C
:10C65000220022403A4029402940289059904250D7
:10C660008C30B9A601001100F92027F021202120EB
:10C6700021203920C220042008A03040CAA704008D
:10C6800024403FE044000420FFF0040004000900BF
:10C6900010802040C030C4A322402FF02240F7E099
:10C6A000242077E0AC20A7E021002FF022402C309E
:10C6B000CABD01400120FFF0010001007D00110012
:10C6C000110010801E90E0500030D6D00200020011
:10C6D00002207FF0422042207FE042200200020040
:10C6E00002000200B3A20400244014807FF0402026
:10C6F000BFC00020FFF00800108020403FC0B4CE33
:10C700000400840047E04820294021004100C28005
:10C710004280444048203010B5DA21003DF052807C
:10C72000BFC004407FC044007FE00C2014A0244020
:10C73000C400CAD4408020B000801FF0C0804F8069
:10C74000428042404A5053506C300010B3FD01000B
:10C75000F2809240A430CFC0A1009FF0D100B5403C
:10C76000892093108100D0B400007FF040109040E9
:10C770001FE010003FE00020FFA0002002400180E9
:10C78000BBA7040002203FF0202020203FE0200033
:10C7900020002000200040008000C7F800407FE01B
:10C7A000400058804500420042004500588040202B
:10C7B0007FF04000CCF80280F28092909AA0F6C000
:10C7C0002280B6C0AAA0A280B290C4901870D3C331
:10C7D00000203FF0222022203FE0222022203FE0C4
:10C7E0002220422042A08260D7AA20802080F7E049
:10C7F000410057F0F90013E018207040D38010C0BA
:10C800001040B5A900401FE0104010401FC010406C
:10C8100010401FC0104000000020FFF0B5E70400EA
:10C8200004407FE0444044407FC0444044407FC0D7
:10C830000410041003F0B8B410203FF050409FC023
:10C8400010401FC008001F8028804500870038F076
:10C85000B9A400407FE004000400040004000400C8
:10C86000040004000420FFF00000BEDF1FC01040E1
:10C870001FC010401FC010401FC01040FFF01080AC
:10C880002060C020CEA22440554095401FF020A03B
:10C890005EA0C0A04E404A404AA051204610D7D3C7
:10C8A0003FC000800100020002207FF00200020071
:10C8B0000200020012000E00CFDF21802140510053
:10C8C00051E0EF0021F04F00F14000803990C2505C
:10C8D0000C30FFFFBCB6100817FC210821084910D6
:10C8E000F910113C21844188F948025002201A5065
:10C8F000E488490E0204C9FD012007A07C20042021
:10C90000042004200424FFFE042004200420082026
:10C910000820102020200020D4DA020002000204A7
:10C92000FFFE040004400840085013F83040504017
:10C9300090401040104417FE1000D5FD00087FFC09
:10C940000100010001000100111011F81100110097
:10C950001100110011001104FFFE0000FFFFB0B232
:10C960000060000030000018001010181FFFFC309D
:10C97000401830702060600000600000C00000C0FF
:10C980000C7FFFFE0181800181800303000303000F
:10C9900007860000FC00001E0000378000E1E00375
:10C9A00080780E0018700008FFFFB0B2000600008B
:10C9B000000380000001C0000000C00004008000EF
:10C9C0000400000807FFFFFC0C00001E1C020018FA
:10C9D00038038020300300400006000000060000FD
:10C9E000000C0004000C000EFFFFFFFF0018070002
:10C9F0000030060000300C0000600C0000601800E1
:10CA000000C0180001FC30000007E0000000F0004A
:10CA100000019E00000307C0000E01F000380078FE
:10CA200000E0001C0700000C38000000FFFF008041
:10CA300002021F00000053544D20202020206D6969
:10CA400063726F534420466C617368202020312E3E
:10CA50003030000000030080830000000000000070
:10CA60000000060000000000000000008CCA000862
:10CA700000000020EC010000EC02000870CB000870
:10CA8000EC0100204CA1000030770008013802279B
:10CA9000011268051B066815FF52023A80542C02E9
:10CAA00003040415060708097CBD01056C691471AF
:10CAB000131564140889651B0899041AC504131D0D
:10CAC00066140891631B08510C3B120152164083F7
:10CAD0000420571A023A4C010A061212011F0403DD
:10CAE000090425423412411B0859081A8D041ABD45
:10CAF000041AFD041A2104132ECA2308F082201AF6
:10CB000031501A516C1AC55C1A090C1AE90C1AED4D
:10CB10000C1A2508411385581408B55714080161EB
:10CB20001408F95E1B0895041A71201AC70813A58A
:10CB30005B1B08B704818B3C0158C11B1D5C541959
:10CB4000281A4D08811AC9109ADB3C411A0D20148D
:10CB50000902202008010104C0320904200B020848
:10CB600006500507058102402C070501070120003A
:040000050800019559
:00000001FF
