Component: ARM Compiler 5.06 update 6 (build 750) Tool: armlink [4d35ed]

==============================================================================

Section Cross References

    stm32f4xx_assert.o(i.assert_failed) refers to printf8.o(i.__0printf$8) for __2printf
    bsp.o(i.bsp_Init) refers to bsp_uart_fifo.o(i.bsp_InitUart) for bsp_InitUart
    bsp.o(i.bsp_Init) refers to bsp_timer.o(i.bsp_InitTimer) for bsp_InitTimer
    bsp.o(i.bsp_Init) refers to bsp_led.o(i.bsp_InitLed) for bsp_InitLed
    bsp.o(i.bsp_Init) refers to bsp_oled.o(i.OLED_InitHard) for OLED_InitHard
    bsp.o(i.bsp_Init) refers to bsp_spi_flash.o(i.bsp_InitSFlash) for bsp_InitSFlash
    bsp.o(i.bsp_Init) refers to bsp_key.o(i.bsp_InitKey) for bsp_InitKey
    bsp.o(i.bsp_Init) refers to bsp_timer.o(i.bsp_StartAutoTimer) for bsp_StartAutoTimer
    bsp.o(i.bsp_RunPer10ms) refers to bsp_beep.o(i.BEEP_Pro) for BEEP_Pro
    bsp.o(i.bsp_RunPer10ms) refers to bsp_timer.o(i.bsp_CheckTimer) for bsp_CheckTimer
    bsp.o(i.bsp_RunPer1ms) refers to iap.o(.data) for IAP_t
    bsp.o(i.bsp_RunPer1ms) refers to bsp_protocol.o(.data) for COM1Receive
    bsp_key.o(i.bsp_InitKey) refers to bsp_key.o(i.bsp_InitKeyHard) for bsp_InitKeyHard
    bsp_key.o(i.bsp_InitKeyHard) refers to stm32f4xx_rcc.o(i.RCC_AHB1PeriphClockCmd) for RCC_AHB1PeriphClockCmd
    bsp_key.o(i.bsp_InitKeyHard) refers to stm32f4xx_gpio.o(i.GPIO_Init) for GPIO_Init
    bsp_user_lib.o(i.CRC16_CCITT) refers to bsp_user_lib.o(i.InvertUint8) for InvertUint8
    bsp_user_lib.o(i.CRC16_CCITT) refers to bsp_user_lib.o(i.InvertUint16) for InvertUint16
    bsp_user_lib.o(i.CRC16_IBM) refers to bsp_user_lib.o(i.InvertUint8) for InvertUint8
==============================================================================

Removing Unused input sections from the image.

    Removing stm32f4xx_assert.o(.rev16_text), (4 bytes).
    Removing stm32f4xx_assert.o(.revsh_text), (4 bytes).
    Removing stm32f4xx_assert.o(.rrx_text), (6 bytes).
    Removing stm32f4xx_assert.o(i.assert_failed), (68 bytes).
    Removing stm32f4xx_it.o(.rev16_text), (4 bytes).
    Removing stm32f4xx_it.o(.revsh_text), (4 bytes).
    Removing stm32f4xx_it.o(.rrx_text), (6 bytes).
    Removing bsp.o(.rev16_text), (4 bytes).
    Removing bsp.o(.revsh_text), (4 bytes).
    Removing bsp.o(.rrx_text), (6 bytes).
    Removing bsp_key.o(.rev16_text), (4 bytes).
    Removing bsp_key.o(.revsh_text), (4 bytes).
    Removing bsp_key.o(.rrx_text), (6 bytes).
    Removing bsp_user_lib.o(.rev16_text), (4 bytes).
    Removing bsp_user_lib.o(.revsh_text), (4 bytes).
    Removing bsp_user_lib.o(.rrx_text), (6 bytes).
    Removing bsp_user_lib.o(i.AscBin_To_LongInt), (90 bytes).
    Removing bsp_user_lib.o(i.Asc_To_Char), (110 bytes).
==============================================================================

Image Symbol Table

    Local Symbols

    Symbol Name                              Value     Ov Type        Size  Object(Section)

    ../clib/../cmprslib/zerorunl2.c          0x00000000   Number         0  __dczerorl2.o ABSOLUTE
    ../clib/microlib/division.c              0x00000000   Number         0  ldiv.o ABSOLUTE
    ../clib/microlib/division.c              0x00000000   Number         0  uldiv.o ABSOLUTE
    ../clib/microlib/division.c              0x00000000   Number         0  uidiv.o ABSOLUTE
    ../clib/microlib/init/entry.s            0x00000000   Number         0  entry2.o ABSOLUTE
    ../clib/microlib/init/entry.s            0x00000000   Number         0  entry11b.o ABSOLUTE
    ../clib/microlib/init/entry.s            0x00000000   Number         0  entry.o ABSOLUTE
    ../clib/microlib/init/entry.s            0x00000000   Number         0  entry8b.o ABSOLUTE
    ../clib/microlib/init/entry.s            0x00000000   Number         0  entry7b.o ABSOLUTE
    ../clib/microlib/init/entry.s            0x00000000   Number         0  entry7a.o ABSOLUTE
    ../clib/microlib/init/entry.s            0x00000000   Number         0  entry5.o ABSOLUTE
    ../clib/microlib/init/entry.s            0x00000000   Number         0  entry9a.o ABSOLUTE
    ../clib/microlib/init/entry.s            0x00000000   Number         0  entry8a.o ABSOLUTE
    ../clib/microlib/init/entry.s            0x00000000   Number         0  entry9b.o ABSOLUTE
    ../clib/microlib/init/entry.s            0x00000000   Number         0  entry10a.o ABSOLUTE
    ../clib/microlib/init/entry.s            0x00000000   Number         0  entry10b.o ABSOLUTE
    ../clib/microlib/init/entry.s            0x00000000   Number         0  entry11a.o ABSOLUTE
    ../clib/microlib/longlong.c              0x00000000   Number         0  llsshr.o ABSOLUTE
    ../clib/microlib/longlong.c              0x00000000   Number         0  llushr.o ABSOLUTE
    ../clib/microlib/longlong.c              0x00000000   Number         0  llshl.o ABSOLUTE
    ../clib/microlib/malloc/malloc.c         0x00000000   Number         0  malloca.o ABSOLUTE
    ../clib/microlib/malloc/malloc.c         0x00000000   Number         0  mallocra.o ABSOLUTE
    ../clib/microlib/malloc/malloc.c         0x00000000   Number         0  mallocr.o ABSOLUTE
    ../clib/microlib/malloc/malloc.c         0x00000000   Number         0  malloc.o ABSOLUTE
    ../clib/microlib/malloc/mvars.c          0x00000000   Number         0  mvars.o ABSOLUTE
    ../clib/microlib/printf/printf.c         0x00000000   Number         0  printf3.o ABSOLUTE
    ../clib/microlib/printf/printf.c         0x00000000   Number         0  printfb.o ABSOLUTE
    ../clib/microlib/printf/printf.c         0x00000000   Number         0  printfa.o ABSOLUTE
    ../clib/microlib/printf/printf.c         0x00000000   Number         0  printf2.o ABSOLUTE
    ../clib/microlib/printf/printf.c         0x00000000   Number         0  printf0.o ABSOLUTE
    ../clib/microlib/printf/printf.c         0x00000000   Number         0  printf4.o ABSOLUTE
    ../clib/microlib/printf/printf.c         0x00000000   Number         0  printf5.o ABSOLUTE
    ../clib/microlib/printf/printf.c         0x00000000   Number         0  printf6.o ABSOLUTE
    ../clib/microlib/printf/printf.c         0x00000000   Number         0  printf1.o ABSOLUTE
    ../clib/microlib/printf/printf.c         0x00000000   Number         0  printf7.o ABSOLUTE
    ../clib/microlib/printf/printf.c         0x00000000   Number         0  printf8.o ABSOLUTE
    ../clib/microlib/printf/stubs.s          0x00000000   Number         0  stubs.o ABSOLUTE
    ../clib/microlib/stdio/streams.c         0x00000000   Number         0  stdout.o ABSOLUTE
    ../clib/microlib/string/memcmp.c         0x00000000   Number         0  memcmp.o ABSOLUTE
    ../clib/microlib/string/memcpy.c         0x00000000   Number         0  memcpya.o ABSOLUTE
    ../clib/microlib/string/memcpy.c         0x00000000   Number         0  memcpyb.o ABSOLUTE
    ../clib/microlib/string/memset.c         0x00000000   Number         0  memseta.o ABSOLUTE
    ../clib/microlib/string/strcmp.c         0x00000000   Number         0  strcmp.o ABSOLUTE
    ../clib/microlib/string/strcpy.c         0x00000000   Number         0  strcpy.o ABSOLUTE
    ../clib/microlib/string/strlen.c         0x00000000   Number         0  strlen.o ABSOLUTE
    ../clib/microlib/stubs.s                 0x00000000   Number         0  iusefp.o ABSOLUTE
    ../fplib/microlib/fpadd.c                0x00000000   Number         0  dadd.o ABSOLUTE
    ../fplib/microlib/fpdiv.c                0x00000000   Number         0  ddiv.o ABSOLUTE
    ../fplib/microlib/fpepilogue.c           0x00000000   Number         0  depilogue.o ABSOLUTE
    ../fplib/microlib/fpfix.c                0x00000000   Number         0  dfixul.o ABSOLUTE
    ../fplib/microlib/fpmul.c                0x00000000   Number         0  dmul.o ABSOLUTE
    ..\..\Bsp\bsp.c                          0x00000000   Number         0  bsp.o ABSOLUTE
    ..\..\Bsp\bsp_swd.c                      0x00000000   Number         0  bsp_swd.o ABSOLUTE
    ..\..\Bsp\bsp_swd_flash.c                0x00000000   Number         0  bsp_swd_flash.o ABSOLUTE
    ..\..\Bsp\src\bsp_beep.c                 0x00000000   Number         0  bsp_beep.o ABSOLUTE
    ..\..\Bsp\src\bsp_key.c                  0x00000000   Number         0  bsp_key.o ABSOLUTE
    ..\..\Bsp\src\bsp_led.c                  0x00000000   Number         0  bsp_led.o ABSOLUTE
    ..\..\Bsp\src\bsp_oled.c                 0x00000000   Number         0  bsp_oled.o ABSOLUTE
    ..\..\Bsp\src\bsp_protocol.c             0x00000000   Number         0  bsp_protocol.o ABSOLUTE
    ..\..\Bsp\src\bsp_sdio_sd.c              0x00000000   Number         0  bsp_sdio_sd.o ABSOLUTE
    ..\..\Bsp\src\bsp_spi_flash.c            0x00000000   Number         0  bsp_spi_flash.o ABSOLUTE
    ..\..\Bsp\src\bsp_tim_pwm.c              0x00000000   Number         0  bsp_tim_pwm.o ABSOLUTE
    ..\..\Bsp\src\bsp_timer.c                0x00000000   Number         0  bsp_timer.o ABSOLUTE
    ..\..\Bsp\src\bsp_uart_fifo.c            0x00000000   Number         0  bsp_uart_fifo.o ABSOLUTE
    ..\..\Bsp\src\bsp_user_lib.c             0x00000000   Number         0  bsp_user_lib.o ABSOLUTE
    ..\..\Bsp\stm32f4xx_assert.c             0x00000000   Number         0  stm32f4xx_assert.o ABSOLUTE
    ..\..\Bsp\stm32f4xx_it.c                 0x00000000   Number         0  stm32f4xx_it.o ABSOLUTE
    ..\..\FatFS\src\diskio.c                 0x00000000   Number         0  diskio.o ABSOLUTE
    ..\..\FatFS\src\ff.c                     0x00000000   Number         0  ff.o ABSOLUTE
    ..\..\Libraries\CMSIS\Device\ST\STM32F4xx\Source\Templates\arm\startup_stm32f401xx.s 0x00000000   Number         0  startup_stm32f401xx.o ABSOLUTE
    ..\..\Libraries\CMSIS\system_stm32f4xx.c 0x00000000   Number         0  system_stm32f4xx.o ABSOLUTE
    ..\..\Libraries\STM32F4xx_StdPeriph_Driver\src\misc.c 0x00000000   Number         0  misc.o ABSOLUTE
    ..\..\Libraries\STM32F4xx_StdPeriph_Driver\src\stm32f4xx_adc.c 0x00000000   Number         0  stm32f4xx_adc.o ABSOLUTE
    ..\..\Libraries\STM32F4xx_StdPeriph_Driver\src\stm32f4xx_can.c 0x00000000   Number         0  stm32f4xx_can.o ABSOLUTE
    ..\..\Libraries\STM32F4xx_StdPeriph_Driver\src\stm32f4xx_cec.c 0x00000000   Number         0  stm32f4xx_cec.o ABSOLUTE
    ..\..\Libraries\STM32F4xx_StdPeriph_Driver\src\stm32f4xx_crc.c 0x00000000   Number         0  stm32f4xx_crc.o ABSOLUTE
    ..\..\Libraries\STM32F4xx_StdPeriph_Driver\src\stm32f4xx_cryp.c 0x00000000   Number         0  stm32f4xx_cryp.o ABSOLUTE
    ..\..\Libraries\STM32F4xx_StdPeriph_Driver\src\stm32f4xx_cryp_aes.c 0x00000000   Number         0  stm32f4xx_cryp_aes.o ABSOLUTE
    ..\..\Libraries\STM32F4xx_StdPeriph_Driver\src\stm32f4xx_cryp_des.c 0x00000000   Number         0  stm32f4xx_cryp_des.o ABSOLUTE
    ..\..\Libraries\STM32F4xx_StdPeriph_Driver\src\stm32f4xx_cryp_tdes.c 0x00000000   Number         0  stm32f4xx_cryp_tdes.o ABSOLUTE
    ..\..\Libraries\STM32F4xx_StdPeriph_Driver\src\stm32f4xx_dac.c 0x00000000   Number         0  stm32f4xx_dac.o ABSOLUTE
    ..\..\Libraries\STM32F4xx_StdPeriph_Driver\src\stm32f4xx_dbgmcu.c 0x00000000   Number         0  stm32f4xx_dbgmcu.o ABSOLUTE
    ..\..\Libraries\STM32F4xx_StdPeriph_Driver\src\stm32f4xx_dcmi.c 0x00000000   Number         0  stm32f4xx_dcmi.o ABSOLUTE
    ..\..\Libraries\STM32F4xx_StdPeriph_Driver\src\stm32f4xx_dfsdm.c 0x00000000   Number         0  stm32f4xx_dfsdm.o ABSOLUTE
    ..\..\Libraries\STM32F4xx_StdPeriph_Driver\src\stm32f4xx_dma.c 0x00000000   Number         0  stm32f4xx_dma.o ABSOLUTE
    ..\..\Libraries\STM32F4xx_StdPeriph_Driver\src\stm32f4xx_dma2d.c 0x00000000   Number         0  stm32f4xx_dma2d.o ABSOLUTE
    ..\..\Libraries\STM32F4xx_StdPeriph_Driver\src\stm32f4xx_dsi.c 0x00000000   Number         0  stm32f4xx_dsi.o ABSOLUTE
    ..\..\Libraries\STM32F4xx_StdPeriph_Driver\src\stm32f4xx_exti.c 0x00000000   Number         0  stm32f4xx_exti.o ABSOLUTE
    ..\..\Libraries\STM32F4xx_StdPeriph_Driver\src\stm32f4xx_flash.c 0x00000000   Number         0  stm32f4xx_flash.o ABSOLUTE
    ..\..\Libraries\STM32F4xx_StdPeriph_Driver\src\stm32f4xx_flash_ramfunc.c 0x00000000   Number         0  stm32f4xx_flash_ramfunc.o ABSOLUTE
    ..\..\Libraries\STM32F4xx_StdPeriph_Driver\src\stm32f4xx_gpio.c 0x00000000   Number         0  stm32f4xx_gpio.o ABSOLUTE
    ..\..\Libraries\STM32F4xx_StdPeriph_Driver\src\stm32f4xx_hash.c 0x00000000   Number         0  stm32f4xx_hash.o ABSOLUTE
    ..\..\Libraries\STM32F4xx_StdPeriph_Driver\src\stm32f4xx_hash_md5.c 0x00000000   Number         0  stm32f4xx_hash_md5.o ABSOLUTE
    ..\..\Libraries\STM32F4xx_StdPeriph_Driver\src\stm32f4xx_hash_sha1.c 0x00000000   Number         0  stm32f4xx_hash_sha1.o ABSOLUTE
    ..\..\Libraries\STM32F4xx_StdPeriph_Driver\src\stm32f4xx_i2c.c 0x00000000   Number         0  stm32f4xx_i2c.o ABSOLUTE
    ..\..\Libraries\STM32F4xx_StdPeriph_Driver\src\stm32f4xx_iwdg.c 0x00000000   Number         0  stm32f4xx_iwdg.o ABSOLUTE
    ..\..\Libraries\STM32F4xx_StdPeriph_Driver\src\stm32f4xx_lptim.c 0x00000000   Number         0  stm32f4xx_lptim.o ABSOLUTE
    ..\..\Libraries\STM32F4xx_StdPeriph_Driver\src\stm32f4xx_ltdc.c 0x00000000   Number         0  stm32f4xx_ltdc.o ABSOLUTE
    ..\..\Libraries\STM32F4xx_StdPeriph_Driver\src\stm32f4xx_pwr.c 0x00000000   Number         0  stm32f4xx_pwr.o ABSOLUTE
    ..\..\Libraries\STM32F4xx_StdPeriph_Driver\src\stm32f4xx_qspi.c 0x00000000   Number         0  stm32f4xx_qspi.o ABSOLUTE
    ..\..\Libraries\STM32F4xx_StdPeriph_Driver\src\stm32f4xx_rcc.c 0x00000000   Number         0  stm32f4xx_rcc.o ABSOLUTE
    ..\..\Libraries\STM32F4xx_StdPeriph_Driver\src\stm32f4xx_rng.c 0x00000000   Number         0  stm32f4xx_rng.o ABSOLUTE
    ..\..\Libraries\STM32F4xx_StdPeriph_Driver\src\stm32f4xx_rtc.c 0x00000000   Number         0  stm32f4xx_rtc.o ABSOLUTE
    ..\..\Libraries\STM32F4xx_StdPeriph_Driver\src\stm32f4xx_sai.c 0x00000000   Number         0  stm32f4xx_sai.o ABSOLUTE
    ..\..\Libraries\STM32F4xx_StdPeriph_Driver\src\stm32f4xx_sdio.c 0x00000000   Number         0  stm32f4xx_sdio.o ABSOLUTE
    ..\..\Libraries\STM32F4xx_StdPeriph_Driver\src\stm32f4xx_spdifrx.c 0x00000000   Number         0  stm32f4xx_spdifrx.o ABSOLUTE
    ..\..\Libraries\STM32F4xx_StdPeriph_Driver\src\stm32f4xx_spi.c 0x00000000   Number         0  stm32f4xx_spi.o ABSOLUTE
    ..\..\Libraries\STM32F4xx_StdPeriph_Driver\src\stm32f4xx_syscfg.c 0x00000000   Number         0  stm32f4xx_syscfg.o ABSOLUTE
    ..\..\Libraries\STM32F4xx_StdPeriph_Driver\src\stm32f4xx_tim.c 0x00000000   Number         0  stm32f4xx_tim.o ABSOLUTE
    ..\..\Libraries\STM32F4xx_StdPeriph_Driver\src\stm32f4xx_usart.c 0x00000000   Number         0  stm32f4xx_usart.o ABSOLUTE
    ..\..\Libraries\STM32F4xx_StdPeriph_Driver\src\stm32f4xx_wwdg.c 0x00000000   Number         0  stm32f4xx_wwdg.o ABSOLUTE
    ..\..\Libraries\STM32_USB_Device_Library\Class\msc\src\usbd_msc_bot.c 0x00000000   Number         0  usbd_msc_bot.o ABSOLUTE
    ..\..\Libraries\STM32_USB_Device_Library\Class\msc\src\usbd_msc_core.c 0x00000000   Number         0  usbd_msc_core.o ABSOLUTE
    ..\..\Libraries\STM32_USB_Device_Library\Class\msc\src\usbd_msc_data.c 0x00000000   Number         0  usbd_msc_data.o ABSOLUTE
    ..\..\Libraries\STM32_USB_Device_Library\Class\msc\src\usbd_msc_scsi.c 0x00000000   Number         0  usbd_msc_scsi.o ABSOLUTE
    ..\..\Libraries\STM32_USB_Device_Library\Core\src\usbd_core.c 0x00000000   Number         0  usbd_core.o ABSOLUTE
    ..\..\Libraries\STM32_USB_Device_Library\Core\src\usbd_ioreq.c 0x00000000   Number         0  usbd_ioreq.o ABSOLUTE
    ..\..\Libraries\STM32_USB_Device_Library\Core\src\usbd_req.c 0x00000000   Number         0  usbd_req.o ABSOLUTE
    ..\..\Libraries\STM32_USB_OTG_Driver\src\usb_core.c 0x00000000   Number         0  usb_core.o ABSOLUTE
    ..\..\Libraries\STM32_USB_OTG_Driver\src\usb_dcd.c 0x00000000   Number         0  usb_dcd.o ABSOLUTE
    ..\..\Libraries\STM32_USB_OTG_Driver\src\usb_dcd_int.c 0x00000000   Number         0  usb_dcd_int.o ABSOLUTE
    ..\..\User\HexToBin.c                    0x00000000   Number         0  hextobin.o ABSOLUTE
    ..\..\User\IAP.c                         0x00000000   Number         0  iap.o ABSOLUTE
    ..\..\User\demo_sdio_fatfs.c             0x00000000   Number         0  demo_sdio_fatfs.o ABSOLUTE
    ..\..\User\demo_spi_flash.c              0x00000000   Number         0  demo_spi_flash.o ABSOLUTE
    ..\..\User\fonts\asc12.c                 0x00000000   Number         0  asc12.o ABSOLUTE
    ..\..\User\fonts\asc16.c                 0x00000000   Number         0  asc16.o ABSOLUTE
    ..\..\User\fonts\asc24.c                 0x00000000   Number         0  asc24.o ABSOLUTE
    ..\..\User\fonts\asc32.c                 0x00000000   Number         0  asc32.o ABSOLUTE
    ..\..\User\fonts\hz12.c                  0x00000000   Number         0  hz12.o ABSOLUTE
    ..\..\User\fonts\hz16.c                  0x00000000   Number         0  hz16.o ABSOLUTE
    ..\..\User\fonts\hz24.c                  0x00000000   Number         0  hz24.o ABSOLUTE
    ..\..\User\fonts\hz32.c                  0x00000000   Number         0  hz32.o ABSOLUTE
    ..\..\User\fonts\ra8875_asc_width.c      0x00000000   Number         0  ra8875_asc_width.o ABSOLUTE
    ..\..\User\main.c                        0x00000000   Number         0  main.o ABSOLUTE
    ..\..\User\usbd_mass_storage\usb_bsp.c   0x00000000   Number         0  usb_bsp.o ABSOLUTE
    ..\..\User\usbd_mass_storage\usb_it.c    0x00000000   Number         0  usb_it.o ABSOLUTE
    ..\..\User\usbd_mass_storage\usbd_desc.c 0x00000000   Number         0  usbd_desc.o ABSOLUTE
    ..\..\User\usbd_mass_storage\usbd_storage_msd.c 0x00000000   Number         0  usbd_storage_msd.o ABSOLUTE
    ..\..\User\usbd_mass_storage\usbd_usr.c  0x00000000   Number         0  usbd_usr.o ABSOLUTE
    ..\\..\\Bsp\\bsp.c                       0x00000000   Number         0  bsp.o ABSOLUTE
    ..\\..\\Bsp\\bsp_swd.c                   0x00000000   Number         0  bsp_swd.o ABSOLUTE
    ..\\..\\Bsp\\bsp_swd_flash.c             0x00000000   Number         0  bsp_swd_flash.o ABSOLUTE
    ..\\..\\Bsp\\src\\bsp_beep.c             0x00000000   Number         0  bsp_beep.o ABSOLUTE
    ..\\..\\Bsp\\src\\bsp_key.c              0x00000000   Number         0  bsp_key.o ABSOLUTE
    ..\\..\\Bsp\\src\\bsp_led.c              0x00000000   Number         0  bsp_led.o ABSOLUTE
    ..\\..\\Bsp\\src\\bsp_oled.c             0x00000000   Number         0  bsp_oled.o ABSOLUTE
    ..\\..\\Bsp\\src\\bsp_protocol.c         0x00000000   Number         0  bsp_protocol.o ABSOLUTE
    ..\\..\\Bsp\\src\\bsp_sdio_sd.c          0x00000000   Number         0  bsp_sdio_sd.o ABSOLUTE
    ..\\..\\Bsp\\src\\bsp_spi_flash.c        0x00000000   Number         0  bsp_spi_flash.o ABSOLUTE
    ..\\..\\Bsp\\src\\bsp_tim_pwm.c          0x00000000   Number         0  bsp_tim_pwm.o ABSOLUTE
    ..\\..\\Bsp\\src\\bsp_timer.c            0x00000000   Number         0  bsp_timer.o ABSOLUTE
    ..\\..\\Bsp\\src\\bsp_uart_fifo.c        0x00000000   Number         0  bsp_uart_fifo.o ABSOLUTE
    ..\\..\\Bsp\\src\\bsp_user_lib.c         0x00000000   Number         0  bsp_user_lib.o ABSOLUTE
    ..\\..\\Bsp\\stm32f4xx_assert.c          0x00000000   Number         0  stm32f4xx_assert.o ABSOLUTE
    ..\\..\\Bsp\\stm32f4xx_it.c              0x00000000   Number         0  stm32f4xx_it.o ABSOLUTE
    ..\\..\\FatFS\\src\\diskio.c             0x00000000   Number         0  diskio.o ABSOLUTE
    ..\\..\\Libraries\\CMSIS\\system_stm32f4xx.c 0x00000000   Number         0  system_stm32f4xx.o ABSOLUTE
    ..\\..\\Libraries\\STM32F4xx_StdPeriph_Driver\\src\\misc.c 0x00000000   Number         0  misc.o ABSOLUTE
    ..\\..\\Libraries\\STM32F4xx_StdPeriph_Driver\\src\\stm32f4xx_adc.c 0x00000000   Number         0  stm32f4xx_adc.o ABSOLUTE
    ..\\..\\Libraries\\STM32F4xx_StdPeriph_Driver\\src\\stm32f4xx_can.c 0x00000000   Number         0  stm32f4xx_can.o ABSOLUTE
    ..\\..\\Libraries\\STM32F4xx_StdPeriph_Driver\\src\\stm32f4xx_cec.c 0x00000000   Number         0  stm32f4xx_cec.o ABSOLUTE
    ..\\..\\Libraries\\STM32F4xx_StdPeriph_Driver\\src\\stm32f4xx_crc.c 0x00000000   Number         0  stm32f4xx_crc.o ABSOLUTE
    ..\\..\\Libraries\\STM32F4xx_StdPeriph_Driver\\src\\stm32f4xx_cryp.c 0x00000000   Number         0  stm32f4xx_cryp.o ABSOLUTE
    ..\\..\\Libraries\\STM32F4xx_StdPeriph_Driver\\src\\stm32f4xx_cryp_aes.c 0x00000000   Number         0  stm32f4xx_cryp_aes.o ABSOLUTE
    ..\\..\\Libraries\\STM32F4xx_StdPeriph_Driver\\src\\stm32f4xx_cryp_des.c 0x00000000   Number         0  stm32f4xx_cryp_des.o ABSOLUTE
    ..\\..\\Libraries\\STM32F4xx_StdPeriph_Driver\\src\\stm32f4xx_cryp_tdes.c 0x00000000   Number         0  stm32f4xx_cryp_tdes.o ABSOLUTE
    ..\\..\\Libraries\\STM32F4xx_StdPeriph_Driver\\src\\stm32f4xx_dac.c 0x00000000   Number         0  stm32f4xx_dac.o ABSOLUTE
    ..\\..\\Libraries\\STM32F4xx_StdPeriph_Driver\\src\\stm32f4xx_dbgmcu.c 0x00000000   Number         0  stm32f4xx_dbgmcu.o ABSOLUTE
    ..\\..\\Libraries\\STM32F4xx_StdPeriph_Driver\\src\\stm32f4xx_dcmi.c 0x00000000   Number         0  stm32f4xx_dcmi.o ABSOLUTE
    ..\\..\\Libraries\\STM32F4xx_StdPeriph_Driver\\src\\stm32f4xx_dfsdm.c 0x00000000   Number         0  stm32f4xx_dfsdm.o ABSOLUTE
    ..\\..\\Libraries\\STM32F4xx_StdPeriph_Driver\\src\\stm32f4xx_dma.c 0x00000000   Number         0  stm32f4xx_dma.o ABSOLUTE
    ..\\..\\Libraries\\STM32F4xx_StdPeriph_Driver\\src\\stm32f4xx_dma2d.c 0x00000000   Number         0  stm32f4xx_dma2d.o ABSOLUTE
    ..\\..\\Libraries\\STM32F4xx_StdPeriph_Driver\\src\\stm32f4xx_dsi.c 0x00000000   Number         0  stm32f4xx_dsi.o ABSOLUTE
    ..\\..\\Libraries\\STM32F4xx_StdPeriph_Driver\\src\\stm32f4xx_exti.c 0x00000000   Number         0  stm32f4xx_exti.o ABSOLUTE
    ..\\..\\Libraries\\STM32F4xx_StdPeriph_Driver\\src\\stm32f4xx_flash.c 0x00000000   Number         0  stm32f4xx_flash.o ABSOLUTE
    ..\\..\\Libraries\\STM32F4xx_StdPeriph_Driver\\src\\stm32f4xx_flash_ramfunc.c 0x00000000   Number         0  stm32f4xx_flash_ramfunc.o ABSOLUTE
    ..\\..\\Libraries\\STM32F4xx_StdPeriph_Driver\\src\\stm32f4xx_gpio.c 0x00000000   Number         0  stm32f4xx_gpio.o ABSOLUTE
    ..\\..\\Libraries\\STM32F4xx_StdPeriph_Driver\\src\\stm32f4xx_hash.c 0x00000000   Number         0  stm32f4xx_hash.o ABSOLUTE
    ..\\..\\Libraries\\STM32F4xx_StdPeriph_Driver\\src\\stm32f4xx_hash_md5.c 0x00000000   Number         0  stm32f4xx_hash_md5.o ABSOLUTE
    ..\\..\\Libraries\\STM32F4xx_StdPeriph_Driver\\src\\stm32f4xx_hash_sha1.c 0x00000000   Number         0  stm32f4xx_hash_sha1.o ABSOLUTE
    ..\\..\\Libraries\\STM32F4xx_StdPeriph_Driver\\src\\stm32f4xx_i2c.c 0x00000000   Number         0  stm32f4xx_i2c.o ABSOLUTE
    ..\\..\\Libraries\\STM32F4xx_StdPeriph_Driver\\src\\stm32f4xx_iwdg.c 0x00000000   Number         0  stm32f4xx_iwdg.o ABSOLUTE
    ..\\..\\Libraries\\STM32F4xx_StdPeriph_Driver\\src\\stm32f4xx_lptim.c 0x00000000   Number         0  stm32f4xx_lptim.o ABSOLUTE
    ..\\..\\Libraries\\STM32F4xx_StdPeriph_Driver\\src\\stm32f4xx_ltdc.c 0x00000000   Number         0  stm32f4xx_ltdc.o ABSOLUTE
    ..\\..\\Libraries\\STM32F4xx_StdPeriph_Driver\\src\\stm32f4xx_pwr.c 0x00000000   Number         0  stm32f4xx_pwr.o ABSOLUTE
    ..\\..\\Libraries\\STM32F4xx_StdPeriph_Driver\\src\\stm32f4xx_qspi.c 0x00000000   Number         0  stm32f4xx_qspi.o ABSOLUTE
    ..\\..\\Libraries\\STM32F4xx_StdPeriph_Driver\\src\\stm32f4xx_rcc.c 0x00000000   Number         0  stm32f4xx_rcc.o ABSOLUTE
    ..\\..\\Libraries\\STM32F4xx_StdPeriph_Driver\\src\\stm32f4xx_rng.c 0x00000000   Number         0  stm32f4xx_rng.o ABSOLUTE
    ..\\..\\Libraries\\STM32F4xx_StdPeriph_Driver\\src\\stm32f4xx_rtc.c 0x00000000   Number         0  stm32f4xx_rtc.o ABSOLUTE
    ..\\..\\Libraries\\STM32F4xx_StdPeriph_Driver\\src\\stm32f4xx_sai.c 0x00000000   Number         0  stm32f4xx_sai.o ABSOLUTE
    ..\\..\\Libraries\\STM32F4xx_StdPeriph_Driver\\src\\stm32f4xx_sdio.c 0x00000000   Number         0  stm32f4xx_sdio.o ABSOLUTE
    ..\\..\\Libraries\\STM32F4xx_StdPeriph_Driver\\src\\stm32f4xx_spdifrx.c 0x00000000   Number         0  stm32f4xx_spdifrx.o ABSOLUTE
    ..\\..\\Libraries\\STM32F4xx_StdPeriph_Driver\\src\\stm32f4xx_spi.c 0x00000000   Number         0  stm32f4xx_spi.o ABSOLUTE
    ..\\..\\Libraries\\STM32F4xx_StdPeriph_Driver\\src\\stm32f4xx_syscfg.c 0x00000000   Number         0  stm32f4xx_syscfg.o ABSOLUTE
    ..\\..\\Libraries\\STM32F4xx_StdPeriph_Driver\\src\\stm32f4xx_tim.c 0x00000000   Number         0  stm32f4xx_tim.o ABSOLUTE
    ..\\..\\Libraries\\STM32F4xx_StdPeriph_Driver\\src\\stm32f4xx_usart.c 0x00000000   Number         0  stm32f4xx_usart.o ABSOLUTE
    ..\\..\\Libraries\\STM32F4xx_StdPeriph_Driver\\src\\stm32f4xx_wwdg.c 0x00000000   Number         0  stm32f4xx_wwdg.o ABSOLUTE
    ..\\..\\Libraries\\STM32_USB_Device_Library\\Class\\msc\\src\\usbd_msc_bot.c 0x00000000   Number         0  usbd_msc_bot.o ABSOLUTE
    ..\\..\\Libraries\\STM32_USB_Device_Library\\Class\\msc\\src\\usbd_msc_core.c 0x00000000   Number         0  usbd_msc_core.o ABSOLUTE
    ..\\..\\Libraries\\STM32_USB_Device_Library\\Class\\msc\\src\\usbd_msc_data.c 0x00000000   Number         0  usbd_msc_data.o ABSOLUTE
    ..\\..\\Libraries\\STM32_USB_Device_Library\\Class\\msc\\src\\usbd_msc_scsi.c 0x00000000   Number         0  usbd_msc_scsi.o ABSOLUTE
    ..\\..\\Libraries\\STM32_USB_Device_Library\\Core\\src\\usbd_core.c 0x00000000   Number         0  usbd_core.o ABSOLUTE
    ..\\..\\Libraries\\STM32_USB_Device_Library\\Core\\src\\usbd_ioreq.c 0x00000000   Number         0  usbd_ioreq.o ABSOLUTE
    ..\\..\\Libraries\\STM32_USB_Device_Library\\Core\\src\\usbd_req.c 0x00000000   Number         0  usbd_req.o ABSOLUTE
    ..\\..\\Libraries\\STM32_USB_OTG_Driver\\src\\usb_core.c 0x00000000   Number         0  usb_core.o ABSOLUTE
    ..\\..\\Libraries\\STM32_USB_OTG_Driver\\src\\usb_dcd.c 0x00000000   Number         0  usb_dcd.o ABSOLUTE
    ..\\..\\Libraries\\STM32_USB_OTG_Driver\\src\\usb_dcd_int.c 0x00000000   Number         0  usb_dcd_int.o ABSOLUTE
    ..\\..\\User\\HexToBin.c                 0x00000000   Number         0  hextobin.o ABSOLUTE
    ..\\..\\User\\IAP.c                      0x00000000   Number         0  iap.o ABSOLUTE
    ..\\..\\User\\demo_sdio_fatfs.c          0x00000000   Number         0  demo_sdio_fatfs.o ABSOLUTE
    ..\\..\\User\\demo_spi_flash.c           0x00000000   Number         0  demo_spi_flash.o ABSOLUTE
    ..\\..\\User\\main.c                     0x00000000   Number         0  main.o ABSOLUTE
    ..\\..\\User\\usbd_mass_storage\\usb_bsp.c 0x00000000   Number         0  usb_bsp.o ABSOLUTE
    ..\\..\\User\\usbd_mass_storage\\usb_it.c 0x00000000   Number         0  usb_it.o ABSOLUTE
    ..\\..\\User\\usbd_mass_storage\\usbd_desc.c 0x00000000   Number         0  usbd_desc.o ABSOLUTE
    ..\\..\\User\\usbd_mass_storage\\usbd_storage_msd.c 0x00000000   Number         0  usbd_storage_msd.o ABSOLUTE
    ..\\..\\User\\usbd_mass_storage\\usbd_usr.c 0x00000000   Number         0  usbd_usr.o ABSOLUTE
    cdrcmple.s                               0x00000000   Number         0  cdrcmple.o ABSOLUTE
    dc.s                                     0x00000000   Number         0  dc.o ABSOLUTE
    handlers.s                               0x00000000   Number         0  handlers.o ABSOLUTE
    init.s                                   0x00000000   Number         0  init.o ABSOLUTE
    RESET                                    0x08000000   Section      404  startup_stm32f401xx.o(RESET)
    .ARM.Collect$$$$00000000                 0x08000194   Section        0  entry.o(.ARM.Collect$$$$00000000)
    .ARM.Collect$$$$00000001                 0x08000194   Section        4  entry2.o(.ARM.Collect$$$$00000001)
    .ARM.Collect$$$$00000004                 0x08000198   Section        4  entry5.o(.ARM.Collect$$$$00000004)
    .ARM.Collect$$$$00000008                 0x0800019c   Section        0  entry7b.o(.ARM.Collect$$$$00000008)
    .ARM.Collect$$$$0000000A                 0x0800019c   Section        0  entry8b.o(.ARM.Collect$$$$0000000A)
    .ARM.Collect$$$$0000000B                 0x0800019c   Section        8  entry9a.o(.ARM.Collect$$$$0000000B)
    .ARM.Collect$$$$0000000D                 0x080001a4   Section        0  entry10a.o(.ARM.Collect$$$$0000000D)
    .ARM.Collect$$$$0000000F                 0x080001a4   Section        0  entry11a.o(.ARM.Collect$$$$0000000F)
    .ARM.Collect$$$$00002712                 0x080001a4   Section        4  entry2.o(.ARM.Collect$$$$00002712)
    __lit__00000000                          0x080001a4   Data           4  entry2.o(.ARM.Collect$$$$00002712)
    .text                                    0x080001a8   Section       36  startup_stm32f401xx.o(.text)
    $v0                                      0x080001a8   Number         0  startup_stm32f401xx.o(.text)
    .text                                    0x080001cc   Section        0  uldiv.o(.text)
    .text                                    0x0800022e   Section        0  memcpya.o(.text)
    .text                                    0x08000252   Section        0  memseta.o(.text)
    .text                                    0x08000276   Section        0  strcpy.o(.text)
    .text                                    0x08000288   Section        0  llshl.o(.text)
    .text                                    0x080002a6   Section        0  llushr.o(.text)
    .text                                    0x080002c8   Section       36  init.o(.text)
    .text                                    0x080002ec   Section        0  __dczerorl2.o(.text)
    i.BEEP_KeyTone                           0x08000342   Section        0  bsp_beep.o(i.BEEP_KeyTone)
    i.BEEP_Pro                               0x08000350   Section        0  bsp_beep.o(i.BEEP_Pro)
    i.BEEP_Start                             0x08000418   Section        0  bsp_beep.o(i.BEEP_Start)
    i.BEEP_Stop                              0x08000460   Section        0  bsp_beep.o(i.BEEP_Stop)
    i.BusFault_Handler                       0x08000494   Section        0  stm32f4xx_it.o(i.BusFault_Handler)
    i.COM1_Recieve_Callback                  0x08000498   Section        0  bsp_protocol.o(i.COM1_Recieve_Callback)
    i.CloseFile                              0x0800051c   Section        0  iap.o(i.CloseFile)
    i.CmdError                               0x08000536   Section        0  bsp_sdio_sd.o(i.CmdError)
    CmdError                                 0x08000537   Thumb Code    44  bsp_sdio_sd.o(i.CmdError)
    i.CmdResp1Error                          0x08000564   Section        0  bsp_sdio_sd.o(i.CmdResp1Error)
    CmdResp1Error                            0x08000565   Thumb Code   298  bsp_sdio_sd.o(i.CmdResp1Error)
    i.CmdResp2Error                          0x08000698   Section        0  bsp_sdio_sd.o(i.CmdResp2Error)
    CmdResp2Error                            0x08000699   Thumb Code    70  bsp_sdio_sd.o(i.CmdResp2Error)
    i.CmdResp3Error                          0x080006e4   Section        0  bsp_sdio_sd.o(i.CmdResp3Error)
    CmdResp3Error                            0x080006e5   Thumb Code    52  bsp_sdio_sd.o(i.CmdResp3Error)
    i.CmdResp6Error                          0x0800071c   Section        0  bsp_sdio_sd.o(i.CmdResp6Error)
    CmdResp6Error                            0x0800071d   Thumb Code   152  bsp_sdio_sd.o(i.CmdResp6Error)
    i.CmdResp7Error                          0x080007b8   Section        0  bsp_sdio_sd.o(i.CmdResp7Error)
    CmdResp7Error                            0x080007b9   Thumb Code    72  bsp_sdio_sd.o(i.CmdResp7Error)
    i.ConfigUartNVIC                         0x08000804   Section        0  bsp_uart_fifo.o(i.ConfigUartNVIC)
    ConfigUartNVIC                           0x08000805   Thumb Code    52  bsp_uart_fifo.o(i.ConfigUartNVIC)
    i.DCD_EP_Close                           0x08000838   Section        0  usb_dcd.o(i.DCD_EP_Close)
    i.DCD_EP_ClrStall                        0x08000882   Section        0  usb_dcd.o(i.DCD_EP_ClrStall)
    i.DCD_EP_Flush                           0x080008ca   Section        0  usb_dcd.o(i.DCD_EP_Flush)
    i.DCD_EP_Open                            0x080008ee   Section        0  usb_dcd.o(i.DCD_EP_Open)
    i.DCD_EP_PrepareRx                       0x08000956   Section        0  usb_dcd.o(i.DCD_EP_PrepareRx)
    i.DCD_EP_SetAddress                      0x080009a8   Section        0  usb_dcd.o(i.DCD_EP_SetAddress)
    i.DCD_EP_Stall                           0x080009c4   Section        0  usb_dcd.o(i.DCD_EP_Stall)
    i.DCD_EP_Tx                              0x08000a0c   Section        0  usb_dcd.o(i.DCD_EP_Tx)
    i.DCD_HandleEnumDone_ISR                 0x08000a5a   Section        0  usb_dcd_int.o(i.DCD_HandleEnumDone_ISR)
    DCD_HandleEnumDone_ISR                   0x08000a5b   Thumb Code   102  usb_dcd_int.o(i.DCD_HandleEnumDone_ISR)
    i.DCD_HandleInEP_ISR                     0x08000ac0   Section        0  usb_dcd_int.o(i.DCD_HandleInEP_ISR)
    DCD_HandleInEP_ISR                       0x08000ac1   Thumb Code   320  usb_dcd_int.o(i.DCD_HandleInEP_ISR)
    i.DCD_HandleOutEP_ISR                    0x08000c04   Section        0  usb_dcd_int.o(i.DCD_HandleOutEP_ISR)
    DCD_HandleOutEP_ISR                      0x08000c05   Thumb Code   252  usb_dcd_int.o(i.DCD_HandleOutEP_ISR)
    i.DCD_HandleResume_ISR                   0x08000d04   Section        0  usb_dcd_int.o(i.DCD_HandleResume_ISR)
    DCD_HandleResume_ISR                     0x08000d05   Thumb Code   100  usb_dcd_int.o(i.DCD_HandleResume_ISR)
    i.DCD_HandleRxStatusQueueLevel_ISR       0x08000d6c   Section        0  usb_dcd_int.o(i.DCD_HandleRxStatusQueueLevel_ISR)
    DCD_HandleRxStatusQueueLevel_ISR         0x08000d6d   Thumb Code   176  usb_dcd_int.o(i.DCD_HandleRxStatusQueueLevel_ISR)
    i.DCD_HandleSof_ISR                      0x08000e1c   Section        0  usb_dcd_int.o(i.DCD_HandleSof_ISR)
    DCD_HandleSof_ISR                        0x08000e1d   Thumb Code    38  usb_dcd_int.o(i.DCD_HandleSof_ISR)
    i.DCD_HandleUSBSuspend_ISR               0x08000e48   Section        0  usb_dcd_int.o(i.DCD_HandleUSBSuspend_ISR)
    DCD_HandleUSBSuspend_ISR                 0x08000e49   Thumb Code   158  usb_dcd_int.o(i.DCD_HandleUSBSuspend_ISR)
    i.DCD_HandleUsbReset_ISR                 0x08000ef0   Section        0  usb_dcd_int.o(i.DCD_HandleUsbReset_ISR)
    DCD_HandleUsbReset_ISR                   0x08000ef1   Thumb Code   254  usb_dcd_int.o(i.DCD_HandleUsbReset_ISR)
    i.DCD_Init                               0x08000ff4   Section        0  usb_dcd.o(i.DCD_Init)
    i.DCD_IsoINIncomplete_ISR                0x08001090   Section        0  usb_dcd_int.o(i.DCD_IsoINIncomplete_ISR)
    DCD_IsoINIncomplete_ISR                  0x08001091   Thumb Code    40  usb_dcd_int.o(i.DCD_IsoINIncomplete_ISR)
    i.DCD_IsoOUTIncomplete_ISR               0x080010bc   Section        0  usb_dcd_int.o(i.DCD_IsoOUTIncomplete_ISR)
    DCD_IsoOUTIncomplete_ISR                 0x080010bd   Thumb Code    40  usb_dcd_int.o(i.DCD_IsoOUTIncomplete_ISR)
    i.DCD_ReadDevInEP                        0x080010e8   Section        0  usb_dcd_int.o(i.DCD_ReadDevInEP)
    DCD_ReadDevInEP                          0x080010e9   Thumb Code    40  usb_dcd_int.o(i.DCD_ReadDevInEP)
    i.DCD_WriteEmptyTxFifo                   0x08001110   Section        0  usb_dcd_int.o(i.DCD_WriteEmptyTxFifo)
    DCD_WriteEmptyTxFifo                     0x08001111   Thumb Code   144  usb_dcd_int.o(i.DCD_WriteEmptyTxFifo)
    i.DMA2_Stream3_IRQHandler                0x080011a0   Section        0  bsp_sdio_sd.o(i.DMA2_Stream3_IRQHandler)
    i.DMA_ClearFlag                          0x080011a8   Section        0  stm32f4xx_dma.o(i.DMA_ClearFlag)
    i.DMA_Cmd                                0x080011dc   Section        0  stm32f4xx_dma.o(i.DMA_Cmd)
    i.DMA_DeInit                             0x080011f4   Section        0  stm32f4xx_dma.o(i.DMA_DeInit)
    i.DMA_FlowControllerConfig               0x0800134c   Section        0  stm32f4xx_dma.o(i.DMA_FlowControllerConfig)
    i.DMA_ITConfig                           0x08001362   Section        0  stm32f4xx_dma.o(i.DMA_ITConfig)
    i.DMA_Init                               0x0800139c   Section        0  stm32f4xx_dma.o(i.DMA_Init)
    i.DebugMon_Handler                       0x080013f4   Section        0  stm32f4xx_it.o(i.DebugMon_Handler)
    i.FindSCR                                0x080013f8   Section        0  bsp_sdio_sd.o(i.FindSCR)
    FindSCR                                  0x080013f9   Thumb Code   386  bsp_sdio_sd.o(i.FindSCR)
    i.GPIO_Init                              0x0800158c   Section        0  stm32f4xx_gpio.o(i.GPIO_Init)
    i.GPIO_PinAFConfig                       0x0800161c   Section        0  stm32f4xx_gpio.o(i.GPIO_PinAFConfig)
    i.GPIO_ReadInputDataBit                  0x08001662   Section        0  stm32f4xx_gpio.o(i.GPIO_ReadInputDataBit)
    i.GPIO_ResetBits                         0x08001674   Section        0  stm32f4xx_gpio.o(i.GPIO_ResetBits)
    i.GPIO_SetBits                           0x08001678   Section        0  stm32f4xx_gpio.o(i.GPIO_SetBits)
    i.GPIO_WriteBit                          0x0800167c   Section        0  stm32f4xx_gpio.o(i.GPIO_WriteBit)
    i.HardFault_Handler                      0x08001688   Section        0  stm32f4xx_it.o(i.HardFault_Handler)
    i.InitHardUart                           0x080016e0   Section        0  bsp_uart_fifo.o(i.InitHardUart)
    InitHardUart                             0x080016e1   Thumb Code   324  bsp_uart_fifo.o(i.InitHardUart)
    i.IsKeyDown1                             0x08001834   Section        0  bsp_key.o(i.IsKeyDown1)
    i.MSC_BOT_Abort                          0x0800184c   Section        0  usbd_msc_bot.o(i.MSC_BOT_Abort)
    MSC_BOT_Abort                            0x0800184d   Thumb Code    60  usbd_msc_bot.o(i.MSC_BOT_Abort)
    i.MSC_BOT_CBW_Decode                     0x08001890   Section        0  usbd_msc_bot.o(i.MSC_BOT_CBW_Decode)
    MSC_BOT_CBW_Decode                       0x08001891   Thumb Code   178  usbd_msc_bot.o(i.MSC_BOT_CBW_Decode)
    i.MSC_BOT_CplClrFeature                  0x08001960   Section        0  usbd_msc_bot.o(i.MSC_BOT_CplClrFeature)
    i.MSC_BOT_DataIn                         0x0800199c   Section        0  usbd_msc_bot.o(i.MSC_BOT_DataIn)
    i.MSC_BOT_DataOut                        0x080019ec   Section        0  usbd_msc_bot.o(i.MSC_BOT_DataOut)
    i.MSC_BOT_DeInit                         0x08001a30   Section        0  usbd_msc_bot.o(i.MSC_BOT_DeInit)
    i.MSC_BOT_Init                           0x08001a3c   Section        0  usbd_msc_bot.o(i.MSC_BOT_Init)
    i.MSC_BOT_Reset                          0x08001a84   Section        0  usbd_msc_bot.o(i.MSC_BOT_Reset)
    i.MSC_BOT_SendCSW                        0x08001ab0   Section        0  usbd_msc_bot.o(i.MSC_BOT_SendCSW)
    i.MSC_BOT_SendData                       0x08001af0   Section        0  usbd_msc_bot.o(i.MSC_BOT_SendData)
    MSC_BOT_SendData                         0x08001af1   Thumb Code    60  usbd_msc_bot.o(i.MSC_BOT_SendData)
    i.MemManage_Handler                      0x08001b38   Section        0  stm32f4xx_it.o(i.MemManage_Handler)
    i.NMI_Handler                            0x08001b3c   Section        0  stm32f4xx_it.o(i.NMI_Handler)
    i.NVIC_Init                              0x08001b40   Section        0  misc.o(i.NVIC_Init)
    i.NVIC_PriorityGroupConfig               0x08001bb8   Section        0  misc.o(i.NVIC_PriorityGroupConfig)
    i.OLED_BufToPanel                        0x08001bcc   Section        0  bsp_oled.o(i.OLED_BufToPanel)
    OLED_BufToPanel                          0x08001bcd   Thumb Code    62  bsp_oled.o(i.OLED_BufToPanel)
    i.OLED_ClrScr                            0x08001c10   Section        0  bsp_oled.o(i.OLED_ClrScr)
    i.OLED_ConfigGPIO                        0x08001c40   Section        0  bsp_oled.o(i.OLED_ConfigGPIO)
    OLED_ConfigGPIO                          0x08001c41   Thumb Code   106  bsp_oled.o(i.OLED_ConfigGPIO)
    i.OLED_DispOn                            0x08001cb0   Section        0  bsp_oled.o(i.OLED_DispOn)
    i.OLED_DispStr                           0x08001cd4   Section        0  bsp_oled.o(i.OLED_DispStr)
    i.OLED_InitHard                          0x08001f20   Section        0  bsp_oled.o(i.OLED_InitHard)
    i.OLED_PutPixel                          0x08001ff4   Section        0  bsp_oled.o(i.OLED_PutPixel)
    i.OLED_Set_Pos                           0x080020a4   Section        0  bsp_oled.o(i.OLED_Set_Pos)
    i.OLED_WriteCmd                          0x080020d0   Section        0  bsp_oled.o(i.OLED_WriteCmd)
    OLED_WriteCmd                            0x080020d1   Thumb Code    70  bsp_oled.o(i.OLED_WriteCmd)
    i.OLED_WriteData                         0x0800211c   Section        0  bsp_oled.o(i.OLED_WriteData)
    OLED_WriteData                           0x0800211d   Thumb Code    70  bsp_oled.o(i.OLED_WriteData)
    i.OTG_FS_IRQHandler                      0x08002168   Section        0  usb_it.o(i.OTG_FS_IRQHandler)
    i.OpenFile                               0x08002178   Section        0  iap.o(i.OpenFile)
    i.PendSV_Handler                         0x080023ac   Section        0  stm32f4xx_it.o(i.PendSV_Handler)
    i.PrintfLogo                             0x080023b0   Section        0  main.o(i.PrintfLogo)
    PrintfLogo                               0x080023b1   Thumb Code    86  main.o(i.PrintfLogo)
    i.RCC_AHB1PeriphClockCmd                 0x0800253c   Section        0  stm32f4xx_rcc.o(i.RCC_AHB1PeriphClockCmd)
    i.RCC_AHB2PeriphClockCmd                 0x0800255c   Section        0  stm32f4xx_rcc.o(i.RCC_AHB2PeriphClockCmd)
    i.RCC_APB1PeriphClockCmd                 0x0800257c   Section        0  stm32f4xx_rcc.o(i.RCC_APB1PeriphClockCmd)
    i.RCC_APB2PeriphClockCmd                 0x0800259c   Section        0  stm32f4xx_rcc.o(i.RCC_APB2PeriphClockCmd)
    i.RCC_APB2PeriphResetCmd                 0x080025bc   Section        0  stm32f4xx_rcc.o(i.RCC_APB2PeriphResetCmd)
    i.RCC_GetClocksFreq                      0x080025dc   Section        0  stm32f4xx_rcc.o(i.RCC_GetClocksFreq)
    i.SCSI_CheckAddressRange                 0x080026c4   Section        0  usbd_msc_scsi.o(i.SCSI_CheckAddressRange)
    SCSI_CheckAddressRange                   0x080026c5   Thumb Code    38  usbd_msc_scsi.o(i.SCSI_CheckAddressRange)
    i.SCSI_Inquiry                           0x080026f0   Section        0  usbd_msc_scsi.o(i.SCSI_Inquiry)
    SCSI_Inquiry                             0x080026f1   Thumb Code    70  usbd_msc_scsi.o(i.SCSI_Inquiry)
    i.SCSI_ModeSense10                       0x08002748   Section        0  usbd_msc_scsi.o(i.SCSI_ModeSense10)
    SCSI_ModeSense10                         0x08002749   Thumb Code    34  usbd_msc_scsi.o(i.SCSI_ModeSense10)
    i.SCSI_ModeSense6                        0x08002778   Section        0  usbd_msc_scsi.o(i.SCSI_ModeSense6)
    SCSI_ModeSense6                          0x08002779   Thumb Code    34  usbd_msc_scsi.o(i.SCSI_ModeSense6)
    i.SCSI_ProcessCmd                        0x080027a8   Section        0  usbd_msc_scsi.o(i.SCSI_ProcessCmd)
    i.SCSI_ProcessRead                       0x08002880   Section        0  usbd_msc_scsi.o(i.SCSI_ProcessRead)
    SCSI_ProcessRead                         0x08002881   Thumb Code   150  usbd_msc_scsi.o(i.SCSI_ProcessRead)
    i.SCSI_ProcessWrite                      0x08002938   Section        0  usbd_msc_scsi.o(i.SCSI_ProcessWrite)
    SCSI_ProcessWrite                        0x08002939   Thumb Code   176  usbd_msc_scsi.o(i.SCSI_ProcessWrite)
    i.SCSI_Read10                            0x08002a04   Section        0  usbd_msc_scsi.o(i.SCSI_Read10)
    SCSI_Read10                              0x08002a05   Thumb Code   212  usbd_msc_scsi.o(i.SCSI_Read10)
    i.SCSI_ReadCapacity10                    0x08002af4   Section        0  usbd_msc_scsi.o(i.SCSI_ReadCapacity10)
    SCSI_ReadCapacity10                      0x08002af5   Thumb Code   118  usbd_msc_scsi.o(i.SCSI_ReadCapacity10)
    i.SCSI_ReadFormatCapacity                0x08002b80   Section        0  usbd_msc_scsi.o(i.SCSI_ReadFormatCapacity)
    SCSI_ReadFormatCapacity                  0x08002b81   Thumb Code   122  usbd_msc_scsi.o(i.SCSI_ReadFormatCapacity)
    i.SCSI_RequestSense                      0x08002c08   Section        0  usbd_msc_scsi.o(i.SCSI_RequestSense)
    SCSI_RequestSense                        0x08002c09   Thumb Code   132  usbd_msc_scsi.o(i.SCSI_RequestSense)
    i.SCSI_SenseCode                         0x08002ca0   Section        0  usbd_msc_scsi.o(i.SCSI_SenseCode)
    i.SCSI_StartStopUnit                     0x08002cdc   Section        0  usbd_msc_scsi.o(i.SCSI_StartStopUnit)
    SCSI_StartStopUnit                       0x08002cdd   Thumb Code    10  usbd_msc_scsi.o(i.SCSI_StartStopUnit)
    i.SCSI_TestUnitReady                     0x08002cec   Section        0  usbd_msc_scsi.o(i.SCSI_TestUnitReady)
    SCSI_TestUnitReady                       0x08002ced   Thumb Code    68  usbd_msc_scsi.o(i.SCSI_TestUnitReady)
    i.SCSI_Verify10                          0x08002d3c   Section        0  usbd_msc_scsi.o(i.SCSI_Verify10)
    SCSI_Verify10                            0x08002d3d   Thumb Code    68  usbd_msc_scsi.o(i.SCSI_Verify10)
    i.SCSI_Write10                           0x08002d8c   Section        0  usbd_msc_scsi.o(i.SCSI_Write10)
    SCSI_Write10                             0x08002d8d   Thumb Code   274  usbd_msc_scsi.o(i.SCSI_Write10)
    i.SDEnWideBus                            0x08002ec0   Section        0  bsp_sdio_sd.o(i.SDEnWideBus)
    SDEnWideBus                              0x08002ec1   Thumb Code   274  bsp_sdio_sd.o(i.SDEnWideBus)
    i.SDIO_ClearFlag                         0x08002fdc   Section        0  stm32f4xx_sdio.o(i.SDIO_ClearFlag)
    i.SDIO_ClearITPendingBit                 0x08002fe8   Section        0  stm32f4xx_sdio.o(i.SDIO_ClearITPendingBit)
    i.SDIO_ClockCmd                          0x08002ff4   Section        0  stm32f4xx_sdio.o(i.SDIO_ClockCmd)
    i.SDIO_DMACmd                            0x08003000   Section        0  stm32f4xx_sdio.o(i.SDIO_DMACmd)
    i.SDIO_DataConfig                        0x0800300c   Section        0  stm32f4xx_sdio.o(i.SDIO_DataConfig)
    i.SDIO_DeInit                            0x08003040   Section        0  stm32f4xx_sdio.o(i.SDIO_DeInit)
    i.SDIO_GetCommandResponse                0x08003058   Section        0  stm32f4xx_sdio.o(i.SDIO_GetCommandResponse)
    i.SDIO_GetFlagStatus                     0x08003064   Section        0  stm32f4xx_sdio.o(i.SDIO_GetFlagStatus)
    i.SDIO_GetITStatus                       0x0800307c   Section        0  stm32f4xx_sdio.o(i.SDIO_GetITStatus)
    i.SDIO_GetPowerState                     0x08003094   Section        0  stm32f4xx_sdio.o(i.SDIO_GetPowerState)
    i.SDIO_GetResponse                       0x080030a4   Section        0  stm32f4xx_sdio.o(i.SDIO_GetResponse)
    i.SDIO_IRQHandler                        0x080030bc   Section        0  bsp_sdio_sd.o(i.SDIO_IRQHandler)
    i.SDIO_ITConfig                          0x080030c4   Section        0  stm32f4xx_sdio.o(i.SDIO_ITConfig)
    i.SDIO_Init                              0x080030e4   Section        0  stm32f4xx_sdio.o(i.SDIO_Init)
    i.SDIO_Interrupts_Config                 0x08003114   Section        0  bsp_sdio_sd.o(i.SDIO_Interrupts_Config)
    i.SDIO_ReadData                          0x08003150   Section        0  stm32f4xx_sdio.o(i.SDIO_ReadData)
    i.SDIO_SendCommand                       0x0800315c   Section        0  stm32f4xx_sdio.o(i.SDIO_SendCommand)
    i.SDIO_SetPowerState                     0x08003188   Section        0  stm32f4xx_sdio.o(i.SDIO_SetPowerState)
    i.SD_Detect                              0x08003194   Section        0  bsp_sdio_sd.o(i.SD_Detect)
    i.SD_EnableWideBusOperation              0x080031a0   Section        0  bsp_sdio_sd.o(i.SD_EnableWideBusOperation)
    i.SD_GetCardInfo                         0x08003230   Section        0  bsp_sdio_sd.o(i.SD_GetCardInfo)
    i.SD_GetState                            0x0800353c   Section        0  bsp_sdio_sd.o(i.SD_GetState)
    i.SD_GetStatus                           0x08003562   Section        0  bsp_sdio_sd.o(i.SD_GetStatus)
    i.SD_Init                                0x08003580   Section        0  bsp_sdio_sd.o(i.SD_Init)
    i.SD_InitializeCards                     0x08003608   Section        0  bsp_sdio_sd.o(i.SD_InitializeCards)
    i.SD_LowLevel_DMA_RxConfig               0x08003744   Section        0  bsp_sdio_sd.o(i.SD_LowLevel_DMA_RxConfig)
    i.SD_LowLevel_DMA_TxConfig               0x080037d0   Section        0  bsp_sdio_sd.o(i.SD_LowLevel_DMA_TxConfig)
    i.SD_LowLevel_Init                       0x08003860   Section        0  bsp_sdio_sd.o(i.SD_LowLevel_Init)
    i.SD_PowerON                             0x08003924   Section        0  bsp_sdio_sd.o(i.SD_PowerON)
    i.SD_ProcessDMAIRQ                       0x08003ac4   Section        0  bsp_sdio_sd.o(i.SD_ProcessDMAIRQ)
    i.SD_ProcessIRQSrc                       0x08003aec   Section        0  bsp_sdio_sd.o(i.SD_ProcessIRQSrc)
    i.SD_ReadBlock                           0x08003b98   Section        0  bsp_sdio_sd.o(i.SD_ReadBlock)
    i.SD_ReadMultiBlocks                     0x08003c78   Section        0  bsp_sdio_sd.o(i.SD_ReadMultiBlocks)
    i.SD_SelectDeselect                      0x08003d60   Section        0  bsp_sdio_sd.o(i.SD_SelectDeselect)
    i.SD_SendStatus                          0x08003d94   Section        0  bsp_sdio_sd.o(i.SD_SendStatus)
    i.SD_StopTransfer                        0x08003de8   Section        0  bsp_sdio_sd.o(i.SD_StopTransfer)
    i.SD_WaitReadOperation                   0x08003e1c   Section        0  bsp_sdio_sd.o(i.SD_WaitReadOperation)
    i.SD_WaitWriteOperation                  0x08003e9c   Section        0  bsp_sdio_sd.o(i.SD_WaitWriteOperation)
    i.SD_WriteBlock                          0x08003f1c   Section        0  bsp_sdio_sd.o(i.SD_WriteBlock)
    i.SD_WriteMultiBlocks                    0x08003ff8   Section        0  bsp_sdio_sd.o(i.SD_WriteMultiBlocks)
    i.SD_disk_initialize                     0x08004140   Section        0  diskio.o(i.SD_disk_initialize)
    i.SPI_Cmd                                0x08004152   Section        0  stm32f4xx_spi.o(i.SPI_Cmd)
    i.SPI_I2S_GetFlagStatus                  0x0800416a   Section        0  stm32f4xx_spi.o(i.SPI_I2S_GetFlagStatus)
    i.SPI_I2S_ReceiveData                    0x0800417c   Section        0  stm32f4xx_spi.o(i.SPI_I2S_ReceiveData)
    i.SPI_I2S_SendData                       0x08004182   Section        0  stm32f4xx_spi.o(i.SPI_I2S_SendData)
    i.SPI_Init                               0x08004186   Section        0  stm32f4xx_spi.o(i.SPI_Init)
    i.STORAGE_GetCapacity                    0x080041c4   Section        0  usbd_storage_msd.o(i.STORAGE_GetCapacity)
    i.STORAGE_GetMaxLun                      0x08004220   Section        0  usbd_storage_msd.o(i.STORAGE_GetMaxLun)
    i.STORAGE_Init                           0x08004224   Section        0  usbd_storage_msd.o(i.STORAGE_Init)
    i.STORAGE_IsReady                        0x08004258   Section        0  usbd_storage_msd.o(i.STORAGE_IsReady)
    i.STORAGE_IsWriteProtected               0x0800428c   Section        0  usbd_storage_msd.o(i.STORAGE_IsWriteProtected)
    i.STORAGE_Read                           0x080042bc   Section        0  usbd_storage_msd.o(i.STORAGE_Read)
    i.STORAGE_Write                          0x080042fc   Section        0  usbd_storage_msd.o(i.STORAGE_Write)
    i.SVC_Handler                            0x0800433c   Section        0  stm32f4xx_it.o(i.SVC_Handler)
    i.SWD_Transfer                           0x0800433e   Section        0  bsp_swd.o(i.SWD_Transfer)
    i.SWD_TransferOnce                       0x0800436c   Section        0  bsp_swd.o(i.SWD_TransferOnce)
    i.SWD_UpData                             0x08004598   Section        0  bsp_swd_flash.o(i.SWD_UpData)
    i.SWJ_InitDebug                          0x08004774   Section        0  bsp_swd.o(i.SWJ_InitDebug)
    i.SWJ_JTAG2SWD                           0x080047fc   Section        0  bsp_swd.o(i.SWJ_JTAG2SWD)
    i.SWJ_ReadBlock                          0x08004848   Section        0  bsp_swd.o(i.SWJ_ReadBlock)
    SWJ_ReadBlock                            0x08004849   Thumb Code   132  bsp_swd.o(i.SWJ_ReadBlock)
    i.SWJ_ReadCoreReg                        0x080048d0   Section        0  bsp_swd.o(i.SWJ_ReadCoreReg)
    SWJ_ReadCoreReg                          0x080048d1   Thumb Code    92  bsp_swd.o(i.SWJ_ReadCoreReg)
    i.SWJ_ReadDP                             0x08004930   Section        0  bsp_swd.o(i.SWJ_ReadDP)
    i.SWJ_ReadData                           0x0800495c   Section        0  bsp_swd.o(i.SWJ_ReadData)
    SWJ_ReadData                             0x0800495d   Thumb Code    58  bsp_swd.o(i.SWJ_ReadData)
    i.SWJ_ReadMem                            0x08004996   Section        0  bsp_swd.o(i.SWJ_ReadMem)
    i.SWJ_ReadMem32                          0x080049ac   Section        0  bsp_swd.o(i.SWJ_ReadMem32)
    i.SWJ_ReadMem8                           0x080049cc   Section        0  bsp_swd.o(i.SWJ_ReadMem8)
    SWJ_ReadMem8                             0x080049cd   Thumb Code    38  bsp_swd.o(i.SWJ_ReadMem8)
    i.SWJ_SendData                           0x080049f8   Section        0  bsp_swd.o(i.SWJ_SendData)
    SWJ_SendData                             0x080049f9   Thumb Code    28  bsp_swd.o(i.SWJ_SendData)
    i.SWJ_SetTargetReset                     0x08004a14   Section        0  bsp_swd.o(i.SWJ_SetTargetReset)
    i.SWJ_SetTargetState                     0x08004a38   Section        0  bsp_swd.o(i.SWJ_SetTargetState)
    i.SWJ_WaitUntilHalted                    0x08004bf8   Section        0  bsp_swd.o(i.SWJ_WaitUntilHalted)
    SWJ_WaitUntilHalted                      0x08004bf9   Thumb Code    44  bsp_swd.o(i.SWJ_WaitUntilHalted)
    i.SWJ_WriteAP                            0x08004c2c   Section        0  bsp_swd.o(i.SWJ_WriteAP)
    i.SWJ_WriteBlock                         0x08004c78   Section        0  bsp_swd.o(i.SWJ_WriteBlock)
    SWJ_WriteBlock                           0x08004c79   Thumb Code   116  bsp_swd.o(i.SWJ_WriteBlock)
    i.SWJ_WriteCoreReg                       0x08004cf0   Section        0  bsp_swd.o(i.SWJ_WriteCoreReg)
    SWJ_WriteCoreReg                         0x08004cf1   Thumb Code    66  bsp_swd.o(i.SWJ_WriteCoreReg)
    i.SWJ_WriteDP                            0x08004d38   Section        0  bsp_swd.o(i.SWJ_WriteDP)
    i.SWJ_WriteData                          0x08004d5c   Section        0  bsp_swd.o(i.SWJ_WriteData)
    SWJ_WriteData                            0x08004d5d   Thumb Code    54  bsp_swd.o(i.SWJ_WriteData)
    i.SWJ_WriteMem                           0x08004d92   Section        0  bsp_swd.o(i.SWJ_WriteMem)
    i.SWJ_WriteMem32                         0x08004da8   Section        0  bsp_swd.o(i.SWJ_WriteMem32)
    i.SWJ_WriteMem8                          0x08004dc8   Section        0  bsp_swd.o(i.SWJ_WriteMem8)
    SWJ_WriteMem8                            0x08004dc9   Thumb Code    40  bsp_swd.o(i.SWJ_WriteMem8)
    i.SW_CLOCK_CYCLE                         0x08004df4   Section        0  bsp_swd.o(i.SW_CLOCK_CYCLE)
    i.SW_Off                                 0x08004e0c   Section        0  bsp_swd.o(i.SW_Off)
    i.SW_READ_BIT                            0x08004e40   Section        0  bsp_swd.o(i.SW_READ_BIT)
    i.SW_WRITE_BIT                           0x08004e64   Section        0  bsp_swd.o(i.SW_WRITE_BIT)
    i.SetSysClock                            0x08004e7c   Section        0  system_stm32f4xx.o(i.SetSysClock)
    SetSysClock                              0x08004e7d   Thumb Code   216  system_stm32f4xx.o(i.SetSysClock)
    i.SysTick_Handler                        0x08004f64   Section        0  bsp_timer.o(i.SysTick_Handler)
    i.SysTick_ISR                            0x08004f6c   Section        0  bsp_timer.o(i.SysTick_ISR)
    i.SystemInit                             0x08004ff0   Section        0  system_stm32f4xx.o(i.SystemInit)
    i.TIM5_IRQHandler                        0x08005058   Section        0  bsp_timer.o(i.TIM5_IRQHandler)
    i.TIM_ARRPreloadConfig                   0x080050f8   Section        0  stm32f4xx_tim.o(i.TIM_ARRPreloadConfig)
    i.TIM_ClearITPendingBit                  0x08005110   Section        0  stm32f4xx_tim.o(i.TIM_ClearITPendingBit)
    i.TIM_Cmd                                0x08005116   Section        0  stm32f4xx_tim.o(i.TIM_Cmd)
    i.TIM_CtrlPWMOutputs                     0x0800512e   Section        0  stm32f4xx_tim.o(i.TIM_CtrlPWMOutputs)
    i.TIM_GetITStatus                        0x0800514c   Section        0  stm32f4xx_tim.o(i.TIM_GetITStatus)
    i.TIM_ITConfig                           0x0800516e   Section        0  stm32f4xx_tim.o(i.TIM_ITConfig)
    i.TIM_OC1Init                            0x08005180   Section        0  stm32f4xx_tim.o(i.TIM_OC1Init)
    i.TIM_OC1PreloadConfig                   0x080051fc   Section        0  stm32f4xx_tim.o(i.TIM_OC1PreloadConfig)
    i.TIM_OC2Init                            0x08005210   Section        0  stm32f4xx_tim.o(i.TIM_OC2Init)
    i.TIM_OC2PreloadConfig                   0x080052b4   Section        0  stm32f4xx_tim.o(i.TIM_OC2PreloadConfig)
    i.TIM_OC3Init                            0x080052d0   Section        0  stm32f4xx_tim.o(i.TIM_OC3Init)
    i.TIM_OC3PreloadConfig                   0x08005370   Section        0  stm32f4xx_tim.o(i.TIM_OC3PreloadConfig)
    i.TIM_OC4Init                            0x08005384   Section        0  stm32f4xx_tim.o(i.TIM_OC4Init)
    i.TIM_OC4PreloadConfig                   0x080053fc   Section        0  stm32f4xx_tim.o(i.TIM_OC4PreloadConfig)
    i.TIM_TimeBaseInit                       0x08005418   Section        0  stm32f4xx_tim.o(i.TIM_TimeBaseInit)
    i.USART1_IRQHandler                      0x0800549c   Section        0  bsp_uart_fifo.o(i.USART1_IRQHandler)
    i.USART6_IRQHandler                      0x080054ac   Section        0  bsp_uart_fifo.o(i.USART6_IRQHandler)
    i.USART_ClearFlag                        0x080054bc   Section        0  stm32f4xx_usart.o(i.USART_ClearFlag)
    i.USART_Cmd                              0x080054ce   Section        0  stm32f4xx_usart.o(i.USART_Cmd)
    i.USART_GetFlagStatus                    0x080054e6   Section        0  stm32f4xx_usart.o(i.USART_GetFlagStatus)
    i.USART_GetITStatus                      0x08005500   Section        0  stm32f4xx_usart.o(i.USART_GetITStatus)
    i.USART_ITConfig                         0x08005554   Section        0  stm32f4xx_usart.o(i.USART_ITConfig)
    i.USART_Init                             0x080055a0   Section        0  stm32f4xx_usart.o(i.USART_Init)
    i.USART_ReceiveData                      0x08005674   Section        0  stm32f4xx_usart.o(i.USART_ReceiveData)
    i.USART_SendData                         0x0800567e   Section        0  stm32f4xx_usart.o(i.USART_SendData)
    i.USBD_ClrCfg                            0x08005686   Section        0  usbd_core.o(i.USBD_ClrCfg)
    i.USBD_ClrFeature                        0x0800569c   Section        0  usbd_req.o(i.USBD_ClrFeature)
    USBD_ClrFeature                          0x0800569d   Thumb Code    72  usbd_req.o(i.USBD_ClrFeature)
    i.USBD_CtlContinueRx                     0x080056e4   Section        0  usbd_ioreq.o(i.USBD_CtlContinueRx)
    i.USBD_CtlContinueSendData               0x08005702   Section        0  usbd_ioreq.o(i.USBD_CtlContinueSendData)
    i.USBD_CtlError                          0x08005720   Section        0  usbd_req.o(i.USBD_CtlError)
    i.USBD_CtlReceiveStatus                  0x0800573e   Section        0  usbd_ioreq.o(i.USBD_CtlReceiveStatus)
    i.USBD_CtlSendData                       0x08005762   Section        0  usbd_ioreq.o(i.USBD_CtlSendData)
    i.USBD_CtlSendStatus                     0x08005790   Section        0  usbd_ioreq.o(i.USBD_CtlSendStatus)
    i.USBD_DataInStage                       0x080057b4   Section        0  usbd_core.o(i.USBD_DataInStage)
    USBD_DataInStage                         0x080057b5   Thumb Code   208  usbd_core.o(i.USBD_DataInStage)
    i.USBD_DataOutStage                      0x08005884   Section        0  usbd_core.o(i.USBD_DataOutStage)
    USBD_DataOutStage                        0x08005885   Thumb Code   150  usbd_core.o(i.USBD_DataOutStage)
    i.USBD_DeInit                            0x0800591a   Section        0  usbd_core.o(i.USBD_DeInit)
    i.USBD_GetConfig                         0x08005920   Section        0  usbd_req.o(i.USBD_GetConfig)
    USBD_GetConfig                           0x08005921   Thumb Code    78  usbd_req.o(i.USBD_GetConfig)
    i.USBD_GetDescriptor                     0x08005974   Section        0  usbd_req.o(i.USBD_GetDescriptor)
    USBD_GetDescriptor                       0x08005975   Thumb Code   290  usbd_req.o(i.USBD_GetDescriptor)
    i.USBD_GetLen                            0x08005a96   Section        0  usbd_req.o(i.USBD_GetLen)
    USBD_GetLen                              0x08005a97   Thumb Code    20  usbd_req.o(i.USBD_GetLen)
    i.USBD_GetRxCount                        0x08005aaa   Section        0  usbd_ioreq.o(i.USBD_GetRxCount)
    i.USBD_GetStatus                         0x08005ac0   Section        0  usbd_req.o(i.USBD_GetStatus)
    USBD_GetStatus                           0x08005ac1   Thumb Code    74  usbd_req.o(i.USBD_GetStatus)
    i.USBD_GetString                         0x08005b10   Section        0  usbd_req.o(i.USBD_GetString)
    i.USBD_Init                              0x08005b62   Section        0  usbd_core.o(i.USBD_Init)
    i.USBD_IsoINIncomplete                   0x08005ba4   Section        0  usbd_core.o(i.USBD_IsoINIncomplete)
    USBD_IsoINIncomplete                     0x08005ba5   Thumb Code    18  usbd_core.o(i.USBD_IsoINIncomplete)
    i.USBD_IsoOUTIncomplete                  0x08005bb6   Section        0  usbd_core.o(i.USBD_IsoOUTIncomplete)
    USBD_IsoOUTIncomplete                    0x08005bb7   Thumb Code    18  usbd_core.o(i.USBD_IsoOUTIncomplete)
    i.USBD_MSC_DataIn                        0x08005bc8   Section        0  usbd_msc_core.o(i.USBD_MSC_DataIn)
    i.USBD_MSC_DataOut                       0x08005bda   Section        0  usbd_msc_core.o(i.USBD_MSC_DataOut)
    i.USBD_MSC_DeInit                        0x08005bec   Section        0  usbd_msc_core.o(i.USBD_MSC_DeInit)
    i.USBD_MSC_GetCfgDesc                    0x08005c0c   Section        0  usbd_msc_core.o(i.USBD_MSC_GetCfgDesc)
    i.USBD_MSC_Init                          0x08005c1c   Section        0  usbd_msc_core.o(i.USBD_MSC_Init)
    i.USBD_MSC_Setup                         0x08005c4c   Section        0  usbd_msc_core.o(i.USBD_MSC_Setup)
    i.USBD_OTG_ISR_Handler                   0x08005d6c   Section        0  usb_dcd_int.o(i.USBD_OTG_ISR_Handler)
    i.USBD_ParseSetupRequest                 0x08005e4c   Section        0  usbd_req.o(i.USBD_ParseSetupRequest)
    i.USBD_Reset                             0x08005e94   Section        0  usbd_core.o(i.USBD_Reset)
    USBD_Reset                               0x08005e95   Thumb Code    50  usbd_core.o(i.USBD_Reset)
    i.USBD_Resume                            0x08005ec6   Section        0  usbd_core.o(i.USBD_Resume)
    USBD_Resume                              0x08005ec7   Thumb Code    30  usbd_core.o(i.USBD_Resume)
    i.USBD_RunTestMode                       0x08005ee4   Section        0  usbd_core.o(i.USBD_RunTestMode)
    USBD_RunTestMode                         0x08005ee5   Thumb Code    14  usbd_core.o(i.USBD_RunTestMode)
    i.USBD_SOF                               0x08005ef8   Section        0  usbd_core.o(i.USBD_SOF)
    USBD_SOF                                 0x08005ef9   Thumb Code    26  usbd_core.o(i.USBD_SOF)
    i.USBD_SetAddress                        0x08005f12   Section        0  usbd_req.o(i.USBD_SetAddress)
    USBD_SetAddress                          0x08005f13   Thumb Code    92  usbd_req.o(i.USBD_SetAddress)
    i.USBD_SetCfg                            0x08005f6e   Section        0  usbd_core.o(i.USBD_SetCfg)
    i.USBD_SetConfig                         0x08005f8c   Section        0  usbd_req.o(i.USBD_SetConfig)
    USBD_SetConfig                           0x08005f8d   Thumb Code   204  usbd_req.o(i.USBD_SetConfig)
    i.USBD_SetFeature                        0x0800605c   Section        0  usbd_req.o(i.USBD_SetFeature)
    USBD_SetFeature                          0x0800605d   Thumb Code   160  usbd_req.o(i.USBD_SetFeature)
    i.USBD_SetupStage                        0x08006100   Section        0  usbd_core.o(i.USBD_SetupStage)
    USBD_SetupStage                          0x08006101   Thumb Code    84  usbd_core.o(i.USBD_SetupStage)
    i.USBD_StdDevReq                         0x08006154   Section        0  usbd_req.o(i.USBD_StdDevReq)
    i.USBD_StdEPReq                          0x080061c8   Section        0  usbd_req.o(i.USBD_StdEPReq)
    i.USBD_StdItfReq                         0x08006324   Section        0  usbd_req.o(i.USBD_StdItfReq)
    i.USBD_Suspend                           0x08006370   Section        0  usbd_core.o(i.USBD_Suspend)
    USBD_Suspend                             0x08006371   Thumb Code    32  usbd_core.o(i.USBD_Suspend)
    i.USBD_USR_ConfigStrDescriptor           0x08006390   Section        0  usbd_desc.o(i.USBD_USR_ConfigStrDescriptor)
    i.USBD_USR_DeviceConfigured              0x080063c4   Section        0  usbd_usr.o(i.USBD_USR_DeviceConfigured)
    i.USBD_USR_DeviceConnected               0x080063ec   Section        0  usbd_usr.o(i.USBD_USR_DeviceConnected)
    i.USBD_USR_DeviceDescriptor              0x08006414   Section        0  usbd_desc.o(i.USBD_USR_DeviceDescriptor)
    i.USBD_USR_DeviceDisconnected            0x08006424   Section        0  usbd_usr.o(i.USBD_USR_DeviceDisconnected)
    i.USBD_USR_DeviceReset                   0x08006450   Section        0  usbd_usr.o(i.USBD_USR_DeviceReset)
    i.USBD_USR_DeviceResumed                 0x080064e8   Section        0  usbd_usr.o(i.USBD_USR_DeviceResumed)
    i.USBD_USR_DeviceSuspended               0x08006508   Section        0  usbd_usr.o(i.USBD_USR_DeviceSuspended)
    i.USBD_USR_Init                          0x08006530   Section        0  usbd_usr.o(i.USBD_USR_Init)
    i.USBD_USR_InterfaceStrDescriptor        0x08006550   Section        0  usbd_desc.o(i.USBD_USR_InterfaceStrDescriptor)
    i.USBD_USR_LangIDStrDescriptor           0x08006588   Section        0  usbd_desc.o(i.USBD_USR_LangIDStrDescriptor)
    i.USBD_USR_ManufacturerStrDescriptor     0x08006598   Section        0  usbd_desc.o(i.USBD_USR_ManufacturerStrDescriptor)
    i.USBD_USR_ProductStrDescriptor          0x080065c4   Section        0  usbd_desc.o(i.USBD_USR_ProductStrDescriptor)
    i.USBD_USR_SerialStrDescriptor           0x0800661c   Section        0  usbd_desc.o(i.USBD_USR_SerialStrDescriptor)
    i.USB_OTG_BSP_EnableInterrupt            0x08006664   Section        0  usb_bsp.o(i.USB_OTG_BSP_EnableInterrupt)
    i.USB_OTG_BSP_Init                       0x08006690   Section        0  usb_bsp.o(i.USB_OTG_BSP_Init)
    i.USB_OTG_BSP_mDelay                     0x080066ec   Section        0  usb_bsp.o(i.USB_OTG_BSP_mDelay)
    i.USB_OTG_BSP_uDelay                     0x080066fe   Section        0  usb_bsp.o(i.USB_OTG_BSP_uDelay)
    i.USB_OTG_CoreInit                       0x08006714   Section        0  usb_core.o(i.USB_OTG_CoreInit)
    i.USB_OTG_CoreInitDev                    0x0800683a   Section        0  usb_core.o(i.USB_OTG_CoreInitDev)
    i.USB_OTG_CoreReset                      0x08006a44   Section        0  usb_core.o(i.USB_OTG_CoreReset)
    USB_OTG_CoreReset                        0x08006a45   Thumb Code   108  usb_core.o(i.USB_OTG_CoreReset)
    i.USB_OTG_DisableGlobalInt               0x08006ab4   Section        0  usb_core.o(i.USB_OTG_DisableGlobalInt)
    i.USB_OTG_EP0Activate                    0x08006ad6   Section        0  usb_core.o(i.USB_OTG_EP0Activate)
    i.USB_OTG_EP0StartXfer                   0x08006b40   Section        0  usb_core.o(i.USB_OTG_EP0StartXfer)
    i.USB_OTG_EP0_OutStart                   0x08006c96   Section        0  usb_core.o(i.USB_OTG_EP0_OutStart)
    i.USB_OTG_EPActivate                     0x08006cf8   Section        0  usb_core.o(i.USB_OTG_EPActivate)
    i.USB_OTG_EPClearStall                   0x08006d90   Section        0  usb_core.o(i.USB_OTG_EPClearStall)
    i.USB_OTG_EPDeactivate                   0x08006de0   Section        0  usb_core.o(i.USB_OTG_EPDeactivate)
    i.USB_OTG_EPSetStall                     0x08006e3e   Section        0  usb_core.o(i.USB_OTG_EPSetStall)
    i.USB_OTG_EPStartXfer                    0x08006ea2   Section        0  usb_core.o(i.USB_OTG_EPStartXfer)
    i.USB_OTG_EnableCommonInt                0x08007098   Section        0  usb_core.o(i.USB_OTG_EnableCommonInt)
    USB_OTG_EnableCommonInt                  0x08007099   Thumb Code    52  usb_core.o(i.USB_OTG_EnableCommonInt)
    i.USB_OTG_EnableDevInt                   0x080070cc   Section        0  usb_core.o(i.USB_OTG_EnableDevInt)
    i.USB_OTG_EnableGlobalInt                0x08007166   Section        0  usb_core.o(i.USB_OTG_EnableGlobalInt)
    i.USB_OTG_FlushRxFifo                    0x08007188   Section        0  usb_core.o(i.USB_OTG_FlushRxFifo)
    i.USB_OTG_FlushTxFifo                    0x080071d4   Section        0  usb_core.o(i.USB_OTG_FlushTxFifo)
    i.USB_OTG_GetDeviceSpeed                 0x08007228   Section        0  usb_core.o(i.USB_OTG_GetDeviceSpeed)
    i.USB_OTG_GetMode                        0x0800725c   Section        0  usb_core.o(i.USB_OTG_GetMode)
    i.USB_OTG_InitDevSpeed                   0x08007268   Section        0  usb_core.o(i.USB_OTG_InitDevSpeed)
    i.USB_OTG_IsDeviceMode                   0x08007280   Section        0  usb_core.o(i.USB_OTG_IsDeviceMode)
    i.USB_OTG_ReadCoreItr                    0x08007296   Section        0  usb_core.o(i.USB_OTG_ReadCoreItr)
    i.USB_OTG_ReadDevAllInEPItr              0x080072a6   Section        0  usb_core.o(i.USB_OTG_ReadDevAllInEPItr)
    i.USB_OTG_ReadDevAllOutEp_itr            0x080072b6   Section        0  usb_core.o(i.USB_OTG_ReadDevAllOutEp_itr)
    i.USB_OTG_ReadDevOutEP_itr               0x080072c6   Section        0  usb_core.o(i.USB_OTG_ReadDevOutEP_itr)
    i.USB_OTG_ReadPacket                     0x080072da   Section        0  usb_core.o(i.USB_OTG_ReadPacket)
    i.USB_OTG_SelectCore                     0x08007304   Section        0  usb_core.o(i.USB_OTG_SelectCore)
    i.USB_OTG_SetCurrentMode                 0x080073d4   Section        0  usb_core.o(i.USB_OTG_SetCurrentMode)
    i.USB_OTG_WritePacket                    0x08007422   Section        0  usb_core.o(i.USB_OTG_WritePacket)
    i.UartIRQ                                0x08007464   Section        0  bsp_uart_fifo.o(i.UartIRQ)
    UartIRQ                                  0x08007465   Thumb Code   236  bsp_uart_fifo.o(i.UartIRQ)
    i.UartVarInit                            0x08007554   Section        0  bsp_uart_fifo.o(i.UartVarInit)
    UartVarInit                              0x08007555   Thumb Code    86  bsp_uart_fifo.o(i.UartVarInit)
    i.UsageFault_Handler                     0x080075cc   Section        0  stm32f4xx_it.o(i.UsageFault_Handler)
    i.ViewRootDir                            0x080075d0   Section        0  demo_sdio_fatfs.o(i.ViewRootDir)
    i.__0printf$8                            0x08007700   Section        0  printf8.o(i.__0printf$8)
    i.__scatterload_copy                     0x08007720   Section       14  handlers.o(i.__scatterload_copy)
    i.__scatterload_null                     0x0800772e   Section        2  handlers.o(i.__scatterload_null)
    i.__scatterload_zeroinit                 0x08007730   Section       14  handlers.o(i.__scatterload_zeroinit)
    i.__set_PRIMASK                          0x0800773e   Section        0  bsp_timer.o(i.__set_PRIMASK)
    __set_PRIMASK                            0x0800773f   Thumb Code     6  bsp_timer.o(i.__set_PRIMASK)
    i._printf_core                           0x08007744   Section        0  printf8.o(i._printf_core)
    _printf_core                             0x08007745   Thumb Code   996  printf8.o(i._printf_core)
    i._printf_post_padding                   0x08007b54   Section        0  printf8.o(i._printf_post_padding)
    _printf_post_padding                     0x08007b55   Thumb Code    36  printf8.o(i._printf_post_padding)
    i._printf_pre_padding                    0x08007b78   Section        0  printf8.o(i._printf_pre_padding)
    _printf_pre_padding                      0x08007b79   Thumb Code    46  printf8.o(i._printf_pre_padding)
    i.bsp_CfgSPIForSFlash                    0x08007ba8   Section        0  bsp_spi_flash.o(i.bsp_CfgSPIForSFlash)
    bsp_CfgSPIForSFlash                      0x08007ba9   Thumb Code    96  bsp_spi_flash.o(i.bsp_CfgSPIForSFlash)
    i.bsp_CheckTimer                         0x08007c0c   Section        0  bsp_timer.o(i.bsp_CheckTimer)
    i.bsp_ConfigGpioOut                      0x08007c40   Section        0  bsp_tim_pwm.o(i.bsp_ConfigGpioOut)
    i.bsp_ConfigTimGpio                      0x08007c78   Section        0  bsp_tim_pwm.o(i.bsp_ConfigTimGpio)
    i.bsp_DelayMS                            0x08007d24   Section        0  bsp_timer.o(i.bsp_DelayMS)
    i.bsp_GetAFofTIM                         0x08007d68   Section        0  bsp_tim_pwm.o(i.bsp_GetAFofTIM)
    i.bsp_GetPinSource                       0x08007e24   Section        0  bsp_tim_pwm.o(i.bsp_GetPinSource)
    i.bsp_GetRCCofGPIO                       0x08007eb8   Section        0  bsp_tim_pwm.o(i.bsp_GetRCCofGPIO)
    i.bsp_GetRCCofTIM                        0x08007f3c   Section        0  bsp_tim_pwm.o(i.bsp_GetRCCofTIM)
    i.bsp_Idle                               0x08008008   Section        0  bsp.o(i.bsp_Idle)
    i.bsp_Init                               0x0800800a   Section        0  bsp.o(i.bsp_Init)
    i.bsp_InitHardTimer                      0x08008030   Section        0  bsp_timer.o(i.bsp_InitHardTimer)
    i.bsp_InitKey                            0x08008098   Section        0  bsp_key.o(i.bsp_InitKey)
    i.bsp_InitKeyHard                        0x080080a0   Section        0  bsp_key.o(i.bsp_InitKeyHard)
    bsp_InitKeyHard                          0x080080a1   Thumb Code    44  bsp_key.o(i.bsp_InitKeyHard)
    i.bsp_InitLed                            0x080080d0   Section        0  bsp_led.o(i.bsp_InitLed)
    i.bsp_InitSFlash                         0x08008120   Section        0  bsp_spi_flash.o(i.bsp_InitSFlash)
    i.bsp_InitTimer                          0x080081c0   Section        0  bsp_timer.o(i.bsp_InitTimer)
    i.bsp_InitUart                           0x0800825c   Section        0  bsp_uart_fifo.o(i.bsp_InitUart)
    i.bsp_LedOff                             0x0800826c   Section        0  bsp_led.o(i.bsp_LedOff)
    i.bsp_RunPer10ms                         0x0800828c   Section        0  bsp.o(i.bsp_RunPer10ms)
    i.bsp_RunPer1ms                          0x0800829c   Section        0  bsp.o(i.bsp_RunPer1ms)
    i.bsp_SWDInit                            0x080082e0   Section        0  bsp_swd.o(i.bsp_SWDInit)
    i.bsp_SetTIMOutPWM                       0x0800834c   Section        0  bsp_tim_pwm.o(i.bsp_SetTIMOutPWM)
    i.bsp_SoftTimerDec                       0x080084f0   Section        0  bsp_timer.o(i.bsp_SoftTimerDec)
    bsp_SoftTimerDec                         0x080084f1   Thumb Code    28  bsp_timer.o(i.bsp_SoftTimerDec)
    i.bsp_StartAutoTimer                     0x0800850c   Section        0  bsp_timer.o(i.bsp_StartAutoTimer)
    i.check_fs                               0x080085a4   Section        0  ff.o(i.check_fs)
    check_fs                                 0x080085a5   Thumb Code   138  ff.o(i.check_fs)
    i.chk_chr                                0x08008634   Section        0  ff.o(i.chk_chr)
    chk_chr                                  0x08008635   Thumb Code    20  ff.o(i.chk_chr)
    i.chk_lock                               0x08008648   Section        0  ff.o(i.chk_lock)
    chk_lock                                 0x08008649   Thumb Code   134  ff.o(i.chk_lock)
    i.chk_mounted                            0x080086d4   Section        0  ff.o(i.chk_mounted)
    chk_mounted                              0x080086d5   Thumb Code   914  ff.o(i.chk_mounted)
    i.clear_lock                             0x08008a78   Section        0  ff.o(i.clear_lock)
    clear_lock                               0x08008a79   Thumb Code    42  ff.o(i.clear_lock)
    i.clust2sect                             0x08008aa8   Section        0  ff.o(i.clust2sect)
    i.create_chain                           0x08008ac2   Section        0  ff.o(i.create_chain)
    create_chain                             0x08008ac3   Thumb Code   202  ff.o(i.create_chain)
    i.create_name                            0x08008b8c   Section        0  ff.o(i.create_name)
    create_name                              0x08008b8d   Thumb Code   328  ff.o(i.create_name)
    i.dec_lock                               0x08008ce4   Section        0  ff.o(i.dec_lock)
    dec_lock                                 0x08008ce5   Thumb Code    72  ff.o(i.dec_lock)
    i.dir_alloc                              0x08008d30   Section        0  ff.o(i.dir_alloc)
    dir_alloc                                0x08008d31   Thumb Code    86  ff.o(i.dir_alloc)
    i.dir_find                               0x08008d86   Section        0  ff.o(i.dir_find)
    dir_find                                 0x08008d87   Thumb Code    92  ff.o(i.dir_find)
    i.dir_next                               0x08008de2   Section        0  ff.o(i.dir_next)
    dir_next                                 0x08008de3   Thumb Code   276  ff.o(i.dir_next)
    i.dir_read                               0x08008ef6   Section        0  ff.o(i.dir_read)
    dir_read                                 0x08008ef7   Thumb Code   110  ff.o(i.dir_read)
    i.dir_register                           0x08008f64   Section        0  ff.o(i.dir_register)
    dir_register                             0x08008f65   Thumb Code    58  ff.o(i.dir_register)
    i.dir_sdi                                0x08008f9e   Section        0  ff.o(i.dir_sdi)
    dir_sdi                                  0x08008f9f   Thumb Code   156  ff.o(i.dir_sdi)
    i.disk_initialize                        0x0800903a   Section        0  diskio.o(i.disk_initialize)
    i.disk_ioctl                             0x0800905a   Section        0  diskio.o(i.disk_ioctl)
    i.disk_read                              0x08009078   Section        0  diskio.o(i.disk_read)
    i.disk_status                            0x080090e6   Section        0  diskio.o(i.disk_status)
    i.disk_write                             0x080090fe   Section        0  diskio.o(i.disk_write)
    i.enq_lock                               0x08009180   Section        0  ff.o(i.enq_lock)
    enq_lock                                 0x08009181   Thumb Code    36  ff.o(i.enq_lock)
    i.f_close                                0x080091a8   Section        0  ff.o(i.f_close)
    i.f_mount                                0x080091c8   Section        0  ff.o(i.f_mount)
    i.f_open                                 0x080091fc   Section        0  ff.o(i.f_open)
    i.f_opendir                              0x08009394   Section        0  ff.o(i.f_opendir)
    i.f_read                                 0x08009404   Section        0  ff.o(i.f_read)
    i.f_readdir                              0x080095ce   Section        0  ff.o(i.f_readdir)
    i.f_stat                                 0x08009626   Section        0  ff.o(i.f_stat)
    i.f_sync                                 0x08009660   Section        0  ff.o(i.f_sync)
    i.follow_path                            0x08009710   Section        0  ff.o(i.follow_path)
    follow_path                              0x08009711   Thumb Code   146  ff.o(i.follow_path)
    i.fputc                                  0x080097a4   Section        0  bsp_uart_fifo.o(i.fputc)
    i.get_fat                                0x080097c8   Section        0  ff.o(i.get_fat)
    i.get_fattime                            0x080098ac   Section        0  diskio.o(i.get_fattime)
    i.get_fileinfo                           0x080098b4   Section        0  ff.o(i.get_fileinfo)
    get_fileinfo                             0x080098b5   Thumb Code   152  ff.o(i.get_fileinfo)
    i.inc_lock                               0x0800994c   Section        0  ff.o(i.inc_lock)
    inc_lock                                 0x0800994d   Thumb Code   214  ff.o(i.inc_lock)
    i.isFull                                 0x08009a28   Section        0  bsp_protocol.o(i.isFull)
    i.ld_clust                               0x08009a60   Section        0  ff.o(i.ld_clust)
    ld_clust                                 0x08009a61   Thumb Code    32  ff.o(i.ld_clust)
    i.main                                   0x08009a80   Section        0  main.o(i.main)
    i.mem_cmp                                0x08009b7c   Section        0  ff.o(i.mem_cmp)
    mem_cmp                                  0x08009b7d   Thumb Code    38  ff.o(i.mem_cmp)
    i.mem_cpy                                0x08009ba2   Section        0  ff.o(i.mem_cpy)
    mem_cpy                                  0x08009ba3   Thumb Code    26  ff.o(i.mem_cpy)
    i.mem_set                                0x08009bbc   Section        0  ff.o(i.mem_set)
    mem_set                                  0x08009bbd   Thumb Code    20  ff.o(i.mem_set)
    i.move_window                            0x08009bd0   Section        0  ff.o(i.move_window)
    move_window                              0x08009bd1   Thumb Code    50  ff.o(i.move_window)
    i.pushBuff                               0x08009c04   Section        0  bsp_protocol.o(i.pushBuff)
    i.put_fat                                0x08009c58   Section        0  ff.o(i.put_fat)
    i.remove_chain                           0x08009d8e   Section        0  ff.o(i.remove_chain)
    remove_chain                             0x08009d8f   Thumb Code   104  ff.o(i.remove_chain)
    i.sf_ReadID                              0x08009df8   Section        0  bsp_spi_flash.o(i.sf_ReadID)
    i.sf_ReadInfo                            0x08009e3c   Section        0  bsp_spi_flash.o(i.sf_ReadInfo)
    i.sf_SendByte                            0x08009f60   Section        0  bsp_spi_flash.o(i.sf_SendByte)
    sf_SendByte                              0x08009f61   Thumb Code    50  bsp_spi_flash.o(i.sf_SendByte)
    i.sf_WaitForWriteEnd                     0x08009f98   Section        0  bsp_spi_flash.o(i.sf_WaitForWriteEnd)
    sf_WaitForWriteEnd                       0x08009f99   Thumb Code    38  bsp_spi_flash.o(i.sf_WaitForWriteEnd)
    i.sf_WriteStatus                         0x08009fc4   Section        0  bsp_spi_flash.o(i.sf_WriteStatus)
    sf_WriteStatus                           0x08009fc5   Thumb Code    80  bsp_spi_flash.o(i.sf_WriteStatus)
    i.st_clust                               0x0800a020   Section        0  ff.o(i.st_clust)
    st_clust                                 0x0800a021   Thumb Code    16  ff.o(i.st_clust)
    i.swd_flash_syscall_exec                 0x0800a030   Section        0  bsp_swd.o(i.swd_flash_syscall_exec)
    i.swd_read_memory                        0x0800a19c   Section        0  bsp_swd.o(i.swd_read_memory)
    i.swd_write_debug_state                  0x0800a208   Section        0  bsp_swd.o(i.swd_write_debug_state)
    i.swd_write_memory                       0x0800a298   Section        0  bsp_swd.o(i.swd_write_memory)
    i.sync_fs                                0x0800a324   Section        0  ff.o(i.sync_fs)
    sync_fs                                  0x0800a325   Thumb Code   200  ff.o(i.sync_fs)
    i.sync_window                            0x0800a3ec   Section        0  ff.o(i.sync_window)
    sync_window                              0x0800a3ed   Thumb Code    82  ff.o(i.sync_window)
    i.target_flash_erase_chip                0x0800a440   Section        0  bsp_swd_flash.o(i.target_flash_erase_chip)
    i.target_flash_init                      0x0800a4a0   Section        0  bsp_swd_flash.o(i.target_flash_init)
    i.target_flash_program_page              0x0800a588   Section        0  bsp_swd_flash.o(i.target_flash_program_page)
    i.usbd_OpenMassStorage                   0x0800a65c   Section        0  usbd_usr.o(i.usbd_OpenMassStorage)
    i.validate                               0x0800a680   Section        0  ff.o(i.validate)
    validate                                 0x0800a681   Thumb Code    54  ff.o(i.validate)
    .constdata                               0x0800a6b6   Section       48  bsp_timer.o(.constdata)
    __FUNCTION__                             0x0800a6b6   Data          15  bsp_timer.o(.constdata)
    __FUNCTION__                             0x0800a6c5   Data          19  bsp_timer.o(.constdata)
    __FUNCTION__                             0x0800a6d8   Data          14  bsp_timer.o(.constdata)
    .constdata                               0x0800a6e8   Section      384  bsp_swd_flash.o(.constdata)
    flash_code                               0x0800a6e8   Data         332  bsp_swd_flash.o(.constdata)
    .constdata                               0x0800a868   Section     1524  asc12.o(.constdata)
    .constdata                               0x0800ae5c   Section     4096  asc16.o(.constdata)
    .constdata                               0x0800be5c   Section      492  asc24.o(.constdata)
    .constdata                               0x0800c048   Section      652  asc32.o(.constdata)
    .constdata                               0x0800c2d4   Section     1536  hz12.o(.constdata)
    .constdata                               0x0800c8d4   Section      138  hz16.o(.constdata)
    .constdata                               0x0800c95e   Section       76  hz24.o(.constdata)
    .constdata                               0x0800c9aa   Section      132  hz32.o(.constdata)
    .constdata                               0x0800ca2e   Section       36  usbd_storage_msd.o(.constdata)
    .constdata                               0x0800ca52   Section       23  usbd_msc_data.o(.constdata)
    .data                                    0x20000000   Section       29  bsp_timer.o(.data)
    s_uiDelayCount                           0x20000000   Data           4  bsp_timer.o(.data)
    s_ucTimeOutFlag                          0x20000004   Data           1  bsp_timer.o(.data)
    s_TIM_CallBack1                          0x2000000c   Data           4  bsp_timer.o(.data)
    s_TIM_CallBack2                          0x20000010   Data           4  bsp_timer.o(.data)
    s_TIM_CallBack3                          0x20000014   Data           4  bsp_timer.o(.data)
    s_TIM_CallBack4                          0x20000018   Data           4  bsp_timer.o(.data)
    s_count                                  0x2000001c   Data           1  bsp_timer.o(.data)
    .data                                    0x20000020   Section       24  bsp_sdio_sd.o(.data)
    CardType                                 0x20000020   Data           4  bsp_sdio_sd.o(.data)
    RCA                                      0x20000024   Data           4  bsp_sdio_sd.o(.data)
    .data                                    0x20000038   Section        1  bsp_oled.o(.data)
    s_ucUpdateEn                             0x20000038   Data           1  bsp_oled.o(.data)
    .data                                    0x2000003a   Section        6  bsp_protocol.o(.data)
    .data                                    0x20000040   Section       43  main.o(.data)
    .data                                    0x2000006c   Section       20  iap.o(.data)
    .data                                    0x20000080   Section        8  bsp_swd_flash.o(.data)
    .data                                    0x20000088   Section       16  stm32f4xx_rcc.o(.data)
    APBAHBPrescTable                         0x20000088   Data          16  stm32f4xx_rcc.o(.data)
    .data                                    0x20000098   Section       20  system_stm32f4xx.o(.data)
    .data                                    0x200000ac   Section        6  ff.o(.data)
    FatFs                                    0x200000ac   Data           4  ff.o(.data)
    Fsid                                     0x200000b0   Data           2  ff.o(.data)
    .data                                    0x200000b4   Section       60  usbd_desc.o(.data)
    .data                                    0x200000f0   Section       41  usbd_storage_msd.o(.data)
    last_status                              0x20000118   Data           1  usbd_storage_msd.o(.data)
    .data                                    0x2000011c   Section       28  usbd_usr.o(.data)
    .data                                    0x20000138   Section       52  usbd_core.o(.data)
    .data                                    0x2000016c   Section       13  usbd_req.o(.data)
    cfgidx                                   0x20000178   Data           1  usbd_req.o(.data)
    .data                                    0x2000017a   Section        4  usbd_msc_bot.o(.data)
    .data                                    0x20000180   Section       78  usbd_msc_core.o(.data)
    USBD_MSC_MaxLun                          0x200001cc   Data           1  usbd_msc_core.o(.data)
    USBD_MSC_AltSet                          0x200001cd   Data           1  usbd_msc_core.o(.data)
    .data                                    0x200001d0   Section       24  usbd_msc_scsi.o(.data)
    .data                                    0x200001e8   Section        4  stdout.o(.data)
    .bss                                     0x200001ec   Section     3188  bsp_uart_fifo.o(.bss)
    g_tUart1                                 0x200001ec   Data          40  bsp_uart_fifo.o(.bss)
    g_TxBuf1                                 0x20000214   Data         530  bsp_uart_fifo.o(.bss)
    g_RxBuf1                                 0x20000426   Data         530  bsp_uart_fifo.o(.bss)
    g_tUart6                                 0x20000638   Data          40  bsp_uart_fifo.o(.bss)
    g_TxBuf6                                 0x20000660   Data        1024  bsp_uart_fifo.o(.bss)
    g_RxBuf6                                 0x20000a60   Data        1024  bsp_uart_fifo.o(.bss)
    .bss                                     0x20000e60   Section       48  bsp_timer.o(.bss)
    s_tTmr                                   0x20000e60   Data          48  bsp_timer.o(.bss)
    .bss                                     0x20000e90   Section      204  bsp_sdio_sd.o(.bss)
    CSD_Tab                                  0x20000e90   Data          16  bsp_sdio_sd.o(.bss)
    CID_Tab                                  0x20000ea0   Data          16  bsp_sdio_sd.o(.bss)
    SDSTATUS_Tab                             0x20000eb0   Data          16  bsp_sdio_sd.o(.bss)
    .bss                                     0x20000f5c   Section     1024  bsp_oled.o(.bss)
    s_ucGRAM                                 0x20000f5c   Data        1024  bsp_oled.o(.bss)
    .bss                                     0x2000135c   Section     4124  bsp_spi_flash.o(.bss)
    s_spiBuf                                 0x20001378   Data        4096  bsp_spi_flash.o(.bss)
    .bss                                     0x20002378   Section       12  bsp_beep.o(.bss)
    g_tBeep                                  0x20002378   Data          12  bsp_beep.o(.bss)
    .bss                                     0x20002384   Section     3192  bsp_protocol.o(.bss)
    .bss                                     0x20002ffc   Section     5120  demo_sdio_fatfs.o(.bss)
    .bss                                     0x200043fc   Section     1168  iap.o(.bss)
    .bss                                     0x2000488c   Section     1024  bsp_swd_flash.o(.bss)
    .bss                                     0x20004c8c   Section       36  ff.o(.bss)
    Files                                    0x20004c8c   Data          36  ff.o(.bss)
    .bss                                     0x20004cb0   Section     1524  usbd_usr.o(.bss)
    .bss                                     0x200052a4   Section       64  usbd_req.o(.bss)
    .bss                                     0x200052e4   Section     4144  usbd_msc_bot.o(.bss)
    .bss                                     0x20006314   Section       32  usbd_msc_scsi.o(.bss)
    STACK                                    0x20006338   Section    16384  startup_stm32f401xx.o(STACK)

    Global Symbols

    Symbol Name                              Value     Ov Type        Size  Object(Section)

    BuildAttributes$$THM_ISAv4$E$P$D$K$B$S$7EM$VFPi3$EXTD16$VFPS$VFMA$PE$A:L22UL41UL21$X:L11$S22US41US21$IEEE1$IW$USESV6$~STKCKD$USESV7$~SHL$OSPACE$ROPI$EBA8$MICROLIB$REQ8$PRES8$EABIv2 0x00000000   Number         0  anon$$obj.o ABSOLUTE
    __ARM_use_no_argv                        0x00000000   Number         0  main.o ABSOLUTE
    _printf_a                                0x00000000   Number         0  stubs.o ABSOLUTE
    _printf_c                                0x00000000   Number         0  stubs.o ABSOLUTE
    _printf_charcount                        0x00000000   Number         0  stubs.o ABSOLUTE
    _printf_d                                0x00000000   Number         0  stubs.o ABSOLUTE
    _printf_e                                0x00000000   Number         0  stubs.o ABSOLUTE
    _printf_f                                0x00000000   Number         0  stubs.o ABSOLUTE
    _printf_flags                            0x00000000   Number         0  stubs.o ABSOLUTE
    _printf_fp_dec                           0x00000000   Number         0  stubs.o ABSOLUTE
    _printf_fp_hex                           0x00000000   Number         0  stubs.o ABSOLUTE
    _printf_g                                0x00000000   Number         0  stubs.o ABSOLUTE
    _printf_i                                0x00000000   Number         0  stubs.o ABSOLUTE
    _printf_int_dec                          0x00000000   Number         0  stubs.o ABSOLUTE
    _printf_l                                0x00000000   Number         0  stubs.o ABSOLUTE
    _printf_lc                               0x00000000   Number         0  stubs.o ABSOLUTE
    _printf_ll                               0x00000000   Number         0  stubs.o ABSOLUTE
    _printf_lld                              0x00000000   Number         0  stubs.o ABSOLUTE
    _printf_lli                              0x00000000   Number         0  stubs.o ABSOLUTE
    _printf_llo                              0x00000000   Number         0  stubs.o ABSOLUTE
    _printf_llu                              0x00000000   Number         0  stubs.o ABSOLUTE
    _printf_llx                              0x00000000   Number         0  stubs.o ABSOLUTE
    _printf_longlong_dec                     0x00000000   Number         0  stubs.o ABSOLUTE
    _printf_longlong_hex                     0x00000000   Number         0  stubs.o ABSOLUTE
    _printf_longlong_oct                     0x00000000   Number         0  stubs.o ABSOLUTE
    _printf_ls                               0x00000000   Number         0  stubs.o ABSOLUTE
    _printf_mbtowc                           0x00000000   Number         0  stubs.o ABSOLUTE
    _printf_n                                0x00000000   Number         0  stubs.o ABSOLUTE
    _printf_o                                0x00000000   Number         0  stubs.o ABSOLUTE
    _printf_p                                0x00000000   Number         0  stubs.o ABSOLUTE
    _printf_percent                          0x00000000   Number         0  stubs.o ABSOLUTE
    _printf_pre_padding                      0x00000000   Number         0  stubs.o ABSOLUTE
    _printf_return_value                     0x00000000   Number         0  stubs.o ABSOLUTE
    _printf_s                                0x00000000   Number         0  stubs.o ABSOLUTE
    _printf_sizespec                         0x00000000   Number         0  stubs.o ABSOLUTE
    _printf_str                              0x00000000   Number         0  stubs.o ABSOLUTE
    _printf_truncate_signed                  0x00000000   Number         0  stubs.o ABSOLUTE
    _printf_truncate_unsigned                0x00000000   Number         0  stubs.o ABSOLUTE
    _printf_u                                0x00000000   Number         0  stubs.o ABSOLUTE
    _printf_wc                               0x00000000   Number         0  stubs.o ABSOLUTE
    _printf_wctomb                           0x00000000   Number         0  stubs.o ABSOLUTE
    _printf_widthprec                        0x00000000   Number         0  stubs.o ABSOLUTE
    _printf_x                                0x00000000   Number         0  stubs.o ABSOLUTE
    __cpp_initialize__aeabi_                  - Undefined Weak Reference
    __cxa_finalize                            - Undefined Weak Reference
    _clock_init                               - Undefined Weak Reference
    _microlib_exit                            - Undefined Weak Reference
    __Vectors_Size                           0x00000194   Number         0  startup_stm32f401xx.o ABSOLUTE
    __Vectors                                0x08000000   Data           4  startup_stm32f401xx.o(RESET)
    __Vectors_End                            0x08000194   Data           0  startup_stm32f401xx.o(RESET)
    __main                                   0x08000195   Thumb Code     0  entry.o(.ARM.Collect$$$$00000000)
    _main_stk                                0x08000195   Thumb Code     0  entry2.o(.ARM.Collect$$$$00000001)
    _main_scatterload                        0x08000199   Thumb Code     0  entry5.o(.ARM.Collect$$$$00000004)
    __main_after_scatterload                 0x0800019d   Thumb Code     0  entry5.o(.ARM.Collect$$$$00000004)
    _main_clock                              0x0800019d   Thumb Code     0  entry7b.o(.ARM.Collect$$$$00000008)
    _main_cpp_init                           0x0800019d   Thumb Code     0  entry8b.o(.ARM.Collect$$$$0000000A)
    _main_init                               0x0800019d   Thumb Code     0  entry9a.o(.ARM.Collect$$$$0000000B)
    __rt_final_cpp                           0x080001a5   Thumb Code     0  entry10a.o(.ARM.Collect$$$$0000000D)
    __rt_final_exit                          0x080001a5   Thumb Code     0  entry11a.o(.ARM.Collect$$$$0000000F)
    Reset_Handler                            0x080001a9   Thumb Code     8  startup_stm32f401xx.o(.text)
    ADC_IRQHandler                           0x080001c3   Thumb Code     0  startup_stm32f401xx.o(.text)
    DMA1_Stream0_IRQHandler                  0x080001c3   Thumb Code     0  startup_stm32f401xx.o(.text)
    DMA1_Stream1_IRQHandler                  0x080001c3   Thumb Code     0  startup_stm32f401xx.o(.text)
    DMA1_Stream2_IRQHandler                  0x080001c3   Thumb Code     0  startup_stm32f401xx.o(.text)
    DMA1_Stream3_IRQHandler                  0x080001c3   Thumb Code     0  startup_stm32f401xx.o(.text)
    DMA1_Stream4_IRQHandler                  0x080001c3   Thumb Code     0  startup_stm32f401xx.o(.text)
    DMA1_Stream5_IRQHandler                  0x080001c3   Thumb Code     0  startup_stm32f401xx.o(.text)
    DMA1_Stream6_IRQHandler                  0x080001c3   Thumb Code     0  startup_stm32f401xx.o(.text)
    DMA1_Stream7_IRQHandler                  0x080001c3   Thumb Code     0  startup_stm32f401xx.o(.text)
    DMA2_Stream0_IRQHandler                  0x080001c3   Thumb Code     0  startup_stm32f401xx.o(.text)
    DMA2_Stream1_IRQHandler                  0x080001c3   Thumb Code     0  startup_stm32f401xx.o(.text)
    DMA2_Stream2_IRQHandler                  0x080001c3   Thumb Code     0  startup_stm32f401xx.o(.text)
    DMA2_Stream4_IRQHandler                  0x080001c3   Thumb Code     0  startup_stm32f401xx.o(.text)
    DMA2_Stream5_IRQHandler                  0x080001c3   Thumb Code     0  startup_stm32f401xx.o(.text)
    DMA2_Stream6_IRQHandler                  0x080001c3   Thumb Code     0  startup_stm32f401xx.o(.text)
    DMA2_Stream7_IRQHandler                  0x080001c3   Thumb Code     0  startup_stm32f401xx.o(.text)
    EXTI0_IRQHandler                         0x080001c3   Thumb Code     0  startup_stm32f401xx.o(.text)
    EXTI15_10_IRQHandler                     0x080001c3   Thumb Code     0  startup_stm32f401xx.o(.text)
    EXTI1_IRQHandler                         0x080001c3   Thumb Code     0  startup_stm32f401xx.o(.text)
    EXTI2_IRQHandler                         0x080001c3   Thumb Code     0  startup_stm32f401xx.o(.text)
    EXTI3_IRQHandler                         0x080001c3   Thumb Code     0  startup_stm32f401xx.o(.text)
    EXTI4_IRQHandler                         0x080001c3   Thumb Code     0  startup_stm32f401xx.o(.text)
    EXTI9_5_IRQHandler                       0x080001c3   Thumb Code     0  startup_stm32f401xx.o(.text)
    FLASH_IRQHandler                         0x080001c3   Thumb Code     0  startup_stm32f401xx.o(.text)
    FPU_IRQHandler                           0x080001c3   Thumb Code     0  startup_stm32f401xx.o(.text)
    I2C1_ER_IRQHandler                       0x080001c3   Thumb Code     0  startup_stm32f401xx.o(.text)
    I2C1_EV_IRQHandler                       0x080001c3   Thumb Code     0  startup_stm32f401xx.o(.text)
    I2C2_ER_IRQHandler                       0x080001c3   Thumb Code     0  startup_stm32f401xx.o(.text)
    I2C2_EV_IRQHandler                       0x080001c3   Thumb Code     0  startup_stm32f401xx.o(.text)
    I2C3_ER_IRQHandler                       0x080001c3   Thumb Code     0  startup_stm32f401xx.o(.text)
    I2C3_EV_IRQHandler                       0x080001c3   Thumb Code     0  startup_stm32f401xx.o(.text)
    OTG_FS_WKUP_IRQHandler                   0x080001c3   Thumb Code     0  startup_stm32f401xx.o(.text)
    PVD_IRQHandler                           0x080001c3   Thumb Code     0  startup_stm32f401xx.o(.text)
    RCC_IRQHandler                           0x080001c3   Thumb Code     0  startup_stm32f401xx.o(.text)
    RTC_Alarm_IRQHandler                     0x080001c3   Thumb Code     0  startup_stm32f401xx.o(.text)
    RTC_WKUP_IRQHandler                      0x080001c3   Thumb Code     0  startup_stm32f401xx.o(.text)
    SPI1_IRQHandler                          0x080001c3   Thumb Code     0  startup_stm32f401xx.o(.text)
    SPI2_IRQHandler                          0x080001c3   Thumb Code     0  startup_stm32f401xx.o(.text)
    SPI3_IRQHandler                          0x080001c3   Thumb Code     0  startup_stm32f401xx.o(.text)
    SPI4_IRQHandler                          0x080001c3   Thumb Code     0  startup_stm32f401xx.o(.text)
    TAMP_STAMP_IRQHandler                    0x080001c3   Thumb Code     0  startup_stm32f401xx.o(.text)
    TIM1_BRK_TIM9_IRQHandler                 0x080001c3   Thumb Code     0  startup_stm32f401xx.o(.text)
    TIM1_CC_IRQHandler                       0x080001c3   Thumb Code     0  startup_stm32f401xx.o(.text)
    TIM1_TRG_COM_TIM11_IRQHandler            0x080001c3   Thumb Code     0  startup_stm32f401xx.o(.text)
    TIM1_UP_TIM10_IRQHandler                 0x080001c3   Thumb Code     0  startup_stm32f401xx.o(.text)
    TIM2_IRQHandler                          0x080001c3   Thumb Code     0  startup_stm32f401xx.o(.text)
    TIM3_IRQHandler                          0x080001c3   Thumb Code     0  startup_stm32f401xx.o(.text)
    TIM4_IRQHandler                          0x080001c3   Thumb Code     0  startup_stm32f401xx.o(.text)
    USART2_IRQHandler                        0x080001c3   Thumb Code     0  startup_stm32f401xx.o(.text)
    WWDG_IRQHandler                          0x080001c3   Thumb Code     0  startup_stm32f401xx.o(.text)
    __aeabi_uldivmod                         0x080001cd   Thumb Code    98  uldiv.o(.text)
    __aeabi_memcpy                           0x0800022f   Thumb Code    36  memcpya.o(.text)
    __aeabi_memcpy4                          0x0800022f   Thumb Code     0  memcpya.o(.text)
    __aeabi_memcpy8                          0x0800022f   Thumb Code     0  memcpya.o(.text)
    __aeabi_memset                           0x08000253   Thumb Code    14  memseta.o(.text)
    __aeabi_memset4                          0x08000253   Thumb Code     0  memseta.o(.text)
    __aeabi_memset8                          0x08000253   Thumb Code     0  memseta.o(.text)
    __aeabi_memclr                           0x08000261   Thumb Code     4  memseta.o(.text)
    __aeabi_memclr4                          0x08000261   Thumb Code     0  memseta.o(.text)
    __aeabi_memclr8                          0x08000261   Thumb Code     0  memseta.o(.text)
    _memset$wrapper                          0x08000265   Thumb Code    18  memseta.o(.text)
    strcpy                                   0x08000277   Thumb Code    18  strcpy.o(.text)
    __aeabi_llsl                             0x08000289   Thumb Code    30  llshl.o(.text)
    _ll_shift_l                              0x08000289   Thumb Code     0  llshl.o(.text)
    __aeabi_llsr                             0x080002a7   Thumb Code    32  llushr.o(.text)
    _ll_ushift_r                             0x080002a7   Thumb Code     0  llushr.o(.text)
    __scatterload                            0x080002c9   Thumb Code    28  init.o(.text)
    __scatterload_rt2                        0x080002c9   Thumb Code     0  init.o(.text)
    __decompress                             0x080002ed   Thumb Code     0  __dczerorl2.o(.text)
    __decompress1                            0x080002ed   Thumb Code    86  __dczerorl2.o(.text)
    BEEP_KeyTone                             0x08000343   Thumb Code    14  bsp_beep.o(i.BEEP_KeyTone)
    BEEP_Pro                                 0x08000351   Thumb Code   190  bsp_beep.o(i.BEEP_Pro)
    BEEP_Start                               0x08000419   Thumb Code    62  bsp_beep.o(i.BEEP_Start)
    BEEP_Stop                                0x08000461   Thumb Code    44  bsp_beep.o(i.BEEP_Stop)
    BusFault_Handler                         0x08000495   Thumb Code     4  stm32f4xx_it.o(i.BusFault_Handler)
    COM1_Recieve_Callback                    0x08000499   Thumb Code    96  bsp_protocol.o(i.COM1_Recieve_Callback)
    CloseFile                                0x0800051d   Thumb Code    26  iap.o(i.CloseFile)
    DCD_EP_Close                             0x08000839   Thumb Code    74  usb_dcd.o(i.DCD_EP_Close)
    DCD_EP_ClrStall                          0x08000883   Thumb Code    72  usb_dcd.o(i.DCD_EP_ClrStall)
    DCD_EP_Flush                             0x080008cb   Thumb Code    36  usb_dcd.o(i.DCD_EP_Flush)
    DCD_EP_Open                              0x080008ef   Thumb Code   104  usb_dcd.o(i.DCD_EP_Open)
    DCD_EP_PrepareRx                         0x08000957   Thumb Code    82  usb_dcd.o(i.DCD_EP_PrepareRx)
    DCD_EP_SetAddress                        0x080009a9   Thumb Code    28  usb_dcd.o(i.DCD_EP_SetAddress)
    DCD_EP_Stall                             0x080009c5   Thumb Code    72  usb_dcd.o(i.DCD_EP_Stall)
    DCD_EP_Tx                                0x08000a0d   Thumb Code    78  usb_dcd.o(i.DCD_EP_Tx)
    DCD_Init                                 0x08000ff5   Thumb Code   156  usb_dcd.o(i.DCD_Init)
    DMA2_Stream3_IRQHandler                  0x080011a1   Thumb Code     8  bsp_sdio_sd.o(i.DMA2_Stream3_IRQHandler)
    DMA_ClearFlag                            0x080011a9   Thumb Code    38  stm32f4xx_dma.o(i.DMA_ClearFlag)
    DMA_Cmd                                  0x080011dd   Thumb Code    22  stm32f4xx_dma.o(i.DMA_Cmd)
    DMA_DeInit                               0x080011f5   Thumb Code   324  stm32f4xx_dma.o(i.DMA_DeInit)
    DMA_FlowControllerConfig                 0x0800134d   Thumb Code    22  stm32f4xx_dma.o(i.DMA_FlowControllerConfig)
    DMA_ITConfig                             0x08001363   Thumb Code    58  stm32f4xx_dma.o(i.DMA_ITConfig)
    DMA_Init                                 0x0800139d   Thumb Code    82  stm32f4xx_dma.o(i.DMA_Init)
    DebugMon_Handler                         0x080013f5   Thumb Code     2  stm32f4xx_it.o(i.DebugMon_Handler)
    GPIO_Init                                0x0800158d   Thumb Code   144  stm32f4xx_gpio.o(i.GPIO_Init)
    GPIO_PinAFConfig                         0x0800161d   Thumb Code    70  stm32f4xx_gpio.o(i.GPIO_PinAFConfig)
    GPIO_ReadInputDataBit                    0x08001663   Thumb Code    18  stm32f4xx_gpio.o(i.GPIO_ReadInputDataBit)
    GPIO_ResetBits                           0x08001675   Thumb Code     4  stm32f4xx_gpio.o(i.GPIO_ResetBits)
    GPIO_SetBits                             0x08001679   Thumb Code     4  stm32f4xx_gpio.o(i.GPIO_SetBits)
    GPIO_WriteBit                            0x0800167d   Thumb Code    10  stm32f4xx_gpio.o(i.GPIO_WriteBit)
    HardFault_Handler                        0x08001689   Thumb Code    40  stm32f4xx_it.o(i.HardFault_Handler)
    IsKeyDown1                               0x08001835   Thumb Code    18  bsp_key.o(i.IsKeyDown1)
    MSC_BOT_CplClrFeature                    0x08001961   Thumb Code    56  usbd_msc_bot.o(i.MSC_BOT_CplClrFeature)
    MSC_BOT_DataIn                           0x0800199d   Thumb Code    70  usbd_msc_bot.o(i.MSC_BOT_DataIn)
    MSC_BOT_DataOut                          0x080019ed   Thumb Code    60  usbd_msc_bot.o(i.MSC_BOT_DataOut)
    MSC_BOT_DeInit                           0x08001a31   Thumb Code     8  usbd_msc_bot.o(i.MSC_BOT_DeInit)
    MSC_BOT_Init                             0x08001a3d   Thumb Code    54  usbd_msc_bot.o(i.MSC_BOT_Init)
    MSC_BOT_Reset                            0x08001a85   Thumb Code    30  usbd_msc_bot.o(i.MSC_BOT_Reset)
    MSC_BOT_SendCSW                          0x08001ab1   Thumb Code    48  usbd_msc_bot.o(i.MSC_BOT_SendCSW)
    MemManage_Handler                        0x08001b39   Thumb Code     4  stm32f4xx_it.o(i.MemManage_Handler)
    NMI_Handler                              0x08001b3d   Thumb Code     2  stm32f4xx_it.o(i.NMI_Handler)
    NVIC_Init                                0x08001b41   Thumb Code   106  misc.o(i.NVIC_Init)
    NVIC_PriorityGroupConfig                 0x08001bb9   Thumb Code    10  misc.o(i.NVIC_PriorityGroupConfig)
    OLED_ClrScr                              0x08001c11   Thumb Code    42  bsp_oled.o(i.OLED_ClrScr)
    OLED_DispOn                              0x08001cb1   Thumb Code    34  bsp_oled.o(i.OLED_DispOn)
    OLED_DispStr                             0x08001cd5   Thumb Code   556  bsp_oled.o(i.OLED_DispStr)
    OLED_InitHard                            0x08001f21   Thumb Code   208  bsp_oled.o(i.OLED_InitHard)
    OLED_PutPixel                            0x08001ff5   Thumb Code   152  bsp_oled.o(i.OLED_PutPixel)
    OLED_Set_Pos                             0x080020a5   Thumb Code    42  bsp_oled.o(i.OLED_Set_Pos)
    OTG_FS_IRQHandler                        0x08002169   Thumb Code    10  usb_it.o(i.OTG_FS_IRQHandler)
    OpenFile                                 0x08002179   Thumb Code   330  iap.o(i.OpenFile)
    PendSV_Handler                           0x080023ad   Thumb Code     2  stm32f4xx_it.o(i.PendSV_Handler)
    RCC_AHB1PeriphClockCmd                   0x0800253d   Thumb Code    26  stm32f4xx_rcc.o(i.RCC_AHB1PeriphClockCmd)
    RCC_AHB2PeriphClockCmd                   0x0800255d   Thumb Code    26  stm32f4xx_rcc.o(i.RCC_AHB2PeriphClockCmd)
    RCC_APB1PeriphClockCmd                   0x0800257d   Thumb Code    26  stm32f4xx_rcc.o(i.RCC_APB1PeriphClockCmd)
    RCC_APB2PeriphClockCmd                   0x0800259d   Thumb Code    26  stm32f4xx_rcc.o(i.RCC_APB2PeriphClockCmd)
    RCC_APB2PeriphResetCmd                   0x080025bd   Thumb Code    26  stm32f4xx_rcc.o(i.RCC_APB2PeriphResetCmd)
    RCC_GetClocksFreq                        0x080025dd   Thumb Code   214  stm32f4xx_rcc.o(i.RCC_GetClocksFreq)
    SCSI_ProcessCmd                          0x080027a9   Thumb Code   210  usbd_msc_scsi.o(i.SCSI_ProcessCmd)
    SCSI_SenseCode                           0x08002ca1   Thumb Code    50  usbd_msc_scsi.o(i.SCSI_SenseCode)
    SDIO_ClearFlag                           0x08002fdd   Thumb Code     6  stm32f4xx_sdio.o(i.SDIO_ClearFlag)
    SDIO_ClearITPendingBit                   0x08002fe9   Thumb Code     6  stm32f4xx_sdio.o(i.SDIO_ClearITPendingBit)
    SDIO_ClockCmd                            0x08002ff5   Thumb Code     6  stm32f4xx_sdio.o(i.SDIO_ClockCmd)
    SDIO_DMACmd                              0x08003001   Thumb Code     6  stm32f4xx_sdio.o(i.SDIO_DMACmd)
    SDIO_DataConfig                          0x0800300d   Thumb Code    46  stm32f4xx_sdio.o(i.SDIO_DataConfig)
    SDIO_DeInit                              0x08003041   Thumb Code    22  stm32f4xx_sdio.o(i.SDIO_DeInit)
    SDIO_GetCommandResponse                  0x08003059   Thumb Code     8  stm32f4xx_sdio.o(i.SDIO_GetCommandResponse)
    SDIO_GetFlagStatus                       0x08003065   Thumb Code    20  stm32f4xx_sdio.o(i.SDIO_GetFlagStatus)
    SDIO_GetITStatus                         0x0800307d   Thumb Code    20  stm32f4xx_sdio.o(i.SDIO_GetITStatus)
    SDIO_GetPowerState                       0x08003095   Thumb Code    10  stm32f4xx_sdio.o(i.SDIO_GetPowerState)
    SDIO_GetResponse                         0x080030a5   Thumb Code    20  stm32f4xx_sdio.o(i.SDIO_GetResponse)
    SDIO_IRQHandler                          0x080030bd   Thumb Code     8  bsp_sdio_sd.o(i.SDIO_IRQHandler)
    SDIO_ITConfig                            0x080030c5   Thumb Code    26  stm32f4xx_sdio.o(i.SDIO_ITConfig)
    SDIO_Init                                0x080030e5   Thumb Code    42  stm32f4xx_sdio.o(i.SDIO_Init)
    SDIO_Interrupts_Config                   0x08003115   Thumb Code    58  bsp_sdio_sd.o(i.SDIO_Interrupts_Config)
    SDIO_ReadData                            0x08003151   Thumb Code     6  stm32f4xx_sdio.o(i.SDIO_ReadData)
    SDIO_SendCommand                         0x0800315d   Thumb Code    40  stm32f4xx_sdio.o(i.SDIO_SendCommand)
    SDIO_SetPowerState                       0x08003189   Thumb Code     6  stm32f4xx_sdio.o(i.SDIO_SetPowerState)
    SD_Detect                                0x08003195   Thumb Code    12  bsp_sdio_sd.o(i.SD_Detect)
    SD_EnableWideBusOperation                0x080031a1   Thumb Code   136  bsp_sdio_sd.o(i.SD_EnableWideBusOperation)
    SD_GetCardInfo                           0x08003231   Thumb Code   762  bsp_sdio_sd.o(i.SD_GetCardInfo)
    SD_GetState                              0x0800353d   Thumb Code    38  bsp_sdio_sd.o(i.SD_GetState)
    SD_GetStatus                             0x08003563   Thumb Code    30  bsp_sdio_sd.o(i.SD_GetStatus)
    SD_Init                                  0x08003581   Thumb Code   126  bsp_sdio_sd.o(i.SD_Init)
    SD_InitializeCards                       0x08003609   Thumb Code   294  bsp_sdio_sd.o(i.SD_InitializeCards)
    SD_LowLevel_DMA_RxConfig                 0x08003745   Thumb Code   132  bsp_sdio_sd.o(i.SD_LowLevel_DMA_RxConfig)
    SD_LowLevel_DMA_TxConfig                 0x080037d1   Thumb Code   134  bsp_sdio_sd.o(i.SD_LowLevel_DMA_TxConfig)
    SD_LowLevel_Init                         0x08003861   Thumb Code   182  bsp_sdio_sd.o(i.SD_LowLevel_Init)
    SD_PowerON                               0x08003925   Thumb Code   400  bsp_sdio_sd.o(i.SD_PowerON)
    SD_ProcessDMAIRQ                         0x08003ac5   Thumb Code    32  bsp_sdio_sd.o(i.SD_ProcessDMAIRQ)
    SD_ProcessIRQSrc                         0x08003aed   Thumb Code   162  bsp_sdio_sd.o(i.SD_ProcessIRQSrc)
    SD_ReadBlock                             0x08003b99   Thumb Code   194  bsp_sdio_sd.o(i.SD_ReadBlock)
    SD_ReadMultiBlocks                       0x08003c79   Thumb Code   204  bsp_sdio_sd.o(i.SD_ReadMultiBlocks)
    SD_SelectDeselect                        0x08003d61   Thumb Code    48  bsp_sdio_sd.o(i.SD_SelectDeselect)
    SD_SendStatus                            0x08003d95   Thumb Code    74  bsp_sdio_sd.o(i.SD_SendStatus)
    SD_StopTransfer                          0x08003de9   Thumb Code    46  bsp_sdio_sd.o(i.SD_StopTransfer)
    SD_WaitReadOperation                     0x08003e1d   Thumb Code   108  bsp_sdio_sd.o(i.SD_WaitReadOperation)
    SD_WaitWriteOperation                    0x08003e9d   Thumb Code   108  bsp_sdio_sd.o(i.SD_WaitWriteOperation)
    SD_WriteBlock                            0x08003f1d   Thumb Code   192  bsp_sdio_sd.o(i.SD_WriteBlock)
    SD_WriteMultiBlocks                      0x08003ff9   Thumb Code   294  bsp_sdio_sd.o(i.SD_WriteMultiBlocks)
    SD_disk_initialize                       0x08004141   Thumb Code    18  diskio.o(i.SD_disk_initialize)
    SPI_Cmd                                  0x08004153   Thumb Code    24  stm32f4xx_spi.o(i.SPI_Cmd)
    SPI_I2S_GetFlagStatus                    0x0800416b   Thumb Code    18  stm32f4xx_spi.o(i.SPI_I2S_GetFlagStatus)
    SPI_I2S_ReceiveData                      0x0800417d   Thumb Code     6  stm32f4xx_spi.o(i.SPI_I2S_ReceiveData)
    SPI_I2S_SendData                         0x08004183   Thumb Code     4  stm32f4xx_spi.o(i.SPI_I2S_SendData)
    SPI_Init                                 0x08004187   Thumb Code    60  stm32f4xx_spi.o(i.SPI_Init)
    STORAGE_GetCapacity                      0x080041c5   Thumb Code    60  usbd_storage_msd.o(i.STORAGE_GetCapacity)
    STORAGE_GetMaxLun                        0x08004221   Thumb Code     4  usbd_storage_msd.o(i.STORAGE_GetMaxLun)
    STORAGE_Init                             0x08004225   Thumb Code    26  usbd_storage_msd.o(i.STORAGE_Init)
    STORAGE_IsReady                          0x08004259   Thumb Code    46  usbd_storage_msd.o(i.STORAGE_IsReady)
    STORAGE_IsWriteProtected                 0x0800428d   Thumb Code    14  usbd_storage_msd.o(i.STORAGE_IsWriteProtected)
    STORAGE_Read                             0x080042bd   Thumb Code    60  usbd_storage_msd.o(i.STORAGE_Read)
    STORAGE_Write                            0x080042fd   Thumb Code    60  usbd_storage_msd.o(i.STORAGE_Write)
    SVC_Handler                              0x0800433d   Thumb Code     2  stm32f4xx_it.o(i.SVC_Handler)
    SWD_Transfer                             0x0800433f   Thumb Code    44  bsp_swd.o(i.SWD_Transfer)
    SWD_TransferOnce                         0x0800436d   Thumb Code   550  bsp_swd.o(i.SWD_TransferOnce)
    SWD_UpData                               0x08004599   Thumb Code   328  bsp_swd_flash.o(i.SWD_UpData)
    SWJ_InitDebug                            0x08004775   Thumb Code   110  bsp_swd.o(i.SWJ_InitDebug)
    SWJ_JTAG2SWD                             0x080047fd   Thumb Code    72  bsp_swd.o(i.SWJ_JTAG2SWD)
    SWJ_ReadDP                               0x08004931   Thumb Code    44  bsp_swd.o(i.SWJ_ReadDP)
    SWJ_ReadMem                              0x08004997   Thumb Code    20  bsp_swd.o(i.SWJ_ReadMem)
    SWJ_ReadMem32                            0x080049ad   Thumb Code    28  bsp_swd.o(i.SWJ_ReadMem32)
    SWJ_SetTargetReset                       0x08004a15   Thumb Code    28  bsp_swd.o(i.SWJ_SetTargetReset)
    SWJ_SetTargetState                       0x08004a39   Thumb Code   398  bsp_swd.o(i.SWJ_SetTargetState)
    SWJ_WriteAP                              0x08004c2d   Thumb Code    76  bsp_swd.o(i.SWJ_WriteAP)
    SWJ_WriteDP                              0x08004d39   Thumb Code    36  bsp_swd.o(i.SWJ_WriteDP)
    SWJ_WriteMem                             0x08004d93   Thumb Code    20  bsp_swd.o(i.SWJ_WriteMem)
    SWJ_WriteMem32                           0x08004da9   Thumb Code    28  bsp_swd.o(i.SWJ_WriteMem32)
    SW_CLOCK_CYCLE                           0x08004df5   Thumb Code    20  bsp_swd.o(i.SW_CLOCK_CYCLE)
    SW_Off                                   0x08004e0d   Thumb Code    46  bsp_swd.o(i.SW_Off)
    SW_READ_BIT                              0x08004e41   Thumb Code    32  bsp_swd.o(i.SW_READ_BIT)
    SW_WRITE_BIT                             0x08004e65   Thumb Code    20  bsp_swd.o(i.SW_WRITE_BIT)
    SysTick_Handler                          0x08004f65   Thumb Code     8  bsp_timer.o(i.SysTick_Handler)
    SysTick_ISR                              0x08004f6d   Thumb Code   110  bsp_timer.o(i.SysTick_ISR)
    SystemInit                               0x08004ff1   Thumb Code    88  system_stm32f4xx.o(i.SystemInit)
    TIM5_IRQHandler                          0x08005059   Thumb Code   140  bsp_timer.o(i.TIM5_IRQHandler)
    TIM_ARRPreloadConfig                     0x080050f9   Thumb Code    24  stm32f4xx_tim.o(i.TIM_ARRPreloadConfig)
    TIM_ClearITPendingBit                    0x08005111   Thumb Code     6  stm32f4xx_tim.o(i.TIM_ClearITPendingBit)
    TIM_Cmd                                  0x08005117   Thumb Code    24  stm32f4xx_tim.o(i.TIM_Cmd)
    TIM_CtrlPWMOutputs                       0x0800512f   Thumb Code    30  stm32f4xx_tim.o(i.TIM_CtrlPWMOutputs)
    TIM_GetITStatus                          0x0800514d   Thumb Code    34  stm32f4xx_tim.o(i.TIM_GetITStatus)
    TIM_ITConfig                             0x0800516f   Thumb Code    18  stm32f4xx_tim.o(i.TIM_ITConfig)
    TIM_OC1Init                              0x08005181   Thumb Code   114  stm32f4xx_tim.o(i.TIM_OC1Init)
    TIM_OC1PreloadConfig                     0x080051fd   Thumb Code    18  stm32f4xx_tim.o(i.TIM_OC1PreloadConfig)
    TIM_OC2Init                              0x08005211   Thumb Code   154  stm32f4xx_tim.o(i.TIM_OC2Init)
    TIM_OC2PreloadConfig                     0x080052b5   Thumb Code    26  stm32f4xx_tim.o(i.TIM_OC2PreloadConfig)
    TIM_OC3Init                              0x080052d1   Thumb Code   150  stm32f4xx_tim.o(i.TIM_OC3Init)
    TIM_OC3PreloadConfig                     0x08005371   Thumb Code    18  stm32f4xx_tim.o(i.TIM_OC3PreloadConfig)
    TIM_OC4Init                              0x08005385   Thumb Code   112  stm32f4xx_tim.o(i.TIM_OC4Init)
    TIM_OC4PreloadConfig                     0x080053fd   Thumb Code    26  stm32f4xx_tim.o(i.TIM_OC4PreloadConfig)
    TIM_TimeBaseInit                         0x08005419   Thumb Code   104  stm32f4xx_tim.o(i.TIM_TimeBaseInit)
    USART1_IRQHandler                        0x0800549d   Thumb Code    10  bsp_uart_fifo.o(i.USART1_IRQHandler)
    USART6_IRQHandler                        0x080054ad   Thumb Code    10  bsp_uart_fifo.o(i.USART6_IRQHandler)
    USART_ClearFlag                          0x080054bd   Thumb Code    18  stm32f4xx_usart.o(i.USART_ClearFlag)
    USART_Cmd                                0x080054cf   Thumb Code    24  stm32f4xx_usart.o(i.USART_Cmd)
    USART_GetFlagStatus                      0x080054e7   Thumb Code    26  stm32f4xx_usart.o(i.USART_GetFlagStatus)
    USART_GetITStatus                        0x08005501   Thumb Code    84  stm32f4xx_usart.o(i.USART_GetITStatus)
    USART_ITConfig                           0x08005555   Thumb Code    74  stm32f4xx_usart.o(i.USART_ITConfig)
    USART_Init                               0x080055a1   Thumb Code   204  stm32f4xx_usart.o(i.USART_Init)
    USART_ReceiveData                        0x08005675   Thumb Code    10  stm32f4xx_usart.o(i.USART_ReceiveData)
    USART_SendData                           0x0800567f   Thumb Code     8  stm32f4xx_usart.o(i.USART_SendData)
    USBD_ClrCfg                              0x08005687   Thumb Code    22  usbd_core.o(i.USBD_ClrCfg)
    USBD_CtlContinueRx                       0x080056e5   Thumb Code    30  usbd_ioreq.o(i.USBD_CtlContinueRx)
    USBD_CtlContinueSendData                 0x08005703   Thumb Code    30  usbd_ioreq.o(i.USBD_CtlContinueSendData)
    USBD_CtlError                            0x08005721   Thumb Code    30  usbd_req.o(i.USBD_CtlError)
    USBD_CtlReceiveStatus                    0x0800573f   Thumb Code    36  usbd_ioreq.o(i.USBD_CtlReceiveStatus)
    USBD_CtlSendData                         0x08005763   Thumb Code    46  usbd_ioreq.o(i.USBD_CtlSendData)
    USBD_CtlSendStatus                       0x08005791   Thumb Code    36  usbd_ioreq.o(i.USBD_CtlSendStatus)
    USBD_DeInit                              0x0800591b   Thumb Code     6  usbd_core.o(i.USBD_DeInit)
    USBD_GetRxCount                          0x08005aab   Thumb Code    20  usbd_ioreq.o(i.USBD_GetRxCount)
    USBD_GetString                           0x08005b11   Thumb Code    82  usbd_req.o(i.USBD_GetString)
    USBD_Init                                0x08005b63   Thumb Code    66  usbd_core.o(i.USBD_Init)
    USBD_MSC_DataIn                          0x08005bc9   Thumb Code    18  usbd_msc_core.o(i.USBD_MSC_DataIn)
    USBD_MSC_DataOut                         0x08005bdb   Thumb Code    18  usbd_msc_core.o(i.USBD_MSC_DataOut)
    USBD_MSC_DeInit                          0x08005bed   Thumb Code    32  usbd_msc_core.o(i.USBD_MSC_DeInit)
    USBD_MSC_GetCfgDesc                      0x08005c0d   Thumb Code    10  usbd_msc_core.o(i.USBD_MSC_GetCfgDesc)
    USBD_MSC_Init                            0x08005c1d   Thumb Code    48  usbd_msc_core.o(i.USBD_MSC_Init)
    USBD_MSC_Setup                           0x08005c4d   Thumb Code   276  usbd_msc_core.o(i.USBD_MSC_Setup)
    USBD_OTG_ISR_Handler                     0x08005d6d   Thumb Code   224  usb_dcd_int.o(i.USBD_OTG_ISR_Handler)
    USBD_ParseSetupRequest                   0x08005e4d   Thumb Code    72  usbd_req.o(i.USBD_ParseSetupRequest)
    USBD_SetCfg                              0x08005f6f   Thumb Code    30  usbd_core.o(i.USBD_SetCfg)
    USBD_StdDevReq                           0x08006155   Thumb Code   114  usbd_req.o(i.USBD_StdDevReq)
    USBD_StdEPReq                            0x080061c9   Thumb Code   344  usbd_req.o(i.USBD_StdEPReq)
    USBD_StdItfReq                           0x08006325   Thumb Code    76  usbd_req.o(i.USBD_StdItfReq)
    USBD_USR_ConfigStrDescriptor             0x08006391   Thumb Code    34  usbd_desc.o(i.USBD_USR_ConfigStrDescriptor)
    USBD_USR_DeviceConfigured                0x080063c5   Thumb Code    10  usbd_usr.o(i.USBD_USR_DeviceConfigured)
    USBD_USR_DeviceConnected                 0x080063ed   Thumb Code    10  usbd_usr.o(i.USBD_USR_DeviceConnected)
    USBD_USR_DeviceDescriptor                0x08006415   Thumb Code    10  usbd_desc.o(i.USBD_USR_DeviceDescriptor)
    USBD_USR_DeviceDisconnected              0x08006425   Thumb Code    10  usbd_usr.o(i.USBD_USR_DeviceDisconnected)
    USBD_USR_DeviceReset                     0x08006451   Thumb Code    40  usbd_usr.o(i.USBD_USR_DeviceReset)
    USBD_USR_DeviceResumed                   0x080064e9   Thumb Code    10  usbd_usr.o(i.USBD_USR_DeviceResumed)
    USBD_USR_DeviceSuspended                 0x08006509   Thumb Code    10  usbd_usr.o(i.USBD_USR_DeviceSuspended)
    USBD_USR_Init                            0x08006531   Thumb Code    10  usbd_usr.o(i.USBD_USR_Init)
    USBD_USR_InterfaceStrDescriptor          0x08006551   Thumb Code    34  usbd_desc.o(i.USBD_USR_InterfaceStrDescriptor)
    USBD_USR_LangIDStrDescriptor             0x08006589   Thumb Code    10  usbd_desc.o(i.USBD_USR_LangIDStrDescriptor)
    USBD_USR_ManufacturerStrDescriptor       0x08006599   Thumb Code    20  usbd_desc.o(i.USBD_USR_ManufacturerStrDescriptor)
    USBD_USR_ProductStrDescriptor            0x080065c5   Thumb Code    34  usbd_desc.o(i.USBD_USR_ProductStrDescriptor)
    USBD_USR_SerialStrDescriptor             0x0800661d   Thumb Code    34  usbd_desc.o(i.USBD_USR_SerialStrDescriptor)
    USB_OTG_BSP_EnableInterrupt              0x08006665   Thumb Code    44  usb_bsp.o(i.USB_OTG_BSP_EnableInterrupt)
    USB_OTG_BSP_Init                         0x08006691   Thumb Code    86  usb_bsp.o(i.USB_OTG_BSP_Init)
    USB_OTG_BSP_mDelay                       0x080066ed   Thumb Code    18  usb_bsp.o(i.USB_OTG_BSP_mDelay)
    USB_OTG_BSP_uDelay                       0x080066ff   Thumb Code    22  usb_bsp.o(i.USB_OTG_BSP_uDelay)
    USB_OTG_CoreInit                         0x08006715   Thumb Code   294  usb_core.o(i.USB_OTG_CoreInit)
    USB_OTG_CoreInitDev                      0x0800683b   Thumb Code   522  usb_core.o(i.USB_OTG_CoreInitDev)
    USB_OTG_DisableGlobalInt                 0x08006ab5   Thumb Code    34  usb_core.o(i.USB_OTG_DisableGlobalInt)
    USB_OTG_EP0Activate                      0x08006ad7   Thumb Code   106  usb_core.o(i.USB_OTG_EP0Activate)
    USB_OTG_EP0StartXfer                     0x08006b41   Thumb Code   342  usb_core.o(i.USB_OTG_EP0StartXfer)
    USB_OTG_EP0_OutStart                     0x08006c97   Thumb Code    98  usb_core.o(i.USB_OTG_EP0_OutStart)
    USB_OTG_EPActivate                       0x08006cf9   Thumb Code   152  usb_core.o(i.USB_OTG_EPActivate)
    USB_OTG_EPClearStall                     0x08006d91   Thumb Code    80  usb_core.o(i.USB_OTG_EPClearStall)
    USB_OTG_EPDeactivate                     0x08006de1   Thumb Code    94  usb_core.o(i.USB_OTG_EPDeactivate)
    USB_OTG_EPSetStall                       0x08006e3f   Thumb Code   100  usb_core.o(i.USB_OTG_EPSetStall)
    USB_OTG_EPStartXfer                      0x08006ea3   Thumb Code   502  usb_core.o(i.USB_OTG_EPStartXfer)
    USB_OTG_EnableDevInt                     0x080070cd   Thumb Code   154  usb_core.o(i.USB_OTG_EnableDevInt)
    USB_OTG_EnableGlobalInt                  0x08007167   Thumb Code    34  usb_core.o(i.USB_OTG_EnableGlobalInt)
    USB_OTG_FlushRxFifo                      0x08007189   Thumb Code    70  usb_core.o(i.USB_OTG_FlushRxFifo)
    USB_OTG_FlushTxFifo                      0x080071d5   Thumb Code    80  usb_core.o(i.USB_OTG_FlushTxFifo)
    USB_OTG_GetDeviceSpeed                   0x08007229   Thumb Code    52  usb_core.o(i.USB_OTG_GetDeviceSpeed)
    USB_OTG_GetMode                          0x0800725d   Thumb Code    12  usb_core.o(i.USB_OTG_GetMode)
    USB_OTG_InitDevSpeed                     0x08007269   Thumb Code    24  usb_core.o(i.USB_OTG_InitDevSpeed)
    USB_OTG_IsDeviceMode                     0x08007281   Thumb Code    22  usb_core.o(i.USB_OTG_IsDeviceMode)
    USB_OTG_ReadCoreItr                      0x08007297   Thumb Code    16  usb_core.o(i.USB_OTG_ReadCoreItr)
    USB_OTG_ReadDevAllInEPItr                0x080072a7   Thumb Code    16  usb_core.o(i.USB_OTG_ReadDevAllInEPItr)
    USB_OTG_ReadDevAllOutEp_itr              0x080072b7   Thumb Code    16  usb_core.o(i.USB_OTG_ReadDevAllOutEp_itr)
    USB_OTG_ReadDevOutEP_itr                 0x080072c7   Thumb Code    20  usb_core.o(i.USB_OTG_ReadDevOutEP_itr)
    USB_OTG_ReadPacket                       0x080072db   Thumb Code    40  usb_core.o(i.USB_OTG_ReadPacket)
    USB_OTG_SelectCore                       0x08007305   Thumb Code   204  usb_core.o(i.USB_OTG_SelectCore)
    USB_OTG_SetCurrentMode                   0x080073d5   Thumb Code    78  usb_core.o(i.USB_OTG_SetCurrentMode)
    USB_OTG_WritePacket                      0x08007423   Thumb Code    64  usb_core.o(i.USB_OTG_WritePacket)
    UsageFault_Handler                       0x080075cd   Thumb Code     4  stm32f4xx_it.o(i.UsageFault_Handler)
    ViewRootDir                              0x080075d1   Thumb Code   166  demo_sdio_fatfs.o(i.ViewRootDir)
    __0printf$8                              0x08007701   Thumb Code    22  printf8.o(i.__0printf$8)
    __1printf$8                              0x08007701   Thumb Code     0  printf8.o(i.__0printf$8)
    __2printf                                0x08007701   Thumb Code     0  printf8.o(i.__0printf$8)
    __scatterload_copy                       0x08007721   Thumb Code    14  handlers.o(i.__scatterload_copy)
    __scatterload_null                       0x0800772f   Thumb Code     2  handlers.o(i.__scatterload_null)
    __scatterload_zeroinit                   0x08007731   Thumb Code    14  handlers.o(i.__scatterload_zeroinit)
    bsp_CheckTimer                           0x08007c0d   Thumb Code    48  bsp_timer.o(i.bsp_CheckTimer)
    bsp_ConfigGpioOut                        0x08007c41   Thumb Code    54  bsp_tim_pwm.o(i.bsp_ConfigGpioOut)
    bsp_ConfigTimGpio                        0x08007c79   Thumb Code   150  bsp_tim_pwm.o(i.bsp_ConfigTimGpio)
    bsp_DelayMS                              0x08007d25   Thumb Code    58  bsp_timer.o(i.bsp_DelayMS)
    bsp_GetAFofTIM                           0x08007d69   Thumb Code   144  bsp_tim_pwm.o(i.bsp_GetAFofTIM)
    bsp_GetPinSource                         0x08007e25   Thumb Code   146  bsp_tim_pwm.o(i.bsp_GetPinSource)
    bsp_GetRCCofGPIO                         0x08007eb9   Thumb Code    94  bsp_tim_pwm.o(i.bsp_GetRCCofGPIO)
    bsp_GetRCCofTIM                          0x08007f3d   Thumb Code   150  bsp_tim_pwm.o(i.bsp_GetRCCofTIM)
    bsp_Idle                                 0x08008009   Thumb Code     2  bsp.o(i.bsp_Idle)
    bsp_Init                                 0x0800800b   Thumb Code    38  bsp.o(i.bsp_Init)
    bsp_InitHardTimer                        0x08008031   Thumb Code    92  bsp_timer.o(i.bsp_InitHardTimer)
    bsp_InitKey                              0x08008099   Thumb Code     8  bsp_key.o(i.bsp_InitKey)
    bsp_InitLed                              0x080080d1   Thumb Code    72  bsp_led.o(i.bsp_InitLed)
    bsp_InitSFlash                           0x08008121   Thumb Code   154  bsp_spi_flash.o(i.bsp_InitSFlash)
    bsp_InitTimer                            0x080081c1   Thumb Code   140  bsp_timer.o(i.bsp_InitTimer)
    bsp_InitUart                             0x0800825d   Thumb Code    16  bsp_uart_fifo.o(i.bsp_InitUart)
    bsp_LedOff                               0x0800826d   Thumb Code    24  bsp_led.o(i.bsp_LedOff)
    bsp_RunPer10ms                           0x0800828d   Thumb Code    14  bsp.o(i.bsp_RunPer10ms)
    bsp_RunPer1ms                            0x0800829d   Thumb Code    54  bsp.o(i.bsp_RunPer1ms)
    bsp_SWDInit                              0x080082e1   Thumb Code   100  bsp_swd.o(i.bsp_SWDInit)
    bsp_SetTIMOutPWM                         0x0800834d   Thumb Code   396  bsp_tim_pwm.o(i.bsp_SetTIMOutPWM)
    bsp_StartAutoTimer                       0x0800850d   Thumb Code    84  bsp_timer.o(i.bsp_StartAutoTimer)
    clust2sect                               0x08008aa9   Thumb Code    26  ff.o(i.clust2sect)
    disk_initialize                          0x0800903b   Thumb Code    32  diskio.o(i.disk_initialize)
    disk_ioctl                               0x0800905b   Thumb Code    30  diskio.o(i.disk_ioctl)
    disk_read                                0x08009079   Thumb Code   110  diskio.o(i.disk_read)
    disk_status                              0x080090e7   Thumb Code    24  diskio.o(i.disk_status)
    disk_write                               0x080090ff   Thumb Code   128  diskio.o(i.disk_write)
    f_close                                  0x080091a9   Thumb Code    32  ff.o(i.f_close)
    f_mount                                  0x080091c9   Thumb Code    48  ff.o(i.f_mount)
    f_open                                   0x080091fd   Thumb Code   408  ff.o(i.f_open)
    f_opendir                                0x08009395   Thumb Code   112  ff.o(i.f_opendir)
    f_read                                   0x08009405   Thumb Code   458  ff.o(i.f_read)
    f_readdir                                0x080095cf   Thumb Code    88  ff.o(i.f_readdir)
    f_stat                                   0x08009627   Thumb Code    58  ff.o(i.f_stat)
    f_sync                                   0x08009661   Thumb Code   176  ff.o(i.f_sync)
    fputc                                    0x080097a5   Thumb Code    32  bsp_uart_fifo.o(i.fputc)
    get_fat                                  0x080097c9   Thumb Code   228  ff.o(i.get_fat)
    get_fattime                              0x080098ad   Thumb Code     4  diskio.o(i.get_fattime)
    isFull                                   0x08009a29   Thumb Code    48  bsp_protocol.o(i.isFull)
    main                                     0x08009a81   Thumb Code   204  main.o(i.main)
    pushBuff                                 0x08009c05   Thumb Code    66  bsp_protocol.o(i.pushBuff)
    put_fat                                  0x08009c59   Thumb Code   310  ff.o(i.put_fat)
    sf_ReadID                                0x08009df9   Thumb Code    62  bsp_spi_flash.o(i.sf_ReadID)
    sf_ReadInfo                              0x08009e3d   Thumb Code   198  bsp_spi_flash.o(i.sf_ReadInfo)
    swd_flash_syscall_exec                   0x0800a031   Thumb Code   152  bsp_swd.o(i.swd_flash_syscall_exec)
    swd_read_memory                          0x0800a19d   Thumb Code   106  bsp_swd.o(i.swd_read_memory)
    swd_write_debug_state                    0x0800a209   Thumb Code   106  bsp_swd.o(i.swd_write_debug_state)
    swd_write_memory                         0x0800a299   Thumb Code   112  bsp_swd.o(i.swd_write_memory)
    target_flash_erase_chip                  0x0800a441   Thumb Code    46  bsp_swd_flash.o(i.target_flash_erase_chip)
    target_flash_init                        0x0800a4a1   Thumb Code   100  bsp_swd_flash.o(i.target_flash_init)
    target_flash_program_page                0x0800a589   Thumb Code   120  bsp_swd_flash.o(i.target_flash_program_page)
    usbd_OpenMassStorage                     0x0800a65d   Thumb Code    20  usbd_usr.o(i.usbd_OpenMassStorage)
    flash_algo                               0x0800a834   Data          52  bsp_swd_flash.o(.constdata)
    g_Ascii12                                0x0800a868   Data        1524  asc12.o(.constdata)
    g_Ascii16                                0x0800ae5c   Data        4096  asc16.o(.constdata)
    g_Ascii24                                0x0800be5c   Data         492  asc24.o(.constdata)
    g_Ascii32                                0x0800c048   Data         652  asc32.o(.constdata)
    g_Hz12                                   0x0800c2d4   Data        1536  hz12.o(.constdata)
    g_Hz16                                   0x0800c8d4   Data         138  hz16.o(.constdata)
    g_Hz24                                   0x0800c95e   Data          76  hz24.o(.constdata)
    g_Hz32                                   0x0800c9aa   Data         132  hz32.o(.constdata)
    STORAGE_Inquirydata                      0x0800ca2e   Data          36  usbd_storage_msd.o(.constdata)
    MSC_Page00_Inquiry_Data                  0x0800ca52   Data           7  usbd_msc_data.o(.constdata)
    MSC_Mode_Sense6_data                     0x0800ca59   Data           8  usbd_msc_data.o(.constdata)
    MSC_Mode_Sense10_data                    0x0800ca61   Data           8  usbd_msc_data.o(.constdata)
    Region$$Table$$Base                      0x0800ca6c   Number         0  anon$$obj.o(Region$$Table)
    Region$$Table$$Limit                     0x0800ca8c   Number         0  anon$$obj.o(Region$$Table)
    g_iRunTime                               0x20000008   Data           4  bsp_timer.o(.data)
    StopCondition                            0x20000028   Data           4  bsp_sdio_sd.o(.data)
    TransferError                            0x2000002c   Data           1  bsp_sdio_sd.o(.data)
    TransferEnd                              0x20000030   Data           4  bsp_sdio_sd.o(.data)
    DMAEndOfTransfer                         0x20000034   Data           4  bsp_sdio_sd.o(.data)
    COM1_Rx_Sta                              0x2000003a   Data           1  bsp_protocol.o(.data)
    COM1Receive                              0x2000003c   Data           4  bsp_protocol.o(.data)
    tFont12                                  0x20000040   Data           8  main.o(.data)
    tFont16                                  0x20000048   Data           8  main.o(.data)
    tFont24                                  0x20000050   Data           8  main.o(.data)
    tFont32                                  0x20000058   Data           8  main.o(.data)
    CRCTest                                  0x20000060   Data          10  main.o(.data)
    Maintask_Status                          0x2000006a   Data           1  main.o(.data)
    IAP_t                                    0x2000006c   Data           6  iap.o(.data)
    IAPState                                 0x20000072   Data           1  iap.o(.data)
    sector                                   0x20000074   Data           4  iap.o(.data)
    result                                   0x20000078   Data           1  iap.o(.data)
    bw                                       0x2000007c   Data           4  iap.o(.data)
    Flash_Page_Size                          0x20000080   Data           4  bsp_swd_flash.o(.data)
    Flash_Start_Addr                         0x20000084   Data           4  bsp_swd_flash.o(.data)
    SystemCoreClock                          0x20000098   Data           4  system_stm32f4xx.o(.data)
    AHBPrescTable                            0x2000009c   Data          16  system_stm32f4xx.o(.data)
    USR_desc                                 0x200000b4   Data          28  usbd_desc.o(.data)
    USBD_DeviceDesc                          0x200000d0   Data          18  usbd_desc.o(.data)
    USBD_DeviceQualifierDesc                 0x200000e2   Data          10  usbd_desc.o(.data)
    USBD_LangIDDesc                          0x200000ec   Data           4  usbd_desc.o(.data)
    USBD_user_fops                           0x200000f0   Data          32  usbd_storage_msd.o(.data)
    USBD_STORAGE_fops                        0x20000110   Data           4  usbd_storage_msd.o(.data)
    count                                    0x20000114   Data           4  usbd_storage_msd.o(.data)
    USRD_cb                                  0x2000011c   Data          28  usbd_usr.o(.data)
    SET_TEST_MODE                            0x20000138   Data           4  usbd_core.o(.data)
    USBD_DCD_INT_cb                          0x2000013c   Data          44  usbd_core.o(.data)
    USBD_DCD_INT_fops                        0x20000168   Data           4  usbd_core.o(.data)
    USBD_ep_status                           0x2000016c   Data           4  usbd_req.o(.data)
    USBD_default_cfg                         0x20000170   Data           4  usbd_req.o(.data)
    USBD_cfg_status                          0x20000174   Data           4  usbd_req.o(.data)
    MSC_BOT_DataLen                          0x2000017a   Data           2  usbd_msc_bot.o(.data)
    MSC_BOT_State                            0x2000017c   Data           1  usbd_msc_bot.o(.data)
    MSC_BOT_Status                           0x2000017d   Data           1  usbd_msc_bot.o(.data)
    USBD_MSC_cb                              0x20000180   Data          44  usbd_msc_core.o(.data)
    USBD_MSC_CfgDesc                         0x200001ac   Data          32  usbd_msc_core.o(.data)
    SCSI_Sense_Head                          0x200001d0   Data           1  usbd_msc_scsi.o(.data)
    SCSI_Sense_Tail                          0x200001d1   Data           1  usbd_msc_scsi.o(.data)
    SCSI_blk_size                            0x200001d4   Data           4  usbd_msc_scsi.o(.data)
    SCSI_blk_nbr                             0x200001d8   Data           4  usbd_msc_scsi.o(.data)
    SCSI_blk_addr                            0x200001dc   Data           4  usbd_msc_scsi.o(.data)
    SCSI_blk_len                             0x200001e0   Data           4  usbd_msc_scsi.o(.data)
    cdev                                     0x200001e4   Data           4  usbd_msc_scsi.o(.data)
    __stdout                                 0x200001e8   Data           4  stdout.o(.data)
    SDCardInfo                               0x20000ec0   Data          88  bsp_sdio_sd.o(.bss)
    SDIO_InitStructure                       0x20000f18   Data          24  bsp_sdio_sd.o(.bss)
    SDIO_CmdInitStructure                    0x20000f30   Data          20  bsp_sdio_sd.o(.bss)
    SDIO_DataInitStructure                   0x20000f44   Data          24  bsp_sdio_sd.o(.bss)
    g_tSF                                    0x2000135c   Data          28  bsp_spi_flash.o(.bss)
    COM1_Buf                                 0x20002384   Data        2660  bsp_protocol.o(.bss)
    COM1Temp                                 0x20002de8   Data         532  bsp_protocol.o(.bss)
    g_TestBuf                                0x20002ffc   Data        4096  demo_sdio_fatfs.o(.bss)
    File_buf                                 0x20003ffc   Data        1024  demo_sdio_fatfs.o(.bss)
    fs                                       0x200043fc   Data         564  iap.o(.bss)
    file                                     0x20004630   Data         552  iap.o(.bss)
    DirInf                                   0x20004858   Data          28  iap.o(.bss)
    FileInf                                  0x20004874   Data          24  iap.o(.bss)
    buff                                     0x2000488c   Data        1024  bsp_swd_flash.o(.bss)
    USB_OTG_dev                              0x20004cb0   Data        1524  usbd_usr.o(.bss)
    USBD_StrDesc                             0x200052a4   Data          64  usbd_req.o(.bss)
    MSC_BOT_Data                             0x200052e4   Data        4096  usbd_msc_bot.o(.bss)
    MSC_BOT_cbw                              0x200062e4   Data          32  usbd_msc_bot.o(.bss)
    MSC_BOT_csw                              0x20006304   Data          16  usbd_msc_bot.o(.bss)
    SCSI_Sense                               0x20006314   Data          32  usbd_msc_scsi.o(.bss)
    __initial_sp                             0x2000a338   Data           0  startup_stm32f401xx.o(STACK)



==============================================================================

Memory Map of the image

  Image Entry point : 0x08000195

  Load Region LR_IROM1 (Base: 0x08000000, Size: 0x0000cc78, Max: 0x00040000, ABSOLUTE, COMPRESSED[0x0000cb70])

    Execution Region ER_IROM1 (Exec base: 0x08000000, Load base: 0x08000000, Size: 0x0000ca8c, Max: 0x00040000, ABSOLUTE)

    Exec Addr    Load Addr    Size         Type   Attr      Idx    E Section Name        Object

    0x08000000   0x08000000   0x00000194   Data   RO         7027    RESET               startup_stm32f401xx.o
    0x08000194   0x08000194   0x00000000   Code   RO         8725  * .ARM.Collect$$$$00000000  mc_w.l(entry.o)
    0x08000194   0x08000194   0x00000004   Code   RO         9035    .ARM.Collect$$$$00000001  mc_w.l(entry2.o)
    0x08000198   0x08000198   0x00000004   Code   RO         9038    .ARM.Collect$$$$00000004  mc_w.l(entry5.o)
    0x0800019c   0x0800019c   0x00000000   Code   RO         9040    .ARM.Collect$$$$00000008  mc_w.l(entry7b.o)
    0x0800019c   0x0800019c   0x00000000   Code   RO         9042    .ARM.Collect$$$$0000000A  mc_w.l(entry8b.o)
    0x0800019c   0x0800019c   0x00000008   Code   RO         9043    .ARM.Collect$$$$0000000B  mc_w.l(entry9a.o)
    0x080001a4   0x080001a4   0x00000000   Code   RO         9045    .ARM.Collect$$$$0000000D  mc_w.l(entry10a.o)
    0x080001a4   0x080001a4   0x00000000   Code   RO         9047    .ARM.Collect$$$$0000000F  mc_w.l(entry11a.o)
    0x080001a4   0x080001a4   0x00000004   Code   RO         9036    .ARM.Collect$$$$00002712  mc_w.l(entry2.o)
    0x080001a8   0x080001a8   0x00000024   Code   RO         7028    .text               startup_stm32f401xx.o
    0x080001cc   0x080001cc   0x00000062   Code   RO         8728    .text               mc_w.l(uldiv.o)
    0x0800022e   0x0800022e   0x00000024   Code   RO         8732    .text               mc_w.l(memcpya.o)
    0x08000252   0x08000252   0x00000024   Code   RO         8734    .text               mc_w.l(memseta.o)
    0x08000276   0x08000276   0x00000012   Code   RO         8742    .text               mc_w.l(strcpy.o)
    0x08000288   0x08000288   0x0000001e   Code   RO         9052    .text               mc_w.l(llshl.o)
    0x080002a6   0x080002a6   0x00000020   Code   RO         9054    .text               mc_w.l(llushr.o)
    0x080002c6   0x080002c6   0x00000002   PAD
    0x080002c8   0x080002c8   0x00000024   Code   RO         9069    .text               mc_w.l(init.o)
    0x080002ec   0x080002ec   0x00000056   Code   RO         9083    .text               mc_w.l(__dczerorl2.o)
    0x08000342   0x08000342   0x0000000e   Code   RO         1429    i.BEEP_KeyTone      bsp_beep.o
    0x08000350   0x08000350   0x000000c8   Code   RO         1430    i.BEEP_Pro          bsp_beep.o
    0x08000418   0x08000418   0x00000048   Code   RO         1431    i.BEEP_Start        bsp_beep.o
    0x08000460   0x08000460   0x00000034   Code   RO         1432    i.BEEP_Stop         bsp_beep.o
    0x08000494   0x08000494   0x00000004   Code   RO          118    i.BusFault_Handler  stm32f4xx_it.o
    0x08000498   0x08000498   0x00000084   Code   RO         1544    i.COM1_Recieve_Callback  bsp_protocol.o
    0x0800051c   0x0800051c   0x0000001a   Code   RO         2064    i.CloseFile         iap.o
    0x08000536   0x08000536   0x0000002c   Code   RO          905    i.CmdError          bsp_sdio_sd.o
    0x08000562   0x08000562   0x00000002   PAD
    0x08000564   0x08000564   0x00000134   Code   RO          906    i.CmdResp1Error     bsp_sdio_sd.o
    0x08000698   0x08000698   0x0000004c   Code   RO          907    i.CmdResp2Error     bsp_sdio_sd.o
    0x080006e4   0x080006e4   0x00000038   Code   RO          908    i.CmdResp3Error     bsp_sdio_sd.o
    0x0800071c   0x0800071c   0x0000009c   Code   RO          909    i.CmdResp6Error     bsp_sdio_sd.o
    0x080007b8   0x080007b8   0x0000004c   Code   RO          910    i.CmdResp7Error     bsp_sdio_sd.o
    0x08000804   0x08000804   0x00000034   Code   RO          662    i.ConfigUartNVIC    bsp_uart_fifo.o
    0x08000838   0x08000838   0x0000004a   Code   RO         8314    i.DCD_EP_Close      usb_dcd.o
    0x08000882   0x08000882   0x00000048   Code   RO         8315    i.DCD_EP_ClrStall   usb_dcd.o
    0x080008ca   0x080008ca   0x00000024   Code   RO         8316    i.DCD_EP_Flush      usb_dcd.o
    0x080008ee   0x080008ee   0x00000068   Code   RO         8317    i.DCD_EP_Open       usb_dcd.o
    0x08000956   0x08000956   0x00000052   Code   RO         8318    i.DCD_EP_PrepareRx  usb_dcd.o
    0x080009a8   0x080009a8   0x0000001c   Code   RO         8319    i.DCD_EP_SetAddress  usb_dcd.o
    0x080009c4   0x080009c4   0x00000048   Code   RO         8320    i.DCD_EP_Stall      usb_dcd.o
    0x08000a0c   0x08000a0c   0x0000004e   Code   RO         8321    i.DCD_EP_Tx         usb_dcd.o
    0x08000a5a   0x08000a5a   0x00000066   Code   RO         8408    i.DCD_HandleEnumDone_ISR  usb_dcd_int.o
    0x08000ac0   0x08000ac0   0x00000144   Code   RO         8409    i.DCD_HandleInEP_ISR  usb_dcd_int.o
    0x08000c04   0x08000c04   0x00000100   Code   RO         8410    i.DCD_HandleOutEP_ISR  usb_dcd_int.o
    0x08000d04   0x08000d04   0x00000068   Code   RO         8411    i.DCD_HandleResume_ISR  usb_dcd_int.o
    0x08000d6c   0x08000d6c   0x000000b0   Code   RO         8412    i.DCD_HandleRxStatusQueueLevel_ISR  usb_dcd_int.o
    0x08000e1c   0x08000e1c   0x0000002c   Code   RO         8413    i.DCD_HandleSof_ISR  usb_dcd_int.o
    0x08000e48   0x08000e48   0x000000a8   Code   RO         8414    i.DCD_HandleUSBSuspend_ISR  usb_dcd_int.o
    0x08000ef0   0x08000ef0   0x00000104   Code   RO         8415    i.DCD_HandleUsbReset_ISR  usb_dcd_int.o
    0x08000ff4   0x08000ff4   0x0000009c   Code   RO         8323    i.DCD_Init          usb_dcd.o
    0x08001090   0x08001090   0x0000002c   Code   RO         8416    i.DCD_IsoINIncomplete_ISR  usb_dcd_int.o
    0x080010bc   0x080010bc   0x0000002c   Code   RO         8417    i.DCD_IsoOUTIncomplete_ISR  usb_dcd_int.o
    0x080010e8   0x080010e8   0x00000028   Code   RO         8418    i.DCD_ReadDevInEP   usb_dcd_int.o
    0x08001110   0x08001110   0x00000090   Code   RO         8419    i.DCD_WriteEmptyTxFifo  usb_dcd_int.o
    0x080011a0   0x080011a0   0x00000008   Code   RO          911    i.DMA2_Stream3_IRQHandler  bsp_sdio_sd.o
    0x080011a8   0x080011a8   0x00000034   Code   RO         3271    i.DMA_ClearFlag     stm32f4xx_dma.o
    0x080011dc   0x080011dc   0x00000016   Code   RO         3273    i.DMA_Cmd           stm32f4xx_dma.o
    0x080011f2   0x080011f2   0x00000002   PAD
    0x080011f4   0x080011f4   0x00000158   Code   RO         3274    i.DMA_DeInit        stm32f4xx_dma.o
    0x0800134c   0x0800134c   0x00000016   Code   RO         3277    i.DMA_FlowControllerConfig  stm32f4xx_dma.o
    0x08001362   0x08001362   0x0000003a   Code   RO         3284    i.DMA_ITConfig      stm32f4xx_dma.o
    0x0800139c   0x0800139c   0x00000058   Code   RO         3285    i.DMA_Init          stm32f4xx_dma.o
    0x080013f4   0x080013f4   0x00000002   Code   RO          119    i.DebugMon_Handler  stm32f4xx_it.o
    0x080013f6   0x080013f6   0x00000002   PAD
    0x080013f8   0x080013f8   0x00000194   Code   RO          912    i.FindSCR           bsp_sdio_sd.o
    0x0800158c   0x0800158c   0x00000090   Code   RO         3917    i.GPIO_Init         stm32f4xx_gpio.o
    0x0800161c   0x0800161c   0x00000046   Code   RO         3918    i.GPIO_PinAFConfig  stm32f4xx_gpio.o
    0x08001662   0x08001662   0x00000012   Code   RO         3921    i.GPIO_ReadInputDataBit  stm32f4xx_gpio.o
    0x08001674   0x08001674   0x00000004   Code   RO         3924    i.GPIO_ResetBits    stm32f4xx_gpio.o
    0x08001678   0x08001678   0x00000004   Code   RO         3925    i.GPIO_SetBits      stm32f4xx_gpio.o
    0x0800167c   0x0800167c   0x0000000a   Code   RO         3929    i.GPIO_WriteBit     stm32f4xx_gpio.o
    0x08001686   0x08001686   0x00000002   PAD
    0x08001688   0x08001688   0x00000058   Code   RO          120    i.HardFault_Handler  stm32f4xx_it.o
    0x080016e0   0x080016e0   0x00000154   Code   RO          663    i.InitHardUart      bsp_uart_fifo.o
    0x08001834   0x08001834   0x00000018   Code   RO          376    i.IsKeyDown1        bsp_key.o
    0x0800184c   0x0800184c   0x00000044   Code   RO         8021    i.MSC_BOT_Abort     usbd_msc_bot.o
    0x08001890   0x08001890   0x000000d0   Code   RO         8022    i.MSC_BOT_CBW_Decode  usbd_msc_bot.o
    0x08001960   0x08001960   0x0000003c   Code   RO         8023    i.MSC_BOT_CplClrFeature  usbd_msc_bot.o
    0x0800199c   0x0800199c   0x00000050   Code   RO         8024    i.MSC_BOT_DataIn    usbd_msc_bot.o
    0x080019ec   0x080019ec   0x00000044   Code   RO         8025    i.MSC_BOT_DataOut   usbd_msc_bot.o
    0x08001a30   0x08001a30   0x0000000c   Code   RO         8026    i.MSC_BOT_DeInit    usbd_msc_bot.o
    0x08001a3c   0x08001a3c   0x00000048   Code   RO         8027    i.MSC_BOT_Init      usbd_msc_bot.o
    0x08001a84   0x08001a84   0x0000002c   Code   RO         8028    i.MSC_BOT_Reset     usbd_msc_bot.o
    0x08001ab0   0x08001ab0   0x00000040   Code   RO         8029    i.MSC_BOT_SendCSW   usbd_msc_bot.o
    0x08001af0   0x08001af0   0x00000048   Code   RO         8030    i.MSC_BOT_SendData  usbd_msc_bot.o
    0x08001b38   0x08001b38   0x00000004   Code   RO          121    i.MemManage_Handler  stm32f4xx_it.o
    0x08001b3c   0x08001b3c   0x00000002   Code   RO          122    i.NMI_Handler       stm32f4xx_it.o
    0x08001b3e   0x08001b3e   0x00000002   PAD
    0x08001b40   0x08001b40   0x00000078   Code   RO         2186    i.NVIC_Init         misc.o
    0x08001bb8   0x08001bb8   0x00000014   Code   RO         2187    i.NVIC_PriorityGroupConfig  misc.o
    0x08001bcc   0x08001bcc   0x00000044   Code   RO         1173    i.OLED_BufToPanel   bsp_oled.o
    0x08001c10   0x08001c10   0x00000030   Code   RO         1174    i.OLED_ClrScr       bsp_oled.o
    0x08001c40   0x08001c40   0x00000070   Code   RO         1175    i.OLED_ConfigGPIO   bsp_oled.o
    0x08001cb0   0x08001cb0   0x00000022   Code   RO         1177    i.OLED_DispOn       bsp_oled.o
    0x08001cd2   0x08001cd2   0x00000002   PAD
    0x08001cd4   0x08001cd4   0x0000024c   Code   RO         1178    i.OLED_DispStr      bsp_oled.o
    0x08001f20   0x08001f20   0x000000d4   Code   RO         1186    i.OLED_InitHard     bsp_oled.o
    0x08001ff4   0x08001ff4   0x000000b0   Code   RO         1187    i.OLED_PutPixel     bsp_oled.o
    0x080020a4   0x080020a4   0x0000002a   Code   RO         1190    i.OLED_Set_Pos      bsp_oled.o
    0x080020ce   0x080020ce   0x00000002   PAD
    0x080020d0   0x080020d0   0x0000004c   Code   RO         1192    i.OLED_WriteCmd     bsp_oled.o
    0x0800211c   0x0800211c   0x0000004c   Code   RO         1193    i.OLED_WriteData    bsp_oled.o
    0x08002168   0x08002168   0x00000010   Code   RO         7505    i.OTG_FS_IRQHandler  usb_it.o
    0x08002178   0x08002178   0x00000234   Code   RO         2068    i.OpenFile          iap.o
    0x080023ac   0x080023ac   0x00000002   Code   RO          123    i.PendSV_Handler    stm32f4xx_it.o
    0x080023ae   0x080023ae   0x00000002   PAD
    0x080023b0   0x080023b0   0x0000018c   Code   RO         1827    i.PrintfLogo        main.o
    0x0800253c   0x0800253c   0x00000020   Code   RO         4858    i.RCC_AHB1PeriphClockCmd  stm32f4xx_rcc.o
    0x0800255c   0x0800255c   0x00000020   Code   RO         4861    i.RCC_AHB2PeriphClockCmd  stm32f4xx_rcc.o
    0x0800257c   0x0800257c   0x00000020   Code   RO         4864    i.RCC_APB1PeriphClockCmd  stm32f4xx_rcc.o
    0x0800259c   0x0800259c   0x00000020   Code   RO         4867    i.RCC_APB2PeriphClockCmd  stm32f4xx_rcc.o
    0x080025bc   0x080025bc   0x00000020   Code   RO         4869    i.RCC_APB2PeriphResetCmd  stm32f4xx_rcc.o
    0x080025dc   0x080025dc   0x000000e8   Code   RO         4876    i.RCC_GetClocksFreq  stm32f4xx_rcc.o
    0x080026c4   0x080026c4   0x0000002c   Code   RO         8200    i.SCSI_CheckAddressRange  usbd_msc_scsi.o
    0x080026f0   0x080026f0   0x00000058   Code   RO         8201    i.SCSI_Inquiry      usbd_msc_scsi.o
    0x08002748   0x08002748   0x00000030   Code   RO         8202    i.SCSI_ModeSense10  usbd_msc_scsi.o
    0x08002778   0x08002778   0x00000030   Code   RO         8203    i.SCSI_ModeSense6   usbd_msc_scsi.o
    0x080027a8   0x080027a8   0x000000d8   Code   RO         8204    i.SCSI_ProcessCmd   usbd_msc_scsi.o
    0x08002880   0x08002880   0x000000b8   Code   RO         8205    i.SCSI_ProcessRead  usbd_msc_scsi.o
    0x08002938   0x08002938   0x000000cc   Code   RO         8206    i.SCSI_ProcessWrite  usbd_msc_scsi.o
    0x08002a04   0x08002a04   0x000000f0   Code   RO         8207    i.SCSI_Read10       usbd_msc_scsi.o
    0x08002af4   0x08002af4   0x0000008c   Code   RO         8208    i.SCSI_ReadCapacity10  usbd_msc_scsi.o
    0x08002b80   0x08002b80   0x00000088   Code   RO         8209    i.SCSI_ReadFormatCapacity  usbd_msc_scsi.o
    0x08002c08   0x08002c08   0x00000098   Code   RO         8210    i.SCSI_RequestSense  usbd_msc_scsi.o
    0x08002ca0   0x08002ca0   0x0000003c   Code   RO         8211    i.SCSI_SenseCode    usbd_msc_scsi.o
    0x08002cdc   0x08002cdc   0x00000010   Code   RO         8212    i.SCSI_StartStopUnit  usbd_msc_scsi.o
    0x08002cec   0x08002cec   0x00000050   Code   RO         8213    i.SCSI_TestUnitReady  usbd_msc_scsi.o
    0x08002d3c   0x08002d3c   0x00000050   Code   RO         8214    i.SCSI_Verify10     usbd_msc_scsi.o
    0x08002d8c   0x08002d8c   0x00000134   Code   RO         8215    i.SCSI_Write10      usbd_msc_scsi.o
    0x08002ec0   0x08002ec0   0x0000011c   Code   RO          914    i.SDEnWideBus       bsp_sdio_sd.o
    0x08002fdc   0x08002fdc   0x0000000c   Code   RO         5717    i.SDIO_ClearFlag    stm32f4xx_sdio.o
    0x08002fe8   0x08002fe8   0x0000000c   Code   RO         5718    i.SDIO_ClearITPendingBit  stm32f4xx_sdio.o
    0x08002ff4   0x08002ff4   0x0000000c   Code   RO         5719    i.SDIO_ClockCmd     stm32f4xx_sdio.o
    0x08003000   0x08003000   0x0000000c   Code   RO         5722    i.SDIO_DMACmd       stm32f4xx_sdio.o
    0x0800300c   0x0800300c   0x00000034   Code   RO         5723    i.SDIO_DataConfig   stm32f4xx_sdio.o
    0x08003040   0x08003040   0x00000016   Code   RO         5725    i.SDIO_DeInit       stm32f4xx_sdio.o
    0x08003056   0x08003056   0x00000002   PAD
    0x08003058   0x08003058   0x0000000c   Code   RO         5726    i.SDIO_GetCommandResponse  stm32f4xx_sdio.o
    0x08003064   0x08003064   0x00000018   Code   RO         5729    i.SDIO_GetFlagStatus  stm32f4xx_sdio.o
    0x0800307c   0x0800307c   0x00000018   Code   RO         5730    i.SDIO_GetITStatus  stm32f4xx_sdio.o
    0x08003094   0x08003094   0x00000010   Code   RO         5731    i.SDIO_GetPowerState  stm32f4xx_sdio.o
    0x080030a4   0x080030a4   0x00000018   Code   RO         5732    i.SDIO_GetResponse  stm32f4xx_sdio.o
    0x080030bc   0x080030bc   0x00000008   Code   RO          915    i.SDIO_IRQHandler   bsp_sdio_sd.o
    0x080030c4   0x080030c4   0x00000020   Code   RO         5733    i.SDIO_ITConfig     stm32f4xx_sdio.o
    0x080030e4   0x080030e4   0x00000030   Code   RO         5734    i.SDIO_Init         stm32f4xx_sdio.o
    0x08003114   0x08003114   0x0000003a   Code   RO          916    i.SDIO_Interrupts_Config  bsp_sdio_sd.o
    0x0800314e   0x0800314e   0x00000002   PAD
    0x08003150   0x08003150   0x0000000c   Code   RO         5735    i.SDIO_ReadData     stm32f4xx_sdio.o
    0x0800315c   0x0800315c   0x0000002c   Code   RO         5737    i.SDIO_SendCommand  stm32f4xx_sdio.o
    0x08003188   0x08003188   0x0000000c   Code   RO         5739    i.SDIO_SetPowerState  stm32f4xx_sdio.o
    0x08003194   0x08003194   0x0000000c   Code   RO          918    i.SD_Detect         bsp_sdio_sd.o
    0x080031a0   0x080031a0   0x00000090   Code   RO          919    i.SD_EnableWideBusOperation  bsp_sdio_sd.o
    0x08003230   0x08003230   0x0000030c   Code   RO          921    i.SD_GetCardInfo    bsp_sdio_sd.o
    0x0800353c   0x0800353c   0x00000026   Code   RO          923    i.SD_GetState       bsp_sdio_sd.o
    0x08003562   0x08003562   0x0000001e   Code   RO          924    i.SD_GetStatus      bsp_sdio_sd.o
    0x08003580   0x08003580   0x00000088   Code   RO          926    i.SD_Init           bsp_sdio_sd.o
    0x08003608   0x08003608   0x0000013c   Code   RO          927    i.SD_InitializeCards  bsp_sdio_sd.o
    0x08003744   0x08003744   0x0000008c   Code   RO          928    i.SD_LowLevel_DMA_RxConfig  bsp_sdio_sd.o
    0x080037d0   0x080037d0   0x00000090   Code   RO          929    i.SD_LowLevel_DMA_TxConfig  bsp_sdio_sd.o
    0x08003860   0x08003860   0x000000c4   Code   RO          931    i.SD_LowLevel_Init  bsp_sdio_sd.o
    0x08003924   0x08003924   0x000001a0   Code   RO          933    i.SD_PowerON        bsp_sdio_sd.o
    0x08003ac4   0x08003ac4   0x00000028   Code   RO          934    i.SD_ProcessDMAIRQ  bsp_sdio_sd.o
    0x08003aec   0x08003aec   0x000000ac   Code   RO          935    i.SD_ProcessIRQSrc  bsp_sdio_sd.o
    0x08003b98   0x08003b98   0x000000e0   Code   RO          936    i.SD_ReadBlock      bsp_sdio_sd.o
    0x08003c78   0x08003c78   0x000000e8   Code   RO          937    i.SD_ReadMultiBlocks  bsp_sdio_sd.o
    0x08003d60   0x08003d60   0x00000034   Code   RO          938    i.SD_SelectDeselect  bsp_sdio_sd.o
    0x08003d94   0x08003d94   0x00000054   Code   RO          940    i.SD_SendStatus     bsp_sdio_sd.o
    0x08003de8   0x08003de8   0x00000034   Code   RO          941    i.SD_StopTransfer   bsp_sdio_sd.o
    0x08003e1c   0x08003e1c   0x00000080   Code   RO          942    i.SD_WaitReadOperation  bsp_sdio_sd.o
    0x08003e9c   0x08003e9c   0x00000080   Code   RO          943    i.SD_WaitWriteOperation  bsp_sdio_sd.o
    0x08003f1c   0x08003f1c   0x000000dc   Code   RO          944    i.SD_WriteBlock     bsp_sdio_sd.o
    0x08003ff8   0x08003ff8   0x00000148   Code   RO          945    i.SD_WriteMultiBlocks  bsp_sdio_sd.o
    0x08004140   0x08004140   0x00000012   Code   RO         7312    i.SD_disk_initialize  diskio.o
    0x08004152   0x08004152   0x00000018   Code   RO         5941    i.SPI_Cmd           stm32f4xx_spi.o
    0x0800416a   0x0800416a   0x00000012   Code   RO         5949    i.SPI_I2S_GetFlagStatus  stm32f4xx_spi.o
    0x0800417c   0x0800417c   0x00000006   Code   RO         5952    i.SPI_I2S_ReceiveData  stm32f4xx_spi.o
    0x08004182   0x08004182   0x00000004   Code   RO         5953    i.SPI_I2S_SendData  stm32f4xx_spi.o
    0x08004186   0x08004186   0x0000003c   Code   RO         5954    i.SPI_Init          stm32f4xx_spi.o
    0x080041c2   0x080041c2   0x00000002   PAD
    0x080041c4   0x080041c4   0x0000005c   Code   RO         7610    i.STORAGE_GetCapacity  usbd_storage_msd.o
    0x08004220   0x08004220   0x00000004   Code   RO         7611    i.STORAGE_GetMaxLun  usbd_storage_msd.o
    0x08004224   0x08004224   0x00000034   Code   RO         7612    i.STORAGE_Init      usbd_storage_msd.o
    0x08004258   0x08004258   0x00000034   Code   RO         7613    i.STORAGE_IsReady   usbd_storage_msd.o
    0x0800428c   0x0800428c   0x00000030   Code   RO         7614    i.STORAGE_IsWriteProtected  usbd_storage_msd.o
    0x080042bc   0x080042bc   0x00000040   Code   RO         7615    i.STORAGE_Read      usbd_storage_msd.o
    0x080042fc   0x080042fc   0x00000040   Code   RO         7616    i.STORAGE_Write     usbd_storage_msd.o
    0x0800433c   0x0800433c   0x00000002   Code   RO          124    i.SVC_Handler       stm32f4xx_it.o
    0x0800433e   0x0800433e   0x0000002c   Code   RO         1612    i.SWD_Transfer      bsp_swd.o
    0x0800436a   0x0800436a   0x00000002   PAD
    0x0800436c   0x0800436c   0x0000022c   Code   RO         1613    i.SWD_TransferOnce  bsp_swd.o
    0x08004598   0x08004598   0x000001dc   Code   RO         2120    i.SWD_UpData        bsp_swd_flash.o
    0x08004774   0x08004774   0x00000088   Code   RO         1614    i.SWJ_InitDebug     bsp_swd.o
    0x080047fc   0x080047fc   0x0000004c   Code   RO         1615    i.SWJ_JTAG2SWD      bsp_swd.o
    0x08004848   0x08004848   0x00000088   Code   RO         1617    i.SWJ_ReadBlock     bsp_swd.o
    0x080048d0   0x080048d0   0x00000060   Code   RO         1618    i.SWJ_ReadCoreReg   bsp_swd.o
    0x08004930   0x08004930   0x0000002c   Code   RO         1619    i.SWJ_ReadDP        bsp_swd.o
    0x0800495c   0x0800495c   0x0000003a   Code   RO         1620    i.SWJ_ReadData      bsp_swd.o
    0x08004996   0x08004996   0x00000014   Code   RO         1621    i.SWJ_ReadMem       bsp_swd.o
    0x080049aa   0x080049aa   0x00000002   PAD
    0x080049ac   0x080049ac   0x00000020   Code   RO         1622    i.SWJ_ReadMem32     bsp_swd.o
    0x080049cc   0x080049cc   0x0000002c   Code   RO         1623    i.SWJ_ReadMem8      bsp_swd.o
    0x080049f8   0x080049f8   0x0000001c   Code   RO         1624    i.SWJ_SendData      bsp_swd.o
    0x08004a14   0x08004a14   0x00000024   Code   RO         1625    i.SWJ_SetTargetReset  bsp_swd.o
    0x08004a38   0x08004a38   0x000001c0   Code   RO         1626    i.SWJ_SetTargetState  bsp_swd.o
    0x08004bf8   0x08004bf8   0x00000034   Code   RO         1627    i.SWJ_WaitUntilHalted  bsp_swd.o
    0x08004c2c   0x08004c2c   0x0000004c   Code   RO         1628    i.SWJ_WriteAP       bsp_swd.o
    0x08004c78   0x08004c78   0x00000078   Code   RO         1629    i.SWJ_WriteBlock    bsp_swd.o
    0x08004cf0   0x08004cf0   0x00000048   Code   RO         1630    i.SWJ_WriteCoreReg  bsp_swd.o
    0x08004d38   0x08004d38   0x00000024   Code   RO         1631    i.SWJ_WriteDP       bsp_swd.o
    0x08004d5c   0x08004d5c   0x00000036   Code   RO         1632    i.SWJ_WriteData     bsp_swd.o
    0x08004d92   0x08004d92   0x00000014   Code   RO         1633    i.SWJ_WriteMem      bsp_swd.o
    0x08004da6   0x08004da6   0x00000002   PAD
    0x08004da8   0x08004da8   0x00000020   Code   RO         1634    i.SWJ_WriteMem32    bsp_swd.o
    0x08004dc8   0x08004dc8   0x0000002c   Code   RO         1635    i.SWJ_WriteMem8     bsp_swd.o
    0x08004df4   0x08004df4   0x00000018   Code   RO         1636    i.SW_CLOCK_CYCLE    bsp_swd.o
    0x08004e0c   0x08004e0c   0x00000034   Code   RO         1637    i.SW_Off            bsp_swd.o
    0x08004e40   0x08004e40   0x00000024   Code   RO         1638    i.SW_READ_BIT       bsp_swd.o
    0x08004e64   0x08004e64   0x00000018   Code   RO         1639    i.SW_WRITE_BIT      bsp_swd.o
    0x08004e7c   0x08004e7c   0x000000e8   Code   RO         6987    i.SetSysClock       system_stm32f4xx.o
    0x08004f64   0x08004f64   0x00000008   Code   RO          790    i.SysTick_Handler   bsp_timer.o
    0x08004f6c   0x08004f6c   0x00000084   Code   RO          791    i.SysTick_ISR       bsp_timer.o
    0x08004ff0   0x08004ff0   0x00000068   Code   RO         6989    i.SystemInit        system_stm32f4xx.o
    0x08005058   0x08005058   0x000000a0   Code   RO          792    i.TIM5_IRQHandler   bsp_timer.o
    0x080050f8   0x080050f8   0x00000018   Code   RO         6167    i.TIM_ARRPreloadConfig  stm32f4xx_tim.o
    0x08005110   0x08005110   0x00000006   Code   RO         6174    i.TIM_ClearITPendingBit  stm32f4xx_tim.o
    0x08005116   0x08005116   0x00000018   Code   RO         6179    i.TIM_Cmd           stm32f4xx_tim.o
    0x0800512e   0x0800512e   0x0000001e   Code   RO         6181    i.TIM_CtrlPWMOutputs  stm32f4xx_tim.o
    0x0800514c   0x0800514c   0x00000022   Code   RO         6200    i.TIM_GetITStatus   stm32f4xx_tim.o
    0x0800516e   0x0800516e   0x00000012   Code   RO         6204    i.TIM_ITConfig      stm32f4xx_tim.o
    0x08005180   0x08005180   0x0000007c   Code   RO         6208    i.TIM_OC1Init       stm32f4xx_tim.o
    0x080051fc   0x080051fc   0x00000012   Code   RO         6211    i.TIM_OC1PreloadConfig  stm32f4xx_tim.o
    0x0800520e   0x0800520e   0x00000002   PAD
    0x08005210   0x08005210   0x000000a4   Code   RO         6213    i.TIM_OC2Init       stm32f4xx_tim.o
    0x080052b4   0x080052b4   0x0000001a   Code   RO         6216    i.TIM_OC2PreloadConfig  stm32f4xx_tim.o
    0x080052ce   0x080052ce   0x00000002   PAD
    0x080052d0   0x080052d0   0x000000a0   Code   RO         6218    i.TIM_OC3Init       stm32f4xx_tim.o
    0x08005370   0x08005370   0x00000012   Code   RO         6221    i.TIM_OC3PreloadConfig  stm32f4xx_tim.o
    0x08005382   0x08005382   0x00000002   PAD
    0x08005384   0x08005384   0x00000078   Code   RO         6223    i.TIM_OC4Init       stm32f4xx_tim.o
    0x080053fc   0x080053fc   0x0000001a   Code   RO         6225    i.TIM_OC4PreloadConfig  stm32f4xx_tim.o
    0x08005416   0x08005416   0x00000002   PAD
    0x08005418   0x08005418   0x00000084   Code   RO         6251    i.TIM_TimeBaseInit  stm32f4xx_tim.o
    0x0800549c   0x0800549c   0x00000010   Code   RO          664    i.USART1_IRQHandler  bsp_uart_fifo.o
    0x080054ac   0x080054ac   0x00000010   Code   RO          665    i.USART6_IRQHandler  bsp_uart_fifo.o
    0x080054bc   0x080054bc   0x00000012   Code   RO         6729    i.USART_ClearFlag   stm32f4xx_usart.o
    0x080054ce   0x080054ce   0x00000018   Code   RO         6733    i.USART_Cmd         stm32f4xx_usart.o
    0x080054e6   0x080054e6   0x0000001a   Code   RO         6736    i.USART_GetFlagStatus  stm32f4xx_usart.o
    0x08005500   0x08005500   0x00000054   Code   RO         6737    i.USART_GetITStatus  stm32f4xx_usart.o
    0x08005554   0x08005554   0x0000004a   Code   RO         6739    i.USART_ITConfig    stm32f4xx_usart.o
    0x0800559e   0x0800559e   0x00000002   PAD
    0x080055a0   0x080055a0   0x000000d4   Code   RO         6740    i.USART_Init        stm32f4xx_usart.o
    0x08005674   0x08005674   0x0000000a   Code   RO         6747    i.USART_ReceiveData  stm32f4xx_usart.o
    0x0800567e   0x0800567e   0x00000008   Code   RO         6750    i.USART_SendData    stm32f4xx_usart.o
    0x08005686   0x08005686   0x00000016   Code   RO         7760    i.USBD_ClrCfg       usbd_core.o
    0x0800569c   0x0800569c   0x00000048   Code   RO         7918    i.USBD_ClrFeature   usbd_req.o
    0x080056e4   0x080056e4   0x0000001e   Code   RO         7858    i.USBD_CtlContinueRx  usbd_ioreq.o
    0x08005702   0x08005702   0x0000001e   Code   RO         7859    i.USBD_CtlContinueSendData  usbd_ioreq.o
    0x08005720   0x08005720   0x0000001e   Code   RO         7919    i.USBD_CtlError     usbd_req.o
    0x0800573e   0x0800573e   0x00000024   Code   RO         7861    i.USBD_CtlReceiveStatus  usbd_ioreq.o
    0x08005762   0x08005762   0x0000002e   Code   RO         7862    i.USBD_CtlSendData  usbd_ioreq.o
    0x08005790   0x08005790   0x00000024   Code   RO         7863    i.USBD_CtlSendStatus  usbd_ioreq.o
    0x080057b4   0x080057b4   0x000000d0   Code   RO         7761    i.USBD_DataInStage  usbd_core.o
    0x08005884   0x08005884   0x00000096   Code   RO         7762    i.USBD_DataOutStage  usbd_core.o
    0x0800591a   0x0800591a   0x00000006   Code   RO         7763    i.USBD_DeInit       usbd_core.o
    0x08005920   0x08005920   0x00000054   Code   RO         7920    i.USBD_GetConfig    usbd_req.o
    0x08005974   0x08005974   0x00000122   Code   RO         7921    i.USBD_GetDescriptor  usbd_req.o
    0x08005a96   0x08005a96   0x00000014   Code   RO         7922    i.USBD_GetLen       usbd_req.o
    0x08005aaa   0x08005aaa   0x00000014   Code   RO         7864    i.USBD_GetRxCount   usbd_ioreq.o
    0x08005abe   0x08005abe   0x00000002   PAD
    0x08005ac0   0x08005ac0   0x00000050   Code   RO         7923    i.USBD_GetStatus    usbd_req.o
    0x08005b10   0x08005b10   0x00000052   Code   RO         7924    i.USBD_GetString    usbd_req.o
    0x08005b62   0x08005b62   0x00000042   Code   RO         7764    i.USBD_Init         usbd_core.o
    0x08005ba4   0x08005ba4   0x00000012   Code   RO         7765    i.USBD_IsoINIncomplete  usbd_core.o
    0x08005bb6   0x08005bb6   0x00000012   Code   RO         7766    i.USBD_IsoOUTIncomplete  usbd_core.o
    0x08005bc8   0x08005bc8   0x00000012   Code   RO         8112    i.USBD_MSC_DataIn   usbd_msc_core.o
    0x08005bda   0x08005bda   0x00000012   Code   RO         8113    i.USBD_MSC_DataOut  usbd_msc_core.o
    0x08005bec   0x08005bec   0x00000020   Code   RO         8114    i.USBD_MSC_DeInit   usbd_msc_core.o
    0x08005c0c   0x08005c0c   0x00000010   Code   RO         8115    i.USBD_MSC_GetCfgDesc  usbd_msc_core.o
    0x08005c1c   0x08005c1c   0x00000030   Code   RO         8116    i.USBD_MSC_Init     usbd_msc_core.o
    0x08005c4c   0x08005c4c   0x00000120   Code   RO         8117    i.USBD_MSC_Setup    usbd_msc_core.o
    0x08005d6c   0x08005d6c   0x000000e0   Code   RO         8420    i.USBD_OTG_ISR_Handler  usb_dcd_int.o
    0x08005e4c   0x08005e4c   0x00000048   Code   RO         7925    i.USBD_ParseSetupRequest  usbd_req.o
    0x08005e94   0x08005e94   0x00000032   Code   RO         7767    i.USBD_Reset        usbd_core.o
    0x08005ec6   0x08005ec6   0x0000001e   Code   RO         7768    i.USBD_Resume       usbd_core.o
    0x08005ee4   0x08005ee4   0x00000014   Code   RO         7769    i.USBD_RunTestMode  usbd_core.o
    0x08005ef8   0x08005ef8   0x0000001a   Code   RO         7770    i.USBD_SOF          usbd_core.o
    0x08005f12   0x08005f12   0x0000005c   Code   RO         7926    i.USBD_SetAddress   usbd_req.o
    0x08005f6e   0x08005f6e   0x0000001e   Code   RO         7771    i.USBD_SetCfg       usbd_core.o
    0x08005f8c   0x08005f8c   0x000000d0   Code   RO         7927    i.USBD_SetConfig    usbd_req.o
    0x0800605c   0x0800605c   0x000000a4   Code   RO         7928    i.USBD_SetFeature   usbd_req.o
    0x08006100   0x08006100   0x00000054   Code   RO         7772    i.USBD_SetupStage   usbd_core.o
    0x08006154   0x08006154   0x00000072   Code   RO         7929    i.USBD_StdDevReq    usbd_req.o
    0x080061c6   0x080061c6   0x00000002   PAD
    0x080061c8   0x080061c8   0x0000015c   Code   RO         7930    i.USBD_StdEPReq     usbd_req.o
    0x08006324   0x08006324   0x0000004c   Code   RO         7931    i.USBD_StdItfReq    usbd_req.o
    0x08006370   0x08006370   0x00000020   Code   RO         7773    i.USBD_Suspend      usbd_core.o
    0x08006390   0x08006390   0x00000034   Code   RO         7540    i.USBD_USR_ConfigStrDescriptor  usbd_desc.o
    0x080063c4   0x080063c4   0x00000028   Code   RO         7680    i.USBD_USR_DeviceConfigured  usbd_usr.o
    0x080063ec   0x080063ec   0x00000028   Code   RO         7681    i.USBD_USR_DeviceConnected  usbd_usr.o
    0x08006414   0x08006414   0x00000010   Code   RO         7541    i.USBD_USR_DeviceDescriptor  usbd_desc.o
    0x08006424   0x08006424   0x0000002c   Code   RO         7682    i.USBD_USR_DeviceDisconnected  usbd_usr.o
    0x08006450   0x08006450   0x00000098   Code   RO         7683    i.USBD_USR_DeviceReset  usbd_usr.o
    0x080064e8   0x080064e8   0x00000020   Code   RO         7684    i.USBD_USR_DeviceResumed  usbd_usr.o
    0x08006508   0x08006508   0x00000028   Code   RO         7685    i.USBD_USR_DeviceSuspended  usbd_usr.o
    0x08006530   0x08006530   0x00000020   Code   RO         7686    i.USBD_USR_Init     usbd_usr.o
    0x08006550   0x08006550   0x00000038   Code   RO         7542    i.USBD_USR_InterfaceStrDescriptor  usbd_desc.o
    0x08006588   0x08006588   0x00000010   Code   RO         7543    i.USBD_USR_LangIDStrDescriptor  usbd_desc.o
    0x08006598   0x08006598   0x0000002c   Code   RO         7544    i.USBD_USR_ManufacturerStrDescriptor  usbd_desc.o
    0x080065c4   0x080065c4   0x00000058   Code   RO         7545    i.USBD_USR_ProductStrDescriptor  usbd_desc.o
    0x0800661c   0x0800661c   0x00000048   Code   RO         7546    i.USBD_USR_SerialStrDescriptor  usbd_desc.o
    0x08006664   0x08006664   0x0000002c   Code   RO         7463    i.USB_OTG_BSP_EnableInterrupt  usb_bsp.o
    0x08006690   0x08006690   0x0000005c   Code   RO         7464    i.USB_OTG_BSP_Init  usb_bsp.o
    0x080066ec   0x080066ec   0x00000012   Code   RO         7465    i.USB_OTG_BSP_mDelay  usb_bsp.o
    0x080066fe   0x080066fe   0x00000016   Code   RO         7466    i.USB_OTG_BSP_uDelay  usb_bsp.o
    0x08006714   0x08006714   0x00000126   Code   RO         8497    i.USB_OTG_CoreInit  usb_core.o
    0x0800683a   0x0800683a   0x0000020a   Code   RO         8498    i.USB_OTG_CoreInitDev  usb_core.o
    0x08006a44   0x08006a44   0x00000070   Code   RO         8499    i.USB_OTG_CoreReset  usb_core.o
    0x08006ab4   0x08006ab4   0x00000022   Code   RO         8500    i.USB_OTG_DisableGlobalInt  usb_core.o
    0x08006ad6   0x08006ad6   0x0000006a   Code   RO         8501    i.USB_OTG_EP0Activate  usb_core.o
    0x08006b40   0x08006b40   0x00000156   Code   RO         8502    i.USB_OTG_EP0StartXfer  usb_core.o
    0x08006c96   0x08006c96   0x00000062   Code   RO         8503    i.USB_OTG_EP0_OutStart  usb_core.o
    0x08006cf8   0x08006cf8   0x00000098   Code   RO         8504    i.USB_OTG_EPActivate  usb_core.o
    0x08006d90   0x08006d90   0x00000050   Code   RO         8505    i.USB_OTG_EPClearStall  usb_core.o
    0x08006de0   0x08006de0   0x0000005e   Code   RO         8506    i.USB_OTG_EPDeactivate  usb_core.o
    0x08006e3e   0x08006e3e   0x00000064   Code   RO         8507    i.USB_OTG_EPSetStall  usb_core.o
    0x08006ea2   0x08006ea2   0x000001f6   Code   RO         8508    i.USB_OTG_EPStartXfer  usb_core.o
    0x08007098   0x08007098   0x00000034   Code   RO         8509    i.USB_OTG_EnableCommonInt  usb_core.o
    0x080070cc   0x080070cc   0x0000009a   Code   RO         8510    i.USB_OTG_EnableDevInt  usb_core.o
    0x08007166   0x08007166   0x00000022   Code   RO         8511    i.USB_OTG_EnableGlobalInt  usb_core.o
    0x08007188   0x08007188   0x0000004c   Code   RO         8512    i.USB_OTG_FlushRxFifo  usb_core.o
    0x080071d4   0x080071d4   0x00000054   Code   RO         8513    i.USB_OTG_FlushTxFifo  usb_core.o
    0x08007228   0x08007228   0x00000034   Code   RO         8514    i.USB_OTG_GetDeviceSpeed  usb_core.o
    0x0800725c   0x0800725c   0x0000000c   Code   RO         8516    i.USB_OTG_GetMode   usb_core.o
    0x08007268   0x08007268   0x00000018   Code   RO         8517    i.USB_OTG_InitDevSpeed  usb_core.o
    0x08007280   0x08007280   0x00000016   Code   RO         8518    i.USB_OTG_IsDeviceMode  usb_core.o
    0x08007296   0x08007296   0x00000010   Code   RO         8520    i.USB_OTG_ReadCoreItr  usb_core.o
    0x080072a6   0x080072a6   0x00000010   Code   RO         8521    i.USB_OTG_ReadDevAllInEPItr  usb_core.o
    0x080072b6   0x080072b6   0x00000010   Code   RO         8522    i.USB_OTG_ReadDevAllOutEp_itr  usb_core.o
    0x080072c6   0x080072c6   0x00000014   Code   RO         8523    i.USB_OTG_ReadDevOutEP_itr  usb_core.o
    0x080072da   0x080072da   0x00000028   Code   RO         8525    i.USB_OTG_ReadPacket  usb_core.o
    0x08007302   0x08007302   0x00000002   PAD
    0x08007304   0x08007304   0x000000d0   Code   RO         8526    i.USB_OTG_SelectCore  usb_core.o
    0x080073d4   0x080073d4   0x0000004e   Code   RO         8527    i.USB_OTG_SetCurrentMode  usb_core.o
    0x08007422   0x08007422   0x00000040   Code   RO         8531    i.USB_OTG_WritePacket  usb_core.o
    0x08007462   0x08007462   0x00000002   PAD
    0x08007464   0x08007464   0x000000f0   Code   RO          667    i.UartIRQ           bsp_uart_fifo.o
    0x08007554   0x08007554   0x00000078   Code   RO          669    i.UartVarInit       bsp_uart_fifo.o
    0x080075cc   0x080075cc   0x00000004   Code   RO          125    i.UsageFault_Handler  stm32f4xx_it.o
    0x080075d0   0x080075d0   0x00000130   Code   RO         1870    i.ViewRootDir       demo_sdio_fatfs.o
    0x08007700   0x08007700   0x00000020   Code   RO         8953    i.__0printf$8       mc_w.l(printf8.o)
    0x08007720   0x08007720   0x0000000e   Code   RO         9077    i.__scatterload_copy  mc_w.l(handlers.o)
    0x0800772e   0x0800772e   0x00000002   Code   RO         9078    i.__scatterload_null  mc_w.l(handlers.o)
    0x08007730   0x08007730   0x0000000e   Code   RO         9079    i.__scatterload_zeroinit  mc_w.l(handlers.o)
    0x0800773e   0x0800773e   0x00000006   Code   RO          793    i.__set_PRIMASK     bsp_timer.o
    0x08007744   0x08007744   0x00000410   Code   RO         8960    i._printf_core      mc_w.l(printf8.o)
    0x08007b54   0x08007b54   0x00000024   Code   RO         8961    i._printf_post_padding  mc_w.l(printf8.o)
    0x08007b78   0x08007b78   0x0000002e   Code   RO         8962    i._printf_pre_padding  mc_w.l(printf8.o)
    0x08007ba6   0x08007ba6   0x00000002   PAD
    0x08007ba8   0x08007ba8   0x00000064   Code   RO         1316    i.bsp_CfgSPIForSFlash  bsp_spi_flash.o
    0x08007c0c   0x08007c0c   0x00000034   Code   RO          794    i.bsp_CheckTimer    bsp_timer.o
    0x08007c40   0x08007c40   0x00000036   Code   RO         1478    i.bsp_ConfigGpioOut  bsp_tim_pwm.o
    0x08007c76   0x08007c76   0x00000002   PAD
    0x08007c78   0x08007c78   0x000000ac   Code   RO         1479    i.bsp_ConfigTimGpio  bsp_tim_pwm.o
    0x08007d24   0x08007d24   0x00000044   Code   RO          795    i.bsp_DelayMS       bsp_timer.o
    0x08007d68   0x08007d68   0x000000bc   Code   RO         1480    i.bsp_GetAFofTIM    bsp_tim_pwm.o
    0x08007e24   0x08007e24   0x00000092   Code   RO         1481    i.bsp_GetPinSource  bsp_tim_pwm.o
    0x08007eb6   0x08007eb6   0x00000002   PAD
    0x08007eb8   0x08007eb8   0x00000084   Code   RO         1482    i.bsp_GetRCCofGPIO  bsp_tim_pwm.o
    0x08007f3c   0x08007f3c   0x000000cc   Code   RO         1483    i.bsp_GetRCCofTIM   bsp_tim_pwm.o
    0x08008008   0x08008008   0x00000002   Code   RO          187    i.bsp_Idle          bsp.o
    0x0800800a   0x0800800a   0x00000026   Code   RO          188    i.bsp_Init          bsp.o
    0x08008030   0x08008030   0x00000068   Code   RO          798    i.bsp_InitHardTimer  bsp_timer.o
    0x08008098   0x08008098   0x00000008   Code   RO          377    i.bsp_InitKey       bsp_key.o
    0x080080a0   0x080080a0   0x00000030   Code   RO          378    i.bsp_InitKeyHard   bsp_key.o
    0x080080d0   0x080080d0   0x00000050   Code   RO          612    i.bsp_InitLed       bsp_led.o
    0x08008120   0x08008120   0x000000a0   Code   RO         1317    i.bsp_InitSFlash    bsp_spi_flash.o
    0x080081c0   0x080081c0   0x0000009c   Code   RO          799    i.bsp_InitTimer     bsp_timer.o
    0x0800825c   0x0800825c   0x00000010   Code   RO          671    i.bsp_InitUart      bsp_uart_fifo.o
    0x0800826c   0x0800826c   0x00000020   Code   RO          614    i.bsp_LedOff        bsp_led.o
    0x0800828c   0x0800828c   0x0000000e   Code   RO          189    i.bsp_RunPer10ms    bsp.o
    0x0800829a   0x0800829a   0x00000002   PAD
    0x0800829c   0x0800829c   0x00000044   Code   RO          190    i.bsp_RunPer1ms     bsp.o
    0x080082e0   0x080082e0   0x0000006c   Code   RO         1640    i.bsp_SWDInit       bsp_swd.o
    0x0800834c   0x0800834c   0x000001a4   Code   RO         1484    i.bsp_SetTIMOutPWM  bsp_tim_pwm.o
    0x080084f0   0x080084f0   0x0000001c   Code   RO          800    i.bsp_SoftTimerDec  bsp_timer.o
    0x0800850c   0x0800850c   0x00000098   Code   RO          801    i.bsp_StartAutoTimer  bsp_timer.o
    0x080085a4   0x080085a4   0x00000090   Code   RO         7032    i.check_fs          ff.o
    0x08008634   0x08008634   0x00000014   Code   RO         7033    i.chk_chr           ff.o
    0x08008648   0x08008648   0x0000008c   Code   RO         7034    i.chk_lock          ff.o
    0x080086d4   0x080086d4   0x000003a4   Code   RO         7035    i.chk_mounted       ff.o
    0x08008a78   0x08008a78   0x00000030   Code   RO         7036    i.clear_lock        ff.o
    0x08008aa8   0x08008aa8   0x0000001a   Code   RO         7037    i.clust2sect        ff.o
    0x08008ac2   0x08008ac2   0x000000ca   Code   RO         7038    i.create_chain      ff.o
    0x08008b8c   0x08008b8c   0x00000158   Code   RO         7039    i.create_name       ff.o
    0x08008ce4   0x08008ce4   0x0000004c   Code   RO         7040    i.dec_lock          ff.o
    0x08008d30   0x08008d30   0x00000056   Code   RO         7041    i.dir_alloc         ff.o
    0x08008d86   0x08008d86   0x0000005c   Code   RO         7042    i.dir_find          ff.o
    0x08008de2   0x08008de2   0x00000114   Code   RO         7043    i.dir_next          ff.o
    0x08008ef6   0x08008ef6   0x0000006e   Code   RO         7044    i.dir_read          ff.o
    0x08008f64   0x08008f64   0x0000003a   Code   RO         7045    i.dir_register      ff.o
    0x08008f9e   0x08008f9e   0x0000009c   Code   RO         7047    i.dir_sdi           ff.o
    0x0800903a   0x0800903a   0x00000020   Code   RO         7313    i.disk_initialize   diskio.o
    0x0800905a   0x0800905a   0x0000001e   Code   RO         7314    i.disk_ioctl        diskio.o
    0x08009078   0x08009078   0x0000006e   Code   RO         7315    i.disk_read         diskio.o
    0x080090e6   0x080090e6   0x00000018   Code   RO         7316    i.disk_status       diskio.o
    0x080090fe   0x080090fe   0x00000080   Code   RO         7317    i.disk_write        diskio.o
    0x0800917e   0x0800917e   0x00000002   PAD
    0x08009180   0x08009180   0x00000028   Code   RO         7048    i.enq_lock          ff.o
    0x080091a8   0x080091a8   0x00000020   Code   RO         7050    i.f_close           ff.o
    0x080091c8   0x080091c8   0x00000034   Code   RO         7054    i.f_mount           ff.o
    0x080091fc   0x080091fc   0x00000198   Code   RO         7055    i.f_open            ff.o
    0x08009394   0x08009394   0x00000070   Code   RO         7056    i.f_opendir         ff.o
    0x08009404   0x08009404   0x000001ca   Code   RO         7057    i.f_read            ff.o
    0x080095ce   0x080095ce   0x00000058   Code   RO         7058    i.f_readdir         ff.o
    0x08009626   0x08009626   0x0000003a   Code   RO         7060    i.f_stat            ff.o
    0x08009660   0x08009660   0x000000b0   Code   RO         7061    i.f_sync            ff.o
    0x08009710   0x08009710   0x00000092   Code   RO         7066    i.follow_path       ff.o
    0x080097a2   0x080097a2   0x00000002   PAD
    0x080097a4   0x080097a4   0x00000024   Code   RO          678    i.fputc             bsp_uart_fifo.o
    0x080097c8   0x080097c8   0x000000e4   Code   RO         7067    i.get_fat           ff.o
    0x080098ac   0x080098ac   0x00000008   Code   RO         7318    i.get_fattime       diskio.o
    0x080098b4   0x080098b4   0x00000098   Code   RO         7068    i.get_fileinfo      ff.o
    0x0800994c   0x0800994c   0x000000dc   Code   RO         7069    i.inc_lock          ff.o
    0x08009a28   0x08009a28   0x00000038   Code   RO         1548    i.isFull            bsp_protocol.o
    0x08009a60   0x08009a60   0x00000020   Code   RO         7070    i.ld_clust          ff.o
    0x08009a80   0x08009a80   0x000000fc   Code   RO         1828    i.main              main.o
    0x08009b7c   0x08009b7c   0x00000026   Code   RO         7071    i.mem_cmp           ff.o
    0x08009ba2   0x08009ba2   0x0000001a   Code   RO         7072    i.mem_cpy           ff.o
    0x08009bbc   0x08009bbc   0x00000014   Code   RO         7073    i.mem_set           ff.o
    0x08009bd0   0x08009bd0   0x00000032   Code   RO         7074    i.move_window       ff.o
    0x08009c02   0x08009c02   0x00000002   PAD
    0x08009c04   0x08009c04   0x00000054   Code   RO         1550    i.pushBuff          bsp_protocol.o
    0x08009c58   0x08009c58   0x00000136   Code   RO         7075    i.put_fat           ff.o
    0x08009d8e   0x08009d8e   0x00000068   Code   RO         7076    i.remove_chain      ff.o
    0x08009df6   0x08009df6   0x00000002   PAD
    0x08009df8   0x08009df8   0x00000044   Code   RO         1325    i.sf_ReadID         bsp_spi_flash.o
    0x08009e3c   0x08009e3c   0x00000124   Code   RO         1326    i.sf_ReadInfo       bsp_spi_flash.o
    0x08009f60   0x08009f60   0x00000038   Code   RO         1327    i.sf_SendByte       bsp_spi_flash.o
    0x08009f98   0x08009f98   0x0000002c   Code   RO         1328    i.sf_WaitForWriteEnd  bsp_spi_flash.o
    0x08009fc4   0x08009fc4   0x0000005c   Code   RO         1331    i.sf_WriteStatus    bsp_spi_flash.o
    0x0800a020   0x0800a020   0x00000010   Code   RO         7077    i.st_clust          ff.o
    0x0800a030   0x0800a030   0x0000016c   Code   RO         1641    i.swd_flash_syscall_exec  bsp_swd.o
    0x0800a19c   0x0800a19c   0x0000006a   Code   RO         1642    i.swd_read_memory   bsp_swd.o
    0x0800a206   0x0800a206   0x00000002   PAD
    0x0800a208   0x0800a208   0x00000090   Code   RO         1643    i.swd_write_debug_state  bsp_swd.o
    0x0800a298   0x0800a298   0x0000008c   Code   RO         1644    i.swd_write_memory  bsp_swd.o
    0x0800a324   0x0800a324   0x000000c8   Code   RO         7078    i.sync_fs           ff.o
    0x0800a3ec   0x0800a3ec   0x00000052   Code   RO         7079    i.sync_window       ff.o
    0x0800a43e   0x0800a43e   0x00000002   PAD
    0x0800a440   0x0800a440   0x00000060   Code   RO         2121    i.target_flash_erase_chip  bsp_swd_flash.o
    0x0800a4a0   0x0800a4a0   0x000000e8   Code   RO         2123    i.target_flash_init  bsp_swd_flash.o
    0x0800a588   0x0800a588   0x000000d4   Code   RO         2124    i.target_flash_program_page  bsp_swd_flash.o
    0x0800a65c   0x0800a65c   0x00000024   Code   RO         7688    i.usbd_OpenMassStorage  usbd_usr.o
    0x0800a680   0x0800a680   0x00000036   Code   RO         7080    i.validate          ff.o
    0x0800a6b6   0x0800a6b6   0x00000030   Data   RO          806    .constdata          bsp_timer.o
    0x0800a6e6   0x0800a6e6   0x00000002   PAD
    0x0800a6e8   0x0800a6e8   0x00000180   Data   RO         2127    .constdata          bsp_swd_flash.o
    0x0800a868   0x0800a868   0x000005f4   Data   RO         7373    .constdata          asc12.o
    0x0800ae5c   0x0800ae5c   0x00001000   Data   RO         7380    .constdata          asc16.o
    0x0800be5c   0x0800be5c   0x000001ec   Data   RO         7387    .constdata          asc24.o
    0x0800c048   0x0800c048   0x0000028c   Data   RO         7394    .constdata          asc32.o
    0x0800c2d4   0x0800c2d4   0x00000600   Data   RO         7401    .constdata          hz12.o
    0x0800c8d4   0x0800c8d4   0x0000008a   Data   RO         7414    .constdata          hz16.o
    0x0800c95e   0x0800c95e   0x0000004c   Data   RO         7427    .constdata          hz24.o
    0x0800c9aa   0x0800c9aa   0x00000084   Data   RO         7440    .constdata          hz32.o
    0x0800ca2e   0x0800ca2e   0x00000024   Data   RO         7617    .constdata          usbd_storage_msd.o
    0x0800ca52   0x0800ca52   0x00000017   Data   RO         8176    .constdata          usbd_msc_data.o
    0x0800ca69   0x0800ca69   0x00000003   PAD
    0x0800ca6c   0x0800ca6c   0x00000020   Data   RO         9075    Region$$Table       anon$$obj.o


    Execution Region RW_IRAM1 (Exec base: 0x20000000, Load base: 0x0800ca8c, Size: 0x0000a338, Max: 0x00010000, ABSOLUTE, COMPRESSED[0x000000e4])

    Exec Addr    Load Addr    Size         Type   Attr      Idx    E Section Name        Object

    0x20000000   COMPRESSED   0x0000001d   Data   RW          807    .data               bsp_timer.o
    0x2000001d   COMPRESSED   0x00000003   PAD
    0x20000020   COMPRESSED   0x00000018   Data   RW          948    .data               bsp_sdio_sd.o
    0x20000038   COMPRESSED   0x00000001   Data   RW         1195    .data               bsp_oled.o
    0x20000039   COMPRESSED   0x00000001   PAD
    0x2000003a   COMPRESSED   0x00000006   Data   RW         1552    .data               bsp_protocol.o
    0x20000040   COMPRESSED   0x0000002b   Data   RW         1829    .data               main.o
    0x2000006b   COMPRESSED   0x00000001   PAD
    0x2000006c   COMPRESSED   0x00000014   Data   RW         2070    .data               iap.o
    0x20000080   COMPRESSED   0x00000008   Data   RW         2128    .data               bsp_swd_flash.o
    0x20000088   COMPRESSED   0x00000010   Data   RW         4906    .data               stm32f4xx_rcc.o
    0x20000098   COMPRESSED   0x00000014   Data   RW         6990    .data               system_stm32f4xx.o
    0x200000ac   COMPRESSED   0x00000006   Data   RW         7082    .data               ff.o
    0x200000b2   COMPRESSED   0x00000002   PAD
    0x200000b4   COMPRESSED   0x0000003c   Data   RW         7547    .data               usbd_desc.o
    0x200000f0   COMPRESSED   0x00000029   Data   RW         7618    .data               usbd_storage_msd.o
    0x20000119   COMPRESSED   0x00000003   PAD
    0x2000011c   COMPRESSED   0x0000001c   Data   RW         7690    .data               usbd_usr.o
    0x20000138   COMPRESSED   0x00000034   Data   RW         7774    .data               usbd_core.o
    0x2000016c   COMPRESSED   0x0000000d   Data   RW         7933    .data               usbd_req.o
    0x20000179   COMPRESSED   0x00000001   PAD
    0x2000017a   COMPRESSED   0x00000004   Data   RW         8032    .data               usbd_msc_bot.o
    0x2000017e   COMPRESSED   0x00000002   PAD
    0x20000180   COMPRESSED   0x0000004e   Data   RW         8118    .data               usbd_msc_core.o
    0x200001ce   COMPRESSED   0x00000002   PAD
    0x200001d0   COMPRESSED   0x00000018   Data   RW         8217    .data               usbd_msc_scsi.o
    0x200001e8   COMPRESSED   0x00000004   Data   RW         9049    .data               mc_w.l(stdout.o)
    0x200001ec        -       0x00000c74   Zero   RW          679    .bss                bsp_uart_fifo.o
    0x20000e60        -       0x00000030   Zero   RW          805    .bss                bsp_timer.o
    0x20000e90        -       0x000000cc   Zero   RW          947    .bss                bsp_sdio_sd.o
    0x20000f5c        -       0x00000400   Zero   RW         1194    .bss                bsp_oled.o
    0x2000135c        -       0x0000101c   Zero   RW         1332    .bss                bsp_spi_flash.o
    0x20002378        -       0x0000000c   Zero   RW         1433    .bss                bsp_beep.o
    0x20002384        -       0x00000c78   Zero   RW         1551    .bss                bsp_protocol.o
    0x20002ffc        -       0x00001400   Zero   RW         1873    .bss                demo_sdio_fatfs.o
    0x200043fc        -       0x00000490   Zero   RW         2069    .bss                iap.o
    0x2000488c        -       0x00000400   Zero   RW         2126    .bss                bsp_swd_flash.o
    0x20004c8c        -       0x00000024   Zero   RW         7081    .bss                ff.o
    0x20004cb0        -       0x000005f4   Zero   RW         7689    .bss                usbd_usr.o
    0x200052a4        -       0x00000040   Zero   RW         7932    .bss                usbd_req.o
    0x200052e4        -       0x00001030   Zero   RW         8031    .bss                usbd_msc_bot.o
    0x20006314        -       0x00000020   Zero   RW         8216    .bss                usbd_msc_scsi.o
    0x20006334   COMPRESSED   0x00000004   PAD
    0x20006338        -       0x00004000   Zero   RW         7025    STACK               startup_stm32f401xx.o


==============================================================================

Image component sizes


      Code (inc. data)   RO Data    RW Data    ZI Data      Debug   Object Name

         0          0       1524          0          0        480   asc12.o
         0          0       4096          0          0        480   asc16.o
         0          0        492          0          0        480   asc24.o
         0          0        652          0          0        480   asc32.o
       122         14          0          0          0      35648   bsp.o
       338         28          0          0         12       2495   bsp_beep.o
        80         10          0          0          0       1539   bsp_key.o
       112         16          0          0          0       1091   bsp_led.o
      1432         90          0          1       1024       7954   bsp_oled.o
       272         62          0          6       3192       3185   bsp_protocol.o
      5490        360          0         24        204      34563   bsp_sdio_sd.o
       812        134          0          0       4124       5791   bsp_spi_flash.o
      3258        450          0          0          0      23229   bsp_swd.o
      1016        422        384          8       1024       5112   bsp_swd_flash.o
      1316        182          0          0          0       6032   bsp_tim_pwm.o
       866        152         48         29         48      34263   bsp_timer.o
       836         70          0          0       3188       6995   bsp_uart_fifo.o
       304        138          0          0       5120       1507   demo_sdio_fatfs.o
       350          4          0          0          0      11882   diskio.o
      5812         70          0          6         36      34817   ff.o
         0          0       1536          0          0        541   hz12.o
         0          0        138          0          0        541   hz16.o
         0          0         76          0          0        541   hz24.o
         0          0        132          0          0        541   hz32.o
       590        234          0         20       1168       1980   iap.o
       648        358          0         43          0       2087   main.o
       140         24          0          0          0       1795   misc.o
        36          8        404          0      16384        960   startup_stm32f401xx.o
         0          0          0          0          0     291456   stm32f4xx_assert.o
       586         40          0          0          0       5528   stm32f4xx_dma.o
       250          0          0          0          0       4691   stm32f4xx_gpio.o
       108         48          0          0          0       3968   stm32f4xx_it.o
       392         48          0         16          0       6441   stm32f4xx_rcc.o
       370         80          0          0          0      11910   stm32f4xx_sdio.o
       112          0          0          0          0       3982   stm32f4xx_spi.o
       924         66          0          0          0      11434   stm32f4xx_tim.o
